S011000070726F6A6563745F312E737265638C
S11300000C942A000C943F000C943F000C943F0085
S11300100C943F000C943F000C943F000C943F0060
S11300200C943F000C943F000C943F000C943F0050
S11300300C943F000C943F000C943F000C943F0040
S11300400C943F000C943F000C943F000C943F0030
S11300500C943F0011241FBECFE5D8E0DEBFCDBF16
S113006011E0A0E6B0E0E0E4FDE002C005900D92EE
S1130070A231B107D9F70E9456040C949E060C9441
S113008000000E948D0608950E94020608950F93B1
S11300901F93CF93DF9361157105F9F08B01D82F6E
S11300A0C92FC0650E940E068C2F0E9431068D2F29
S11300B00E945B06C0E007C0F801EC0FF11D8081CF
S11300C00E945B06CF5FC830B8F30E942A068FE116
S11300D09EE40197F1F700C00000DF91CF911F91DA
S11300E00F910895EF92FF920F931F93CF93DF9395
S11300F04115510581F1611522E0720760F58A010D
S11301007B01D82FC92FC0650E940E068C2F0E9438
S113011031068D2F0E945B060E941C068C2F0E94C4
S11301204606C0E0D0E006C0C8018C0F9D1F0E94A7
S113013067062196C7010197C817D907A8F3800F4E
S1130140911F0E947D060E942A068FE19EE401977A
S1130150F1F700C00000DF91CF911F910F91FF9044
S1130160EF90089540E063E082E00E94980440E04C
S113017064E082E00E94980440E065E082E00E942E
S1130180980440E066E082E00E94980441E064E064
S113019081E00E94980441E065E081E00E949804B7
S11301A041E066E081E00E94980441E067E081E07C
S11301B00E94980463E082E00E94CA0564E082E041
S11301C00E94CA0565E082E00E94CA0566E082E0FA
S11301D00E94CA0508956F927F928F929F92AF9268
S11301E0BF92CF92DF92EF92FF920F931F93CF9320
S11301F0DF93CDB7DEB7A1970FB6F894DEBF0FBE7D
S1130200CDBF009709F480C05C018FEFF5018083B6
S113021081E08D8F8E8F8F8F88A334E0398F25E016
S11302202A8F96E09B8F87E08C8F82E08D8B8E8B5C
S11302308F8B888F83E0898B3A8B2B8B9C8B80E10F
S1130240E0E6F0E0DE01119601900D928A95E1F767
S1130250812C56C0C82CD12CE9E1F0E0EC0FFD1F35
S1130260EC0DFD1D6080EDE1F0E0EC0FFD1FEC0DE9
S1130270FD1D708040E0662D872D0E940F0510E063
S113028037C0E12EF12CE1E1F0E0EC0FFD1FEE0DA3
S1130290FF1D0081E5E1F0E0EC0FFD1FEE0DFF1DF9
S11302A09080AE014F5D5F4F602F892D0E948F05B6
S11302B089A181111CC007C0AE014F5D5F4F602F43
S11302C0892D0E948F0589A18823B1F3EE0CFF1CB0
S11302D0EE0CFF1C81E090E08C0F9D1FE80EF91ED0
S11302E0F701EC0DFD1D8081F50180830DC01F5FBA
S11302F0143038F241E0662D872D0E940F05839457
S1130300F3E0F81508F0A6CFA1960FB6F894DEBF77
S11303100FBECDBFDF91CF911F910F91FF90EF9052
S1130320DF90CF90BF90AF909F908F907F906F9011
S11303300895CF93C82F80FF06C041E064E080E0B9
S11303400E940F0505C040E064E080E00E940F05B4
S1130350C1FF06C041E065E080E00E940F0505C0D2
S113036040E065E080E00E940F05C2FF06C041E066
S113037066E080E00E940F0505C040E066E080E092
S11303800E940F05C3FF06C041E067E080E00E94C1
S11303900F0505C040E067E080E00E940F05CF91A3
S11303A00895CF93C82F40E061E081E00E940F05DB
S11303B040E062E081E00E940F058C2F82958F70EF
S11303C00E94990141E063E081E00E940F058FE9FA
S11303D09FE00197F1F700C0000040E063E081E096
S11303E00E940F058C2F0E94990141E063E081E097
S11303F00E940F058FE99FE00197F1F700C000000C
S113040040E063E081E00E940F05CF91089541E050
S113041061E081E00E94980441E062E081E00E9492
S1130420980441E063E081E00E94980441E064E0C4
S113043080E00E94980441E065E080E00E94980416
S113044041E066E080E00E94980441E067E080E0DB
S11304500E9498042FE785EB91E021508040904062
S1130460E1F700C0000040E061E081E00E940F0578
S113047040E062E081E00E940F0582E00E94990161
S113048041E063E081E00E940F058FE99FE001975E
S1130490F1F700C0000040E063E081E00E940F0536
S11304A088E20E94D10190EF9A95F1F78FE00E94C3
S11304B0D10120EF2A95F1F781E00E94D1018FE369
S11304C09FE10197F1F700C0000086E00E94D1018E
S11304D00895CF93C82F41E061E081E00E940F05A9
S11304E040E062E081E00E940F058C2F82958F70BE
S11304F00E94990141E063E081E00E940F058FE9C9
S11305009FE00197F1F700C0000040E063E081E064
S11305100E940F058C2F0E94990141E063E081E065
S11305200E940F058FE99FE00197F1F700C00000DA
S113053040E063E081E00E940F05CF9108950F939E
S11305401F93CF93009771F415C00E9469022FEF97
S113055080E792E0215080409040E1F700C0000025
S1130560CF5F02C08C01C0E0F801EC0FF11D808167
S11305708111EBCFCF911F910F91089581E00E94DB
S1130580D1010895CF93DF936832A0F4C62FD82FFA
S113059082E00E94D101D13019F0D23031F00AC08A
S11305A08C2F80680E94D10105C080E48C0F806884
S11305B00E94D101DF91CF9108950E9444000E94CE
S11305C007020E94B2000E94410041E061E083E022
S11305D00E94980440E060E083E00E94980408953B
S11305E0CF92DF92EF92FF921F93CF93DF93009706
S11305F009F45FC06115710509F45BC07B016C01EE
S11306000E94BE0260E081E00E94C20282E890E0A3
S11306100E949F0260E082E00E94C20284E990E0AE
S11306200E949F022FEF83ED90E321508040904081
S1130630E1F700C000000E94BE0260E081E00E9479
S1130640C20282EA90E00E949F0210E011C0E6011B
S1130650C10FD11DCE010E94EB0098819F3FB9F3D9
S1130660612F82E00E94C20288810E9469021F5F9A
S1130670183068F30E94BE0260E081E00E94C2026A
S11306808DEA90E00E949F0210E011C0E701C10FC3
S1130690D11DCE010E94EB0088818F3FB9F3612FF9
S11306A082E00E94C20288810E9469021F5F1830A2
S11306B068F3DF91CF911F91FF90EF90DF90CF907F
S11306C00895AF92BF92DF92EF92FF920F931F9320
S11306D0CF93DF93CDB7DEB7A0970FB6F894DEBF04
S11306E00FBECDBF672B09F4D1C0813009F0CEC055
S11306F0C7C0BE016F5E7F4FCE0149960E94F002D3
S1130700F12C00E010E052C0A12EAA0CAA0CAA0CF5
S1130710AA0CB12CAE01475F5F4F68E070E0C501E1
S11307200E947200AE014F5F5F4F68E070E0C50148
S113073008960E94720040E020E014C0822F90E0EE
S1130740E9E1F0E0EC0FFD1FE80FF91F3081E9E06B
S1130750F0E0EC0FFD1FE80FF91F8081381301C092
S11307604F5F2F5F283050F34830F1F415C0822FCB
S113077090E0E1E1F0E0EC0FFD1FE80FF91F30819C
S1130780E1E0F0E0EC0FFD1FE80FF91F8081381362
S113079001C04F5F2F5F02C040E020E0283038F3F3
S11307A0483041F0F39401C00F5F1F5F103108F42B
S11307B0ABCF02C0DD24D39421E0D21214C00E9436
S11307C0BE0260E081E00E94C20287EB90E00E94DA
S11307D09F028FEF99E628E1815090402040E1F795
S11307E000C0000053C0003121F50E94BE0260E049
S11307F081E00E94C20287EC90E00E949F0260E0C8
S113080082E00E94C20285ED90E00E949F028FEF79
S113081093ED20E3815090402040E1F700C00000B8
S113082060E082E00E94C20285EE90E00E949F0296
S113083025C0FF2019F10E94BE0260E081E00E9401
S1130840C20287EC90E00E949F0260E082E00E9476
S1130850C20286EF90E00E949F028FEF93ED20E3A7
S1130860815090402040E1F700C0000060E082E049
S11308700E94C20285EE90E00E949F02E39402C0AF
S1130880D12CE12C82E08E1508F033CFA0960FB660
S1130890F894DEBF0FBECDBFDF91CF911F910F91B2
S11308A0FF90EF90DF90BF90AF900895CF93DF93C8
S11308B0CDB7DEB761970FB6F894DEBF0FBECDBFDC
S11308C00E94DD0285E091E00E949F022FEF89E6FD
S11308D098E1215080409040E1F700C000000E9460
S11308E0BE0288E0E0E7F0E0DE01119601900D928F
S11308F08A95E1F788E0E9E7F0E0DE0119960190D6
S11309000D928A95E1F7BE016F5F7F4F80E190E021
S11309100E944700BE01675F7F4F88E190E00E941C
S11309204700BE016F5E7F4F81E00E946103FFCFED
S1130930813019F130F08230E1F1833009F454C090
S11309400895442371F0413009F068C02AB381E06E
S113095090E002C0880F991F6A95E2F7822B8ABB48
S113096008952AB381E090E002C0880F991F6A9528
S1130970E2F7809582238ABB0895442371F04130C5
S113098009F04CC027B381E090E002C0880F991FA2
S11309906A95E2F7822B87BB089527B381E090E044
S11309A002C0880F991F6A95E2F78095822387BB5E
S11309B00895442369F0413089F524B381E090E03F
S11309C002C0880F991F6A95E2F7822B84BB0895B1
S11309D024B381E090E002C0880F991F6A95E2F782
S11309E08095822384BB0895442369F04130B1F497
S11309F021B381E090E002C0880F991F6A95E2F765
S1130A00822B81BB089521B381E090E002C0880F5E
S1130A10991F6A95E2F78095822381BB08958430FB
S1130A2008F07CC0683008F079C0433008F076C024
S1130A30813019F130F08230E1F1833009F454C08F
S1130A400895442371F0413009F068C02BB381E06C
S1130A5090E002C0880F991F6A95E2F7822B8BBB46
S1130A6008952BB381E090E002C0880F991F6A9526
S1130A70E2F7809582238BBB0895442371F04130C3
S1130A8009F04CC028B381E090E002C0880F991FA0
S1130A906A95E2F7822B88BB089528B381E090E041
S1130AA002C0880F991F6A95E2F78095822388BB5C
S1130AB00895442369F0413089F525B381E090E03D
S1130AC002C0880F991F6A95E2F7822B85BB0895AF
S1130AD025B381E090E002C0880F991F6A95E2F780
S1130AE08095822385BB0895442369F04130B1F495
S1130AF022B381E090E002C0880F991F6A95E2F763
S1130B00822B82BB089522B381E090E002C0880F5B
S1130B10991F6A95E2F78095822382BB08958430F9
S1130B20C0F56830B0F54115510599F1813089F06F
S1130B3028F08230C9F0833011F1089589B390E030
S1130B4002C0959587956A95E2F78170FA018083D2
S1130B50089586B390E002C0959587956A95E2F76B
S1130B608170FA018083089583B390E002C0959563
S1130B7087956A95E2F78170FA018083089580B3BE
S1130B8090E002C0959587956A95E2F78170FA0125
S1130B90808308958430A8F5683098F5813089F011
S1130BA028F08230C9F0833011F108952BB381E02D
S1130BB090E002C0880F991F6A95E2F7822B8BBBE5
S1130BC0089528B381E090E002C0880F991F6A95C8
S1130BD0E2F7822B88BB089525B381E090E002C040
S1130BE0880F991F6A95E2F7822B85BB089522B37B
S1130BF081E090E002C0880F991F6A95E2F7822B8A
S1130C0082BB08958CE080B981B18D7F81B981B1B7
S1130C108E7F81B986B7846086BF089586B7806267
S1130C2086BF86B7806886BF06B607FEFDCF81B152
S1130C30887F8830E1F7089586B7806286BF86B7DB
S1130C40806886BF06B607FEFDCF81B1887F8031FC
S1130C50E1F7089586B7806186BF86B7806886BF4E
S1130C600895882394F0880F83B983B18E7F83B964
S1130C7086B78F7D86BF86B7806886BF06B607FEB7
S1130C80FDCF81B1887F8831E1F70895882394F0FE
S1130C90880F83B983B1816083B986B78F7D86BF9E
S1130CA086B7806886BF06B607FEFDCF81B1887F10
S1130CB08034E1F7089583B986B7806886BF06B6A5
S1130CC007FEFDCF81B1887F8832E1F70895FC01EA
S1130CD0892B91F096B7906496BF96B7906896BFAB
S1130CE006B607FEFDCF91B1987F9035E1F783B149
S1130CF0808386B78F7B86BF0895FC01892B61F0C2
S1130D0096B7906896BF06B607FEFDCF91B1987F5F
S1130D109835E1F783B1808308958BB18D7F8BB9CA
S1130D2087E689B98AB18B7F8AB986E880BD8AB1A2
S1130D3080618AB98AB188608AB90895F894FFCF2E
S1130D403132334134353642373839432A3023443B
S1130D5031313131313131310032323232323232A9
S1130D603200506C6561736520456E746572205560
S1130D70736572004E616D652650617373776F728F
S1130D80640055736572204E616D653A005041539D
S1130D9053574F52443A004143434553532050451F
S1130DA0524D49544544004143434553532044451F
S1130DB04E4945440057726F6E6720557365722023
S1130DC04E616D6500506C656173652054727920C5
S1130DD0416761696E0057726F6E6720506173736B
S1130DE0776F72640057656C636F6D6520486F6D33
S1050DF0650098
S9030000FC
