S0120000536D6172745F486F6D652E7372656323
S11300000C942A000C9447000C9447000C9447006D
S11300100C9447000C9447000C9447000C94470040
S11300200C9447000C9447000C942B070C94F00696
S11300300C9447000C9447000C9447000C94470020
S11300400C9447000C9447000C9447000C94470010
S11300500C94470011241FBECFE5D8E0DEBFCDBF0E
S113006011E0A0E6B0E0ECECFEE002C005900D92D9
S1130070AE3EB107D9F721E0AEEEB1E001C01D926A
S1130080A73FB207E1F70E940F050C9464070C9494
S1130090000041E064E081E00E944C0541E065E03D
S11300A081E00E944C0541E066E081E00E944C053D
S11300B040E063E082E00E944C0540E064E082E0BE
S11300C00E944C0540E065E082E00E944C0540E05F
S11300D066E082E00E944C0563E082E00E948706AD
S11300E064E082E00E94870665E082E00E94870661
S11300F066E082E00E94870608956F927F928F9255
S11301009F92AF92BF92CF92DF92EF92FF920F93A2
S11301101F93CF93DF93CDB7DEB76B970FB6F894E9
S1130120DEBF0FBECDBF009709F47EC05C0181E045
S1130130888F898F8A8F34E03D8B25E02E8B96E063
S11301409F8B82E0898B8A8B8B8B8C8B83E08D8752
S11301503E872F87988B8CE0E3E6F0E0DE01119672
S113016001900D928A95E1F78FEFF5018083812C40
S113017057C0C82CD12CE5E1F0E0EC0FFD1FEC0DCD
S1130180FD1D6080E8E1F0E0EC0FFD1FEC0DFD1DAE
S1130190708040E0662D872D0E94CC0510E038C0A9
S11301A0E12EF12CEDE0F0E0EC0FFD1FEE0DFF1D54
S11301B00081E1E1F0E0EC0FFD1FEE0DFF1D9080EA
S11301C0AE01455E5F4F602F892D0E944C068B8DDA
S11301D081111DC007C0AE01455E5F4F602F892DA0
S11301E00E944C068B8D8823B1F3C701880F991F99
S11301F0E80EF91E81E090E08C0F9D1FE80EF91EB9
S1130200F701EC0DFD1D8081F50180830DC01F5F9A
S1130210143030F241E0662D872D0E94CC05839482
S1130220F2E0F81508F0A5CF6B960FB6F894DEBF90
S11302300FBECDBFDF91CF911F910F91FF90EF9033
S1130240DF90CF90BF90AF909F908F907F906F90F2
S11302500895CF93C82F80FF06C041E064E080E09A
S11302600E94CC0505C040E064E080E00E94CC051B
S1130270C1FF06C041E065E080E00E94CC0505C0F6
S113028040E065E080E00E94CC05C2FF06C041E08A
S113029066E080E00E94CC0505C040E066E080E0B6
S11302A00E94CC05C3FF06C041E067E080E00E94E5
S11302B0CC0505C040E067E080E00E94CC05CF910A
S11302C00895CF93C82F40E061E081E00E94CC05FF
S11302D040E062E081E00E94CC058C2F82958F7013
S11302E00E94290141E063E081E00E94CC058FE98E
S11302F09FE00197F1F700C0000040E063E081E077
S11303000E94CC058C2F0E94290141E063E081E02A
S11303100E94CC058FE99FE00197F1F700C000002F
S113032040E063E081E00E94CC05CF91089541E074
S113033061E081E00E944C0541E062E081E00E94BE
S11303404C0541E063E081E00E944C0541E064E03B
S113035080E00E944C0541E065E080E00E944C058D
S113036041E066E080E00E944C0541E067E080E007
S11303700E944C052FE785EB91E02150804090408E
S1130380E1F700C0000040E061E081E00E94CC059C
S113039040E062E081E00E94CC0582E00E942901F5
S11303A041E063E081E00E94CC058FE99FE0019782
S11303B0F1F700C0000040E063E081E00E94CC055A
S11303C088E20E94610190EF9A95F1F78FE00E9414
S11303D0610120EF2A95F1F781E00E9461018FE32A
S11303E09FE10197F1F700C0000086E00E946101DF
S11303F00895CF93C82F41E061E081E00E94CC05CD
S113040040E062E081E00E94CC058C2F82958F70E1
S11304100E94290141E063E081E00E94CC058FE95C
S11304209FE00197F1F700C0000040E063E081E045
S11304300E94CC058C2F0E94290141E063E081E0F9
S11304400E94CC058FE99FE00197F1F700C00000FE
S113045040E063E081E00E94CC05CF9108950F93C2
S11304601F93CF93009729F40CC00E94F901CF5F2A
S113047002C08C01C0E0F801EC0FF11D80818111F4
S1130480F4CFCF911F910F9108950F931F93CF93A2
S1130490009771F415C00E94F901CF5F2FEF80E738
S11304A092E0215080409040E1F700C0000002C07B
S11304B08C01C0E0F801EC0FF11D80818111EBCFBC
S11304C0CF911F910F91089540E061E081E00E9477
S11304D0CC0540E062E081E00E94CC0580E00E940F
S11304E0290141E063E081E00E94CC058FE99FE0AF
S11304F00197F1F700C0000040E063E081E00E9452
S1130500CC0581E00E94290141E063E081E00E9482
S1130510CC058FE99FE00197F1F700C0000040E0AF
S113052063E081E00E94CC05089541E00E944C05FF
S11305300895413019F0423029F0089541E00E94B5
S1130540CC05089540E00E94CC050895413019F08F
S1130550423029F0089540E00E94CC05089541E01E
S11305600E94CC0508958FE690E00E94450280EC3D
S11305700E94610180E890E00E9445022FEF83ED24
S113058090E3215080409040E1F700C000000895BE
S11305908FEF8093620080936100809360000895E0
S11305A08FE295E00E94E9060E94D50604C082E627
S11305B090E00E947D00809162008F3FC1F30E9411
S11305C0DF0680916200813319F0823379F0E8CF3D
S11305D00E9464028EE890E00E94450280EC0E9432
S11305E061018BE990E00E944502DACF0E94640227
S11305F08AEA90E00E94450280EC0E9461018AEB45
S113060090E00E9445028FE295E00E94E9060E9474
S1130610D50604C081E690E00E947D0080916100CF
S11306208F3FC1F30E94DF0680916100813309F09E
S11306304EC04EEE51E060E080E00E944C060E9405
S113064064028091EE01813001F587EC90E00E9414
S1130650450280EC0E94610185ED90E00E94450214
S113066004C080E690E00E947D00809160008F3F8E
S1130670C1F3813329F441E060E080E00E94A602E6
S11306800E94C8020E940005B5C18111B3C186EE63
S113069090E00E94450280EC0E94610185EF90E0A9
S11306A00E94450204C080E690E00E947D00809193
S11306B060008F3FC1F3813329F441E060E080E0C2
S11306C00E9499020E94C8020E94000593C18233CD
S11306D009F050C04EEE51E061E080E00E944C060B
S11306E00E9464028091EE01813009F585E091E079
S11306F00E94450280EC0E94610185ED90E00E9419
S1130700450204C080E690E00E947D008091600074
S11307108F3FC1F3813329F441E061E080E00E941E
S1130720A6028FEF809360000E94000563C18111CF
S113073061C183E191E00E94450280EC0E94610165
S113074085EF90E00E94450204C080E690E00E949C
S11307507D00809160008F3FC1F3813329F441E033
S113076061E080E00E9499028FEF809360000E9414
S1130770000540C1833309F050C04EEE51E062E001
S113078080E00E944C060E9464028091EE01813058
S113079009F582E291E00E94450280EC0E94610129
S11307A085ED90E00E94450204C080E690E00E943E
S11307B07D00809160008F3FC1F3813329F441E0D3
S11307C062E080E00E94A6028FEF809360000E94A6
S11307D0000510C181110EC180E391E00E94450221
S11307E080EC0E94610185EF90E00E94450204C004
S11307F080E690E00E947D00809160008F3FC1F30D
S1130800813329F441E062E080E00E9499028FEF95
S1130810809360000E940005EDC0843309F050C04D
S11308204EEE51E063E080E00E944C060E946402B8
S11308308091EE01813009F58FE391E00E94450239
S113084080EC0E94610185ED90E00E94450204C0A5
S113085080E690E00E947D00809160008F3FC1F3AC
S1130860813329F441E063E080E00E94A6028FEF27
S1130870809360000E940005BDC08111BBC08DE45F
S113088091E00E94450280EC0E94610185EF90E0B6
S11308900E94450204C080E690E00E947D008091A1
S11308A060008F3FC1F3813329F441E063E080E0CD
S11308B00E9499028FEF809360000E9400059AC005
S11308C0853309F050C04EEE51E062E083E00E94AF
S11308D04C060E9464028091EE01813009F58CE59A
S11308E091E00E94450280EC0E94610185ED90E058
S11308F00E94450204C080E690E00E947D00809141
S113090060008F3FC1F3813329F441E062E083E06A
S11309100E94A6028FEF809360000E9400056AC0C7
S1130920811168C08AE691E00E94450280EC0E9431
S1130930610185EF90E00E94450204C080E690E0EA
S11309400E947D00809160008F3FC1F3813329F4C0
S113095041E062E083E00E9499028FEF809360009F
S11309600E94000547C0863301F50E94640280910D
S1130970EE01813061F489E791E00E94450280EC48
S11309800E94610185ED90E00E94450233C081110F
S113099031C087E891E00E94450280EC0E94610129
S11309A085EF90E00E94450225C00E94640286E91A
S11309B091E00E9445022FEF83ED90E321508040A7
S11309C09040E1F700C000000E94640286EA91E0D2
S11309D00E94450280EC0E94610187EB91E00E9435
S11309E045022FEF83ED90E3215080409040E1F7E2
S11309F000C000008FEF8093610080936200D0CD2F
S1130A000E94640285EC91E00E942F0280EC0E9417
S1130A10610182ED91E00E942F020E94D0020E94A7
S1130A20BF060E94C30660E080E00E94950261E078
S1130A3080E00E94950262E080E00E94950263E0FB
S1130A4080E00E94950262E083E00E9495020E9489
S1130A5097010E9449000E94B3020E940005CF93AF
S1130A60DF931F92CDB7DEB78FEF89830E946402B4
S1130A7080EA90E00E94450280EC0E94610180EED1
S1130A8091E00E944502CE0101960E947D00898179
S1130A908033C9F70E940005843008F07CC06830B8
S1130AA008F079C0423008F076C0813019F130F096
S1130AB08230E1F1833009F454C00895442371F085
S1130AC0413009F068C02AB381E090E002C0880F89
S1130AD0991F6A95E2F7822B8ABB08952AB381E0B5
S1130AE090E002C0880F991F6A95E2F780958223EF
S1130AF08ABB0895442371F0413009F04CC027B3F8
S1130B0081E090E002C0880F991F6A95E2F7822B7A
S1130B1087BB089527B381E090E002C0880F991F36
S1130B206A95E2F78095822387BB0895442369F090
S1130B30413089F524B381E090E002C0880F991F09
S1130B406A95E2F7822B84BB089524B381E090E098
S1130B5002C0880F991F6A95E2F78095822384BBAF
S1130B600895442369F04130B1F421B381E090E069
S1130B7002C0880F991F6A95E2F7822B81BB089502
S1130B8021B381E090E002C0880F991F6A95E2F7D3
S1130B908095822381BB0895843008F07CC068303E
S1130BA008F079C0423008F076C0813019F130F095
S1130BB08230E1F1833009F454C00895442371F084
S1130BC0413009F068C02BB381E090E002C0880F87
S1130BD0991F6A95E2F7822B8BBB08952BB381E0B2
S1130BE090E002C0880F991F6A95E2F780958223EE
S1130BF08BBB0895442371F0413009F04CC028B3F5
S1130C0081E090E002C0880F991F6A95E2F7822B79
S1130C1088BB089528B381E090E002C0880F991F33
S1130C206A95E2F78095822388BB0895442369F08E
S1130C30413089F525B381E090E002C0880F991F07
S1130C406A95E2F7822B85BB089525B381E090E095
S1130C5002C0880F991F6A95E2F78095822385BBAD
S1130C600895442369F04130B1F422B381E090E067
S1130C7002C0880F991F6A95E2F7822B82BB089500
S1130C8022B381E090E002C0880F991F6A95E2F7D1
S1130C908095822382BB08958430C0F56830B0F516
S1130CA04115510599F1813089F028F08230C9F05D
S1130CB0833011F1089589B390E002C0959587952A
S1130CC06A95E2F78170FA018083089586B390E013
S1130CD002C0959587956A95E2F78170FA01808341
S1130CE0089583B390E002C0959587956A95E2F7DD
S1130CF08170FA018083089580B390E002C09595D5
S1130D0087956A95E2F78170FA01808308958430AB
S1130D10A8F5683098F5813089F028F08230C9F060
S1130D20833011F108952BB381E090E002C0880F65
S1130D30991F6A95E2F7822B8BBB089528B381E053
S1130D4090E002C0880F991F6A95E2F7822B88BB56
S1130D50089525B381E090E002C0880F991F6A9539
S1130D60E2F7822B85BB089522B381E090E002C0B4
S1130D70880F991F6A95E2F7822B82BB08958FB77B
S1130D8080688FBF089583B78F7B83BF83B78860E4
S1130D9083BF83B78F7E83BF83B78F7D83BF89B7BC
S1130DA0826089BF89EF8CBF089583B7816083BF58
S1130DB083B7826083BF83B78B7F83BF089583B774
S1130DC08E7F83BF83B78D7F83BF83B78B7F83BFC2
S1130DD00895009721F09093F4018093F30108950E
S1130DE01F920F920FB60F9211242F933F934F939C
S1130DF05F936F937F938F939F93AF93BF93EF937F
S1130E00FF938091F1019091F20101969093F20188
S1130E108093F101883E934069F481E782BF109288
S1130E20F2011092F101E091F501F091F601309791
S1130E3009F00995FF91EF91BF91AF919F918F9127
S1130E407F916F915F914F913F912F910F900FBEC2
S1130E500F901F9018951F920F920FB60F921124A6
S1130E602F933F934F935F936F937F938F939F93AE
S1130E70AF93BF93EF93FF938091EF019091F001B3
S1130E8001969093F0018093EF018838934159F4CF
S1130E901092F0011092EF01E091F301F091F4014E
S1130EA0309709F00995FF91EF91BF91AF919F9110
S1130EB08F917F916F915F914F913F912F910F90FF
S10F0EC00FBE0F901F901895F894FFCF00
S1130ECCFFFFFF3132333435363738392A3023209B
S1130EDC57656C636F6D6520746F20796F75720044
S1130EEC202020536D61727420486F6D650041435E
S1130EFC204973204F6E2F6F666600526F6F6D2002
S1130F0C54656D703A203330630043686F6F7365BA
S1130F1C206C6967687420746F00636F6E74726FF1
S1130F2C6C28312D3629004C69676874203120698E
S1130F3C73204F6E00312D546F205475726E2049FE
S1130F4C74204F6666004C6967687420312069739D
S1130F5C204F464600312D546F205475726E204933
S1130F6C74204F6E004C69676874203220697320BA
S1130F7C4F6E004C696768742032206973204F46A9
S1130F8C46004C696768742033206973204F6E00E7
S1130F9C4C696768742033206973204F4646004CB3
S1130FAC696768742034206973204F6E004C69673C
S1130FBC68742034206973204F4646004C69676876
S1130FCC742035206973204F6E004C696768742057
S1130FDC35206973204F4646004C69676874203687
S1130FEC206973204F6E004C696768742036206941
S1130FFC73204F4646002020496E76616C6964204C
S113100C496E707574002020706C65617365206383
S113101C686F6F73652000202066726F6D2031201D
S113102C746F203600312D414320322D6C69676872
S113103C7400332D74656D7065726174757265001E
S111104C302D676F20746F20686F6D65000093
S9030000FC
