S0120000536D6172745F486F6D652E7372656323
S11300000C942A000C9447000C9447000C9447006D
S11300100C9447000C9447000C9447000C94470040
S11300200C9447000C9447000C94CA080C948F0855
S11300300C9447000C9447000C9447000C94470020
S11300400C9447000C9447000C9447000C94470010
S11300500C94470011241FBECFE5D8E0DEBFCDBF0E
S113006012E0A0E6B0E0E8EFF2E102C005900D92E4
S1130070A03CB107D9F722E0A0ECB2E001C01D9288
S1130080A73CB207E1F70E947E060C947A090C940F
S11300900000CF93DF931F92CDB7DEB719820E9481
S11300A0140680E80E94BE048CE890E00E948C054F
S11300B0BE016F5F7F4F80E00E94C5066BE081E068
S11300C00E9445062FEF81EE94E02150804090403D
S11300D0E1F700C00000698170E080E090E00E94D8
S11300E0C1052FEF83EC99E0215080409040E1F767
S11300F000C0000080EC0E94BE048BE990E00E94E6
S1130100A20526C081E690E00E94DA03BE016F5F7B
S11301107F4F80E00E94C5066BE081E00E944506A7
S11301202FEF81EE94E0215080409040E1F700C031
S11301300000698170E080E090E00E94C1052FEF2B
S113014081EE94E0215080409040E1F700C000002F
S1130150809161008F3FB1F2803311F40E94140644
S11301600E9488080E9414060F90DF91CF91089591
S11301700E9478030E94F4040E94A6030E9475035F
S113018041E061E083E00E94E00640E060E083E05B
S11301900E94E0060E9453080E94570863E083E02F
S11301A00E94600661E080E00E94600662E080E0F8
S11301B00E94600663E080E00E94600662E083E0E3
S11301C00E946006089580E791E00E94A20580ECF9
S11301D00E94BE0481E891E00E94A2052FEF83ED06
S11301E090E3215080409040E1F700C00000089562
S11301F0CF93DF93CDB7DEB7A0970FB6F894DEBFE9
S11302000FBECDBF0E94B80083E00E9495060E94F5
S1130210E3000E94140688E0E5E6F0E0DE011196B2
S113022001900D928A95E1F788E0EEE6F0E0DE01B8
S1130230199601900D928A95E1F788E0E7E7F0E0DE
S1130240DE01519601900D928A95E1F788E0E7E787
S1130250F0E0DE01599601900D928A95E1F7BE0116
S11302606F5F7F4F80E391E00E947B03BE01675F75
S11302707F4F88E391E00E947B03BE016F5E7F4F56
S113028080EF90E00E947B03BE01675E7F4F88EFA2
S113029090E00E947B03A0960FB6F894DEBF0FBED9
S11302A0CDBFDF91CF9108958FEF80936400809349
S11302B063008093620008950E94540189E490E0F1
S11302C00E9481080E9469080E9414068FE891E048
S11302D00E948C0580EC0E94BE048CE991E00E948F
S11302E08C050E9454010CC080916100803321F47C
S11302F08FEF8093610008C084E690E00E94DA03E7
S1130300809164008F3F81F30E947708809164009C
S1130310813319F0823379F008950E9414068AEA31
S113032091E00E94A20580EC0E94BE0487EB91E05C
S11303300E94A20508950E94140686EC91E00E9492
S1130340A20580EC0E94BE0486ED91E00E94A20505
S113035089E490E00E9481080E9469080CC083E649
S113036090E00E94DA0380916100803321F48FEFE2
S11303708093610004C0809163008F3F81F30E94E9
S1130380770880916300833309F4A6C030F4813385
S113039069F0823309F454C0A2C1853309F434C12D
S11303A008F4E6C0863309F47BC199C140EC52E0FD
S11303B063E083E00E94E0070E9414068091C0027B
S11303C08130F1F483EE91E00E94A20580EC0E945A
S11303D0BE0481EF91E00E94A20504C082E690E091
S11303E00E94DA03809162008F3FC1F3813329F4C4
S11303F041E063E083E00E9471060E9454016FC1F2
S113040081116DC182E092E00E94A20580EC0E94FD
S1130410BE0481E192E00E94A20504C082E690E05D
S11304200E94DA03809162008F3FC1F3813329F483
S113043041E063E083E00E9464060E9454014FC1DE
S113044040EC52E061E080E00E94E0070E94140664
S11304508091C0028130F9F481E292E00E94A20509
S113046080EC0E94BE0481EF91E00E94A20504C0CA
S113047082E690E00E94DA03809162008F3FC1F32C
S1130480813329F441E061E080E00E9471068FEF3E
S11304908093620024C1811122C18FE292E00E9404
S11304A0A20580EC0E94BE0481E192E00E94A205B4
S11304B004C082E690E00E94DA03809162008F3FDC
S11304C0C1F3813329F441E061E080E00E946406D5
S11304D08FEF8093620003C140EC52E062E080E061
S11304E00E94E0070E9414068091C0028130F9F452
S11304F08EE392E00E94A20580EC0E94BE0481EF8C
S113050091E00E94A20504C082E690E00E94DA0312
S1130510809162008F3FC1F3813329F441E062E0AE
S113052080E00E9471068FEF80936200D8C0811131
S1130530D6C08CE492E00E94A20580EC0E94BE0426
S113054081E192E00E94A20504C082E690E00E944C
S1130550DA03809162008F3FC1F3813329F441E0D3
S113056062E080E00E9464068FEF80936200B7C06F
S113057040EC52E063E080E00E94E0070E94140631
S11305808091C0028130F9F48BE592E00E94A205CB
S113059080EC0E94BE0481EF91E00E94A20504C099
S11305A082E690E00E94DA03809162008F3FC1F3FB
S11305B0813329F441E063E080E00E9471068FEF0B
S11305C0809362008CC081118AC089E692E00E9407
S11305D0A20580EC0E94BE0481E192E00E94A20583
S11305E004C082E690E00E94DA03809162008F3FAB
S11305F0C1F3813329F441E063E080E00E946406A2
S11306008FEF809362006BC040EC52E062E083E0C5
S11306100E94E0070E9414068091C0028130F9F420
S113062088E792E00E94A20580EC0E94BE0481EF5C
S113063091E00E94A20504C082E690E00E94DA03E1
S1130640809162008F3FC1F3813329F441E062E07D
S113065083E00E9471068FEF8093620040C0811195
S11306603EC086E892E00E94A20580EC0E94BE048F
S113067081E192E00E94A20504C082E690E00E941B
S1130680DA03809162008F3FC1F3813329F441E0A2
S113069062E083E00E9464068FEF809362001FC0D3
S11306A00E9414068091C002813061F485E992E0D1
S11306B00E94A20580EC0E94BE0481EF91E00E949A
S11306C0A2050DC081110BC083EA92E00E94A2052D
S11306D080EC0E94BE0481E192E00E94A2058FEFAB
S11306E0809363008093640008950E9447090895ED
S11306F00E94050908950F931F93CF93DF9361150B
S11307007105F9F08B01D82FC92FC0650E9411091A
S11307108C2F0E9426098D2F0E943B09C0E007C040
S1130720F801EC0FF11D80810E943B09CF5FC830B6
S1130730B8F30E941F098FE19EE40197F1F700C00E
S11307400000DF91CF911F910F91089541E064E083
S113075081E00E94E00641E065E081E00E94E0065D
S113076041E066E081E00E94E00640E063E082E070
S11307700E94E00640E064E082E00E94E00640E07F
S113078065E082E00E94E00640E066E082E00E94CC
S1130790E00663E082E00E941B0864E082E00E94BD
S11307A01B0865E082E00E941B0866E082E00E946C
S11307B01B0808956F927F928F929F92AF92BF927F
S11307C0CF92DF92EF92FF920F931F93CF93DF9319
S11307D0CDB7DEB76B970FB6F894DEBF0FBECDBFB3
S11307E0009709F47EC05C0181E0888F898F8A8F2D
S11307F034E03D8B25E02E8B96E09F8B82E0898B45
S11308008A8B8B8B8C8B83E08D873E872F87988B8D
S11308108CE0E0E8F0E0DE01119601900D928A95FB
S1130820E1F78FEFF5018083812C57C0C82CD12CC0
S1130830E5E1F0E0EC0FFD1FEC0DFD1D6080E8E14B
S1130840F0E0EC0FFD1FEC0DFD1D708040E0662D07
S1130850872D0E94600710E038C0E12EF12CEDE0F6
S1130860F0E0EC0FFD1FEE0DFF1D0081E1E1F0E073
S1130870EC0FFD1FEE0DFF1D9080AE01455E5F4F36
S1130880602F892D0E94E0078B8D81111DC007C048
S1130890AE01455E5F4F602F892D0E94E0078B8D6E
S11308A08823B1F3C701880F991FE80EF91E81E070
S11308B090E08C0F9D1FE80EF91EF701EC0DFD1D55
S11308C08081F50180830DC01F5F143030F241E058
S11308D0662D872D0E9460078394F2E0F81508F0D6
S11308E0A5CF6B960FB6F894DEBF0FBECDBFDF91D8
S11308F0CF911F910F91FF90EF90DF90CF90BF9019
S1130900AF909F908F907F906F900895CF93C82F52
S113091080FF06C041E064E080E00E94600705C0FB
S113092040E064E080E00E946007C1FF06C041E04F
S113093065E080E00E94600705C040E065E080E07B
S11309400E946007C2FF06C041E066E080E00E94AA
S1130950600705C040E066E080E00E946007C3FFD6
S113096006C041E067E080E00E94600705C040E007
S113097067E080E00E946007CF910895CF93C82F6D
S113098040E061E081E00E94600740E062E081E0D5
S11309900E9460078C2F82958F700E94860441E02C
S11309A063E081E00E9460078FE99FE00197F1F71F
S11309B000C0000040E063E081E00E9460078C2FEB
S11309C00E94860441E063E081E00E9460078FE9B1
S11309D09FE00197F1F700C0000040E063E081E090
S11309E00E946007CF91089541E061E081E00E9498
S11309F0E00641E062E081E00E94E00641E063E05D
S1130A0081E00E94E00641E064E080E00E94E006AC
S1130A1041E065E080E00E94E00641E066E080E0BD
S1130A200E94E00641E067E080E00E94E0062FE7D4
S1130A3085EB91E0215080409040E1F700C0000038
S1130A4040E061E081E00E94600740E062E081E014
S1130A500E94600782E00E94860441E063E081E036
S1130A600E9460078FE99FE00197F1F700C0000042
S1130A7040E063E081E00E94600788E20E94BE04D7
S1130A8090EF9A95F1F78CE00E94BE0420EF2A952E
S1130A90F1F781E00E94BE048FE39FE10197F1F733
S1130AA000C0000086E00E94BE040895CF93C82FC2
S1130AB041E061E081E00E94600740E062E081E0A3
S1130AC00E9460078C2F82958F700E94860441E0FB
S1130AD063E081E00E9460078FE99FE00197F1F7EE
S1130AE000C0000040E063E081E00E9460078C2FBA
S1130AF00E94860441E063E081E00E9460078FE980
S1130B009FE00197F1F700C0000040E063E081E05E
S1130B100E946007CF9108950F931F93CF9300977E
S1130B2029F40CC00E945605CF5F02C08C01C0E0BE
S1130B30F801EC0FF11D80818111F4CFCF911F9149
S1130B400F9108950F931F93CF93009771F415C0DD
S1130B500E945605CF5F2FEF80E792E0215080403E
S1130B609040E1F700C0000002C08C01C0E0F80131
S1130B70EC0FF11D80818111EBCFCF911F910F916B
S1130B8008950F931F93CF93DF9300D000D01F924B
S1130B90CDB7DEB7262F10E008C01F5FEDEC6E9FC7
S1130BA0612D11246695669566956111F6CF00E076
S1130BB01AC0622F2AE030E040E050E00E94580959
S1130BC0732F842F952FA02FB0E01196E12FF0E022
S1130BD0EA1BFB0B41E050E04C0F5D1FE40FF51FD7
S1130BE0605D60830F5F011720F3E1E0F0E0EC0F3C
S1130BF0FD1FE10FF11D108210E003C00E94560595
S1130C001F5FE1E0F0E0EC0FFD1FE10FF11D8081BB
S1130C108111F4CF0F900F900F900F900F90DF91F0
S1130C20CF911F910F91089540E061E081E00E940F
S1130C30600740E062E081E00E94600780E00E947B
S1130C40860441E063E081E00E9460078FE99FE051
S1130C500197F1F700C0000040E063E081E00E94EA
S1130C60600781E00E94860441E063E081E00E9425
S1130C7060078FE99FE00197F1F700C0000040E0B2
S1130C8063E081E00E9460070895CF93DF936832A8
S1130C90A0F4C62FD82F82E00E94BE04D13019F0F0
S1130CA0D23031F00AC08C2F80680E94BE0405C087
S1130CB080E48C0F80680E94BE04DF91CF91089578
S1130CC041E00E94E0060895413019F0423029F0D5
S1130CD0089541E00E946007089540E00E94600783
S1130CE00895413019F0423029F0089540E00E94FF
S1130CF06007089541E00E946007089540E060E0C5
S1130D0080E00E94E0060E94F8008091600081303B
S1130D1019F40E945C01F9CF8111F7CF82EB92E0C4
S1130D200E948C0580E090E00895823059F0833071
S1130D3081F08130A1F487B1806487B987B18F775E
S1130D4087B90DC087B18F7B87B987B18F7787B992
S1130D5006C087B1806487B987B1806887B987B1D5
S1130D608F7D87B986B18F7D86B986B1877F86B935
S1130D7086B1846086B986B1826086B986B18160A5
S1130D8086B986B1806886B9089561157105B9F090
S1130D9097B1907E97B997B1892B87B986B1806452
S1130DA086B9349BFECF84B195B196958795969577
S1130DB08795FB019183808386B1806186B908950C
S1130DC0843008F07CC0683008F079C0423008F004
S1130DD076C0813019F130F08230E1F1833009F4CA
S1130DE054C00895442371F0413009F068C02AB317
S1130DF081E090E002C0880F991F6A95E2F7822B88
S1130E008ABB08952AB381E090E002C0880F991F3D
S1130E106A95E2F7809582238ABB0895442371F092
S1130E20413009F04CC027B381E090E002C0880F44
S1130E30991F6A95E2F7822B87BB089527B381E057
S1130E4090E002C0880F991F6A95E2F7809582238B
S1130E5087BB0895442369F0413089F524B381E0C8
S1130E6090E002C0880F991F6A95E2F7822B84BB39
S1130E70089524B381E090E002C0880F991F6A9519
S1130E80E2F78095822384BB0895442369F04130BE
S1130E90B1F421B381E090E002C0880F991F6A95F4
S1130EA0E2F7822B81BB089521B381E090E002C078
S1130EB0880F991F6A95E2F78095822381BB089574
S1130EC0843008F07CC0683008F079C0423008F003
S1130ED076C0813019F130F08230E1F1833009F4C9
S1130EE054C00895442371F0413009F068C02BB315
S1130EF081E090E002C0880F991F6A95E2F7822B87
S1130F008BBB08952BB381E090E002C0880F991F3A
S1130F106A95E2F7809582238BBB0895442371F090
S1130F20413009F04CC028B381E090E002C0880F42
S1130F30991F6A95E2F7822B88BB089528B381E054
S1130F4090E002C0880F991F6A95E2F7809582238A
S1130F5088BB0895442369F0413089F525B381E0C5
S1130F6090E002C0880F991F6A95E2F7822B85BB37
S1130F70089525B381E090E002C0880F991F6A9517
S1130F80E2F78095822385BB0895442369F04130BC
S1130F90B1F422B381E090E002C0880F991F6A95F2
S1130FA0E2F7822B82BB089522B381E090E002C075
S1130FB0880F991F6A95E2F78095822382BB089572
S1130FC08430C0F56830B0F54115510599F1813090
S1130FD089F028F08230C9F0833011F1089589B383
S1130FE090E002C0959587956A95E2F78170FA01C1
S1130FF08083089586B390E002C0959587956A959D
S1131000E2F78170FA018083089583B390E002C00F
S1131010959587956A95E2F78170FA018083089522
S113102080B390E002C0959587956A95E2F7817048
S1131030FA01808308958430A8F5683098F58130EA
S113104089F028F08230C9F0833011F108952BB370
S113105081E090E002C0880F991F6A95E2F7822B25
S11310608BBB089528B381E090E002C0880F991FDC
S11310706A95E2F7822B88BB089525B381E090E05E
S113108002C0880F991F6A95E2F7822B85BB0895E9
S113109022B381E090E002C0880F991F6A95E2F7BD
S11310A0822B82BB08958FB780688FBF089583B762
S11310B08F7B83BF83B7886083BF83B78F7E83BFF3
S11310C083B78F7D83BF89B7826089BF89EF8CBF67
S11310D0089583B7816083BF83B7826083BF83B77A
S11310E08B7F83BF1092C2021092C102089583B70E
S11310F08E7F83BF83B78D7F83BF83B78B7F83BF8F
S11311000895009721F09093C4028093C302089538
S113111088B7826088BF88B7816088BF08951F92AE
S11311200F920FB60F9211242F933F934F935F9317
S11311306F937F938F939F93AF93BF93EF93FF939B
S11311408091C1029091C20201969093C202809351
S1131150C102883E934069F481E782BF1092C202C3
S11311601092C102E091C502F091C602309709F0D5
S11311700995FF91EF91BF91AF919F918F917F91CD
S11311806F915F914F913F912F910F900FBE0F90F0
S11311901F9018951F920F920FB60F9211242F9340
S11311A03F934F935F936F937F938F939F93AF93EB
S11311B0BF93EF93FF938091C1029091C202019675
S11311C09093C2028093C1028838934169F41092CB
S11311D0C2021092C102E091C302F091C40230979E
S11311E019F009950E948808FF91EF91BF91AF9182
S11311F09F918F917F916F915F914F913F912F912B
S11312000F900FBE0F901F9018958CE080B981B19C
S11312108D7F81B981B18E7F81B986B7846086BFA5
S1131220089586B7806286BF86B7806886BF06B693
S113123007FEFDCF81B1887F8830E1F7089586B736
S1131240806186BF86B7806886BF0895882394F03E
S1131250880F83B983B18E7F83B986B78F7D86BFAC
S113126086B7806886BF06B607FEFDCF81B1887F4A
S11312708831E1F7089583B986B7806886BF06B6DA
S113128007FEFDCF81B1887F8832E1F708958BB1E5
S11312908D7F8BB987E689B98AB18B7F8AB986E855
S11312A080BD8AB180618AB98AB188608AB908959B
S11312B0A1E21A2EAA1BBB1BFD010DC0AA1FBB1F56
S11312C0EE1FFF1FA217B307E407F50720F0A21BC8
S11312D0B30BE40BF50B661F771F881F991F1A9435
S11312E069F760957095809590959B01AC01BD015F
S10B12F0CF010895F894FFCF2B
S11312F801FFFFFFFF3131313131313131003232F9
S11313083232323232320031323334353637380001
S11313183132333435363738392A3023526F6F6DCA
S11313282054656D703A2020206300302D676F20AB
S1131338746F20686F6D6500506C65617365204536
S11313486E7465722055736572004E616D65265022
S1131358617373776F72640050415353574F52440B
S11313683A00506C6561736520456E74657220554A
S1131378736572204E616D65202620506173737702
S11313886F726420000A00456E74657265642055A6
S1131398736572204E616D653A0050617373776F9F
S11313A872643A00456E74657265642050617373A3
S11313B83A00414343455353205045524D495445FF
S11313C844004143434553532044454E4945440052
S11313D857726F6E672055736572204E616D650094
S11313E8506C656173652054727920416761696E38
S11313F80057726F6E672050617373776F72640061
S11314082057656C636F6D6520746F20796F7572F2
S113141800202020536D61727420486F6D6500317F
S11314282D414320322D6C6967687400332D74652F
S11314386D7065726174757265004143204973204B
S11314484F6E2F6F666600526F6F6D2054656D7016
S11314583A203330630043686F6F7365206C6967A3
S1131468687420746F00636F6E74726F6C28312D0A
S11314783629004C696768742031206973204F6EDF
S113148800312D546F205475726E204974204F66B4
S113149866004C696768742031206973204F46469A
S11314A800312D546F205475726E204974204F6E8C
S11314B8004C696768742032206973204F6E004CB1
S11314C8696768742032206973204F4646004C6966
S11314D86768742033206973204F6E004C6967680D
S11314E8742033206973204F4646004C696768743A
S11314F82034206973204F6E004C69676874203467
S1131508206973204F4646004C696768742035206B
S11315186973204F6E004C696768742035206973BD
S1131528204F4646004C696768742036206973204A
S11315384F6E004C696768742036206973204F46E3
S113154846004163636573732044656E696564008E
S9030000FC
