S0120000536D6172745F486F6D652E7372656323
S11300000C942A000C9447000C9447000C9447006D
S11300100C9498190C945D190C9447000C944700A7
S11300200C9447000C9447000C94EA180C94AF18F5
S11300300C9447000C9447000C9447000C94470020
S11300400C9447000C9447000C9447000C94470010
S11300500C94470011241FBECFE5D8E0DEBFCDBF0E
S113006014E0A0E6B0E0E2EAFFE302C005900D92DE
S1130070A83CB107D9F725E0A8ECB4E001C01D9273
S1130080A230B207E1F70E94D2150C94CF1F0C9452
S1130090000068EC74E080E00E9427168091C80498
S11300A08D3130F040E062E082E00E94C216089593
S11300B0853128F441E062E082E00E94C21608958E
S11300C00E94E3130E94B9170E94CC170E94E11109
S11300D064E083E00E94B31560E070E0CB010E940D
S11300E0B9150E94951283E00E94F71540E060E084
S11300F080E00E94421641E062E082E00E944216E3
S113010066E083E00E94D5110E94C91141E061E0DC
S113011083E00E94421640E060E083E00E944216C1
S11301200E94B5170E94771863E083E00E9495153A
S113013060E081E00E94951562E080E00E949515E0
S113014063E080E00E94951562E083E00E949515CB
S113015065E083E00E9495150E94251989E490E0EA
S11301600E944F190895CF93DF93CDB7DEB7E09780
S11301700FB6F894DEBF0FBECDBF0E9460000E9490
S1130180031588E0E2E7F0E0DE01119601900D929C
S11301908A95E1F788E0E2E7F0E0DE011996019044
S11301A00D928A95E1F788E0EAE7F0E0DE015196E6
S11301B001900D928A95E1F788E0EAE7F0E0DE012C
S11301C0599601900D928A95E1F788E0E2E8F0E013
S11301D0DE01919601900D928A95E1F788E0E2E8BC
S11301E0F0E0DE01999601900D928A95E1F7BE0147
S11301F06F5F7F4F80E190E00E940212BE01675F53
S11302007F4F88E190E00E940212BE016F5E7F4F33
S113021080E590E00E940212BE01675E7F4F88E590
S113022090E00E940212BE016F5D7F4F80E690E075
S11302300E940212BE01675D7F4F88E690E00E9433
S11302400212E0960FB6F894DEBF0FBECDBFDF9169
S1130250CF910895CF92DF92EF92FF921F93CF93A5
S1130260DF93009709F469C06115710509F465C04D
S11302707B016C010E94031560E081E00E946A1515
S11302808AE890E00E947B1460E082E00E946A1594
S11302908CE990E00E947B142FEF83ED90E32150D2
S11302A080409040E1F700C000000E94031560E028
S11302B081E00E946A158CEB90E00E947B1410E0B0
S11302C011C0E601C10FD11DCE010E94C91298814F
S11302D09F3FB9F3612F82E00E946A1588810E94D2
S11302E045141F5F173068F3F601E10FF11D10820A
S11302F00E94031560E081E00E946A158AEA90E09A
S11303000E947B1410E013C0E701C10FD11DCE0180
S11303100E94C91288818F3FB9F3612F82E00E9445
S11303206A1588810E9445140E9485151F5F173045
S113033058F3F701E10FF11D1082DF91CF911F9166
S1130340FF90EF90DF90CF900895CF92DF92EF92DD
S1130350FF920F931F93CF93009709F464C0611524
S1130360710509F460C08B017C018CEB90E00E9464
S1130370D2118DE00E94CC11C0E00BC06701CC0EFD
S1130380D11CC6010E94CF11F6018081833219F07D
S1130390CF5FC83098F3F701EC0FF11D108284EBA6
S11303A090E00E94D2118DE00E94CC11C0E007C001
S11303B0F701EC0FF11D80810E94CC11CF5FC83092
S11303C0B8F38DE00E94CC1187EC90E00E94D2112A
S11303D08DE00E94CC11C0E00BC07801EC0EF11C42
S11303E0C7010E94CF11F7018081833219F0CF5FDA
S11303F0C93098F3F801EC0FF11D108281ED90E003
S11304000E94D2118DE00E94CC11C0E007C0F80117
S1130410EC0FF11D80810E94CC11CF5FC830B8F37E
S11304208DE00E94CC11CF911F910F91FF90EF901E
S1130430DF90CF9008958F929F92AF92BF92CF9208
S1130440DF92EF92FF920F931F93CF93DF93CDB779
S1130450DEB7A0970FB6F894DEBF0FBECDBF61150F
S1130460710509F4B6C14B01813009F0E8C0D8C068
S1130470A394BE016F5E7F4FCE0149960E942A016C
S1130480B12CC12C00E060C0E02EEE0CEE0CEE0CA2
S1130490EE0CF12CAE01475F5F4F68E070E0C701DE
S11304A00E945512AE014F5F5F4F68E070E0C701D4
S11304B008960E94551240E020E014C0822F90E07C
S11304C0E9E1F0E0EC0FFD1FE80FF91F3081E9E0EE
S11304D0F0E0EC0FFD1FE80FF91F8081381301C015
S11304E04F5F2F5F283050F3483061F515C0822FDD
S11304F090E0E1E1F0E0EC0FFD1FE80FF91F30811F
S1130500E1E0F0E0EC0FFD1FE80FF91F80813813E4
S113051001C04F5F2F5F02C040E020E0283038F375
S1130520483071F4053031F481E0F4018083DD2436
S1130530D3940DC082E0F4018083DD24D39407C0FA
S1130540B39401C0C3940F5F063008F49DCFF1E06B
S1130550DF1214C00E94031560E081E00E946A1556
S11305608FED90E00E947B142FEF89E698E12150F3
S113057080409040E1F700C0000058C0E6E0CE1291
S113058026C00E94031560E081E00E946A158FEE88
S113059090E00E947B1460E082E00E946A158DEF77
S11305A090E00E947B141230C9F1FFEF23ED80E349
S11305B0F15020408040E1F700C0000060E082E09C
S11305C00E946A158DE091E00E947B1427C0BB2035
S11305D029F10E94031560E081E00E946A158FEE04
S11305E090E00E947B1460E082E00E946A158EE134
S11305F091E00E947B14123089F09FEFE3EDF0E369
S11306009150E040F040E1F700C0000060E082E07B
S11306100E946A158DE091E00E947B141F5F03C065
S1130620D12CA12C10E0133008F422CF23E0A21225
S1130630D0C0D110CEC085E0F4018083CAC082301E
S113064009F0C7C0B8C0A3948DE291E00E94D21112
S113065080E591E00E94D211BE016F5E7F4FCE0112
S113066049960E94A501B12CC12C05E060C0E02E82
S1130670EE0CEE0CEE0CEE0CF12CAE01475F5F4F6E
S113068068E070E0C7010E945512AE014F5F5F4FF2
S113069068E070E0C70108960E94551240E020E02F
S11306A014C0822F90E0E9E1F0E0EC0FFD1FE80FA9
S11306B0F91F3081E9E0F0E0EC0FFD1FE80FF91FAE
S11306C08081381301C04F5F2F5F283050F34830CA
S11306D061F515C0822F90E0E1E1F0E0EC0FFD1F21
S11306E0E80FF91F3081E1E0F0E0EC0FFD1FE80FA7
S11306F0F91F8081381301C04F5F2F5F02C040E0B3
S113070020E0283038F3483071F4053031F483E0C8
S1130710F4018083DD24D3940DC084E0F40180834C
S1130720DD24D39407C0B39401C0C3940F5F0B308E
S113073008F49DCFF1E0DF1208C08FED90E00E9435
S1130740D2118DE00E94CC113CC026E0C21218C028
S11307508FEE90E00E94D2118DE00E94CC118DEFBB
S113076090E00E94D2118DE00E94CC11123009F168
S11307708DE091E00E94D2118DE00E94CC1119C04D
S1130780BB20B9F08FEE90E00E94D2118DE00E9460
S1130790CC118EE191E00E94D2118DE00E94CC1127
S11307A0123039F08DE091E00E94D2118DE00E9468
S11307B0CC111F5F03C0D12CA12C10E0133008F41E
S11307C042CF83E0A81205C0D11003C085E0F40134
S11307D08083A0960FB6F894DEBF0FBECDBFDF9125
S11307E0CF911F910F91FF90EF90DF90CF90BF902A
S11307F0AF909F908F90089582E591E00E94D2116E
S11308008DE00E94CC110E94031582E591E00E94C4
S11308107B1404C084E690E00E94C91280916400B5
S11308208F3F21F49091D9049332A1F7833251F48C
S113083083E691E00E94D21165E670E081E00E94B7
S11308401B0208958091D904833259F40E94031540
S11308508EE691E00E947B1465E670E082E00E94DF
S11308601B020895EF92FF920F931F93CF93DF9390
S1130870CDB7DEB7E0970FB6F894DEBF0FBECDBF9D
S11308808AE791E00E94D2118DEA91E00E94D21190
S1130890BE01675F7F4FCE0101960E94A50110E063
S11308A051C0153009F44DC0012F0295007FE02E90
S11308B0F12CAE014F5D5F4F68E070E0C7010E940C
S11308C05512AE01475D5F4F68E070E0C7010896BE
S11308D00E94551240E020E014C0822F90E0E1E035
S11308E0F0E0EC0FFD1FE80FF91F3081E1E2F0E0CA
S11308F0EC0FFD1FE80FF91F8081381301C04F5F13
S11309002F5F283050F34830E1F415C0822F90E077
S1130910E9E0F0E0EC0FFD1FE80FF91F3081E9E298
S1130920F0E0EC0FFD1FE80FF91F8081381301C0C0
S11309304F5F2F5F02C020E040E0283038F348309A
S113094031F01F5F1B3008F4ACCF80E001C081E0C0
S1130950813021F58FEA91E00E94D2118DE00E944E
S1130960CC11BE01675E7F4FCE0141960E94A50166
S113097010E0BE016F5E7F4FC8010E940212BE01EB
S1130980675E7F4FC80108960E94021282ED91E0D3
S11309900E94D2118DE00E94CC1107C081EF91E03A
S11309A00E94D2118DE00E94CC11E0960FB6F8940B
S11309B0DEBF0FBECDBFDF91CF911F910F91FF908E
S11309C0EF900895CF93DF9300D0CDB7DEB7853095
S11309D029F468EC84EB90E00E94E411BE016F5F9F
S11309E07F4F84EB90E00E942D128981883C29F589
S11309F08DE092E00E94D2118DE00E94CC1166E05D
S1130A0083E00E94D9110E94031560E081E00E94F6
S1130A106A158DE092E00E947B14CE0102960E943A
S1130A20CF118A81833221F766E083E00E94DD11D1
S1130A3060E084EB90E00E94E4110F900F90DF914E
S1130A40CF9108958DEF9DE00E94A1188DE00E9442
S1130A50CC118FE192E00E94D2118DE00E94CC1162
S1130A608CE292E00E94D2118DE00E94CC118AE3C4
S1130A7092E00E94D2118DE00E94CC118AE592E0AE
S1130A800E94D2118DE00E94CC110E94891889ED38
S1130A9094E00E94CF110E9497188091D904833367
S1130AA009F4CBC330F4813369F0823309F4B4C060
S1130AB00895853309F43FC408F4EBC3863309F47D
S1130AC03DC408954BEC54E062E082E00E9442177A
S1130AD08091CB04811149C089E692E00E94D21131
S1130AE08DE00E94CC1168EC74E080E00E9427162F
S1130AF08091C8041F928F9383E792E09F938F9312
S1130B008EEE94E09F938F930E94E51C8EEE94E00A
S1130B100E94D2118DE00E94CC1183E892E00E94E1
S1130B20D2118DE00E94CC1184E992E00E94D2118E
S1130B308DE00E94CC110E94891889ED94E00E94F6
S1130B40CF110E9497188091D9040F900F900F90A5
S1130B500F900F900F90803309F4F3C3813329F47D
S1130B6041E062E082E00E94C2168091CB048130B1
S1130B7009F0E7C381EA92E00E94D2118DE00E945D
S1130B80CC118AEA92E00E94D2118DE00E94CC112D
S1130B9068EC74E080E00E9427168091C8041F92DC
S1130BA08F9383E792E09F938F938EEE94E09F93CD
S1130BB08F930E94E51C8EEE94E00E94D2118DE08A
S1130BC00E94CC1183E892E00E94D2118DE00E9431
S1130BD0CC1184E992E00E94D2118DE00E94CC11E4
S1130BE00E94891889ED94E00E94CF110E94971801
S1130BF08091D9040F900F900F900F900F900F9049
S1130C00803309F49EC3813309F09BC340E062E062
S1130C1082E00E94C21608958DE00E94CC118CEBF4
S1130C2092E00E94D2118DE00E94CC118CEC92E0F3
S1130C300E94D2118DE00E94CC118DE00E94CC1153
S1130C400E94891889ED94E00E94CF110E949718A0
S1130C508091D904833309F4A0C030F4813369F05E
S1130C60823309F450C00895853309F42AC108F485
S1130C70DEC0863309F46FC108954AEC54E063E0A2
S1130C8083E00E9442178091CA048130E9F489ED1F
S1130C9092E00E94D2118DE00E94CC1187EE92E086
S1130CA00E94D2118DE00E94CC1189ED94E00E9443
S1130CB0CF118091D904813309F043C341E063E04B
S1130CC083E00E94A615089581113BC388EF92E04A
S1130CD00E94D2118DE00E94CC1187E093E00E9423
S1130CE0D2118DE00E94CC1189ED94E00E94CF11C5
S1130CF08091D904813309F024C341E063E083E0A7
S1130D000E94991508954AEC54E060E081E00E9445
S1130D1042178091CA048130F9F487E193E00E947C
S1130D20D2118DE00E94CC1187EE92E00E94D21184
S1130D308DE00E94CC1189ED94E00E94CF11809146
S1130D40D904813329F441E060E081E00E94A615D2
S1130D508FEF8093D90408958111F3C285E293E063
S1130D600E94D2118DE00E94CC1187E093E00E9492
S1130D70D2118DE00E94CC1189ED94E00E94CF1134
S1130D808091D904813329F441E060E081E00E943C
S1130D9099158FEF8093D90408954AEC54E062E0EA
S1130DA080E00E9442178091CA048130F9F484E300
S1130DB093E00E94D2118DE00E94CC1187EE92E064
S1130DC00E94D2118DE00E94CC1189ED94E00E9422
S1130DD0CF118091D904813329F441E062E080E0AD
S1130DE00E94A6158FEF8093D90408958111A9C29A
S1130DF082E493E00E94D2118DE00E94CC1187E03E
S1130E0093E00E94D2118DE00E94CC1189ED94E010
S1130E100E94CF118091D904813329F441E062E02A
S1130E2080E00E9499158FEF8093D90408954AECCD
S1130E3054E063E080E00E9442178091CA0481304C
S1130E40F9F481E593E00E94D2118DE00E94CC1167
S1130E5087EE92E00E94D2118DE00E94CC1189EDC0
S1130E6094E00E94CF118091D904813329F441E0A8
S1130E7063E080E00E94A6158FEF8093D904089563
S1130E8081115FC28FE593E00E94D2118DE00E9430
S1130E90CC1187E093E00E94D2118DE00E94CC1126
S1130EA089ED94E00E94CF118091D904813329F413
S1130EB041E063E080E00E9499158FEF8093D904AC
S1130EC008954AEC54E062E083E00E944217809166
S1130ED0CA048130F9F48EE693E00E94D2118DE0C9
S1130EE00E94CC1187EE92E00E94D2118DE00E9404
S1130EF0CC1189ED94E00E94CF118091D904813303
S1130F0029F441E062E083E00E94A6158FEF80930C
S1130F10D9040895811115C28CE793E00E94D2117F
S1130F208DE00E94CC1187E093E00E94D2118DE005
S1130F300E94CC1189ED94E00E94CF118091D904D4
S1130F40813329F441E062E083E00E9499158FEF38
S1130F508093D90408958091C904882309F4B1C009
S1130F608DE00E94CC118BE893E00E94D2118DE0B9
S1130F700E94CC118091C9041F928F9389E993E058
S1130F809F938F938AED94E09F938F930E94E51C27
S1130F908AED94E00E94D2118DE00E94CC1189EA7E
S1130FA093E00E94D2118DE00E94CC1189ED94E06F
S1130FB00E94CF118091D9040F900F900F900F9041
S1130FC00F900F90882309F4BCC1813309F043C00A
S1130FD06091C904665F6093C90470E080E090E0AA
S1130FE00E94A41BAB01BC0188EE93E00E94DF17B2
S1130FF08091C9041F928F9389E993E09F938F9303
S11310008AED94E09F938F930E94E51C8AED94E00F
S11310100E94D2118DE00E94CC1189EA93E00E94D3
S1131020D2118DE00E94CC118091C9040F900F90D1
S11310300F900F900F900F90853608F482C184E6CC
S11310408093C90440E050E068EC72E488EE93E0D9
S11310500E94DF170895823309F073C16091C904B7
S11310606A506093C90470E080E090E00E94A41B81
S1131070AB01BC0188EE93E00E94DF178091C904A4
S11310801F928F9389E993E09F938F938AED94E065
S11310909F938F930E94E51C8AED94E00E94D211E5
S11310A08DE00E94CC1189EA93E00E94D2118DE078
S11310B00E94CC110F900F900F900F900F900F90F3
S11310C0089581113EC189EB93E00E94D2112FEF64
S11310D083ED90E3215080409040E1F700C0000090
S11310E08DE00E94CC118091C9041F928F9389E9ED
S11310F093E09F938F938AED94E09F938F930E9444
S1131100E51C8AED94E00E94D2118DE00E94CC117E
S113111089EA93E00E94D2118DE00E94CC1189EDFE
S113112094E00E94CF110F900F900F900F900F90AA
S11311300F907EC0813309F043C06091C904665F9B
S11311406093C90470E080E090E00E94A41BAB01AE
S1131150BC0188EE93E00E94DF178091C9041F92BE
S11311608F9389E993E09F938F938AED94E09F9303
S11311708F930E94E51C8AED94E00E94D2118DE0C9
S11311800E94CC1189EA93E00E94D2118DE00E9462
S1131190CC118091C9040F900F900F900F900F9075
S11311A00F90853608F4CDC084E68093C90440E0EE
S11311B050E068EC72E488EE93E00E94DF17089533
S11311C0823399F56091C9046A506093C90470E050
S11311D080E090E00E94A41BAB01BC0188EE93E088
S11311E00E94DF178091C9041F928F9389E993E0CD
S11311F09F938F938AED94E09F938F930E94E51CB5
S11312008AED94E00E94D2118DE00E94CC1189EA0B
S113121093E00E94D2118DE00E94CC110F900F90A8
S11312200F900F900F900F900895803309F489C0A8
S11312308091D90481117ECF089568EC74E080E038
S11312400E9427168091C8041F928F9383E792E02F
S11312509F938F938EEE94E09F938F930E94E51C4F
S11312608EEE94E00E94D2118DE00E94CC1184E9AC
S113127092E00E94D2118DE00E94CC1189ED94E09D
S11312800E94CF110F900F900F900F900F900F901E
S113129008958091CC04811127C088EC93E00E94CA
S11312A0D2118DE00E94CC1187ED93E00E94D211FF
S11312B08DE00E94CC1189ED94E00E94CF118DE065
S11312C00E94CC118091D9048133D9F58AEE93E040
S11312D00E94D21160E070E084EB92E40E94B915A0
S11312E08AE58093CC0408958A3559F58AEF93E012
S11312F00E94D2118DE00E94CC1187E094E00E94FC
S1131300D2118DE00E94CC1189ED94E00E94CF119E
S11313108DE00E94CC118091D904813391F48BE14A
S113132094E00E94D21160E070E0CB010E94B915F4
S11313301092CC0408950E943204089586E08093AC
S1131340650008958DEF9DE00E94A1188DE00E9434
S1131350CC118FE192E00E94D2118DE00E94CC1159
S11313608BE294E00E94D2118DE00E94CC118AE5B8
S113137092E00E94D2118DE00E94CC110E94891843
S113138089ED94E00E94CF110E9497188091D904AE
S1131390823309F4B5C018F4813341F008958333DE
S11313A009F4BEC3863309F4E6C308954BEC54E054
S11313B062E082E00E9442178091CB04811149C00F
S11313C089E692E00E94D2118DE00E94CC1168EC73
S11313D074E080E00E9427168091C8041F928F93C6
S11313E083E792E09F938F938EEE94E09F938F9385
S11313F00E94E51C8EEE94E00E94D2118DE00E94C2
S1131400CC1183E892E00E94D2118DE00E94CC11AD
S113141084E992E00E94D2118DE00E94CC110E94D6
S1131420891889ED94E00E94CF110E949718809149
S1131430D9040F900F900F900F900F900F9080335E
S113144009F49CC3813329F441E062E082E00E9404
S1131450C2168091CB04813009F090C381EA92E0F6
S11314600E94D2118DE00E94CC118AEA92E00E947F
S1131470D2118DE00E94CC1168EC74E080E00E94EF
S113148027168091C8041F928F9383E792E09F935D
S11314908F938EEE94E09F938F930E94E51C8EEEC3
S11314A094E00E94D2118DE00E94CC1183E892E076
S11314B00E94D2118DE00E94CC1184E992E00E9436
S11314C0D2118DE00E94CC110E94891889ED94E01C
S11314D00E94CF110E9497188091D9040F900F9009
S11314E00F900F900F900F90803309F447C381330E
S11314F009F044C340E062E082E00E94C21608950D
S11315008DE00E94CC118CEB92E00E94D2118DE010
S11315100E94CC118CEC92E00E94D2118DE00E94CA
S1131520CC118DE00E94CC110E94891889ED94E0C1
S11315300E94CF110E9497188091D904833309F433
S1131540A0C030F4813369F0823309F450C00895A7
S1131550853309F42AC108F4DEC0863309F46FC167
S113156008954AEC54E063E083E00E9442178091BE
S1131570CA048130E9F489ED92E00E94D2118DE031
S11315800E94CC1187EE92E00E94D2118DE00E945D
S1131590CC1189ED94E00E94CF118091D90481335C
S11315A009F0ECC241E063E083E00E94A6150895CF
S11315B08111E4C288EF92E00E94D2118DE00E9472
S11315C0CC1187E093E00E94D2118DE00E94CC11EF
S11315D089ED94E00E94CF118091D904813309F000
S11315E0CDC241E063E083E00E94991508954AEC7E
S11315F054E060E081E00E9442178091CA04813087
S1131600F9F487E193E00E94D2118DE00E94CC119D
S113161087EE92E00E94D2118DE00E94CC1189EDF8
S113162094E00E94CF118091D904813329F441E0E0
S113163060E081E00E94A6158FEF8093D90408959D
S113164081119CC285E293E00E94D2118DE00E9438
S1131650CC1187E093E00E94D2118DE00E94CC115E
S113166089ED94E00E94CF118091D904813329F44B
S113167041E060E081E00E9499158FEF8093D904E6
S113168008954AEC54E062E080E00E9442178091A1
S1131690CA048130F9F484E393E00E94D2118DE00E
S11316A00E94CC1187EE92E00E94D2118DE00E943C
S11316B0CC1189ED94E00E94CF118091D90481333B
S11316C029F441E062E080E00E94A6158FEF809348
S11316D0D9040895811152C282E493E00E94D21188
S11316E08DE00E94CC1187E093E00E94D2118DE03E
S11316F00E94CC1189ED94E00E94CF118091D9040D
S1131700813329F441E062E080E00E9499158FEF73
S11317108093D90408954AEC54E063E080E00E9489
S113172042178091CA048130F9F481E593E00E9464
S1131730D2118DE00E94CC1187EE92E00E94D2116A
S11317408DE00E94CC1189ED94E00E94CF1180912C
S1131750D904813329F441E063E080E00E94A615B6
S11317608FEF8093D9040895811108C28FE593E027
S11317700E94D2118DE00E94CC1187E093E00E9478
S1131780D2118DE00E94CC1189ED94E00E94CF111A
S11317908091D904813329F441E063E080E00E9420
S11317A099158FEF8093D90408954AEC54E062E0D0
S11317B083E00E9442178091CA048130F9F48EE6D6
S11317C093E00E94D2118DE00E94CC1187EE92E04A
S11317D00E94D2118DE00E94CC1189ED94E00E9408
S11317E0CF118091D904813329F441E062E083E090
S11317F00E94A6158FEF8093D90408958111BEC16C
S11318008CE793E00E94D2118DE00E94CC1187E016
S113181093E00E94D2118DE00E94CC1189ED94E0F6
S11318200E94CF118091D904813329F441E062E010
S113183083E00E9499158FEF8093D90408958091D5
S1131840C904882309F4B1C08DE00E94CC118BE84F
S113185093E00E94D2118DE00E94CC118091C904C2
S11318601F928F9389E993E09F938F938AED94E07D
S11318709F938F930E94E51C8AED94E00E94D211FD
S11318808DE00E94CC1189EA93E00E94D2118DE090
S11318900E94CC1189ED94E00E94CF118091D9046B
S11318A00F900F900F900F900F900F90882309F4D2
S11318B065C1813309F043C06091C904665F6093D8
S11318C0C90470E080E090E00E94A41BAB01BC015D
S11318D088EE93E00E94DF178091C9041F928F93D2
S11318E089E993E09F938F938AED94E09F938F937C
S11318F00E94E51C8AED94E00E94D2118DE00E94C2
S1131900CC1189EA93E00E94D2118DE00E94CC119F
S11319108091C9040F900F900F900F900F900F902B
S1131920853608F42BC184E68093C90440E050E076
S113193068EC72E488EE93E00E94DF170895823326
S113194009F01CC16091C9046A506093C90470E035
S113195080E090E00E94A41BAB01BC0188EE93E000
S11319600E94DF178091C9041F928F9389E993E045
S11319709F938F938AED94E09F938F930E94E51C2D
S11319808AED94E00E94D2118DE00E94CC1189EA84
S113199093E00E94D2118DE00E94CC110F900F9021
S11319A00F900F900F900F9008958111E7C089EB6D
S11319B093E00E94D2112FEF83ED90E321508040F9
S11319C09040E1F700C000008DE00E94CC118091AE
S11319D0C9041F928F9389E993E09F938F938AEDB3
S11319E094E09F938F930E94E51C8AED94E00E94FB
S11319F0D2118DE00E94CC1189EA93E00E94D211A9
S1131A008DE00E94CC1189ED94E00E94CF110F90DB
S1131A100F900F900F900F900F907DC0813309F0BD
S1131A2043C06091C904665F6093C90470E080E0BC
S1131A3090E00E94A41BAB01BC0188EE93E00E94DD
S1131A40DF178091C9041F928F9389E993E09F93D4
S1131A508F938AED94E09F938F930E94E51C8AED07
S1131A6094E00E94D2118DE00E94CC1189EA93E0A7
S1131A700E94D2118DE00E94CC118091C9040F9074
S1131A800F900F900F900F900F90853608F476C04A
S1131A9084E68093C90440E050E068EC72E488EE88
S1131AA093E00E94DF170895823399F56091C90489
S1131AB06A506093C90470E080E090E00E94A41B27
S1131AC0AB01BC0188EE93E00E94DF178091C9044A
S1131AD01F928F9389E993E09F938F938AED94E00B
S1131AE09F938F930E94E51C8AED94E00E94D2118B
S1131AF08DE00E94CC1189EA93E00E94D2118DE01E
S1131B000E94CC110F900F900F900F900F900F9098
S1131B100895803399F18091D90481117FCF08957C
S1131B2068EC74E080E00E9427168091C8041F923C
S1131B308F9383E792E09F938F938EEE94E09F932D
S1131B408F930E94E51C8EEE94E00E94D2118DE0EA
S1131B500E94CC1184E992E00E94D2118DE00E948F
S1131B60CC1189ED94E00E94CF110F900F900F904B
S1131B700F900F900F9086E080936500089582E3A4
S1131B8094E00E94D2118DE00E94CC1108958EE45D
S1131B9094E00E94911480EC0E94AD138FE594E0D0
S1131BA00E9491142FEF83ED90E3215080409040E8
S1131BB0E1F700C00000089568EC74E080E00E9442
S1131BC027168091C8041F928F9383E792E09F9316
S1131BD08F938EEE94E09F938F930E94E51C8EEE7C
S1131BE094E00E94D2118DE00E94CC110F900F90CE
S1131BF00F900F900F900F9008958DE00E94CC11DC
S1131C000E94DC0D8DE694E00E94D2118DE00E94CA
S1131C10CC1189ED94E00E94CF118091D9048033D6
S1131C2011F40E94A818089568EC74E080E00E9402
S1131C3027166BE081E00E946A156091C80470E089
S1131C4080E090E00E94B01408950E94031580E89B
S1131C500E94AD138AE794E00E947B140E94140E44
S1131C6080EC0E94AD138DE694E00E947B1406C0C4
S1131C7081E690E00E94C9120E94140E80916100D6
S1131C808F3FB1F3803311F40E9403150E94A8180A
S1131C900E94031508958FEF80936400809363007E
S1131CA0809362008093610008950E944B0E85E248
S1131CB09EE00E94A1180E9489180E9403158FE1DA
S1131CC092E00E947B1480EC0E94AD1389E894E0BA
S1131CD00E947B140E944B0E0CC0809161008033E3
S1131CE021F48FEF8093610008C084E690E00E94A5
S1131CF0C912809164008F3F81F30E9497188091EC
S1131D006400823309F44AC018F4813341F0089521
S1131D10833309F407C3863309F437C308950E9453
S1131D20031589E994E00E94911480EC0E94AD139C
S1131D3068EC74E080E00E9427168AEA94E00E942E
S1131D4091146CE082E00E946A156091C80470E00E
S1131D5080E090E00E94B0141CC080E690E00E94F5
S1131D60C91268EC74E080E00E9427166CE082E0FF
S1131D700E946A156091C80470E080E090E00E94BF
S1131D80B01480916000803321F48FEF8093600061
S1131D900895809160008F3F01F308950E94031518
S1131DA08CEB92E00E94911480EC0E94AD138CECB9
S1131DB092E00E94911485E29EE00E94A1180E9484
S1131DC089180CC083E690E00E94C91280916100DA
S1131DD0803321F48FEF8093610004C0809163000D
S1131DE08F3F81F30E94971880916300833309F435
S1131DF0A6C030F4813369F0823309F454C00895E5
S1131E00853309F434C108F4E6C0863309F47BC190
S1131E1008954AEC54E063E083E00E9442170E9474
S1131E2003158091CA048130F1F489ED92E00E9497
S1131E30911480EC0E94AD1387EE92E00E949114FD
S1131E4004C082E690E00E94C912809162008F3F34
S1131E50C1F3813329F441E063E083E00E94A615D5
S1131E600E944B0E0895811193C288EF92E00E9464
S1131E70911480EC0E94AD1387E093E00E949114CA
S1131E8004C082E690E00E94C912809162008F3FF4
S1131E90C1F3813329F441E063E083E00E949915A2
S1131EA00E944B0E08954AEC54E064E083E00E94E3
S1131EB042170E9403158091CA048130F9F487E126
S1131EC093E00E94911480EC0E94AD1387EE92E09F
S1131ED00E94911404C082E690E00E94C91280918D
S1131EE062008F3FC1F3813329F441E064E083E071
S1131EF00E94A6158FEF809362000895811148C255
S1131F0085E293E00E94911480EC0E94AD1387E077
S1131F1093E00E94911404C082E690E00E94C912EA
S1131F20809162008F3FC1F3813329F441E064E082
S1131F3083E00E9499158FEF8093620008954AEC24
S1131F4054E062E080E00E9442170E9403158091F1
S1131F50CA048130F9F484E393E00E94911480EC84
S1131F600E94AD1387EE92E00E94911404C082E6B1
S1131F7090E00E94C912809162008F3FC1F38133C7
S1131F8029F441E062E080E00E94A6158FEF80937F
S1131F90620008958111FCC182E493E00E949114CF
S1131FA080EC0E94AD1387E093E00E94911404C07A
S1131FB082E690E00E94C912809162008F3FC1F3D3
S1131FC0813329F441E062E080E00E9499158FEFAB
S1131FD08093620008954AEC54E063E080E00E943C
S1131FE042170E9403158091CA048130F9F481E5F7
S1131FF093E00E94911480EC0E94AD1387EE92E06E
S11320000E94911404C082E690E00E94C91280915B
S113201062008F3FC1F3813329F441E063E080E043
S11320200E94A6158FEF8093620008958111B0C1BC
S11320308FE593E00E94911480EC0E94AD1387E039
S113204093E00E94911404C082E690E00E94C912B9
S1132050809162008F3FC1F3813329F441E063E052
S113206080E00E9499158FEF8093620008954AECF6
S113207054E062E083E00E9442170E9403158091BD
S1132080CA048130F9F48EE693E00E94911480EC46
S11320900E94AD1387EE92E00E94911404C082E680
S11320A090E00E94C912809162008F3FC1F3813396
S11320B029F441E062E083E00E94A6158FEF80934B
S11320C062000895811164C18CE793E00E94911429
S11320D080EC0E94AD1387E093E00E94911404C049
S11320E082E690E00E94C912809162008F3FC1F3A2
S11320F0813329F441E062E083E00E9499158FEF77
S11321008093620008950E9403158091C904882376
S113211009F482C08BE893E00E9491142FEF83EDC1
S113212090E3215080409040E1F700C000000E94FD
S1132130031588EB94E00E947B146DE081E00E941B
S11321406A156091C90470E080E090E00E94B014C8
S113215080EC0E94AD1389EA93E00E94911456C06A
S113216082E690E00E94C91280916200813359F5A1
S11321706091C904665F6093C90470E080E090E0F8
S11321800E94A41BAB01BC0188EE93E00E94DF1700
S11321906DE081E00E946A156091C90470E080E0FE
S11321A090E00E94B0148091C904853678F184E6E9
S11321B08093C90440E050E068EC72E488EE93E058
S11321C00E94DF1723C08233E1F46091C9046A508E
S11321D06093C90470E080E090E00E94A41BAB010E
S11321E0BC0188EE93E00E94DF176DE081E00E945D
S11321F06A156091C90470E080E090E00E94B01418
S113220005C0803319F40E9403150895809162007B
S11322108F3F09F4A5CF08958091CA048111B8C0F5
S113222089EB93E00E9491142FEF83ED90E321500A
S113223080409040E1F700C000000E94031588EB45
S113224094E00E947B146DE081E00E946A15609125
S1132250C90470E080E090E00E94B01480EC0E9419
S1132260AD1389EA93E00E94911456C082E690E08F
S11322700E94C91280916200813359F56091C904AA
S1132280665F6093C90470E080E090E00E94A41B44
S1132290AB01BC0188EE93E00E94DF176DE081E0A2
S11322A00E946A156091C90470E080E090E00E9489
S11322B0B0148091C904853678F184E68093C9040A
S11322C040E050E068EC72E488EE93E00E94DF178F
S11322D023C08233E1F46091C9046A506093C90455
S11322E070E080E090E00E94A41BAB01BC0188EE8A
S11322F093E00E94DF176DE081E00E946A1560910F
S1132300C90470E080E090E00E94B01405C08033FE
S113231019F40E9403150895809162008F3F09F417
S1132320A5CF08950E94031568EC74E080E00E9434
S1132330271680E80E94AD138AEA94E00E947B1479
S11323406BE081E00E946A156091C80470E080E04F
S113235090E00E94B01483E60E94451480EC0E9431
S1132360AD1384E992E00E94911406C081E690E0E6
S11323700E94C9120E94140E809161008F3FB1F334
S1132380803331F40E940315089586E0809365003C
S113239008950E945E1A08950E946F1A08950E947B
S11323A0731A08950E947B1A089541E00E94421610
S11323B0089541E00E94C216089540E00E94C216AA
S11323C008950E94D31908951F93CF93DF93D82FB4
S11323D0C62F192F10650E94DF19812F0E94021A3F
S11323E08D2F0E942C1A8C2F0E942C1A0E94FB19EC
S11323F08FE19EE40197F1F700C00000DF91CF91D7
S11324001F9108950F931F93CF93DF936115710567
S1132410F9F08B01D82FC92FC0650E94DF198C2FCA
S11324200E94021A8D2F0E942C1AC0E007C0F801E6
S1132430EC0FF11D80810E942C1ACF5FC830B8F3D5
S11324400E94FB198FE19EE40197F1F700C00000A0
S1132450DF91CF911F910F9108950F931F93CF9305
S1132460DF9361157105E1F08B01D82FC92FC06589
S11324700E94DF198C2F0E94021A8D2F0E942C1AA1
S11324800E94ED198C2F0E94171AC8010E944E1A3F
S11324900E94FB198FE19EE40197F1F700C0000050
S11324A0DF91CF911F910F910895EF92FF920F93B7
S11324B01F93CF93DF934115510581F1611522E0FC
S11324C0720760F58A017B01D82FC92FC0650E946D
S11324D0DF198C2F0E94021A8D2F0E942C1A0E9441
S11324E0ED198C2F0E94171AC0E0D0E006C0C80175
S11324F08C0F9D1F0E94381A2196C7010197C81797
S1132500D907A8F3800F911F0E944E1A0E94FB194D
S11325108FE19EE40197F1F700C00000DF91CF91B5
S11325201F910F91FF90EF90089541E064E081E0E6
S11325300E94421641E065E081E00E94421641E0BB
S113254066E081E00E94421640E063E082E00E947F
S1132550421640E064E082E00E94421640E065E0FA
S113256082E00E94421640E066E082E00E94421649
S113257063E082E00E947D1764E082E00E947D17A0
S113258065E082E00E947D1766E082E00E947D178C
S113259008956F927F928F929F92AF92BF92CF9243
S11325A0DF92EF92FF920F931F93CF93DF93CDB7F8
S11325B0DEB76B970FB6F894DEBF0FBECDBF0097A2
S11325C009F47EC05C0181E0888F898F8A8F34E0B2
S11325D03D8B25E02E8B96E09F8B82E0898B8A8B46
S11325E08B8B8C8B83E08D873E872F87988B8CE039
S11325F0E6E6F0E0DE01119601900D928A95E1F78E
S11326008FEFF5018083812C57C0C82CD12CE5E1D4
S1132610F0E0EC0FFD1FEC0DFD1D6080E8E1F0E043
S1132620EC0FFD1FEC0DFD1D708040E0662D872D25
S11326300E94C21610E038C0E12EF12CEDE0F0E06B
S1132640EC0FFD1FEE0DFF1D0081E1E1F0E0EC0F4A
S1132650FD1FEE0DFF1D9080AE01455E5F4F602FA4
S1132660892D0E9442178B8D81111DC007C0AE01B8
S1132670455E5F4F602F892D0E9442178B8D882302
S1132680B1F3C701880F991FE80EF91E81E090E0AD
S11326908C0F9D1FE80EF91EF701EC0DFD1D8081C6
S11326A0F50180830DC01F5F143030F241E0662DC8
S11326B0872D0E94C2168394F2E0F81508F0A5CF86
S11326C06B960FB6F894DEBF0FBECDBFDF91CF91EE
S11326D01F910F91FF90EF90DF90CF90BF90AF903C
S11326E09F908F907F906F900895CF93C82F80FF15
S11326F006C041E064E080E00E94C21605C040E0EC
S113270064E080E00E94C216C1FF06C041E065E0BB
S113271080E00E94C21605C040E065E080E00E94AF
S1132720C216C2FF06C041E066E080E00E94C21605
S113273005C040E066E080E00E94C216C3FF06C008
S113274041E067E080E00E94C21605C040E067E017
S113275080E00E94C216CF910895CF93C82F40E025
S113276061E081E00E94C21640E062E081E00E94E4
S1132770C2168C2F82958F700E94751341E063E01E
S113278081E00E94C2168FE99FE00197F1F700C033
S1132790000040E063E081E00E94C2168C2F0E949A
S11327A0751341E063E081E00E94C2168FE99FE067
S11327B00197F1F700C0000040E063E081E00E946F
S11327C0C216CF91089541E061E081E00E94421673
S11327D041E062E081E00E94421641E063E081E072
S11327E00E94421641E064E080E00E94421641E00B
S11327F065E080E00E94421641E066E080E00E94CD
S1132800421641E067E080E00E9442162FE785EB24
S113281091E0215080409040E1F700C0000040E08A
S113282061E081E00E94C21640E062E081E00E9423
S1132830C21682E00E94751341E063E081E00E94C9
S1132840C2168FE99FE00197F1F700C0000040E055
S113285063E081E00E94C21688E20E94AD1390EF0B
S11328609A95F1F78CE00E94AD1320EF2A95F1F7C9
S113287081E00E94AD138FE39FE10197F1F700C05F
S1132880000086E00E94AD130895CF93C82F41E065
S113289061E081E00E94C21640E062E081E00E94B3
S11328A0C2168C2F82958F700E94751341E063E0ED
S11328B081E00E94C2168FE99FE00197F1F700C002
S11328C0000040E063E081E00E94C2168C2F0E9469
S11328D0751341E063E081E00E94C2168FE99FE036
S11328E00197F1F700C0000040E063E081E00E943E
S11328F0C216CF9108950F931F93CF93009729F495
S11329000CC00E944514CF5F02C08C01C0E0F801E6
S1132910EC0FF11D80818111F4CFCF911F910F91A4
S113292008950F931F93CF93009771F415C00E94DD
S11329304514CF5F2FEF80E792E021508040904014
S1132940E1F700C0000002C08C01C0E0F801EC0F08
S1132950F11D80818111EBCFCF911F910F910895CB
S11329600F931F93CF93DF9300D000D01F92CDB766
S1132970DEB7262F10E008C01F5FEDEC6E9F612DBF
S113298011246695669566956111F6CF00E01AC02C
S1132990622F2AE030E040E050E00E94C31C732F15
S11329A0842F952FA02FB0E01196E12FF0E0EA1BC1
S11329B0FB0B41E050E04C0F5D1FE40FF51F605D21
S11329C060830F5F011720F3E1E0F0E0EC0FFD1FDF
S11329D0E10FF11D108210E003C00E9445141F5F37
S11329E0E1E0F0E0EC0FFD1FE10FF11D80818111AA
S11329F0F4CF0F900F900F900F900F90DF91CF9125
S1132A001F910F91089540E061E081E00E94C21699
S1132A1040E062E081E00E94C21680E00E947513EB
S1132A2041E063E081E00E94C2168FE99FE00197D4
S1132A30F1F700C0000040E063E081E00E94C216AC
S1132A4081E00E94751341E063E081E00E94C216B8
S1132A508FE99FE00197F1F700C0000040E063E0D8
S1132A6081E00E94C2160895CF93C82F40E061E030
S1132A7081E00E94C21640E062E081E00E94C2163A
S1132A808C2F82958F700E94751341E063E081E082
S1132A900E94C2168FE99FE00197F1F700C0000081
S1132AA040E063E081E00E94C2168C2F0E947513FF
S1132AB041E063E081E00E94C2168FE99FE0019744
S1132AC0F1F700C0000040E063E081E00E94C2161C
S1132AD0CF910895CF93DF936832A0F4C62FD82FF7
S1132AE082E00E94AD13D13019F0D23031F00AC027
S1132AF08C2F80680E94AD1305C080E48C0F806821
S1132B000E94AD13DF91CF9108952FEF83EC99E0EC
S1132B10215080409040E1F700C0000080E10E9415
S1132B2034158AE20E944514089541E00E94421639
S1132B300895413019F0423029F0089541E00E948F
S1132B40C216089540E00E94C2160895413019F05B
S1132B50423029F0089540E00E94C216089541E0F1
S1132B600E94C216089541E00E9442160E94B917BD
S1132B70089520E030E040E250E40E94561C20E03A
S1132B8030EC48E254E40E94921A20E030E044EB36
S1132B9052E40E94031BAB01BC0182E390E00E945B
S1132BA02B1808950E94B3000E9403150E944B0E37
S1132BB00E94BF0D0E94C70D0E94FC038091650016
S1132BC00E94E2040E94371980916500833019F451
S1132BD00E94220509C0843019F40E94A20904C08D
S1132BE0823011F40E94550E0E944519DDCF8230C7
S1132BF059F0833081F08130A1F487B1806487B9C2
S1132C0087B18F7787B90DC087B18F7B87B987B1BB
S1132C108F7787B906C087B1806487B987B1806828
S1132C2087B987B18F7D87B986B18F7D86B986B123
S1132C30877F86B986B1846086B986B1826086B999
S1132C4086B1816086B986B1806886B908956115B8
S1132C507105B9F097B1907E97B997B1892B87B96F
S1132C6086B1806486B9349BFECF84B195B19695C4
S1132C70879596958795FB019183808386B18061C2
S1132C8086B90895843008F07CC0683008F079C0B3
S1132C90423008F076C0813019F130F08230E1F131
S1132CA0833009F454C00895442371F0413009F08D
S1132CB068C02AB381E090E002C0880F991F6A952A
S1132CC0E2F7822B8ABB08952AB381E090E002C028
S1132CD0880F991F6A95E2F7809582238ABB08952D
S1132CE0442371F0413009F04CC027B381E090E0F7
S1132CF002C0880F991F6A95E2F7822B87BB08955B
S1132D0027B381E090E002C0880F991F6A95E2F72B
S1132D108095822387BB0895442369F0413089F567
S1132D2024B381E090E002C0880F991F6A95E2F70E
S1132D30822B84BB089524B381E090E002C0880F05
S1132D40991F6A95E2F78095822384BB08954423F2
S1132D5069F04130B1F421B381E090E002C0880F02
S1132D60991F6A95E2F7822B81BB089521B381E014
S1132D7090E002C0880F991F6A95E2F7809582233C
S1132D8081BB0895843008F07CC0683008F079C0B5
S1132D90423008F076C0813019F130F08230E1F130
S1132DA0833009F454C00895442371F0413009F08C
S1132DB068C02BB381E090E002C0880F991F6A9528
S1132DC0E2F7822B8BBB08952BB381E090E002C025
S1132DD0880F991F6A95E2F7809582238BBB08952B
S1132DE0442371F0413009F04CC028B381E090E0F5
S1132DF002C0880F991F6A95E2F7822B88BB089559
S1132E0028B381E090E002C0880F991F6A95E2F729
S1132E108095822388BB0895442369F0413089F565
S1132E2025B381E090E002C0880F991F6A95E2F70C
S1132E30822B85BB089525B381E090E002C0880F02
S1132E40991F6A95E2F78095822385BB08954423F0
S1132E5069F04130B1F422B381E090E002C0880F00
S1132E60991F6A95E2F7822B82BB089522B381E011
S1132E7090E002C0880F991F6A95E2F7809582233B
S1132E8082BB08958430C0F56830B0F54115510512
S1132E9099F1813089F028F08230C9F0833011F142
S1132EA0089589B390E002C0959587956A95E2F7F5
S1132EB08170FA018083089586B390E002C09595ED
S1132EC087956A95E2F78170FA018083089583B348
S1132ED090E002C0959587956A95E2F78170FA01B2
S1132EE08083089580B390E002C0959587956A9594
S1132EF0E2F78170FA01808308958430A8F5683080
S1132F0098F5813089F028F08230C9F0833011F1CE
S1132F1008952BB381E090E002C0880F991F6A9551
S1132F20E2F7822B8BBB089528B381E090E002C0C6
S1132F30880F991F6A95E2F7822B88BB089525B301
S1132F4081E090E002C0880F991F6A95E2F7822B16
S1132F5085BB089522B381E090E002C0880F991FD9
S1132F606A95E2F7822B82BB08958FB780688FBF82
S1132F7008958EB580618EBD8EB588608EBD8FB587
S1132F8082608FBD8FB58E7F8FBD8FB580688FBDFA
S1132F908FB58F7B8FBD08958EB580618EBD8EB544
S1132FA088608EBD8FB582608FBD8FB58E7F8FBDDB
S1132FB08FB580628FBD8FB58F7E8FBD0895CF9200
S1132FC0DF92EF92FF92CF93DF93EC016A017B01D2
S1132FD020E030E048EC52E4C701B6010E94FE1A3A
S1132FE0181694F19E0140E050E060E970ED83E032
S1132FF090E00E94C31C2150310937BD26BD66B53F
S113300077B56F5F7F4F80E090E00E94A41BA7011B
S113301096010E94561C20E030E048EC52E40E94E5
S1133020031B20E030E040E85FE30E94911A0E9415
S1133030751B7BBD6ABD8EB581608EBD8EB5826009
S11330408EBD8EB58B7F8EBDDF91CF91FF90EF90BB
S1133050DF90CF900895CF92DF92EF92FF92CF93BB
S1133060DF93EC016A017B0120E030E048EC52E49C
S1133070C701B6010E94FE1A181694F19E0140E0A1
S113308050E060E970ED83E090E00E94C31C2150A1
S1133090310937BD26BD66B577B56F5F7F4F80E0D8
S11330A090E00E94A41BA70196010E94561C20E0F8
S11330B030E048EC52E40E94031B20E030E040E89A
S11330C05FE30E94911A0E94751B79BD68BD8EB59D
S11330D081608EBD8EB582608EBD8EB58B7F8EBDB8
S11330E0DF91CF91FF90EF90DF90CF90089583B759
S11330F08F7B83BF83B7886083BF83B78F7E83BF93
S113310083B78F7D83BF89B7826089BF89EF8CBF06
S1133110089583B7816083BF83B7826083BF83B719
S11331208B7F83BF1092CE041092CD04089583B791
S11331308E7F83BF83B78D7F83BF83B78B7F83BF2E
S11331400895009721F09093D0048093CF040895BC
S113315088B7826088BF88B7816088BF08951F924E
S11331600F920FB60F9211242F933F934F935F93B7
S11331706F937F938F939F93AF93BF93EF93FF933B
S11331808091CD049091CE0401969093CE048093C7
S1133190CD04883E934069F481E782BF1092CE0447
S11331A01092CD04E091D104F091D204309709F04B
S11331B00995FF91EF91BF91AF919F918F917F916D
S11331C06F915F914F913F912F910F900FBE0F9090
S11331D01F9018951F920F920FB60F9211242F93E0
S11331E03F934F935F936F937F938F939F93AF938B
S11331F0BF93EF93FF938091CD049091CE040196F9
S11332009093CE048093CD048838934169F410924E
S1133210CE041092CD04E091CF04F091D004309705
S113322019F009950E94A818FF91EF91BF91AF91F1
S11332309F918F917F916F915F914F913F912F91CA
S11332400F900FBE0F901F90189585B58F7B85BD8D
S113325085B5886085BD85B58F7E85BD85B58F7D37
S113326085BD89B7806889BF89EF83BD089585B519
S1133270816085BD85B5826085BD85B58B7F85BD43
S11332801092D4041092D304089585B58E7F85BD21
S113329085B58D7F85BD85B58B7F85BD08950097E8
S11332A021F09093D6048093D504089588B780685C
S11332B088BF88B7806488BF08951F920F920FB6A5
S11332C00F9211242F933F934F935F936F937F93A8
S11332D08F939F93AF93BF93EF93FF938091D30406
S11332E09091D40401969093D4048093D304883E9F
S11332F0934069F481E784BD1092D4041092D304FE
S1133300E091D704F091D804309709F00995FF9122
S1133310EF91BF91AF919F918F917F916F915F9149
S11333204F913F912F910F900FBE0F901F901895C2
S11333301F920F920FB60F9211242F933F934F9326
S11333405F936F937F938F939F93AF93BF93EF9309
S1133350FF938091D3049091D40401969093D40464
S11333608093D3048838934169F41092D404109262
S1133370D304E091D504F091D604309719F009955F
S11333800E945619FF91EF91BF91AF919F918F9138
S11333907F916F915F914F913F912F910F900FBE4D
S11333A00F901F9018958CE080B981B18D7F81B901
S11333B081B18E7F81B986B7846086BF089586B750
S11333C0806286BF86B7806886BF06B607FEFDCFDB
S11333D081B1887F8830E1F7089586B7806286BF1F
S11333E086B7806886BF06B607FEFDCF81B1887FA9
S11333F08031E1F7089586B7806186BF86B780681B
S113340086BF0895882394F0880F83B983B18E7F93
S113341083B986B78F7D86BF86B7806886BF06B6B8
S113342007FEFDCF81B1887F8831E1F708958823B5
S113343094F0880F83B983B1816083B986B78F7D97
S113344086BF86B7806886BF06B607FEFDCF81B10A
S1133450887F8034E1F7089583B986B7806886BF92
S113346006B607FEFDCF81B1887F8832E1F7089563
S1133470FC01892B91F096B7906496BF96B790683B
S113348096BF06B607FEFDCF91B1987F9035E1F760
S113349083B1808386B78F7B86BF0895FC01892B17
S11334A061F096B7906896BF06B607FEFDCF91B15E
S11334B0987F9835E1F783B1808308958BB18D7F30
S11334C08BB987E689B98AB18B7F8AB986E880BDD2
S11334D08AB180618AB98AB188608AB908958CB941
S11334E05D9BFECF0895009729F05F9BFECF2CB122
S11334F0FC01208308950F931F93CF93009729F421
S11335000CC00E946F1ACF5F02C08C01C0E0F801AA
S1133510EC0FF11D80818111F4CFCF911F910F9198
S113352008955058BB27AA270E94A91A0C941C1C62
S11335300E940E1C38F00E94151C20F039F49F3FA5
S113354019F426F40C940B1C0EF4E095E7FB0C9490
S1133550051CE92F0E942D1C58F3BA176207730744
S11335608407950720F079F4A6F50C944F1C0EF40B
S1133570E0950B2EBA2FA02D0B01B90190010C017F
S1133580CA01A0011124FF27591B99F0593F50F497
S1133590503E68F11A16F040A22F232F342F4427EF
S11335A0585FF3CF469537952795A795F0405395E7
S11335B0C9F77EF41F16BA0B620B730B840BBAF0B7
S11335C09150A1F0FF0FBB1F661F771F881FC2F722
S11335D00EC0BA0F621F731F841F48F48795779536
S11335E06795B795F7959E3F08F0B0CF9395880FF0
S11335F008F09927EE0F9795879508950E94E11B8F
S113360008F481E008950E94171B0C941C1C0E946E
S1133610151C58F00E940E1C40F029F45F3F29F05D
S11336200C94051C51110C94501C0C940B1C0E94FE
S11336302D1C68F39923B1F3552391F3951B550B76
S1133640BB27AA2762177307840738F09F5F5F4F71
S1133650220F331F441FAA1FA9F335D00E2E3AF0B0
S1133660E0E832D091505040E695001CCAF72BD0C8
S1133670FE2F29D0660F771F881FBB1F2617370719
S11336804807AB07B0E809F0BB0B802DBF01FF274B
S113369093585F4F3AF09E3F510578F00C94051C07
S11336A00C94501C5F3FE4F3983ED4F386957795D1
S11336B06795B795F7959F5FC9F7880F911D969504
S11336C0879597F90895E1E0660F771F881FBB1F60
S11336D0621773078407BA0720F0621B730B840B0D
S11336E0BA0BEE1F88F7E09508950E94351C88F008
S11336F09F5798F0B92F9927B751B0F0E1F0660FB2
S1133700771F881F991F1AF0BA95C9F714C0B130F2
S113371091F00E944F1CB1E008950C944F1C672F48
S1133720782F8827B85F39F0B93FCCF38695779521
S11337306795B395D9F73EF490958095709561950A
S11337407F4F8F4F9F4F0895E89409C097FB3EF435
S113375090958095709561957F4F8F4F9F4F9923DA
S1133760A9F0F92F96E9BB279395F6958795779558
S11337706795B795F111F8CFFAF4BB0F11F460FF18
S11337801BC06F5F7F4F8F4F9F4F16C0882311F070
S113379096E911C0772321F09EE8872F762F05C084
S11337A0662371F096E8862F70E060E02AF09A951F
S11337B0660F771F881FDAF7880F9695879597F914
S11337C00895990F0008550FAA0BE0E8FEEF1616AE
S11337D01706E807F907C0F012161306E407F50701
S11337E098F0621B730B840B950B39F40A2661F075
S11337F0232B242B252B21F408950A2609F4A14018
S1133800A6958FEF811D811D089597F99F6780E824
S113381070E060E008959FEF80EC089500240A941E
S11338201616170618060906089500240A94121697
S11338301306140605060895092E0394000C11F4CA
S1133840882352F0BB0F40F4BF2B11F460FF04C077
S11338506F5F7F4F8F4F9F4F089557FD9058440FD0
S1133860551F59F05F3F71F04795880F97FB991FDB
S113387061F09F3F79F08795089512161306140698
S1133880551FF2CF4695F1DF08C016161706180625
S1133890991FF1CF86957105610508940895E89400
S11338A0BB2766277727CB0197F908950E94691CE7
S11338B00C941C1C0E940E1C38F00E94151C20F055
S11338C0952311F00C94051C0C940B1C11240C94DE
S11338D0501C0E942D1C70F3959FC1F3950F50E06E
S11338E0551F629FF001729FBB27F00DB11D639FAE
S11338F0AA27F00DB11DAA1F649F6627B00DA11D54
S1133900661F829F2227B00DA11D621F739FB00DF9
S1133910A11D621F839FA00D611D221F749F332769
S1133920A00D611D231F849F600D211D822F762F02
S11339306A2F11249F5750409AF0F1F088234AF0DF
S1133940EE0FFF1FBB1F661F771F881F915050404B
S1133950A9F79E3F510580F00C94051C0C94501C53
S11339605F3FE4F3983ED4F3869577956795B795D2
S1133970F795E7959F5FC1F7FE2B880F911D9695EC
S1133980879597F90895A1E21A2EAA1BBB1BFD0186
S11339900DC0AA1FBB1FEE1FFF1FA217B307E4072A
S11339A0F50720F0A21BB30BE40BF50B661F771F82
S11339B0881F991F1A9469F7609570958095909562
S11339C09B01AC01BD01CF010895AEE0B0E0EBEE88
S11339D0FCE10C94A61F0D891E8986E08C831A8352
S11339E009838FEF9FE79E838D83AE01475E5F4F10
S11339F06F89788DCE0101960E94071DEF81F885AD
S1133A00E00FF11F10822E96E4E00C94C21FABE08D
S1133A10B0E0EDE0FDE10C94981F6C017B018A019C
S1133A20FC0117821682838181FFCCC1CE010196ED
S1133A303C01F6019381F70193FD859193FF8191F8
S1133A407F01882309F4BAC1853239F493FD859145
S1133A5093FF81917F01853229F4B60190E00E94A1
S1133A60FE1EE7CF912C212C312CFFE1F315D8F069
S1133A708B3279F038F4803279F08332A1F4232D3B
S1133A8020611DC08D3261F0803369F4232D2160E3
S1133A9016C0832D8260382EE32DE4603E2E2AC0AA
S1133AA0F32DF8601DC037FC2DC020ED280F2A30FF
S1133AB040F08E32B9F436FC81C1232D2064322EBD
S1133AC019C036FE06C08AE0989E200D1124922E5D
S1133AD011C0EAE02E9E200D1124222EF32DF06257
S1133AE03F2E08C08C3621F4832D8068382E02C006
S1133AF0883641F4F70193FD859193FF81917F010D
S1133B008111B3CF982F9F7D9554933028F40C5F87
S1133B101F4F9FE399830DC0833631F0833771F0D3
S1133B20833509F059C021C0F801808189830E5F73
S1133B301F4F88248394912C530113C02801F2E071
S1133B404F0E511CF801A080B18036FE03C0692DD0
S1133B5070E002C06FEF7FEFC5010E94F31E4C01BD
S1133B608201F32DFF773F2E16C0280122E0420E7A
S1133B70511CF801A080B18036FE03C0692D70E0AD
S1133B8002C06FEF7FEFC5010E94E81E4C01F32DC8
S1133B90F0683F2E820133FC1BC0822D90E0881612
S1133BA09906B0F4B60180E290E00E94FE1E2A94C9
S1133BB0F4CFF50137FC859137FE81915F01B601A1
S1133BC090E00E94FE1E21102A9421E0821A91089E
S1133BD08114910471F7E8C0843611F0893641F5F7
S1133BE0F80137FE07C060817181828193810C5F87
S1133BF01F4F08C060817181072E000C880B990B40
S1133C000E5F1F4FF32DFF763F2E97FF09C090954F
S1133C108095709561957F4F8F4F9F4FF0683F2E31
S1133C202AE030E0A3010E943A1F882E861845C07E
S1133C30853731F4232D2F7EB22E2AE030E025C0C3
S1133C40932D997FB92E8F36C1F018F4883579F009
S1133C50B5C0803719F0883721F0B0C0E92FE06192
S1133C60BE2EB4FE0DC0FB2DF460BF2E09C034FE81
S1133C700AC0292F2660B22E06C028E030E005C015
S1133C8020E130E002C020E132E0F801B7FE07C0D5
S1133C9060817181828193810C5F1F4F06C06081B6
S1133CA0718180E090E00E5F1F4FA3010E943A1FD4
S1133CB0882E8618FB2DFF773F2E36FE0DC0232D50
S1133CC02E7FA22E891458F434FE0BC032FC09C096
S1133CD0832D8E7EA82E05C0B82CA32C03C0B82C2F
S1133CE001C0B92CA4FE0FC0FE01E80DF11D8081B6
S1133CF0803321F49A2D997EA92E09C0A2FE06C014
S1133D00B394B39404C08A2D867809F0B394A3FCC9
S1133D1011C0A0FE06C0B21488F4280C922C9B1883
S1133D200EC0B21460F4B60180E290E00E94FE1E60
S1133D30B394F7CFB21418F42B1802C0982C212C8A
S1133D40A4FE10C0B60180E390E00E94FE1EA2FE15
S1133D5017C0A1FC03C088E790E002C088E590E0AA
S1133D60B6010CC08A2D867859F0A1FE02C08BE200
S1133D7001C080E2A7FC8DE2B60190E00E94FE1E25
S1133D80891438F4B60180E390E00E94FE1E9A94F0
S1133D90F7CF8A94F301E80DF11D8081B60190E01C
S1133DA00E94FE1E8110F5CF222009F442CEB601F6
S1133DB080E290E00E94FE1E2A94F6CFF6018681EE
S1133DC0978102C08FEF9FEF2B96E2E10C94B41F12
S1133DD0FC010590615070400110D8F780959095D2
S1133DE08E0F9F1F0895FC016150704001900110D7
S1133DF0D8F7809590958E0F9F1F08950F931F936A
S1133E00CF93DF93FB01238121FD03C08FEF9FEF4D
S1133E102CC022FF16C04681578124813581421768
S1133E20530744F4A081B1819D012F5F3F4F31833B
S1133E3020838C93268137812F5F3F4F37832683DE
S1133E4014C08B01EC01FB010084F185E02D099580
S1133E50892BE1F6D80116968D919C9117970196BE
S1133E6017969C938E931697CE01DF91CF911F9155
S1133E700F910895FA01AA27283051F1203181F1D8
S1133E80E8946F936E7F6E5F7F4F8F4F9F4FAF4F5E
S1133E90B1E03ED0B4E03CD0670F781F891F9A1F71
S1133EA0A11D680F791F8A1F911DA11D6A0F711D25
S1133EB0811D911DA11D20D009F468943F912AE031
S1133EC0269F11243019305D3193DEF6CF01089519
S1133ED0462F4770405D4193B3E00FD0C9F7F6CF4A
S1133EE0462F4F70405D4A3318F0495D31FD405212
S1133EF0419302D0A9F7EACFB4E0A69597958795A8
S1133F0077956795BA95C9F7009761057105089586
S1133F109B01AC010A2E0694579547953795279532
S1133F20BA95C9F7620F731F841F951FA01D0895CA
S1133F302F923F924F925F926F927F928F929F92B5
S1133F40AF92BF92CF92DF92EF92FF920F931F93A3
S1133F50CF93DF93CDB7DEB7CA1BDB0B0FB6F89454
S1133F60DEBF0FBECDBF09942A88398848885F8494
S1133F706E847D848C849B84AA84B984C884DF8005
S1133F80EE80FD800C811B81AA81B981CE0FD11DE9
S1133F900FB6F894DEBF0FBECDBFED010895F894BF
S1053FA0FFCF4D
S1133FA2FFFFFFFFFF063132333435363738392A03
S1133FB23023373635343332310031313232333310
S1133FC234003130303230303300506C6561736507
S1133FD220456E7465722055736572004E616D657D
S1133FE22650617373776F72640050415353574F75
S1133FF252443A00456E7465726564205573657265
S1134002204E616D653A0050617373776F72643A42
S113401200456E746572656420506173733A0041A1
S11340224343455353205045524D4954454400415E
S113403243434553532044454E4945440057726F08
S11340426E672055736572204E616D6500506C6514
S11340526173652054727920416761696E005772F9
S11340626F6E672050617373776F726400506C6572
S113407261736520456E7465722055736572204EB6
S1134082616D6520262050617373776F726420001E
S11340920A005072657373202320746F206C6F675B
S11340A2696E004C6F63616C2055736572005265D2
S11340B26D6F7465205573657200506C656173652C
S11340C220456E7465722055736572204E616D656C
S11340D220262050617373776F7264207520776194
S11340E26E7420746F206368616E6765000D005002
S11340F26C6561736520456E746572205468652031
S11341026E6577205573657220416E642050617329
S11341127300557365722044617461204368616E53
S1134122676564205375636365737366756C6C7934
S11341320057726F6E672055736572204E616D650C
S1134142206F722070617373776F726400535953D6
S113415254454D20495320424C4F434B4544003172
S11341622D414320322D6C6967687400332D7465C8
S11341726D7020342D446F6F7200352D2063686199
S11341826E676520757365726E616D6520616E641C
S11341922070617373776F726400362D20546F2020
S11341A25369676E204F7574004143206973204F31
S11341B2666600526F6F6D2054656D703A202564F7
S11341C2206300312D20546F205475726E2049747F
S11341D2204F6E00302D676F20746F20686F6D65FD
S11341E2004143206973204F6E00312D20546F200B
S11341F25475726E204974204F66660043686F6F6F
S11342027365206C6967687420746F00636F6E74E1
S1134212726F6C28312D3629004C6967687420311D
S1134222206973204F6E00312D546F205475726EC5
S1134232204974204F6666004C69676874203120F7
S11342426973204F464600312D546F205475726EA7
S1134252204974204F6E004C6967687420322069CB
S113426273204F6E004C6967687420322069732092
S11342724F4646004C696768742033206973204FA7
S11342826E004C696768742033206973204F464678
S1134292004C696768742034206973204F6E004CA7
S11342A2696768742034206973204F4646004C695C
S11342B26768742035206973204F6E004C69676803
S11342C2742035206973204F4646004C6967687430
S11342D22036206973204F6E004272696768746EDB
S11342E26573733A202564250031292B313020323D
S11342F2292D313020302948004C696768742036F2
S1134302206973204F464600446F6F722069732000
S1134312636C6F73656400312D4F70656E20446F5A
S11343226F7220302D486F6D6500446F6F72206983
S113433273206F70656E696E6700446F6F722069D7
S113434273206F70656E00312D436C6F736520446A
S11343526F6F7220302D486F6D6500446F6F72204D
S1134362697320636C6F73696E6700332D74656DB6
S113437270002057656C636F6D6520746F20796FD0
S1134382757220536D61727420486F6D65002057F9
S1134392656C636F6D6520746F20796F7572002090
S11343A22020536D61727420486F6D6500302D4773
S11343B26F20746F20486F6D6500526F6F6D2054CB
S11343C2656D703A2020206300332D74656D702072
S11343D2362D4C6F674F7574004143204973204F4B
S11343E26E2F6F666620302D4800526F6F6D205419
S11343F2656D703A202063004272696768746E6565
S10B440273733A202025000029
S9030000FC
