:100000000C942A000C9447000C9447000C94470071
:100010000C9447000C9447000C9447000C94470044
:100020000C9447000C9447000C9459070C941E073D
:100030000C9447000C9447000C9447000C94470024
:100040000C9447000C9447000C9447000C94470014
:100050000C94470011241FBECFE5D8E0DEBFCDBF12
:1000600011E0A0E6B0E0ECE2FFE002C005900D92E6
:10007000AE3EB107D9F721E0AEEEB1E001C01D926E
:10008000A53FB207E1F70E944F050C9494070C942A
:10009000000041E064E081E00E946F0541E065E01E
:1000A00081E00E946F0541E066E081E00E946F05FB
:1000B00040E063E082E00E946F0540E064E082E09F
:1000C0000E946F0540E065E082E00E946F0540E01D
:1000D00066E082E00E946F0563E082E00E94AA066B
:1000E00064E082E00E94AA0665E082E00E94AA061F
:1000F00066E082E00E94AA0608956F927F928F9236
:100100009F92AF92BF92CF92DF92EF92FF920F93A6
:100110001F93CF93DF93CDB7DEB76B970FB6F894ED
:10012000DEBF0FBECDBF009709F47EC05C0181E049
:10013000888F898F8A8F34E03D8B25E02E8B96E067
:100140009F8B82E0898B8A8B8B8B8C8B83E08D8756
:100150003E872F87988B8CE0E4E6F0E0DE01119675
:1001600001900D928A95E1F78FEFF5018083812C44
:1001700057C0C82CD12CE5E1F0E0EC0FFD1FEC0DD1
:10018000FD1D6080E8E1F0E0EC0FFD1FEC0DFD1DB2
:10019000708040E0662D872D0E94EF0510E038C08A
:1001A000E12EF12CEDE0F0E0EC0FFD1FEE0DFF1D58
:1001B0000081E1E1F0E0EC0FFD1FEE0DFF1D9080EE
:1001C000AE01455E5F4F602F892D0E946F068B8DBB
:1001D00081111DC007C0AE01455E5F4F602F892DA4
:1001E0000E946F068B8D8823B1F3C701880F991F7A
:1001F000E80EF91E81E090E08C0F9D1FE80EF91EBD
:10020000F701EC0DFD1D8081F50180830DC01F5F9E
:10021000143030F241E0662D872D0E94EF05839463
:10022000F2E0F81508F0A5CF6B960FB6F894DEBF94
:100230000FBECDBFDF91CF911F910F91FF90EF9037
:10024000DF90CF90BF90AF909F908F907F906F90F6
:100250000895CF93C82F80FF06C041E064E080E09E
:100260000E94EF0505C040E064E080E00E94EF05D9
:10027000C1FF06C041E065E080E00E94EF0505C0D7
:1002800040E065E080E00E94EF05C2FF06C041E06B
:1002900066E080E00E94EF0505C040E066E080E097
:1002A0000E94EF05C3FF06C041E067E080E00E94C6
:1002B000EF0505C040E067E080E00E94EF05CF91C8
:1002C0000895CF93C82F40E061E081E00E94EF05E0
:1002D00040E062E081E00E94EF058C2F82958F70F4
:1002E0000E94290141E063E081E00E94EF058FE96F
:1002F0009FE00197F1F700C0000040E063E081E07B
:100300000E94EF058C2F0E94290141E063E081E00B
:100310000E94EF058FE99FE00197F1F700C0000010
:1003200040E063E081E00E94EF05CF91089541E055
:1003300061E081E00E946F0541E062E081E00E949F
:100340006F0541E063E081E00E946F0541E064E0F9
:1003500080E00E946F0541E065E080E00E946F054B
:1003600041E066E080E00E946F0541E067E080E0E8
:100370000E946F052FE785EB91E02150804090406F
:10038000E1F700C0000040E061E081E00E94EF057D
:1003900040E062E081E00E94EF0582E00E942901D6
:1003A00041E063E081E00E94EF058FE99FE0019763
:1003B000F1F700C0000040E063E081E00E94EF053B
:1003C00088E20E94610190EF9A95F1F78FE00E9418
:1003D000610120EF2A95F1F781E00E9461018FE32E
:1003E0009FE10197F1F700C0000086E00E946101E3
:1003F0000895CF93C82F41E061E081E00E94EF05AE
:1004000040E062E081E00E94EF058C2F82958F70C2
:100410000E94290141E063E081E00E94EF058FE93D
:100420009FE00197F1F700C0000040E063E081E049
:100430000E94EF058C2F0E94290141E063E081E0DA
:100440000E94EF058FE99FE00197F1F700C00000DF
:1004500040E063E081E00E94EF05CF9108950F93A3
:100460001F93CF93009729F40CC00E94F901CF5F2E
:1004700002C08C01C0E0F801EC0FF11D80818111F8
:10048000F4CFCF911F910F9108950F931F93CF93A6
:10049000009771F415C00E94F901CF5F2FEF80E73C
:1004A00092E0215080409040E1F700C0000002C07F
:1004B0008C01C0E0F801EC0FF11D80818111EBCFC0
:1004C000CF911F910F91089540E061E081E00E947B
:1004D000EF0540E062E081E00E94EF0580E00E94CD
:1004E000290141E063E081E00E94EF058FE99FE090
:1004F0000197F1F700C0000040E063E081E00E9456
:10050000EF0581E00E94290141E063E081E00E9463
:10051000EF058FE99FE00197F1F700C0000040E090
:1005200063E081E00E94EF05089541E00E946F05BD
:100530000895413019F0423029F0089541E00E94B9
:10054000EF05089540E00E94EF050895413019F04D
:10055000423029F0089540E00E94EF05089541E0FF
:100560000E94EF0508950E94640289EC90E00E94C9
:10057000450280EC0E94610180E790E00E94450204
:1005800080E690E00E947D00809160008033C1F79A
:100590000E9406070E9417070E94640208958DE7D3
:1005A00090E00E94450280EC0E9461018EE890E09C
:1005B0000E9445022FEF83ED90E321508040904050
:1005C000E1F700C0000008958FEF809363008093EF
:1005D000620080936100089583EB92E00E9410070F
:1005E0000E94F8060E9464028CE990E00E942F02AB
:1005F00080EC0E94610189EA90E00E942F020E9433
:10060000E4020CC080916000803321F48FEF80936E
:10061000600008C083E690E00E947D008091630046
:100620008F3F81F30E94060780916300813319F0A8
:10063000823379F0D1CF0E94640287EB90E00E9470
:10064000450280EC0E94610184EC90E00E9445022A
:10065000C3CF0E94640283ED90E00E94450280ECCB
:100660000E94610183EE90E00E94450283EB92E0DC
:100670000E9410070E94F8060CC080916000803331
:1006800021F48FEF8093600008C082E690E00E9422
:100690007D00809162008F3F81F30E940607809168
:1006A0006200813309F04AC04EEE51E060E080E024
:1006B0000E946F060E9464028091EE018130F1F485
:1006C00080EF90E00E94450280EC0E9461018EEF75
:1006D00090E00E94450204C081E690E00E947D0007
:1006E000809161008F3FC1F3813329F441E060E0E4
:1006F00080E00E94A6020E94E402CBC18111C9C120
:100700008FE091E00E94450280EC0E9461018EE141
:1007100091E00E94450204C081E690E00E947D00C5
:10072000809161008F3FC1F3813329F441E060E0A3
:1007300080E00E9499020E94E402ABC1823309F07A
:100740004CC04EEE51E061E080E00E946F060E94D6
:1007500064028091EE018130F9F48EE291E00E9412
:10076000450280EC0E9461018EEF90E00E944502FC
:1007700004C081E690E00E947D00809161008F3F7F
:10078000C1F3813329F441E061E080E00E94A602D8
:100790008FEF809361007DC181117BC18CE391E07B
:1007A0000E94450280EC0E9461018EE191E00E946E
:1007B000450204C081E690E00E947D0080916100C6
:1007C0008F3FC1F3813329F441E061E080E00E9472
:1007D00099028FEF809361005CC1833309F04CC0B4
:1007E0004EEE51E062E080E00E946F060E946402DB
:1007F0008091EE018130F9F48BE491E00E94450292
:1008000080EC0E9461018EEF90E00E94450204C0DE
:1008100081E690E00E947D00809161008F3FC1F3EE
:10082000813329F441E062E080E00E94A6028FEF6C
:10083000809361002EC181112CC189E591E00E9455
:10084000450280EC0E9461018EE191E00E94450228
:1008500004C081E690E00E947D00809161008F3F9E
:10086000C1F3813329F441E062E080E00E94990203
:100870008FEF809361000DC1843309F04CC04EEEC0
:1008800051E063E080E00E946F060E946402809164
:10089000EE018130F9F488E691E00E94450280EC97
:1008A0000E9461018EEF90E00E94450204C081E643
:1008B00090E00E947D00809161008F3FC1F3813301
:1008C00029F441E063E080E00E94A6028FEF80936C
:1008D0006100DFC08111DDC086E791E00E94450222
:1008E00080EC0E9461018EE191E00E94450204C00B
:1008F00081E690E00E947D00809161008F3FC1F30E
:10090000813329F441E063E080E00E9499028FEF97
:1009100080936100BEC0853309F04CC04EEE51E0BB
:1009200062E083E00E946F060E9464028091EE0103
:100930008130F9F485E891E00E94450280EC0E9444
:1009400061018EEF90E00E94450204C081E690E0D4
:100950000E947D00809161008F3FC1F3813329F4B3
:1009600041E062E083E00E94A6028FEF8093610085
:1009700090C081118EC083E991E00E94450280EC15
:100980000E9461018EE191E00E94450204C081E66F
:1009900090E00E947D00809161008F3FC1F3813320
:1009A00029F441E062E083E00E9499028FEF809396
:1009B00061006FC0863301F50E9464028091EE01F0
:1009C000813061F482EA91E00E94450280EC0E944D
:1009D00061018EEF90E00E9445025BC0811159C019
:1009E00080EB91E00E94450280EC0E9461018EE163
:1009F00091E00E9445024DC0803331F50E946402AF
:100A00008FEB91E00E9445022FEF83ED90E32150A0
:100A100080409040E1F700C000000E9464028FEC2B
:100A200091E00E94450280EC0E94610180EE91E01D
:100A30000E9445022FEF83ED90E3215080409040CB
:100A4000E1F700C0000025C00E9464028FEB91E036
:100A50000E9445022FEF83ED90E3215080409040AB
:100A6000E1F700C000000E9464028FEC91E00E9458
:100A7000450280EC0E94610180EE91E00E944502F7
:100A80002FEF83ED90E3215080409040E1F700C0CC
:100A900000008FEF80936200809363009DCD0E94E1
:100AA000E2060E94E60660E080E00E94950261E0B6
:100AB00080E00E94950262E080E00E94950263E07F
:100AC00080E00E94950262E083E00E9495020E940D
:100AD00097010E9449000E94CF020E94EC028430DC
:100AE00008F07CC0683008F079C0423008F076C069
:100AF000813019F130F08230E1F1833009F454C0D3
:100B00000895442371F0413009F068C02AB381E0B0
:100B100090E002C0880F991F6A95E2F7822B8ABB8A
:100B200008952AB381E090E002C0880F991F6A956A
:100B3000E2F7809582238ABB0895442371F0413007
:100B400009F04CC027B381E090E002C0880F991FE4
:100B50006A95E2F7822B87BB089527B381E090E086
:100B600002C0880F991F6A95E2F78095822387BBA0
:100B70000895442369F0413089F524B381E090E081
:100B800002C0880F991F6A95E2F7822B84BB0895F3
:100B900024B381E090E002C0880F991F6A95E2F7C4
:100BA0008095822384BB0895442369F04130B1F4D9
:100BB00021B381E090E002C0880F991F6A95E2F7A7
:100BC000822B81BB089521B381E090E002C0880FA1
:100BD000991F6A95E2F78095822381BB089584303E
:100BE00008F07CC0683008F079C0423008F076C068
:100BF000813019F130F08230E1F1833009F454C0D2
:100C00000895442371F0413009F068C02BB381E0AE
:100C100090E002C0880F991F6A95E2F7822B8BBB88
:100C200008952BB381E090E002C0880F991F6A9568
:100C3000E2F7809582238BBB0895442371F0413005
:100C400009F04CC028B381E090E002C0880F991FE2
:100C50006A95E2F7822B88BB089528B381E090E083
:100C600002C0880F991F6A95E2F78095822388BB9E
:100C70000895442369F0413089F525B381E090E07F
:100C800002C0880F991F6A95E2F7822B85BB0895F1
:100C900025B381E090E002C0880F991F6A95E2F7C2
:100CA0008095822385BB0895442369F04130B1F4D7
:100CB00022B381E090E002C0880F991F6A95E2F7A5
:100CC000822B82BB089522B381E090E002C0880F9E
:100CD000991F6A95E2F78095822382BB089584303C
:100CE000C0F56830B0F54115510599F1813089F0B2
:100CF00028F08230C9F0833011F1089589B390E073
:100D000002C0959587956A95E2F78170FA01808314
:100D1000089586B390E002C0959587956A95E2F7AD
:100D20008170FA018083089583B390E002C09595A5
:100D300087956A95E2F78170FA018083089580B300
:100D400090E002C0959587956A95E2F78170FA0167
:100D5000808308958430A8F5683098F5813089F053
:100D600028F08230C9F0833011F108952BB381E06F
:100D700090E002C0880F991F6A95E2F7822B8BBB27
:100D8000089528B381E090E002C0880F991F6A950A
:100D9000E2F7822B88BB089525B381E090E002C082
:100DA000880F991F6A95E2F7822B85BB089522B3BD
:100DB00081E090E002C0880F991F6A95E2F7822BCC
:100DC00082BB08958FB780688FBF089583B78F7BEC
:100DD00083BF83B7886083BF83B78F7E83BF83B7AA
:100DE0008F7D83BF89B7826089BF89EF8CBF0895EB
:100DF00083B7816083BF83B7826083BF83B78B7FF4
:100E000083BF1092F0011092EF01089583B78E7F97
:100E100083BF83B78D7F83BF83B78B7F83BF0895E5
:100E2000009721F09093F2018093F101089588B723
:100E3000826088BF88B7816088BF08951F920F9233
:100E40000FB60F9211242F933F934F935F936F939D
:100E50007F938F939F93AF93BF93EF93FF93809173
:100E6000EF019091F00101969093F0018093EF01D2
:100E7000883E934069F481E782BF1092F00110929E
:100E8000EF01E091F301F091F401309709F0099539
:100E9000FF91EF91BF91AF919F918F917F916F9152
:100EA0005F914F913F912F910F900FBE0F901F9028
:100EB00018951F920F920FB60F9211242F933F9304
:100EC0004F935F936F937F938F939F93AF93BF9352
:100ED000EF93FF938091EF019091F0010196909331
:100EE000F0018093EF018838934169F41092F0018A
:100EF0001092EF01E091F101F091F201309719F0B9
:100F000009950E941707FF91EF91BF91AF919F91B3
:100F10008F917F916F915F914F913F912F910F90A2
:0C0F20000FBE0F901F901895F894FFCFA3
:100F2C00FFFFFFFF3132333435363738392A30235F
:100F3C00302D676F20746F20686F6D6500205765CA
:100F4C006C636F6D6520746F20796F757200202053
:100F5C0020536D61727420486F6D6500312D4143D3
:100F6C0020322D6C6967687400332D74656D706563
:100F7C00726174757265004143204973204F6E2F66
:100F8C006F666600526F6F6D2054656D703A20333A
:100F9C0030630043686F6F7365206C6967687420F9
:100FAC00746F00636F6E74726F6C28312D3629006C
:100FBC004C696768742031206973204F6E00312DA5
:100FCC00546F205475726E204974204F6666004C25
:100FDC00696768742031206973204F464600312DB3
:100FEC00546F205475726E204974204F6E004C69FA
:100FFC006768742032206973204F6E004C696768F3
:10100C00742032206973204F4646004C696768741F
:10101C002033206973204F6E004C6967687420334D
:10102C00206973204F4646004C6967687420342051
:10103C006973204F6E004C696768742034206973A3
:10104C00204F4646004C6967687420352069732030
:10105C004F6E004C696768742035206973204F46C9
:10106C0046004C696768742036206973204F6E0007
:10107C004C696768742036206973204F46460020FF
:10108C0020496E76616C696420496E70757400201D
:10109C0020706C656173652063686F6F73652000E9
:0E10AC00202066726F6D203120746F20360098
:00000001FF
