:100000000C942A000C943F000C943F000C943F0089
:100010000C943F000C943F000C943F000C943F0064
:100020000C943F000C943F000C943F000C943F0054
:100030000C943F000C943F000C943F000C943F0044
:100040000C943F000C943F000C943F000C943F0034
:100050000C943F0011241FBECFE5D8E0DEBFCDBF1A
:1000600011E0A0E6B0E0E0EDFBE002C005900D92EB
:10007000A23EB107D9F70E94A8020C94E6050C94A1
:10008000000041E064E081E00E943B0441E065E063
:1000900081E00E943B0441E066E081E00E943B0475
:1000A00040E063E082E00E943B0440E064E082E0E4
:1000B0000E943B0440E065E082E00E943B0440E097
:1000C00066E082E00E943B0463E082E00E94AE05AD
:1000D00064E082E00E94AE0565E082E00E94AE0529
:1000E00066E082E00E94AE0508956F927F928F9243
:1000F0009F92AF92BF92CF92DF92EF92FF920F93B7
:100100001F93CF93DF93CDB7DEB7A1970FB6F894C7
:10011000DEBF0FBECDBF009709F485C05C011D8E08
:100120001E8E1F8E18A281E08D8F8E8F8F8F198E5D
:100130001A8E1B8E1C8E34E0398F25E02A8F96E0B4
:100140009B8F82E08D8B8E8B8F8B888F83E0898B4A
:100150003A8B2B8B9C8B80E1E0E6F0E0DE01119680
:1001600001900D928A95E1F78FEFF5018083812C44
:1001700056C0C82CD12CE9E1F0E0EC0FFD1FEC0DCE
:10018000FD1D6080EDE1F0E0EC0FFD1FEC0DFD1DAD
:10019000708040E0662D872D0E94BB0410E037C0C0
:1001A000E12EF12CE1E1F0E0EC0FFD1FEE0DFF1D63
:1001B0000081E5E1F0E0EC0FFD1FEE0DFF1D9080EA
:1001C000AE014F5D5F4F602F892D0E943B0589A1D5
:1001D00081111CC007C0AE014F5D5F4F602F892D9C
:1001E0000E943B0589A18823B1F3EE0CFF1CEE0CA5
:1001F000FF1C81E090E08C0F9D1FE80EF91EF701B7
:10020000EC0DFD1D8081F50180830DC01F5F143052
:1002100038F241E0662D872D0E94BB048394F2E002
:10022000F81508F0A6CFA1960FB6F894DEBF0FBE62
:10023000CDBFDF91CF911F910F91FF90EF90DF9095
:10024000CF90BF90AF909F908F907F906F900895C8
:10025000CF93C82F80FF06C041E064E080E00E9499
:10026000BB0405C040E064E080E00E94BB04C1FF25
:1002700006C041E065E080E00E94BB0405C040E0AC
:1002800065E080E00E94BB04C2FF06C041E066E07A
:1002900080E00E94BB0405C040E066E080E00E9470
:1002A000BB04C3FF06C041E067E080E00E94BB04DE
:1002B00005C040E067E080E00E94BB04CF91089554
:1002C000CF93C82F40E061E081E00E94BB0440E092
:1002D00062E081E00E94BB048C2F82958F700E94A7
:1002E000280141E063E081E00E94BB048FE99FE0C8
:1002F0000197F1F700C0000040E063E081E00E9458
:10030000BB048C2F0E94280141E063E081E00E9441
:10031000BB048FE99FE00197F1F700C0000040E0C7
:1003200063E081E00E94BB04CF91089541E061E069
:1003300081E00E943B0441E062E081E00E943B04D6
:1003400041E063E081E00E943B0441E064E080E042
:100350000E943B0441E065E080E00E943B0441E0F4
:1003600066E080E00E943B0441E067E080E00E949C
:100370003B042FE785EB91E0215080409040E1F76E
:1003800000C0000040E061E081E00E94BB0440E06A
:1003900062E081E00E94BB0482E00E94280141E00B
:1003A00063E081E00E94BB048FE99FE00197F1F7D1
:1003B00000C0000040E063E081E00E94BB0488E2EE
:1003C0000E94600190EF9A95F1F78FE00E94600122
:1003D00020EF2A95F1F781E00E9460018FE39FE111
:1003E0000197F1F700C0000086E00E9460010895C7
:1003F000CF93C82F41E061E081E00E94BB0440E060
:1004000062E081E00E94BB048C2F82958F700E9475
:10041000280141E063E081E00E94BB048FE99FE096
:100420000197F1F700C0000040E063E081E00E9426
:10043000BB048C2F0E94280141E063E081E00E9410
:10044000BB048FE99FE00197F1F700C0000040E096
:1004500063E081E00E94BB04CF9108950F931F9346
:10046000CF93009729F40CC00E94F801CF5F02C01F
:100470008C01C0E0F801EC0FF11D80818111F4CFF7
:10048000CF911F910F9108950F931F93CF930097D2
:1004900071F415C00E94F801CF5F2FEF80E792E062
:1004A000215080409040E1F700C0000002C08C0164
:1004B000C0E0F801EC0FF11D80818111EBCFCF91ED
:1004C0001F910F91089540E061E081E00E94BB041C
:1004D00040E062E081E00E94BB0480E00E942801CD
:1004E00041E063E081E00E94BB048FE99FE0019757
:1004F000F1F700C0000040E063E081E00E94BB042F
:1005000081E00E94280141E063E081E00E94BB0499
:100510008FE99FE00197F1F700C0000040E063E041
:1005200081E00E94BB04089541E00E943B040895CD
:10053000413019F0423029F0089540E00E94BB0498
:10054000089541E00E94BB0408950E947605089535
:10055000CF93DF9300D000D0CDB7DEB760E080E06E
:100560000E9494020E9496010E94410080E790E060
:100570000E94440280EC0E94600181E890E00E94A9
:1005800044022FEF83ED90E3215080409040E1F74B
:1005900000C000000E9463028FE890E00E942E02DB
:1005A00080EC0E9460018CE990E00E942E0241E004
:1005B00060E080E00E9498022FEF83ED90E32150ED
:1005C00080409040E1F700C000008FEF8A838B836A
:1005D0001C82CE0101960E94750089818F3FC9F36C
:1005E000813319F0823379F0F4CF0E9463028AEAF2
:1005F00090E00E94440280EC0E94600187EB90E052
:100600000E944402E6CF0E94630286EC90E00E94C2
:10061000440280EC0E94600186ED90E00E9444025A
:100620002FEF86E791E0215080409040E1F700C035
:10063000000004C0CE0102960E9475008A818F3F9F
:10064000C9F3813309F047C0AE014C5F5F4F60E0F2
:1006500080E00E943B050E9463028C818130E9F4B6
:1006600083EE90E00E94440280EC0E94600181EFE2
:1006700090E00E94440204C0CE0103960E947500DF
:100680008B818F3FC9F3813329F442E060E080E041
:100690000E9498028FEF8B83EBC08111E9C082E04A
:1006A00091E00E94440280EC0E94600181E191E0AF
:1006B0000E94440204C0CE0103960E9475008B8103
:1006C0008F3FC9F3813321F460E080E00E94A502EE
:1006D0008FEF8B83CDC08233F9F40E9463028C814B
:1006E000813061F481E291E00E94440280EC0E943A
:1006F000600181EF90E00E944402BAC08111B8C04D
:100700008FE291E00E94440280EC0E94600181E14E
:1007100091E00E944402ACC08333F9F40E9463026A
:100720008C81813061F48EE391E00E94440280EC80
:100730000E94600181EF90E00E94440299C0811103
:1007400097C08CE491E00E94440280EC0E9460011A
:1007500081E191E00E9444028BC08433F9F40E944D
:1007600063028C81813061F48BE591E00E94440248
:1007700080EC0E94600181EF90E00E94440278C00A
:10078000811176C089E691E00E94440280EC0E94CB
:10079000600181E191E00E9444026AC08533F9F46E
:1007A0000E9463028C81813061F488E791E00E94AD
:1007B000440280EC0E94600181EF90E00E944402BC
:1007C00057C0811155C086E891E00E94440280EC38
:1007D0000E94600181E191E00E94440249C0863399
:1007E000F9F40E9463028C81813061F485E991E023
:1007F0000E94440280EC0E94600181EF90E00E9420
:10080000440236C0811134C083EA91E00E94440260
:1008100080EC0E94600181E191E00E94440228C0C6
:100820000E94630282EB91E00E9444022FEF83ED6D
:1008300090E3215080409040E1F700C000000E940A
:10084000630282EC91E00E94440280EC0E9460010D
:1008500083ED91E00E9444022FEF83ED90E321505D
:1008600080409040E1F700C000008FEF8A83E6CE21
:100870008FEF8A83AECE843008F07CC0683008F0F9
:1008800079C0423008F076C0813019F130F0823002
:10089000E1F1833009F454C00895442371F04130EC
:1008A00009F068C02AB381E090E002C0880F991F68
:1008B0006A95E2F7822B8ABB08952AB381E090E023
:1008C00002C0880F991F6A95E2F7809582238ABB40
:1008D0000895442371F0413009F04CC027B381E002
:1008E00090E002C0880F991F6A95E2F7822B87BBC0
:1008F000089527B381E090E002C0880F991F6A95A0
:10090000E2F78095822387BB0895442369F0413044
:1009100089F524B381E090E002C0880F991F6A95A1
:10092000E2F7822B84BB089524B381E090E002C0FB
:10093000880F991F6A95E2F78095822384BB0895FA
:10094000442369F04130B1F421B381E090E002C06A
:10095000880F991F6A95E2F7822B81BB089521B316
:1009600081E090E002C0880F991F6A95E2F78095B8
:10097000822381BB0895843008F07CC0683008F081
:1009800079C0423008F076C0813019F130F0823001
:10099000E1F1833009F454C00895442371F04130EB
:1009A00009F068C02BB381E090E002C0880F991F66
:1009B0006A95E2F7822B8BBB08952BB381E090E020
:1009C00002C0880F991F6A95E2F7809582238BBB3E
:1009D0000895442371F0413009F04CC028B381E000
:1009E00090E002C0880F991F6A95E2F7822B88BBBE
:1009F000089528B381E090E002C0880F991F6A959E
:100A0000E2F78095822388BB0895442369F0413042
:100A100089F525B381E090E002C0880F991F6A959F
:100A2000E2F7822B85BB089525B381E090E002C0F8
:100A3000880F991F6A95E2F78095822385BB0895F8
:100A4000442369F04130B1F422B381E090E002C068
:100A5000880F991F6A95E2F7822B82BB089522B313
:100A600081E090E002C0880F991F6A95E2F78095B7
:100A7000822382BB08958430C0F56830B0F54115FB
:100A8000510599F1813089F028F08230C9F0833026
:100A900011F1089589B390E002C0959587956A9504
:100AA000E2F78170FA018083089586B390E002C076
:100AB000959587956A95E2F78170FA01808308958C
:100AC00083B390E002C0959587956A95E2F78170AF
:100AD000FA018083089580B390E002C095958795D0
:100AE0006A95E2F78170FA01808308958430A8F551
:100AF000683098F5813089F028F08230C9F0833071
:100B000011F108952BB381E090E002C0880F991F86
:100B10006A95E2F782278BBB089528B381E090E0C5
:100B200002C0880F991F6A95E2F7822788BB089553
:100B300025B381E090E002C0880F991F6A95E2F723
:100B4000822785BB089522B381E090E002C0880F20
:100B5000991F6A95E2F7822782BB08958430A8F531
:100B6000683098F5813089F028F08230C9F0833000
:100B700011F108952BB381E090E002C0880F991F16
:100B80006A95E2F7822B8BBB089528B381E090E051
:100B900002C0880F991F6A95E2F7822B88BB0895DF
:100BA00025B381E090E002C0880F991F6A95E2F7B3
:100BB000822B85BB089522B381E090E002C0880FAC
:100BC000991F6A95E2F7822B82BB0895F894FFCFB4
:100BD0003132334134353642373839432A302344B1
:100BE0002057656C636F6D6520746F20796F757227
:100BF00000202020536D61727420486F6D650031B4
:100C00002D414320322D6C6967687400332D746563
:100C10006D7065726174757265004143204973207F
:100C20004F6E2F6F666600526F6F6D2054656D704A
:100C30003A203330630043686F6F7365206C6967D7
:100C4000687420746F00636F6E74726F6C28312D3E
:100C50003629004C696768742031206973204F6E13
:100C600000312D546F205475726E204974204F66E8
:100C700066004C696768742031206973204F4646CE
:100C800000312D546F205475726E204974204F6EC0
:100C9000004C696768742032206973204F6E004CE5
:100CA000696768742032206973204F4646004C699A
:100CB0006768742033206973204F6E004C69676841
:100CC000742033206973204F4646004C696768746E
:100CD0002034206973204F6E004C6967687420349B
:100CE000206973204F4646004C69676874203520A0
:100CF0006973204F6E004C696768742035206973F2
:100D0000204F4646004C696768742036206973207E
:100D10004F6E004C696768742036206973204F4617
:100D200046002020496E76616C696420496E7075BA
:100D300074002020706C656173652063686F6F7349
:100D4000652000202066726F6D203120746F203680
:020D50000000A1
:00000001FF
