S0120000536D6172745F486F6D652E7372656323
S11300000C942A000C9447000C9447000C9447006D
S11300100C9447000C9447000C9447000C94470040
S11300200C9447000C9447000C94770A0C943C0AF7
S11300300C9447000C9447000C9447000C94470020
S11300400C9447000C9447000C9447000C94470010
S11300500C94470011241FBECFE5D8E0DEBFCDBF0E
S113006012E0A0E6B0E0E4EEF6E102C005900D92E5
S1130070A036B107D9F722E0A0E6B2E001C01D9294
S1130080A736B207E1F70E942B080C94700B0C946E
S11300900000CF93DF931F92CDB7DEB719820E9481
S11300A0C10719C081E690E00E948705BE016F5F19
S11300B07F4F80E00E9476082FEF81EE94E021507C
S11300C080409040E1F700C00000698170E080E06A
S11300D090E00E946E07809161008F3F19F3803396
S11300E011F40E94C1070E94350A0E94C1070F90B3
S11300F0DF91CF9108950E94E5040E94A1060E9419
S113010053050E94E20441E061E083E00E948D080F
S113011040E060E083E00E948D080E94000A0E9493
S1130120040A63E083E00E940D0861E080E00E941D
S11301300D0862E080E00E940D0863E080E00E9408
S11301400D0862E083E00E940D080895CF92DF92CB
S1130150EF92FF921F93CF93DF93009709F45FC050
S11301606115710509F45BC07B016C010E94C10734
S113017060E081E00E94F2078CE890E00E94390779
S113018060E082E00E94F2078EE990E00E94390765
S11301902FEF83ED90E3215080409040E1F700C0C1
S11301A000000E94C10760E081E00E94F2078CEA2F
S11301B090E00E94390710E011C0E601C10FD11D83
S11301C0CE010E94870598819F3FB9F3612F82E099
S11301D00E94F20788810E9403071F5F183068F3AA
S11301E00E94C10760E081E00E94F20787EB90E083
S11301F00E94390710E011C0E701C10FD11DCE01E3
S11302000E94870588818F3FB9F3612F82E00E94A5
S1130210F20788810E9403071F5F183068F3DF919B
S1130220CF911F91FF90EF90DF90CF9008958F9220
S11302309F92AF92BF92CF92DF92EF92FF920F9371
S11302401F93CF93DF93CDB7DEB7A0970FB6F89483
S1130250DEBF0FBECDBF6115710509F4EEC081305C
S113026009F0EBC0DAC09394BE016F5E7F4FCE01FC
S113027049960E94A600B12CC12CD12C5FC00D2D33
S11302800295007F10E0AE01475F5F4F68E070E0C9
S1130290C8010E941305AE014F5F5F4F68E070E034
S11302A0C80108960E94130540E020E014C0822F84
S11302B090E0E9E1F0E0EC0FFD1FE80FF91F308159
S11302C0E9E0F0E0EC0FFD1FE80FF91F808138131F
S11302D001C04F5F2F5F283050F3483069F515C0D7
S11302E0822F90E0E1E1F0E0EC0FFD1FE80FF91F31
S11302F03081E1E0F0E0EC0FFD1FE80FF91F808191
S1130300381301C04F5F2F5F02C040E020E0283067
S113031038F3483079F42FE0D21206C081E0F701B7
S11303208083882483940EC082E0F701808388242C
S1130330839408C0B39401C0C394D394FFE0FD1523
S113034008F09DCF21E0821214C00E94C10760E032
S113035081E00E94F20781EC90E00E9439078FEF60
S113036099E6E8E181509040E040E1F700C00000E8
S11303705CC0F0E1CF1227C00E94C10760E081E0B9
S11303800E94F20781ED90E00E94390760E082E06C
S11303900E94F2078FED90E00E94390722E0A21636
S11303A0D1F18FEF93EDE0E381509040E040E1F72D
S11303B000C0000060E082E00E94F2078FEE90E04F
S11303C00E94390728C0BB2031F10E94C10760E0B8
S11303D081E00E94F20781ED90E00E94390760E01D
S11303E082E00E94F20780E091E00E943907F2E087
S11303F0AF1689F02FEF83ED90E3215080409040B9
S1130400E1F700C0000060E082E00E94F2078FEE96
S113041090E00E943907A39404C07B01812C912CA5
S1130420A12CE2E0EA1508F01ECFF3E09F1205C00C
S1130430811003C083E0F7018083A0960FB6F8947F
S1130440DEBF0FBECDBFDF91CF911F910F91FF9003
S1130450EF90DF90CF90BF90AF909F908F900895D2
S11304608FE091E00E944F0780EC0E946B0680E2CF
S113047091E00E944F072FEF83ED90E321508040DD
S11304809040E1F700C000000895CF93DF93CDB70B
S1130490DEB7A1970FB6F894DEBF0FBECDBF0E94A2
S11304A07B0081E00E94460840E060E080E00E941A
S11304B08D080E9430020E94C10788E0E5E6F0E062
S11304C0DE01119601900D928A95E1F788E0EEE63F
S11304D0F0E0DE01199601900D928A95E1F788E02B
S11304E0E7E7F0E0DE01519601900D928A95E1F77D
S11304F088E0E7E7F0E0DE01599601900D928A95D5
S1130500E1F7BE016F5F7F4F80E190E00E94E80455
S1130510BE01675F7F4F88E190E00E94E804BE015E
S11305206F5E7F4F80EF90E00E94E804BE01675E3B
S11305307F4F88EF90E00E94E804BE016F5D7F4F1B
S113054081E00E9417010E94C10760E081E00E94DF
S1130550F20769A170E080E090E00E946E072FEF3F
S113056083ED90E3215080409040E1F700C000000B
S1130570A1960FB6F894DEBF0FBECDBFDF91CF9129
S113058008958FEF809364008093630080936200EA
S113059008950E94C10289E490E00E942E0A0E94FC
S11305A0160A0E94C1078EE291E00E94390780EC8E
S11305B00E946B068BE391E00E9439070E94C102FE
S11305C00CC080916100803321F48FEF809361002F
S11305D008C084E690E00E948705809164008F3F04
S11305E081F30E94240A80916400813319F08233DC
S11305F079F008950E94C10789E491E00E944F07B1
S113060080EC0E946B0686E591E00E944F070895F6
S11306100E94C10785E691E00E944F0780EC0E948A
S11306206B0685E791E00E944F0789E490E00E9401
S11306302E0A0E94160A0CC083E690E00E948705E9
S113064080916100803321F48FEF8093610004C0B6
S1130650809163008F3F81F30E94240A809163009C
S1130660833309F4A6C030F4813369F0823309F48A
S113067054C0A2C1853309F434C108F4E6C08633FA
S113068009F47BC199C140E652E060E080E00E9439
S11306908D090E94C107809160028130F1F482E8E3
S11306A091E00E944F0780EC0E946B0680E991E084
S11306B00E944F0704C082E690E00E948705809163
S11306C062008F3FC1F3813329F441E060E080E0B0
S11306D00E941E080E94C1026FC181116DC181EA8E
S11306E091E00E944F0780EC0E946B0680EB91E042
S11306F00E944F0704C082E690E00E948705809123
S113070062008F3FC1F3813329F441E060E080E06F
S11307100E9411080E94C1024FC140E652E061E00C
S113072080E00E948D090E94C1078091600281309F
S1130730F9F480EC91E00E944F0780EC0E946B0674
S113074080E991E00E944F0704C082E690E00E9495
S11307508705809162008F3FC1F3813329F441E022
S113076061E080E00E941E088FEF8093620024C144
S1130770811122C18EEC91E00E944F0780EC0E940F
S11307806B0680EB91E00E944F0704C082E690E084
S11307900E948705809162008F3FC1F3813329F461
S11307A041E061E080E00E9411088FEF80936200D5
S11307B003C140E652E062E080E00E948D090E949D
S11307C0C107809160028130F9F48DED91E00E94BF
S11307D04F0780EC0E946B0680E991E00E944F076E
S11307E004C082E690E00E948705809162008F3FFA
S11307F0C1F3813329F441E062E080E00E941E08E5
S11308008FEF80936200D8C08111D6C08BEE91E047
S11308100E944F0780EC0E946B0680EB91E00E94DF
S11308204F0704C082E690E00E9487058091620031
S11308308F3FC1F3813329F441E062E080E00E94FC
S113084011088FEF80936200B7C040E652E063E086
S113085080E00E948D090E94C1078091600281306E
S1130860F9F48AEF91E00E944F0780EC0E946B0636
S113087080E991E00E944F0704C082E690E00E9464
S11308808705809162008F3FC1F3813329F441E0F1
S113089063E080E00E941E088FEF809362008CC0AA
S11308A081118AC088E092E00E944F0780EC0E9488
S11308B06B0680EB91E00E944F0704C082E690E053
S11308C00E948705809162008F3FC1F3813329F430
S11308D041E063E080E00E9411088FEF80936200A2
S11308E06BC040E652E062E083E00E948D090E9402
S11308F0C107809160028130F9F487E192E00E949F
S11309004F0780EC0E946B0680E991E00E944F073C
S113091004C082E690E00E948705809162008F3FC8
S1130920C1F3813329F441E062E083E00E941E08B0
S11309308FEF8093620040C081113EC085E292E057
S11309400E944F0780EC0E946B0680EB91E00E94AE
S11309504F0704C082E690E00E9487058091620000
S11309608F3FC1F3813329F441E062E083E00E94C8
S113097011088FEF809362001FC00E94C10780910D
S11309806002813061F484E392E00E944F0780ECBE
S11309900E946B0680E991E00E944F070DC081110F
S11309A00BC082E492E00E944F0780EC0E946B0629
S11309B080EB91E00E944F078FEF80936300809358
S11309C0640008950E943D0B08950E94B20A0895A0
S11309D00F931F93CF93DF9361157105F9F08B018A
S11309E0D82FC92FC0650E94BE0A8C2F0E94E10A2D
S11309F08D2F0E940B0BC0E007C0F801EC0FF11D16
S1130A0080810E940B0BCF5FC830B8F30E94DA0AD2
S1130A108FE19EE40197F1F700C00000DF91CF91D0
S1130A201F910F910895EF92FF920F931F93CF930D
S1130A30DF934115510581F1611522E0720760F5DC
S1130A408A017B01D82FC92FC0650E94BE0A8C2F52
S1130A500E94E10A8D2F0E940B0B0E94CC0A8C2F5E
S1130A600E94F60AC0E0D0E006C0C8018C0F9D1FAA
S1130A700E94170B2196C7010197C817D907A8F33D
S1130A80800F911F0E942D0B0E94DA0A8FE19EE4D1
S1130A900197F1F700C00000DF91CF911F910F91F2
S1130AA0FF90EF90089541E064E081E00E948D089A
S1130AB041E065E081E00E948D0841E066E081E06C
S1130AC00E948D0840E063E082E00E948D0840E0CF
S1130AD064E082E00E948D0840E065E082E00E94CC
S1130AE08D0840E066E082E00E948D0863E082E0C9
S1130AF00E94C80964E082E00E94C80965E082E0BF
S1130B000E94C80966E082E00E94C80908956F92B5
S1130B107F928F929F92AF92BF92CF92DF92EF9289
S1130B20FF920F931F93CF93DF93CDB7DEB76B97ED
S1130B300FB6F894DEBF0FBECDBF009709F47EC098
S1130B405C0181E0888F898F8A8F34E03D8B25E0BA
S1130B502E8B96E09F8B82E0898B8A8B8B8B8C8B80
S1130B6083E08D873E872F87988B8CE0E0E8F0E068
S1130B70DE01119601900D928A95E1F78FEFF50150
S1130B808083812C57C0C82CD12CE5E1F0E0EC0F18
S1130B90FD1FEC0DFD1D6080E8E1F0E0EC0FFD1F92
S1130BA0EC0DFD1D708040E0662D872D0E940D091F
S1130BB010E038C0E12EF12CEDE0F0E0EC0FFD1F69
S1130BC0EE0DFF1D0081E1E1F0E0EC0FFD1FEE0DE5
S1130BD0FF1D9080AE01455E5F4F602F892D0E94FE
S1130BE08D098B8D81111DC007C0AE01455E5F4F1D
S1130BF0602F892D0E948D098B8D8823B1F3C70145
S1130C00880F991FE80EF91E81E090E08C0F9D1F5C
S1130C10E80EF91EF701EC0DFD1D8081F5018083BE
S1130C200DC01F5F143030F241E0662D872D0E9405
S1130C300D098394F2E0F81508F0A5CF6B960FB672
S1130C40F894DEBF0FBECDBFDF91CF911F910F91FE
S1130C50FF90EF90DF90CF90BF90AF909F908F90D8
S1130C607F906F900895CF93C82F80FF06C041E016
S1130C7064E080E00E940D0905C040E064E080E08B
S1130C800E940D09C1FF06C041E065E080E00E94BA
S1130C900D0905C040E065E080E00E940D09C2FF37
S1130CA006C041E066E080E00E940D0905C040E016
S1130CB066E080E00E940D09C3FF06C041E067E0E2
S1130CC080E00E940D0905C040E067E080E00E94DA
S1130CD00D09CF910895CF93C82F40E061E081E0E2
S1130CE00E940D0940E062E081E00E940D098C2F12
S1130CF082958F700E94330641E063E081E00E9498
S1130D000D098FE99FE00197F1F700C0000040E072
S1130D1063E081E00E940D098C2F0E94330641E0BC
S1130D2063E081E00E940D098FE99FE00197F1F7EC
S1130D3000C0000040E063E081E00E940D09CF9113
S1130D40089541E061E081E00E948D0841E062E0A5
S1130D5081E00E948D0841E063E081E00E948D08FB
S1130D6041E064E080E00E948D0841E065E080E0BD
S1130D700E948D0841E066E080E00E948D0841E019
S1130D8067E080E00E948D082FE785EB91E0215019
S1130D9080409040E1F700C0000040E061E081E065
S1130DA00E940D0940E062E081E00E940D0982E0AA
S1130DB00E94330641E063E081E00E940D098FE95F
S1130DC09FE00197F1F700C0000040E063E081E09C
S1130DD00E940D0988E20E946B0690EF9A95F1F744
S1130DE08FE00E946B0620EF2A95F1F781E00E94C4
S1130DF06B068FE39FE10197F1F700C0000086E0E6
S1130E000E946B060895CF93C82F41E061E081E012
S1130E100E940D0940E062E081E00E940D098C2FE0
S1130E2082958F700E94330641E063E081E00E9466
S1130E300D098FE99FE00197F1F700C0000040E041
S1130E4063E081E00E940D098C2F0E94330641E08B
S1130E5063E081E00E940D098FE99FE00197F1F7BB
S1130E6000C0000040E063E081E00E940D09CF91E2
S1130E7008950F931F93CF93009729F40CC00E94F9
S1130E800307CF5F02C08C01C0E0F801EC0FF11D35
S1130E9080818111F4CFCF911F910F9108950F9309
S1130EA01F93CF93009771F415C00E940307CF5F7F
S1130EB02FEF80E792E0215080409040E1F700C09E
S1130EC0000002C08C01C0E0F801EC0FF11D80812C
S1130ED08111EBCFCF911F910F9108950F931F9321
S1130EE0CF93DF9300D000D01F92CDB7DEB7262F6B
S1130EF010E008C01F5FEDEC6E9F612D1124669514
S1130F00669566956111F6CF00E01AC0622F2AE05B
S1130F1030E040E050E00E944E0B732F842F952F59
S1130F20A02FB0E01196E12FF0E0EA1BFB0B41E0AB
S1130F3050E04C0F5D1FE40FF51F605D60830F5F91
S1130F40011720F3E1E0F0E0EC0FFD1FE10FF11DCC
S1130F50108210E003C00E9403071F5FE1E0F0E08D
S1130F60EC0FFD1FE10FF11D80818111F4CF0F9073
S1130F700F900F900F900F90DF91CF911F910F91D1
S1130F80089540E061E081E00E940D0940E062E0E4
S1130F9081E00E940D0980E00E94330641E063E095
S1130FA081E00E940D098FE99FE00197F1F700C0ED
S1130FB0000040E063E081E00E940D0981E00E94AE
S1130FC0330641E063E081E00E940D098FE99FE070
S1130FD00197F1F700C0000040E063E081E00E9467
S1130FE00D090895CF93DF936832A0F4C62FD82F4C
S1130FF082E00E946B06D13019F0D23031F00AC081
S11310008C2F80680E946B0605C080E48C0F80687A
S11310100E946B06DF91CF91089541E00E948D08F4
S11310200895413019F0423029F0089541E00E94BA
S11310300D09089540E00E940D090895413019F00A
S1131040423029F0089540E00E940D09089541E0DE
S11310500E940D0908950E9445022FEF83ED90E34D
S1131060215080409040E1F700C000008091600072
S1131070813019F40E94C902F9CF8111F7CF81E5BB
S113108092E00E94390780E090E00895823059F0A0
S1131090833081F08130A1F487B1806487B987B14E
S11310A08F7787B90DC087B18F7B87B987B18F7769
S11310B087B906C087B1806487B987B1806887B96A
S11310C087B18F7D87B986B18F7D86B986B1877FD9
S11310D086B986B1846086B986B1826086B986B1E4
S11310E0816086B986B1806886B9089561157105F5
S11310F099F097B1907E97B997B1892B87B986B14A
S1131100806486B9349BFECF86B1806186B984B190
S113111095B1FB01918380830895843008F07CC0ED
S1131120683008F079C0423008F076C0813019F197
S113113030F08230E1F1833009F454C0089544233F
S113114071F0413009F068C02AB381E090E002C038
S1131150880F991F6A95E2F7822B8ABB08952AB3F8
S113116081E090E002C0880F991F6A95E2F78095AC
S113117082238ABB0895442371F0413009F04CC0A6
S113118027B381E090E002C0880F991F6A95E2F7C7
S1131190822B87BB089527B381E090E002C0880FBB
S11311A0991F6A95E2F78095822387BB08954423AB
S11311B069F0413089F524B381E090E002C0880FE2
S11311C0991F6A95E2F7822B84BB089524B381E0CA
S11311D090E002C0880F991F6A95E2F780958223F8
S11311E084BB0895442369F04130B1F421B381E014
S11311F090E002C0880F991F6A95E2F7822B81BBA9
S1131200089521B381E090E002C0880F991F6A9588
S1131210E2F78095822381BB0895843008F07CC076
S1131220683008F079C0423008F076C0813019F196
S113123030F08230E1F1833009F454C0089544233E
S113124071F0413009F068C02BB381E090E002C036
S1131250880F991F6A95E2F7822B8BBB08952BB3F5
S113126081E090E002C0880F991F6A95E2F78095AB
S113127082238BBB0895442371F0413009F04CC0A4
S113128028B381E090E002C0880F991F6A95E2F7C5
S1131290822B88BB089528B381E090E002C0880FB8
S11312A0991F6A95E2F78095822388BB08954423A9
S11312B069F0413089F525B381E090E002C0880FE0
S11312C0991F6A95E2F7822B85BB089525B381E0C7
S11312D090E002C0880F991F6A95E2F780958223F7
S11312E085BB0895442369F04130B1F422B381E011
S11312F090E002C0880F991F6A95E2F7822B82BBA7
S1131300089522B381E090E002C0880F991F6A9586
S1131310E2F78095822382BB08958430C0F568305B
S1131320B0F54115510599F1813089F028F08230EA
S1131330C9F0833011F1089589B390E002C0959506
S113134087956A95E2F78170FA018083089586B3E0
S113135090E002C0959587956A95E2F78170FA014D
S11313608083089583B390E002C0959587956A952C
S1131370E2F78170FA018083089580B390E002C09F
S1131380959587956A95E2F78170FA0180830895AF
S11313908430A8F5683098F5813089F028F08230DF
S11313A0C9F0833011F108952BB381E090E002C0BD
S11313B0880F991F6A95E2F7822B8BBB089528B397
S11313C081E090E002C0880F991F6A95E2F7822BB2
S11313D088BB089525B381E090E002C0880F991F6F
S11313E06A95E2F7822B85BB089522B381E090E0F1
S11313F002C0880F991F6A95E2F7822B82BB089579
S11314008FB780688FBF089583B78F7B83BF83B7FF
S1131410886083BF83B78F7E83BF83B78F7D83BF8D
S113142089B7826089BF89EF8CBF089583B78160D3
S113143083BF83B7826083BF83B78B7F83BF1092E0
S1131440620210926102089583B78E7F83BF83B7CF
S11314508D7F83BF83B78B7F83BF0895009721F06F
S11314609093640280936302089588B7826088BF72
S113147088B7816088BF08951F920F920FB60F92AC
S113148011242F933F934F935F936F937F938F9385
S11314909F93AF93BF93EF93FF93809161029091D9
S11314A0620201969093620280936102883E9340A7
S11314B069F481E782BF1092620210926102E091A6
S11314C06502F0916602309709F00995FF91EF915A
S11314D0BF91AF919F918F917F916F915F914F9148
S11314E03F912F910F900FBE0F901F9018951F9250
S11314F00F920FB60F9211242F933F934F935F9344
S11315006F937F938F939F93AF93BF93EF93FF93C7
S1131510809161029091620201969093620280939D
S113152061028838934169F4109262021092610258
S1131530E0916302F0916402309719F009950E94DA
S1131540350AFF91EF91BF91AF919F918F917F9158
S11315506F915F914F913F912F910F900FBE0F901C
S11315601F9018958CE080B981B18D7F81B981B1CC
S11315708E7F81B986B7846086BF089586B78062FE
S113158086BF86B7806886BF06B607FEFDCF81B1E9
S1131590887F8830E1F7089586B7806286BF86B772
S11315A0806886BF06B607FEFDCF81B1887F803193
S11315B0E1F7089586B7806186BF86B7806886BFE5
S11315C00895882394F0880F83B983B18E7F83B9FB
S11315D086B78F7D86BF86B7806886BF06B607FE4E
S11315E0FDCF81B1887F8831E1F70895882394F095
S11315F0880F83B983B1816083B986B78F7D86BF35
S113160086B7806886BF06B607FEFDCF81B1887FA6
S11316108034E1F7089583B986B7806886BF06B63B
S113162007FEFDCF81B1887F8832E1F70895FC0180
S1131630892B91F096B7906496BF96B7906896BF41
S113164006B607FEFDCF91B1987F9035E1F783B1DF
S1131650808386B78F7B86BF0895FC01892B61F058
S113166096B7906896BF06B607FEFDCF91B1987FF6
S11316709835E1F783B1808308958BB18D7F8BB961
S113168087E689B98AB18B7F8AB986E880BD8AB139
S113169080618AB98AB188608AB90895A1E21A2E54
S11316A0AA1BBB1BFD010DC0AA1FBB1FEE1FFF1F02
S11316B0A217B307E407F50720F0A21BB30BE40B52
S11316C0F50B661F771F881F991F1A9469F7609599
S11316D07095809590959B01AC01BD01CF01089553
S10716E0F894FFCFA8
S11316E401FFFFFFFF313131313131313100323209
S11316F432323232323200393939393939393900EE
S11317043132333435363738392A3023506C6561F5
S1131714736520456E7465722055736572004E615D
S11317246D652650617373776F72640055736572C7
S1131734204E616D653A0050415353574F52443A19
S113174400414343455353205045524D4954454465
S1131754004143434553532044454E4945440057AF
S1131764726F6E672055736572204E616D6500500B
S11317746C656173652054727920416761696E00F8
S113178457726F6E672050617373776F72640020B1
S113179457656C636F6D6520746F20796F75720083
S11317A4202020536D61727420486F6D6500312DC3
S11317B4414320322D6C6967687400332D74656D60
S11317C47065726174757265004143204973204FDA
S11317D46E2F6F666600526F6F6D2054656D703A9C
S11317E4203330630043686F6F7365206C696768E6
S11317F47420746F00636F6E74726F6C28312D36AD
S113180429004C696768742031206973204F6E0085
S1131814312D546F205475726E204974204F6666BE
S1131824004C696768742031206973204F46460070
S1131834312D546F205475726E204974204F6E00FC
S11318444C696768742032206973204F6E004C69B8
S11318546768742032206973204F4646004C6967D8
S113186468742033206973204F6E004C6967687470
S11318742033206973204F4646004C6967687420FE
S113188434206973204F6E004C69676874203420D7
S11318946973204F4646004C696768742035206993
S11318A473204F6E004C6967687420352069732077
S11318B44F4646004C696768742036206973204F8C
S11318C46E004C696768742036206973204F46465D
S11318D4004163636573732044656E696564000045
S9030000FC
