:100000000C942A000C9447000C9447000C94470071
:100010000C9404180C94C9170C9447000C944700D6
:100020000C9447000C9447000C9460170C9425170F
:100030000C9447000C9447000C9447000C94470024
:100040000C9447000C9447000C9447000C94470014
:100050000C94470011241FBECFE5D8E0DEBFCDBF12
:1000600014E0A0E6B0E0EAE7FCE302C005900D92E0
:10007000A033B107D9F724E0A0E3B4E001C01D929A
:10008000AA36B207E1F70E944D140C943B1E0C9463
:10009000000060E374E080E00E949D1480913004D1
:1000A0008D3130F040E062E082E00E943815089522
:1000B000853128F441E062E082E00E94381508951D
:1000C0000E94A4120E942F160E9442160E94A210A3
:1000D00064E083E00E942E1460E070E0CB010E9497
:1000E00034140E94561166E083E00E9496100E942C
:1000F0008A1041E061E083E00E94B81440E060E0D3
:1001000083E00E94B8140E942B160E94ED1663E053
:1001100083E00E94101460E081E00E94101462E00D
:1001200080E00E94101463E080E00E94101462E0FE
:1001300083E00E94101465E083E00E9410140E9486
:100140009B1789E490E00E94BB170E94AD170895A9
:10015000CF92DF92EF92FF921F93CF93DF9300979E
:1001600009F467C06115710509F463C07B016C0176
:100170000E94C41360E081E00E94F51382E790E0E2
:100180000E943C1360E082E00E94F51384E890E056
:100190000E943C132FEF83ED90E32150804090406C
:1001A000E1F700C000000E94C41360E081E00E94FB
:1001B000F51384EA90E00E943C1310E011C0E601C0
:1001C000C10FD11DCE010E948A1198819F3FB9F3C2
:1001D000612F82E00E94F51388810E9406131F5F41
:1001E000173068F3F601E10FF11D10820E94C4136D
:1001F00060E081E00E94F51382E990E00E943C13E8
:1002000010E011C0E701C10FD11DCE010E948A117B
:1002100088818F3FB9F3612F82E00E94F5138881B6
:100220000E9406131F5F173068F3F701E10FF11DFD
:100230001082DF91CF911F91FF90EF90DF90CF90D0
:100240000895CF92DF92EF92FF920F931F93CF9377
:10025000009709F464C06115710509F460C08B0151
:100260007C0184EA90E00E9493108DE00E948D1042
:10027000C0E00BC06701CC0ED11CC6010E949010DB
:10028000F6018081833219F0CF5FC83098F3F7010F
:10029000EC0FF11D10828CE990E00E9493108DE02C
:1002A0000E948D10C0E007C0F701EC0FF11D8081A6
:1002B0000E948D10CF5FC830B8F38DE00E948D1082
:1002C0008FEA90E00E9493108DE00E948D10C0E0B4
:1002D0000BC07801EC0EF11CC7010E949010F701D1
:1002E0008081833219F0CF5FC93098F3F801EC0FA9
:1002F000F11D108289EB90E00E9493108DE00E9426
:100300008D10C0E007C0F801EC0FF11D80810E9444
:100310008D10CF5FC830B8F38DE00E948D10CF9163
:100320001F910F91FF90EF90DF90CF9008958F92E3
:100330009F92AF92BF92CF92DF92EF92FF920F9374
:100340001F93CF93DF93CDB7DEB7A0970FB6F89486
:10035000DEBF0FBECDBF6115710509F4B6C14B01FB
:10036000813009F0E8C0D8C0A394BE016F5E7F4F12
:10037000CE0149960E94A800B12CC12C00E060C0BB
:10038000E02EEE0CEE0CEE0CEE0CF12CAE01475F05
:100390005F4F68E070E0C7010E941611AE014F5F29
:1003A0005F4F68E070E0C70108960E94161140E0B8
:1003B00020E014C0822F90E0E9E1F0E0EC0FFD1F97
:1003C000E80FF91F3081E9E0F0E0EC0FFD1FE80FC6
:1003D000F91F8081381301C04F5F2F5F283050F321
:1003E000483061F515C0822F90E0E1E1F0E0EC0FBC
:1003F000FD1FE80FF91F3081E1E0F0E0EC0FFD1F79
:10040000E80FF91F8081381301C04F5F2F5F02C0D2
:1004100040E020E0283038F3483071F4053031F402
:1004200081E0F4018083DD24D3940DC082E0F401E7
:100430008083DD24D39407C0B39401C0C3940F5FBD
:10044000063008F49DCFF1E0DF1214C00E94C413FF
:1004500060E081E00E94F51387EC90E00E943C137D
:100460002FEF89E698E1215080409040E1F700C0ED
:10047000000058C0E6E0CE1226C00E94C41360E01F
:1004800081E00E94F51387ED90E00E943C1360E04C
:1004900082E00E94F51385EE90E00E943C1312303A
:1004A000C9F1FFEF23ED80E3F15020408040E1F7F8
:1004B00000C0000060E082E00E94F51385EF90E04C
:1004C0000E943C1327C0BB2029F10E94C41360E0A6
:1004D00081E00E94F51387ED90E00E943C1360E0FC
:1004E00082E00E94F51386E091E00E943C131230F6
:1004F00089F09FEFE3EDF0E39150E040F040E1F749
:1005000000C0000060E082E00E94F51385EF90E0FB
:100510000E943C131F5F03C0D12CA12C10E01330AC
:1005200008F422CF23E0A212D0C0D110CEC085E0C3
:10053000F4018083CAC0823009F0C7C0B8C0A39458
:1005400085E191E00E94931088E391E00E9493106E
:10055000BE016F5E7F4FCE0149960E942101B12CF2
:10056000C12C05E060C0E02EEE0CEE0CEE0CEE0CA3
:10057000F12CAE01475F5F4F68E070E0C7010E9459
:100580001611AE014F5F5F4F68E070E0C70108963B
:100590000E94161140E020E014C0822F90E0E9E1B3
:1005A000F0E0EC0FFD1FE80FF91F3081E9E0F0E00B
:1005B000EC0FFD1FE80FF91F8081381301C04F5F5A
:1005C0002F5F283050F3483061F515C0822F90E03E
:1005D000E1E1F0E0EC0FFD1FE80FF91F3081E1E0F1
:1005E000F0E0EC0FFD1FE80FF91F8081381301C008
:1005F0004F5F2F5F02C040E020E0283038F34830E2
:1006000071F4053031F483E0F4018083DD24D39468
:100610000DC084E0F4018083DD24D39407C0B3943B
:1006200001C0C3940F5F0B3008F49DCFF1E0DF12DF
:1006300008C087EC90E00E9493108DE00E948D101E
:100640003CC026E0C21218C087ED90E00E949310D3
:100650008DE00E948D1085EE90E00E9493108DE059
:100660000E948D10123009F185EF90E00E949310E6
:100670008DE00E948D1019C0BB20B9F087ED90E08D
:100680000E9493108DE00E948D1086E091E00E9400
:1006900093108DE00E948D10123039F085EF90E0BC
:1006A0000E9493108DE00E948D101F5F03C0D12C1B
:1006B000A12C10E0133008F442CF83E0A81205C04B
:1006C000D11003C085E0F4018083A0960FB6F894A2
:1006D000DEBF0FBECDBFDF91CF911F910F91FF9075
:1006E000EF90DF90CF90BF90AF909F908F90089544
:1006F000EF92FF920F931F93CF93DF93CDB7DEB7A7
:10070000E0970FB6F894DEBF0FBECDBF8AE391E04D
:100710000E9493108DE691E00E949310BE01675FE6
:100720007F4FCE0101960E94210110E051C015308B
:1007300009F44DC0012F0295007FE02EF12CAE018F
:100740004F5D5F4F68E070E0C7010E941611AE0177
:10075000475D5F4F68E070E0C70108960E94161180
:1007600040E020E014C0822F90E0E1E0F0E0EC0FE8
:10077000FD1FE80FF91F3081E1E2F0E0EC0FFD1FF3
:10078000E80FF91F8081381301C04F5F2F5F2830B9
:1007900050F34830E1F415C0822F90E0E9E0F0E03A
:1007A000EC0FFD1FE80FF91F3081E9E2F0E0EC0FDC
:1007B000FD1FE80FF91F8081381301C04F5F2F5FC5
:1007C00002C020E040E0283038F3483031F01F5FAD
:1007D0001B3008F4ACCF80E001C081E0813021F50E
:1007E0008FE691E00E9493108DE00E948D10BE0173
:1007F000675E7F4FCE0141960E94210110E0BE014D
:100800006F5E7F4FC8010E94C310BE01675E7F4FBD
:10081000C80108960E94C31082E991E00E949310DB
:100820008DE00E948D1007C081EB91E00E94931033
:100830008DE00E948D10E0960FB6F894DEBF0FBEDB
:10084000CDBFDF91CF911F910F91FF90EF90089551
:10085000CF93DF9300D0CDB7DEB7853029F46FEFAB
:1008600084EB90E00E94A510BE016F5F7F4F84EB88
:1008700090E00E94EE1089818F3F29F587ED90E08E
:100880000E9493108DE00E948D1066E083E00E942C
:100890009A100E94C41360E081E00E94F51387ED76
:1008A00090E00E943C13CE0102960E9490108A8133
:1008B000833221F766E083E00E949E1060E084EBC3
:1008C00090E00E94A5100F900F90DF91CF910895B6
:1008D00087EC9CE00E9417178DE00E948D108DEC34
:1008E00091E00E9493108DE00E948D108AED91E0BE
:1008F0000E9493108DE00E948D1088EE91E00E947E
:1009000093108DE00E948D100E94FF1680E494E009
:100910000E9490100E940D1780914004833309F4C7
:1009200056C330F4813359F0823309F43FC008953F
:10093000843309F478C3853309F4C7C3089588E084
:1009400092E00E9493108DE00E948D1060E374E0AD
:1009500080E00E949D14809130041F928F9385E166
:1009600092E09F938F9386E594E09F938F930E94EC
:10097000511B86E594E00E9493108DE00E948D103B
:1009800085E292E00E9493108DE00E948D100E94FB
:10099000FF1680E494E00E9490100E940D170F90C3
:1009A0000F900F900F900F900F9008958DE00E9480
:1009B0008D1082E392E00E9493108DE00E948D10D2
:1009C00082E492E00E9493108DE00E948D108DE0F1
:1009D0000E948D100E94FF1680E494E00E94901007
:1009E0000E940D1780914004833309F4A0C030F4B5
:1009F000813369F0823309F450C00895853309F4D6
:100A00002AC108F4DEC0863309F46FC1089542E3B9
:100A100054E063E083E00E94B81580913204813095
:100A2000E9F48FE492E00E9493108DE00E948D1013
:100A30008DE592E00E9493108DE00E948D1080E47D
:100A400094E00E94901080914004813309F03FC3EC
:100A500041E063E083E00E9421140895811137C3CF
:100A60008EE692E00E9493108DE00E948D108DE73B
:100A700092E00E9493108DE00E948D1080E494E03B
:100A80000E94901080914004813309F020C341E01E
:100A900063E083E00E941414089542E354E060E0B0
:100AA00081E00E94B815809132048130F9F48DE81C
:100AB00092E00E9493108DE00E948D108DE592E0EF
:100AC0000E9493108DE00E948D1080E494E00E94BB
:100AD000901080914004813329F441E060E081E08E
:100AE0000E9421148FEF8093400408958111EFC27A
:100AF0008BE992E00E9493108DE00E948D108DE7AB
:100B000092E00E9493108DE00E948D1080E494E0AA
:100B10000E94901080914004813329F441E060E00C
:100B200081E00E9414148FEF80934004089542E303
:100B300054E062E080E00E94B81580913204813078
:100B4000F9F48AEA92E00E9493108DE00E948D10E1
:100B50008DE592E00E9493108DE00E948D1080E45C
:100B600094E00E94901080914004813329F441E088
:100B700062E080E00E9421148FEF8093400408958A
:100B80008111A5C288EB92E00E9493108DE00E9433
:100B90008D108DE792E00E9493108DE00E948D10E1
:100BA00080E494E00E94901080914004813329F405
:100BB00041E062E080E00E9414148FEF80934004D3
:100BC000089542E354E063E080E00E94B81580910C
:100BD00032048130F9F487EC92E00E9493108DE0AA
:100BE0000E948D108DE592E00E9493108DE00E948E
:100BF0008D1080E494E00E94901080914004813335
:100C000029F441E063E080E00E9421148FEF80939B
:100C10004004089581115BC285ED92E00E9493101B
:100C20008DE00E948D108DE792E00E9493108DE080
:100C30000E948D1080E494E00E9490108091400406
:100C4000813329F441E063E080E00E9414148FEFC7
:100C500080934004089542E354E062E083E00E9400
:100C6000B815809132048130F9F484EE92E00E944C
:100C700093108DE00E948D108DE592E00E949310FC
:100C80008DE00E948D1080E494E00E94901080918D
:100C90004004813329F441E062E083E00E942114A2
:100CA0008FEF809340040895811111C282EF92E08A
:100CB0000E9493108DE00E948D108DE792E00E94BB
:100CC00093108DE00E948D1080E494E00E949010BB
:100CD00080914004813329F441E062E083E00E9486
:100CE00014148FEF80934004089580913104882379
:100CF00009F4B1C08DE00E948D1081E093E00E9464
:100D000093108DE00E948D10809131041F928F937B
:100D10008FE093E09F938F9382E494E09F938F936F
:100D20000E94511B82E494E00E9493108DE00E9487
:100D30008D108FE193E00E9493108DE00E948D1042
:100D400080E494E00E949010809140040F900F90F6
:100D50000F900F900F900F90882309F4B8C1813342
:100D600009F043C060913104665F6093310470E024
:100D700080E090E00E94101AAB01BC0188EE93E085
:100D80000E945516809131041F928F938FE093E05B
:100D90009F938F9382E494E09F938F930E94511BC3
:100DA00082E494E00E9493108DE00E948D108FE108
:100DB00093E00E9493108DE00E948D108091310489
:100DC0000F900F900F900F900F900F90853608F4B2
:100DD0007EC184E68093310440E050E068EC72E428
:100DE00088EE93E00E9455160895823309F06FC192
:100DF000609131046A506093310470E080E090E0CB
:100E00000E94101AAB01BC0188EE93E00E945516B7
:100E1000809131041F928F938FE093E09F938F9383
:100E200082E494E09F938F930E94511B82E494E0AC
:100E30000E9493108DE00E948D108FE193E00E943C
:100E400093108DE00E948D100F900F900F900F90D7
:100E50000F900F90089581113AC18FE293E00E94A4
:100E600093102FEF83ED90E3215080409040E1F705
:100E700000C000008DE00E948D10809131041F920F
:100E80008F938FE093E09F938F9382E494E09F93FE
:100E90008F930E94511B82E494E00E9493108DE096
:100EA0000E948D108FE193E00E9493108DE00E94CC
:100EB0008D1080E494E00E9490100F900F900F909E
:100EC0000F900F900F907EC0813309F043C0609166
:100ED0003104665F6093310470E080E090E00E942E
:100EE000101AAB01BC0188EE93E00E945516809168
:100EF00031041F928F938FE093E09F938F9382E44E
:100F000094E09F938F930E94511B82E494E00E948F
:100F100093108DE00E948D108FE193E00E9493105A
:100F20008DE00E948D10809131040F900F900F90F2
:100F30000F900F900F90853608F4C9C084E6809317
:100F4000310440E050E068EC72E488EE93E00E94E7
:100F500055160895823399F5609131046A50609373
:100F6000310470E080E090E00E94101AAB01BC01F7
:100F700088EE93E00E945516809131041F928F9362
:100F80008FE093E09F938F9382E494E09F938F93FD
:100F90000E94511B82E494E00E9493108DE00E9415
:100FA0008D108FE193E00E9493108DE00E948D10D0
:100FB0000F900F900F900F900F900F900895803327
:100FC00009F485C08091400481117ECF089560E3CB
:100FD00074E080E00E949D14809130041F928F93F2
:100FE00085E192E09F938F9386E594E09F938F93A2
:100FF0000E94511B86E594E00E9493108DE00E94B0
:101000008D1085E292E00E9493108DE00E948D1079
:1010100080E494E00E9490100F900F900F900F903A
:101020000F900F90089580913304811127C08EE3B3
:1010300093E00E9493108DE00E948D108DE493E068
:101040000E9493108DE00E948D1080E494E00E9435
:1010500090108DE00E948D10809140048133B9F58D
:1010600080E693E00E94931060E070E084EB92E4ED
:101070000E9434148AE58093330408958A3539F543
:1010800080E793E00E9493108DE00E948D108DE721
:1010900093E00E9493108DE00E948D1080E494E014
:1010A0000E9490108DE00E948D1080914004813349
:1010B00071F481E993E00E94931060E070E0CB014D
:1010C0000E9434141092330408950E947803089506
:1010D00087EC9CE00E9417178DE00E948D108DEC2C
:1010E00091E00E9493108DE00E948D108AED91E0B6
:1010F0000E9493108DE00E948D100E94FF1680E4E4
:1011000094E00E9490100E940D1780914004823359
:10111000E9F1833309F44AC3813309F072C388E0EB
:1011200092E00E9493108DE00E948D1060E374E0C5
:1011300080E00E949D14809130041F928F9385E17E
:1011400092E09F938F9386E594E09F938F930E9404
:10115000511B86E594E00E9493108DE00E948D1053
:1011600085E292E00E9493108DE00E948D100E9413
:10117000FF1680E494E00E9490100E940D170F90DB
:101180000F900F900F900F900F9008958DE00E9498
:101190008D1082E392E00E9493108DE00E948D10EA
:1011A00082E492E00E9493108DE00E948D108DE009
:1011B0000E948D100E94FF1680E494E00E9490101F
:1011C0000E940D1780914004833309F4A0C030F4CD
:1011D000813369F0823309F450C00895853309F4EE
:1011E0002AC108F4DEC0863309F46FC1089542E3D2
:1011F00054E063E083E00E94B815809132048130AE
:10120000E9F48FE492E00E9493108DE00E948D102B
:101210008DE592E00E9493108DE00E948D1080E495
:1012200094E00E94901080914004813309F0E9C25B
:1012300041E063E083E00E94211408958111E1C23E
:101240008EE692E00E9493108DE00E948D108DE753
:1012500092E00E9493108DE00E948D1080E494E053
:101260000E94901080914004813309F0CAC241E08D
:1012700063E083E00E941414089542E354E060E0C8
:1012800081E00E94B815809132048130F9F48DE834
:1012900092E00E9493108DE00E948D108DE592E007
:1012A0000E9493108DE00E948D1080E494E00E94D3
:1012B000901080914004813329F441E060E081E0A6
:1012C0000E9421148FEF809340040895811199C2E8
:1012D0008BE992E00E9493108DE00E948D108DE7C3
:1012E00092E00E9493108DE00E948D1080E494E0C3
:1012F0000E94901080914004813329F441E060E025
:1013000081E00E9414148FEF80934004089542E31B
:1013100054E062E080E00E94B81580913204813090
:10132000F9F48AEA92E00E9493108DE00E948D10F9
:101330008DE592E00E9493108DE00E948D1080E474
:1013400094E00E94901080914004813329F441E0A0
:1013500062E080E00E9421148FEF809340040895A2
:1013600081114FC288EB92E00E9493108DE00E94A1
:101370008D108DE792E00E9493108DE00E948D10F9
:1013800080E494E00E94901080914004813329F41D
:1013900041E062E080E00E9414148FEF80934004EB
:1013A000089542E354E063E080E00E94B815809124
:1013B00032048130F9F487EC92E00E9493108DE0C2
:1013C0000E948D108DE592E00E9493108DE00E94A6
:1013D0008D1080E494E00E9490108091400481334D
:1013E00029F441E063E080E00E9421148FEF8093B4
:1013F00040040895811105C285ED92E00E9493108A
:101400008DE00E948D108DE792E00E9493108DE098
:101410000E948D1080E494E00E949010809140041E
:10142000813329F441E063E080E00E9414148FEFDF
:1014300080934004089542E354E062E083E00E9418
:10144000B815809132048130F9F484EE92E00E9464
:1014500093108DE00E948D108DE592E00E94931014
:101460008DE00E948D1080E494E00E9490108091A5
:101470004004813329F441E062E083E00E942114BA
:101480008FEF8093400408958111BBC182EF92E0F9
:101490000E9493108DE00E948D108DE792E00E94D3
:1014A00093108DE00E948D1080E494E00E949010D3
:1014B00080914004813329F441E062E083E00E949E
:1014C00014148FEF80934004089580913104882391
:1014D00009F4B1C08DE00E948D1081E093E00E947C
:1014E00093108DE00E948D10809131041F928F9394
:1014F0008FE093E09F938F9382E494E09F938F9388
:101500000E94511B82E494E00E9493108DE00E949F
:101510008D108FE193E00E9493108DE00E948D105A
:1015200080E494E00E949010809140040F900F900E
:101530000F900F900F900F90882309F462C18133B0
:1015400009F043C060913104665F6093310470E03C
:1015500080E090E00E94101AAB01BC0188EE93E09D
:101560000E945516809131041F928F938FE093E073
:101570009F938F9382E494E09F938F930E94511BDB
:1015800082E494E00E9493108DE00E948D108FE120
:1015900093E00E9493108DE00E948D1080913104A1
:1015A0000F900F900F900F900F900F90853608F4CA
:1015B00028C184E68093310440E050E068EC72E496
:1015C00088EE93E00E9455160895823309F019C100
:1015D000609131046A506093310470E080E090E0E3
:1015E0000E94101AAB01BC0188EE93E00E945516D0
:1015F000809131041F928F938FE093E09F938F939C
:1016000082E494E09F938F930E94511B82E494E0C4
:101610000E9493108DE00E948D108FE193E00E9454
:1016200093108DE00E948D100F900F900F900F90EF
:101630000F900F9008958111E4C08FE293E00E9413
:1016400093102FEF83ED90E3215080409040E1F71D
:1016500000C000008DE00E948D10809131041F9227
:101660008F938FE093E09F938F9382E494E09F9316
:101670008F930E94511B82E494E00E9493108DE0AE
:101680000E948D108FE193E00E9493108DE00E94E4
:101690008D1080E494E00E9490100F900F900F90B6
:1016A0000F900F900F907DC0813309F043C060917F
:1016B0003104665F6093310470E080E090E00E9446
:1016C000101AAB01BC0188EE93E00E945516809180
:1016D00031041F928F938FE093E09F938F9382E466
:1016E00094E09F938F930E94511B82E494E00E94A8
:1016F00093108DE00E948D108FE193E00E94931073
:101700008DE00E948D10809131040F900F900F900A
:101710000F900F900F90853608F473C084E6809385
:10172000310440E050E068EC72E488EE93E00E94FF
:1017300055160895823399F5609131046A5060938B
:10174000310470E080E090E00E94101AAB01BC010F
:1017500088EE93E00E945516809131041F928F937A
:101760008FE093E09F938F9382E494E09F938F9315
:101770000E94511B82E494E00E9493108DE00E942D
:101780008D108FE193E00E9493108DE00E948D10E8
:101790000F900F900F900F900F900F90089580333F
:1017A00081F18091400481117FCF089560E374E05E
:1017B00080E00E949D14809130041F928F9385E1F8
:1017C00092E09F938F9386E594E09F938F930E947E
:1017D000511B86E594E00E9493108DE00E948D10CD
:1017E00085E292E00E9493108DE00E948D1080E4CB
:1017F00094E00E9490100F900F900F900F900F9018
:101800000F90089581EA93E00E94521380EC0E94A9
:101810006E1282EB93E00E9452132FEF83ED90E360
:10182000215080409040E1F700C000000895CF9320
:10183000DF93CDB7DEB7E0970FB6F894DEBF0FBEEB
:10184000CDBF0E94600083E00E946D1440E060E024
:1018500080E00E94B81441E062E082E00E94B81487
:101860000E94020C0E94C41388E0E0ECF3E0DE0169
:10187000119601900D928A95E1F788E0E0ECF3E093
:10188000DE01199601900D928A95E1F788E0E8EC67
:10189000F3E0DE01519601900D928A95E1F788E020
:1018A000E8ECF3E0DE01599601900D928A95E1F79C
:1018B00088E0E0EDF3E0DE01919601900D928A95CB
:1018C000E1F788E0E0EDF3E0DE01999601900D92FA
:1018D0008A95E1F7BE016F5F7F4F80E190E00E9443
:1018E000C310BE01675F7F4F88E190E00E94C31084
:1018F000BE016F5E7F4F80E590E00E94C310BE0185
:10190000675E7F4F88E590E00E94C310BE016F5D67
:101910007F4F80E690E00E94C310BE01675D7F4F5D
:1019200088E690E00E94C31061E474E082E00E94C7
:101930009701809141040E942804E0960FB6F89424
:10194000DEBF0FBECDBFDF91CF91089560E374E09D
:1019500080E00E949D14809130041F928F9385E156
:1019600092E09F938F9386E594E09F938F930E94DC
:10197000511B86E594E00E9493108DE00E948D102B
:101980000F900F900F900F900F900F9008958DE093
:101990000E948D100E94A60C88ED93E00E94931087
:1019A0008DE00E948D1080E494E00E949010809160
:1019B0004004803311F40E941E17089560E374E020
:1019C00080E00E949D146BE081E00E94F51360911D
:1019D000300470E080E090E00E94711308950E944E
:1019E000C41380E80E946E1285EE93E00E943C13BF
:1019F0000E94DE0C80EC0E946E1288ED93E00E9443
:101A00003C1306C081E690E00E948A110E94DE0C21
:101A1000809161008F3FB1F3803311F40E94C413B1
:101A20000E941E170E94C41308958FEF80936400D4
:101A300080936300809362008093610008950E9408
:101A4000150D8FEE9CE00E9417170E94FF160E9452
:101A5000C4138DEC91E00E943C1380EC0E946E1246
:101A60008AED91E00E943C130E94150D0CC08091FC
:101A70006100803321F48FEF8093610008C084E619
:101A800090E00E948A11809164008F3F81F30E9450
:101A90000D1780916400823309F445C0833309F443
:101AA00006C3813309F035C30E94C41384EF93E069
:101AB0000E94521380EC0E946E1260E374E080E09A
:101AC0000E949D1485E094E00E9452136CE082E035
:101AD0000E94F5136091300470E080E090E00E9475
:101AE00071131CC080E690E00E948A1160E374E0EC
:101AF00080E00E949D146CE082E00E94F5136091EA
:101B0000300470E080E090E00E94711380916000EA
:101B1000803321F48FEF80936000089580916000FE
:101B20008F3F01F308950E94C41382E392E00E9464
:101B3000521380EC0E946E1282E492E00E945213D3
:101B40008FEE9CE00E9417170E94FF160CC083E6E0
:101B500090E00E948A1180916100803321F48FEF20
:101B60008093610004C0809163008F3F81F30E94E5
:101B70000D1780916300833309F4A6C030F48133DC
:101B800069F0823309F454C00895853309F434C1EF
:101B900008F4E6C0863309F47BC1089542E354E0BB
:101BA00063E083E00E94B8150E94C4138091320460
:101BB0008130F1F48FE492E00E94521380EC0E9495
:101BC0006E128DE592E00E94521304C082E690E00E
:101BD0000E948A11809162008F3FC1F3813329F402
:101BE00041E063E083E00E9421140E94150D0895F6
:101BF00081118FC28EE692E00E94521380EC0E9407
:101C00006E128DE792E00E94521304C082E690E0CB
:101C10000E948A11809162008F3FC1F3813329F4C1
:101C200041E063E083E00E9414140E94150D0895C2
:101C300042E354E064E083E00E94B8150E94C413BC
:101C4000809132048130F9F48DE892E00E945213C1
:101C500080EC0E946E128DE592E00E94521304C047
:101C600082E690E00E948A11809162008F3FC1F36A
:101C7000813329F441E064E083E00E9421148FEF76
:101C8000809362000895811144C28BE992E00E9422
:101C9000521380EC0E946E128DE792E00E94521364
:101CA00004C082E690E00E948A11809162008F3F1A
:101CB000C1F3813329F441E064E083E00E9414140D
:101CC0008FEF80936200089542E354E062E080E089
:101CD0000E94B8150E94C413809132048130F9F437
:101CE0008AEA92E00E94521380EC0E946E128DE507
:101CF00092E00E94521304C082E690E00E948A1192
:101D0000809162008F3FC1F3813329F441E062E0AA
:101D100080E00E9421148FEF80936200089581116A
:101D2000F8C188EB92E00E94521380EC0E946E1280
:101D30008DE792E00E94521304C082E690E00E9478
:101D40008A11809162008F3FC1F3813329F441E011
:101D500062E080E00E9414148FEF80936200089587
:101D600042E354E063E080E00E94B8150E94C4138F
:101D7000809132048130F9F487EC92E00E94521392
:101D800080EC0E946E128DE592E00E94521304C016
:101D900082E690E00E948A11809162008F3FC1F339
:101DA000813329F441E063E080E00E9421148FEF49
:101DB0008093620008958111ACC185ED92E00E948C
:101DC000521380EC0E946E128DE792E00E94521333
:101DD00004C082E690E00E948A11809162008F3FE9
:101DE000C1F3813329F441E063E080E00E941414E0
:101DF0008FEF80936200089542E354E062E083E055
:101E00000E94B8150E94C413809132048130F9F405
:101E100084EE92E00E94521380EC0E946E128DE5D7
:101E200092E00E94521304C082E690E00E948A1160
:101E3000809162008F3FC1F3813329F441E062E079
:101E400083E00E9421148FEF809362000895811136
:101E500060C182EF92E00E94521380EC0E946E12E9
:101E60008DE792E00E94521304C082E690E00E9447
:101E70008A11809162008F3FC1F3813329F441E0E0
:101E800062E083E00E9414148FEF80936200089553
:101E90000E94C41380913104882309F482C081E038
:101EA00093E00E9452132FEF83ED90E32150804086
:101EB0009040E1F700C000000E94C41383E194E069
:101EC0000E943C136DE081E00E94F51360913104A3
:101ED00070E080E090E00E94711380EC0E946E122E
:101EE0008FE193E00E94521356C082E690E00E9478
:101EF0008A1180916200813359F560913104665FE7
:101F00006093310470E080E090E00E94101AAB0111
:101F1000BC0188EE93E00E9455166DE081E00E94BE
:101F2000F5136091310470E080E090E00E9471133D
:101F300080913104853678F184E68093310440E065
:101F400050E068EC72E488EE93E00E94551623C0DE
:101F50008233E1F4609131046A506093310470E09F
:101F600080E090E00E94101AAB01BC0188EE93E083
:101F70000E9455166DE081E00E94F51360913104D6
:101F800070E080E090E00E94711305C0803319F486
:101F90000E94C4130895809162008F3F09F4A5CF79
:101FA0000895809132048111B4C08FE293E00E94C1
:101FB00052132FEF83ED90E3215080409040E1F7E2
:101FC00000C000000E94C41383E194E00E943C130F
:101FD0006DE081E00E94F5136091310470E080E0D3
:101FE00090E00E94711380EC0E946E128FE193E0EA
:101FF0000E94521356C082E690E00E948A1180919E
:102000006200813359F560913104665F6093310459
:1020100070E080E090E00E94101AAB01BC0188EEF5
:1020200093E00E9455166DE081E00E94F5136091E7
:10203000310470E080E090E00E94711380913104DF
:10204000853678F184E68093310440E050E068EC16
:1020500072E488EE93E00E94551623C08233E1F4C7
:10206000609131046A506093310470E080E090E048
:102070000E94101AAB01BC0188EE93E00E94551635
:102080006DE081E00E94F5136091310470E080E022
:1020900090E00E94711305C0803319F40E94C413AC
:1020A0000895809162008F3F09F4A5CF08950E94A2
:1020B000C41360E374E080E00E949D1480E80E94F5
:1020C0006E1285E094E00E943C136BE081E00E9478
:1020D000F5136091300470E080E090E00E9471138D
:1020E00083E60E94061380EC0E946E1285E292E065
:1020F0000E94521306C081E690E00E948A110E945D
:10210000DE0C809161008F3FB1F3803311F40E94A7
:10211000C41308950E94CA1808950E94DB180895F8
:102120000E94DF1808950E94E718089541E00E9478
:10213000B814089541E00E943815089540E00E94C7
:10214000381508950E943F1808951F93CF93DF9389
:10215000D82FC62F192F10650E944B18812F0E946F
:102160006E188D2F0E9498188C2F0E9498180E942C
:1021700067188FE19EE40197F1F700C00000DF913E
:10218000CF911F9108950F931F93CF93DF93611504
:102190007105F9F08B01D82FC92FC0650E944B182B
:1021A0008C2F0E946E188D2F0E949818C0E007C0D7
:1021B000F801EC0FF11D80810E949818CF5FC830A4
:1021C000B8F30E9467188FE19EE40197F1F700C011
:1021D0000000DF91CF911F910F9108950F931F93EE
:1021E000CF93DF9361157105E1F08B01D82FC92FD3
:1021F000C0650E944B188C2F0E946E188D2F0E9474
:1022000098180E9459188C2F0E948318C8010E94A8
:10221000BA180E9467188FE19EE40197F1F700C099
:102220000000DF91CF911F910F910895EF92FF92DF
:102230000F931F93CF93DF934115510581F16115E2
:1022400022E0720760F58A017B01D82FC92FC06593
:102250000E944B188C2F0E946E188D2F0E94981888
:102260000E9459188C2F0E948318C0E0D0E006C04D
:10227000C8018C0F9D1F0E94A4182196C7010197C9
:10228000C817D907A8F3800F911F0E94BA180E949F
:1022900067188FE19EE40197F1F700C00000DF911D
:1022A000CF911F910F91FF90EF90089541E064E06E
:1022B00081E00E94B81441E065E081E00E94B8141A
:1022C00041E066E081E00E94B81440E063E082E013
:1022D0000E94B81440E064E082E00E94B81440E03C
:1022E00065E082E00E94B81440E066E082E00E946F
:1022F000B81463E082E00E94F31564E082E00E947B
:10230000F31565E082E00E94F31566E082E00E942A
:10231000F31508956F927F928F929F92AF92BF9222
:10232000CF92DF92EF92FF920F931F93CF93DF93A1
:10233000CDB7DEB76B970FB6F894DEBF0FBECDBF3B
:10234000009709F47EC05C0181E0888F898F8A8FB5
:1023500034E03D8B25E02E8B96E09F8B82E0898BCD
:102360008A8B8B8B8C8B83E08D873E872F87988B16
:102370008CE0E6E6F0E0DE01119601900D928A9580
:10238000E1F78FEFF5018083812C57C0C82CD12C49
:10239000E5E1F0E0EC0FFD1FEC0DFD1D6080E8E1D4
:1023A000F0E0EC0FFD1FEC0DFD1D708040E0662D90
:1023B000872D0E94381510E038C0E12EF12CEDE099
:1023C000F0E0EC0FFD1FEE0DFF1D0081E1E1F0E0FC
:1023D000EC0FFD1FEE0DFF1D9080AE01455E5F4FBF
:1023E000602F892D0E94B8158B8D81111DC007C0EB
:1023F000AE01455E5F4F602F892D0E94B8158B8D11
:102400008823B1F3C701880F991FE80EF91E81E0F8
:1024100090E08C0F9D1FE80EF91EF701EC0DFD1DDD
:102420008081F50180830DC01F5F143030F241E0E0
:10243000662D872D0E9438158394F2E0F81508F078
:10244000A5CF6B960FB6F894DEBF0FBECDBFDF9160
:10245000CF911F910F91FF90EF90DF90CF90BF90A1
:10246000AF909F908F907F906F900895CF93C82FDB
:1024700080FF06C041E064E080E00E94381505C09E
:1024800040E064E080E00E943815C1FF06C041E0F2
:1024900065E080E00E94381505C040E065E080E01E
:1024A0000E943815C2FF06C041E066E080E00E944D
:1024B000381505C040E066E080E00E943815C3FF93
:1024C00006C041E067E080E00E94381505C040E0AA
:1024D00067E080E00E943815CF910895CF93C82F10
:1024E00040E061E081E00E94381540E062E081E078
:1024F0000E9438158C2F82958F700E94361241E011
:1025000063E081E00E9438158FE99FE00197F1F7C1
:1025100000C0000040E063E081E00E9438158C2F8D
:102520000E94361241E063E081E00E9438158FE995
:102530009FE00197F1F700C0000040E063E081E018
:102540000E943815CF91089541E061E081E00E943A
:10255000B81441E062E081E00E94B81441E063E019
:1025600081E00E94B81441E064E080E00E94B81469
:1025700041E065E080E00E94B81441E066E080E060
:102580000E94B81441E067E080E00E94B8142FE791
:1025900085EB91E0215080409040E1F700C00000C1
:1025A00040E061E081E00E94381540E062E081E0B7
:1025B0000E94381582E00E94361241E063E081E01B
:1025C0000E9438158FE99FE00197F1F700C00000E5
:1025D00040E063E081E00E94381588E20E946E12BC
:1025E00090EF9A95F1F78CE00E946E1220EF2A95F9
:1025F000F1F781E00E946E128FE39FE10197F1F7FE
:1026000000C0000086E00E946E120895CF93C82F8C
:1026100041E061E081E00E94381540E062E081E045
:102620000E9438158C2F82958F700E94361241E0DF
:1026300063E081E00E9438158FE99FE00197F1F790
:1026400000C0000040E063E081E00E9438158C2F5C
:102650000E94361241E063E081E00E9438158FE964
:102660009FE00197F1F700C0000040E063E081E0E7
:102670000E943815CF9108950F931F93CF93009721
:1026800029F40CC00E940613CF5F02C08C01C0E089
:10269000F801EC0FF11D80818111F4CFCF911F91D2
:1026A0000F9108950F931F93CF93009771F415C066
:1026B0000E940613CF5F2FEF80E792E02150804009
:1026C0009040E1F700C0000002C08C01C0E0F801BA
:1026D000EC0FF11D80818111EBCFCF911F910F91F4
:1026E00008950F931F93CF93DF9300D000D01F92D4
:1026F000CDB7DEB7262F10E008C01F5FEDEC6E9F50
:10270000612D11246695669566956111F6CF00E0FE
:102710001AC0622F2AE030E040E050E00E942F1BF8
:10272000732F842F952FA02FB0E01196E12FF0E0AA
:10273000EA1BFB0B41E050E04C0F5D1FE40FF51F5F
:10274000605D60830F5F011720F3E1E0F0E0EC0FC4
:10275000FD1FE10FF11D108210E003C00E9406135F
:102760001F5FE1E0F0E0EC0FFD1FE10FF11D808144
:102770008111F4CF0F900F900F900F900F90DF9179
:10278000CF911F910F91089540E061E081E00E9498
:10279000381540E062E081E00E94381580E00E9438
:1027A000361241E063E081E00E9438158FE99FE036
:1027B0000197F1F700C0000040E063E081E00E9473
:1027C000381581E00E94361241E063E081E00E940A
:1027D00038158FE99FE00197F1F700C0000040E055
:1027E00063E081E00E9438150895CF93DF9368324B
:1027F000A0F4C62FD82F82E00E946E12D13019F0BB
:10280000D23031F00AC08C2F80680E946E1205C051
:1028100080E48C0F80680E946E12DF91CF91089542
:1028200041E00E94B8140895413019F0423029F077
:10283000089541E00E943815089540E00E9438153F
:102840000895413019F0423029F0089540E00E9487
:102850003815089541E00E943815089541E00E941E
:10286000B8140E942F16089520E030E040E250E4B2
:102870000E94C21A20E030EC48E254E40E94FE18A4
:1028800020E030E044EB52E40E946F19AB01BC0140
:1028900082E390E00E94A11608950E94170C809197
:1028A0006500813089F480914104833019F40E94DD
:1028B0006804F5CF843019F40E946808F0CF8230A4
:1028C00071F70E941F0DEBCF8111E9CF82E294E0F6
:1028D0000E943C1380E090E00895823059F08330EC
:1028E00081F08130A1F487B1806487B987B18F7797
:1028F00087B90DC087B18F7B87B987B18F7787B9CB
:1029000006C087B1806487B987B1806887B987B10D
:102910008F7D87B986B18F7D86B986B1877F86B96D
:1029200086B1846086B986B1826086B986B18160DD
:1029300086B986B1806886B9089561157105B9F0C8
:1029400097B1907E97B997B1892B87B986B180648A
:1029500086B9349BFECF84B195B1969587959695AF
:102960008795FB019183808386B1806186B9089544
:10297000843008F07CC0683008F079C0423008F03C
:1029800076C0813019F130F08230E1F1833009F402
:1029900054C00895442371F0413009F068C02AB34F
:1029A00081E090E002C0880F991F6A95E2F7822BC0
:1029B0008ABB08952AB381E090E002C0880F991F76
:1029C0006A95E2F7809582238ABB0895442371F0CB
:1029D000413009F04CC027B381E090E002C0880F7D
:1029E000991F6A95E2F7822B87BB089527B381E090
:1029F00090E002C0880F991F6A95E2F780958223C4
:102A000087BB0895442369F0413089F524B381E000
:102A100090E002C0880F991F6A95E2F7822B84BB71
:102A2000089524B381E090E002C0880F991F6A9551
:102A3000E2F78095822384BB0895442369F04130F6
:102A4000B1F421B381E090E002C0880F991F6A952C
:102A5000E2F7822B81BB089521B381E090E002C0B0
:102A6000880F991F6A95E2F78095822381BB0895AC
:102A7000843008F07CC0683008F079C0423008F03B
:102A800076C0813019F130F08230E1F1833009F401
:102A900054C00895442371F0413009F068C02BB34D
:102AA00081E090E002C0880F991F6A95E2F7822BBF
:102AB0008BBB08952BB381E090E002C0880F991F73
:102AC0006A95E2F7809582238BBB0895442371F0C9
:102AD000413009F04CC028B381E090E002C0880F7B
:102AE000991F6A95E2F7822B88BB089528B381E08D
:102AF00090E002C0880F991F6A95E2F780958223C3
:102B000088BB0895442369F0413089F525B381E0FD
:102B100090E002C0880F991F6A95E2F7822B85BB6F
:102B2000089525B381E090E002C0880F991F6A954F
:102B3000E2F78095822385BB0895442369F04130F4
:102B4000B1F422B381E090E002C0880F991F6A952A
:102B5000E2F7822B82BB089522B381E090E002C0AD
:102B6000880F991F6A95E2F78095822382BB0895AA
:102B70008430C0F56830B0F54115510599F18130C8
:102B800089F028F08230C9F0833011F1089589B3BB
:102B900090E002C0959587956A95E2F78170FA01F9
:102BA0008083089586B390E002C0959587956A95D5
:102BB000E2F78170FA018083089583B390E002C048
:102BC000959587956A95E2F78170FA01808308955B
:102BD00080B390E002C0959587956A95E2F7817081
:102BE000FA01808308958430A8F5683098F5813023
:102BF00089F028F08230C9F0833011F108952BB3A9
:102C000081E090E002C0880F991F6A95E2F7822B5D
:102C10008BBB089528B381E090E002C0880F991F14
:102C20006A95E2F7822B88BB089525B381E090E096
:102C300002C0880F991F6A95E2F7822B85BB089521
:102C400022B381E090E002C0880F991F6A95E2F7F5
:102C5000822B82BB08958FB780688FBF08958EB591
:102C600080618EBD8EB588608EBD8FB582608FBD50
:102C70008FB58E7F8FBD8FB580688FBD8FB58F7BF1
:102C80008FBD08958EB580618EBD8EB588608EBD76
:102C90008FB582608FBD8FB58E7F8FBD8FB58062FF
:102CA0008FBD8FB58F7E8FBD0895CF92DF92EF924B
:102CB000FF92CF93DF93EC016A017B0120E030E0CB
:102CC00048EC52E4C701B6010E946A19181694F143
:102CD0009E0140E050E060E970ED83E090E00E94EA
:102CE0002F1B2150310937BD26BD66B577B56F5F03
:102CF0007F4F80E090E00E94101AA70196010E9489
:102D0000C21A20E030E048EC52E40E946F1920E043
:102D100030E040E85FE30E94FD180E94E1197BBDAE
:102D20006ABD8EB581608EBD8EB582608EBD8EB55A
:102D30008B7F8EBDDF91CF91FF90EF90DF90CF9092
:102D40000895CF92DF92EF92FF92CF93DF93EC0141
:102D50006A017B0120E030E048EC52E4C701B60193
:102D60000E946A19181694F19E0140E050E060E953
:102D700070ED83E090E00E942F1B2150310937BD98
:102D800026BD66B577B56F5F7F4F80E090E00E940B
:102D9000101AA70196010E94C21A20E030E048EC08
:102DA00052E40E946F1920E030E040E85FE30E94A7
:102DB000FD180E94E11979BD68BD8EB581608EBD98
:102DC0008EB582608EBD8EB58B7F8EBDDF91CF912B
:102DD000FF90EF90DF90CF90089583B78F7B83BFF4
:102DE00083B7886083BF83B78F7E83BF83B78F7DB0
:102DF00083BF89B7826089BF89EF8CBF089583B78D
:102E0000816083BF83B7826083BF83B78B7F83BFBB
:102E10001092350410923404089583B78E7F83BFD7
:102E200083B78D7F83BF83B78B7F83BF0895009760
:102E300021F09093370480933604089588B7826018
:102E400088BF88B7816088BF08951F920F920FB620
:102E50000F9211242F933F934F935F936F937F9320
:102E60008F939F93AF93BF93EF93FF93809134041D
:102E70009091350401969093350480933404883EF4
:102E8000934069F481E782BF1092350410923404B4
:102E9000E0913804F0913904309709F00995FF91D9
:102EA000EF91BF91AF919F918F917F916F915F91C2
:102EB0004F913F912F910F900FBE0F901F9018953B
:102EC0001F920F920FB60F9211242F933F934F939F
:102ED0005F936F937F938F939F93AF93BF93EF9382
:102EE000FF938091340490913504019690933504BA
:102EF000809334048838934169F410923504109219
:102F00003404E0913604F0913704309719F00995B4
:102F10000E941E17FF91EF91BF91AF919F918F91EA
:102F20007F916F915F914F913F912F910F900FBEC5
:102F30000F901F90189585B58F7B85BD85B58860EE
:102F400085BD85B58F7E85BD85B58F7D85BD89B7EE
:102F5000806889BF89EF83BD089585B5816085BD8F
:102F600085B5826085BD85B58B7F85BD10923B049C
:102F700010923A040895009721F090933D048093B5
:102F80003C04089588B7806888BF88B7806488BF8C
:102F900008951F920F920FB60F9211242F933F9313
:102FA0004F935F936F937F938F939F93AF93BF9351
:102FB000EF93FF9380913A0490913B040196909394
:102FC0003B0480933A04883E934069F481E784BDD2
:102FD00010923B0410923A04E0913E04F0913F04B9
:102FE000309709F00995FF91EF91BF91AF919F91B3
:102FF0008F917F916F915F914F913F912F910F90A2
:103000000FBE0F901F9018951F920F920FB60F9240
:1030100011242F933F934F935F936F937F938F93DD
:103020009F93AF93BF93EF93FF9380913A04909156
:103030003B04019690933B0480933A048838934173
:1030400069F410923B0410923A04E0913C04F09130
:103050003D04309719F009950E94C217FF91EF9136
:10306000BF91AF919F918F917F916F915F914F91A0
:103070003F912F910F900FBE0F901F9018958CE0ED
:1030800080B981B18D7F81B981B18E7F81B986B7D9
:10309000846086BF089586B7806286BF86B78068E1
:1030A00086BF06B607FEFDCF81B1887F8830E1F785
:1030B000089586B7806286BF86B7806886BF06B6E9
:1030C00007FEFDCF81B1887F8031E1F7089586B793
:1030D000806186BF86B7806886BF0895882394F094
:1030E000880F83B983B18E7F83B986B78F7D86BF02
:1030F00086B7806886BF06B607FEFDCF81B1887FA0
:103100008831E1F70895882394F0880F83B983B15B
:10311000816083B986B78F7D86BF86B7806886BF9A
:1031200006B607FEFDCF81B1887F8034E1F70895B0
:1031300083B986B7806886BF06B607FEFDCF81B12A
:10314000887F8832E1F70895FC01892B91F096B7CA
:10315000906496BF96B7906896BF06B607FEFDCFFF
:1031600091B1987F9035E1F783B1808386B78F7BEB
:1031700086BF0895FC01892B61F096B7906896BFD1
:1031800006B607FEFDCF91B1987F9835E1F783B180
:10319000808308958BB18D7F8BB987E689B98AB119
:1031A0008B7F8AB986E880BD8AB180618AB98AB18D
:1031B00088608AB908958CB95D9BFECF0895009709
:1031C00029F05F9BFECF2CB1FC01208308950F9363
:1031D0001F93CF93009729F40CC00E94DB18CF5F98
:1031E00002C08C01C0E0F801EC0FF11D808181115B
:1031F000F4CFCF911F910F9108955058BB27AA2764
:103200000E9415190C94881A0E947A1A38F00E94AC
:10321000811A20F039F49F3F19F426F40C94771AA0
:103220000EF4E095E7FB0C94711AE92F0E94991AAD
:1032300058F3BA17620773078407950720F079F4EB
:10324000A6F50C94BB1A0EF4E0950B2EBA2FA02D08
:103250000B01B90190010C01CA01A0011124FF2743
:10326000591B99F0593F50F4503E68F11A16F0403E
:10327000A22F232F342F4427585FF3CF469537953D
:103280002795A795F0405395C9F77EF41F16BA0B02
:10329000620B730B840BBAF09150A1F0FF0FBB1FB0
:1032A000661F771F881FC2F70EC0BA0F621F731FF9
:1032B000841F48F4879577956795B795F7959E3F56
:1032C00008F0B0CF9395880F08F09927EE0F9795E7
:1032D000879508950E944D1A08F481E008950E9490
:1032E00083190C94881A0E94811A58F00E947A1A45
:1032F00040F029F45F3F29F00C94711A51110C949D
:10330000BC1A0C94771A0E94991A68F39923B1F3A6
:10331000552391F3951B550BBB27AA2762177307FB
:10332000840738F09F5F5F4F220F331F441FAA1F8F
:10333000A9F335D00E2E3AF0E0E832D0915050404B
:10334000E695001CCAF72BD0FE2F29D0660F771FF9
:10335000881FBB1F261737074807AB07B0E809F0DF
:10336000BB0B802DBF01FF2793585F4F3AF09E3F64
:10337000510578F00C94711A0C94BC1A5F3FE4F379
:10338000983ED4F3869577956795B795F7959F5FA7
:10339000C9F7880F911D9695879597F90895E1E0F3
:1033A000660F771F881FBB1F621773078407BA0752
:1033B00020F0621B730B840BBA0BEE1F88F7E095AD
:1033C00008950E94A11A88F09F5798F0B92F992765
:1033D000B751B0F0E1F0660F771F881F991F1AF000
:1033E000BA95C9F714C0B13091F00E94BB1AB1E090
:1033F00008950C94BB1A672F782F8827B85F39F08F
:10340000B93FCCF3869577956795B395D9F73EF498
:1034100090958095709561957F4F8F4F9F4F089540
:10342000E89409C097FB3EF490958095709561955E
:103430007F4F8F4F9F4F9923A9F0F92F96E9BB2714
:103440009395F695879577956795B795F111F8CF90
:10345000FAF4BB0F11F460FF1BC06F5F7F4F8F4FFB
:103460009F4F16C0882311F096E911C0772321F0F1
:103470009EE8872F762F05C0662371F096E8862F89
:1034800070E060E02AF09A95660F771F881FDAF7E0
:10349000880F9695879597F90895990F0008550F0D
:1034A000AA0BE0E8FEEF16161706E807F907C0F0CA
:1034B00012161306E407F50798F0621B730B840BD2
:1034C000950B39F40A2661F0232B242B252B21F4AC
:1034D00008950A2609F4A140A6958FEF811D811D4C
:1034E000089597F99F6780E870E060E008959FEF86
:1034F00080EC089500240A9416161706180609068B
:10350000089500240A941216130614060506089559
:10351000092E0394000C11F4882352F0BB0F40F4E1
:10352000BF2B11F460FF04C06F5F7F4F8F4F9F4F21
:10353000089557FD9058440F551F59F05F3F71F0A3
:103540004795880F97FB991F61F09F3F79F087950A
:103550000895121613061406551FF2CF4695F1DF93
:1035600008C0161617061806991FF1CF8695710523
:10357000610508940895E894BB2766277727CB0157
:1035800097F908950E94D51A0C94881A0E947A1A05
:1035900038F00E94811A20F0952311F00C94711AD2
:1035A0000C94771A11240C94BC1A0E94991A70F387
:1035B000959FC1F3950F50E0551F629FF001729FD8
:1035C000BB27F00DB11D639FAA27F00DB11DAA1FE7
:1035D000649F6627B00DA11D661F829F2227B00D34
:1035E000A11D621F739FB00DA11D621F839FA00DBF
:1035F000611D221F749F3327A00D611D231F849F0F
:10360000600D211D822F762F6A2F11249F57504065
:103610009AF0F1F088234AF0EE0FFF1FBB1F661FE0
:10362000771F881F91505040A9F79E3F510580F0A9
:103630000C94711A0C94BC1A5F3FE4F3983ED4F3D7
:10364000869577956795B795F795E7959F5FC1F74D
:10365000FE2B880F911D9695879597F90895A1E205
:103660001A2EAA1BBB1BFD010DC0AA1FBB1FEE1FFC
:10367000FF1FA217B307E407F50720F0A21BB30B47
:10368000E40BF50B661F771F881F991F1A9469F7C3
:1036900060957095809590959B01AC01BD01CF011F
:1036A0000895AEE0B0E0E7E5FBE10C94121E0D8951
:1036B0001E8986E08C831A8309838FEF9FE79E83A0
:1036C0008D83AE01475E5F4F6F89788DCE01019685
:1036D0000E94731BEF81F885E00FF11F10822E9678
:1036E000E4E00C942E1EABE0B0E0E9E7FBE10C94C3
:1036F000041E6C017B018A01FC0117821682838102
:1037000081FFCCC1CE0101963C01F6019381F70106
:1037100093FD859193FF81917F01882309F4BAC1BC
:10372000853239F493FD859193FF81917F01853234
:1037300029F4B60190E00E946A1DE7CF912C212C5C
:10374000312CFFE1F315D8F08B3279F038F4803268
:1037500079F08332A1F4232D20611DC08D3261F0F8
:10376000803369F4232D216016C0832D8260382EAA
:10377000E32DE4603E2E2AC0F32DF8601DC037FC17
:103780002DC020ED280F2A3040F08E32B9F436FCDF
:1037900081C1232D2064322E19C036FE06C08AE076
:1037A000989E200D1124922E11C0EAE02E9E200D2D
:1037B0001124222EF32DF0623F2E08C08C3621F406
:1037C000832D8068382E02C0883641F4F70193FDBE
:1037D000859193FF81917F018111B3CF982F9F7DB8
:1037E0009554933028F40C5F1F4F9FE399830DC0CD
:1037F000833631F0833771F0833509F059C021C029
:10380000F801808189830E5F1F4F88248394912C57
:10381000530113C02801F2E04F0E511CF801A080A3
:10382000B18036FE03C0692D70E002C06FEF7FEFFC
:10383000C5010E945F1D4C018201F32DFF773F2ED1
:1038400016C0280122E0420E511CF801A080B18070
:1038500036FE03C0692D70E002C06FEF7FEFC50137
:103860000E94541D4C01F32DF0683F2E820133FC61
:103870001BC0822D90E088169906B0F4B60180E254
:1038800090E00E946A1D2A94F4CFF50137FC8591DF
:1038900037FE81915F01B60190E00E946A1D211000
:1038A0002A9421E0821A91088114910471F7E8C0EA
:1038B000843611F0893641F5F80137FE07C0608182
:1038C0007181828193810C5F1F4F08C0608171817B
:1038D000072E000C880B990B0E5F1F4FF32DFF7600
:1038E0003F2E97FF09C090958095709561957F4F09
:1038F0008F4F9F4FF0683F2E2AE030E0A3010E94D7
:10390000A61D882E861845C0853731F4232D2F7EBD
:10391000B22E2AE030E025C0932D997FB92E8F3644
:10392000C1F018F4883579F0B5C0803719F08837C0
:1039300021F0B0C0E92FE061BE2EB4FE0DC0FB2D1A
:10394000F460BF2E09C034FE0AC0292F2660B22EB3
:1039500006C028E030E005C020E130E002C020E1F0
:1039600032E0F801B7FE07C06081718182819381E6
:103970000C5F1F4F06C06081718180E090E00E5F98
:103980001F4FA3010E94A61D882E8618FB2DFF77CE
:103990003F2E36FE0DC0232D2E7FA22E891458F403
:1039A00034FE0BC032FC09C0832D8E7EA82E05C0CC
:1039B000B82CA32C03C0B82C01C0B92CA4FE0FC096
:1039C000FE01E80DF11D8081803321F49A2D997E4E
:1039D000A92E09C0A2FE06C0B394B39404C08A2DD8
:1039E000867809F0B394A3FC11C0A0FE06C0B214FF
:1039F00088F4280C922C9B180EC0B21460F4B60107
:103A000080E290E00E946A1DB394F7CFB21418F4DC
:103A10002B1802C0982C212CA4FE10C0B60180E304
:103A200090E00E946A1DA2FE17C0A1FC03C088E7B7
:103A300090E002C088E590E0B6010CC08A2D86783F
:103A400059F0A1FE02C08BE201C080E2A7FC8DE22A
:103A5000B60190E00E946A1D891438F4B60180E333
:103A600090E00E946A1D9A94F7CF8A94F301E80DC2
:103A7000F11D8081B60190E00E946A1D8110F5CF92
:103A8000222009F442CEB60180E290E00E946A1D35
:103A90002A94F6CFF6018681978102C08FEF9FEFBF
:103AA0002B96E2E10C94201EFC01059061507040C1
:103AB0000110D8F7809590958E0F9F1F0895FC01F7
:103AC0006150704001900110D8F7809590958E0F4D
:103AD0009F1F08950F931F93CF93DF93FB012381C3
:103AE00021FD03C08FEF9FEF2CC022FF16C046813F
:103AF0005781248135814217530744F4A081B18155
:103B00009D012F5F3F4F318320838C932681378126
:103B10002F5F3F4F3783268314C08B01EC01FB01DD
:103B20000084F185E02D0995892BE1F6D8011696E0
:103B30008D919C911797019617969C938E9316974B
:103B4000CE01DF91CF911F910F910895FA01AA271D
:103B5000283051F1203181F1E8946F936E7F6E5FD0
:103B60007F4F8F4F9F4FAF4FB1E03ED0B4E03CD07E
:103B7000670F781F891F9A1FA11D680F791F8A1F61
:103B8000911DA11D6A0F711D811D911DA11D20D0C8
:103B900009F468943F912AE0269F11243019305D82
:103BA0003193DEF6CF010895462F4770405D419373
:103BB000B3E00FD0C9F7F6CF462F4F70405D4A33C0
:103BC00018F0495D31FD4052419302D0A9F7EACF88
:103BD000B4E0A6959795879577956795BA95C9F7B7
:103BE00000976105710508959B01AC010A2E0694AA
:103BF0005795479537952795BA95C9F7620F731F63
:103C0000841F951FA01D08952F923F924F925F929F
:103C10006F927F928F929F92AF92BF92CF92DF92DC
:103C2000EF92FF920F931F93CF93DF93CDB7DEB741
:103C3000CA1BDB0B0FB6F894DEBF0FBECDBF0994D5
:103C40002A88398848885F846E847D848C849B842C
:103C5000AA84B984C884DF80EE80FD800C811B813A
:103C6000AA81B981CE0FD11D0FB6F894DEBF0FBE69
:0A3C7000CDBFED010895F894FFCFD9
:103C7A00FFFFFFFFFF013132333435363738392A37
:103C8A003023506C6561736520456E7465722055EA
:103C9A00736572004E616D652650617373776F723A
:103CAA00640050415353574F52443A00456E74656D
:103CBA007265642055736572204E616D653A0050D5
:103CCA00617373776F72643A00456E7465726564E6
:103CDA0020506173733A0041434345535320504582
:103CEA00524D4954454400414343455353204445AA
:103CFA004E4945440057726F6E67205573657220AE
:103D0A004E616D6500506C6561736520547279204F
:103D1A00416761696E0057726F6E672050617373F5
:103D2A00776F726400506C6561736520456E7465C7
:103D3A00722055736572204E616D65202620506190
:103D4A007373776F726420000A00506C6561736543
:103D5A0020456E7465722055736572204E616D65DB
:103D6A0020262050617373776F7264207520776103
:103D7A006E7420746F206368616E6765000D005071
:103D8A006C6561736520456E7465722054686520A0
:103D9A006E6577205573657220416E642050617399
:103DAA007300557365722044617461204368616EC3
:103DBA00676564205375636365737366756C6C79A4
:103DCA000057726F6E672055736572204E616D657C
:103DDA00206F722070617373776F726400312D41A6
:103DEA004320322D6C6967687400332D74656D70D9
:103DFA0020342D446F6F7200352D206368616E6721
:103E0A006520757365726E616D6520616E642070E0
:103E1A00617373776F7264004143204973204F6E58
:103E2A002F6F666600526F6F6D2054656D703A2071
:103E3A002564206300302D676F20746F20686F6DD2
:103E4A00650043686F6F7365206C696768742074D6
:103E5A006F00636F6E74726F6C28312D3629004CB7
:103E6A00696768742031206973204F6E00312D54C0
:103E7A006F205475726E204974204F6666004C6933
:103E8A006768742031206973204F464600312D54EB
:103E9A006F205475726E204974204F6E004C69670A
:103EAA0068742032206973204F6E004C6967687409
:103EBA002032206973204F4646004C696768742097
:103ECA0033206973204F6E004C6967687420332071
:103EDA006973204F4646004C69676874203420692C
:103EEA0073204F6E004C6967687420342069732010
:103EFA004F4646004C696768742035206973204F25
:103F0A006E004C696768742035206973204F4646F5
:103F1A00004C696768742036206973204F6E00422E
:103F2A0072696768746E6573733A20256425003177
:103F3A00292B31302032292D313020302948004CAC
:103F4A00696768742036206973204F464600446FBB
:103F5A006F7220697320636C6F73656400312D4F33
:103F6A0070656E20446F6F7220302D486F6D65004A
:103F7A00446F6F72206973206F70656E696E670097
:103F8A00446F6F72206973206F70656E00312D4324
:103F9A006C6F736520446F6F7220302D486F6D65AA
:103FAA0000446F6F7220697320636C6F73696E6768
:103FBA00002057656C636F6D6520746F20796F758B
:103FCA007200202020536D61727420486F6D650065
:103FDA00373635343332310031313232333334000B
:103FEA003130303230303300302D476F20746F203B
:103FFA00486F6D6500526F6F6D2054656D703A2081
:10400A00202063004143204973204F6E2F6F66665C
:10401A0020302D4800526F6F6D2054656D703A2024
:10402A002063004272696768746E6573733A202070
:10403A0025004163636573732044656E6965640096
:00000001FF
