:100000000C942A000C9447000C9447000C94470071
:100010000C9447000C9447000C9447000C94470044
:100020000C9447000C9447000C94E40A0C94A90A21
:100030000C9447000C9447000C9447000C94470024
:100040000C9447000C9447000C9447000C94470014
:100050000C94470011241FBECFE5D8E0DEBFCDBF12
:1000600013E0A0E6B0E0E0E9FBE102C005900D92EC
:10007000A839B107D9F723E0A8E9B3E001C01D9280
:10008000A13AB207E1F70E94DF070C94C60D0C9469
:1000900000000E9436060E94B3090E94C6090E9411
:1000A000BA0464E083E00E94C00760E070E0CB0126
:1000B0000E94C6070E94E8040E94B70441E061E084
:1000C00083E00E943C0840E060E083E00E943C083E
:1000D0000E94AF090E94710A63E083E00E94A207B8
:1000E00060E081E00E94A20762E080E00E94A20737
:1000F00063E080E00E94A20762E083E00E94A20722
:1001000065E083E00E94A20708958AEC91E00E94D6
:10011000E40680EC0E9400068BED91E00E94E4066C
:100120002FEF83ED90E3215080409040E1F700C035
:1001300000000895CF93DF93CDB7DEB7E0970FB6F9
:10014000F894DEBF0FBECDBF0E94490083E00E943D
:10015000F10740E060E080E00E943C080E948500DA
:100160000E94560788E0E9EEF1E0DE011196019069
:100170000D928A95E1F788E0E9EEF1E0DE0119964B
:1001800001900D928A95E1F788E0E1EFF1E0DE0160
:10019000519601900D928A95E1F788E0E1EFF1E048
:1001A000DE01599601900D928A95E1F788E0E9EF1A
:1001B000F1E0DE01919601900D928A95E1F788E0D9
:1001C000E9EFF1E0DE01999601900D928A95E1F751
:1001D000BE016F5F7F4F80E190E00E94BD04BE01D1
:1001E000675F7F4F88E190E00E94BD04BE016F5EB3
:1001F0007F4F80E590E00E94BD04BE01675E7F4FA7
:1002000088E590E00E94BD04BE016F5D7F4F80E6EF
:1002100090E00E94BD04BE01675D7F4F88E690E0DC
:100220000E94BD04E0960FB6F894DEBF0FBECDBFAE
:10023000DF91CF91089568E973E080E00E94210882
:100240006BE081E00E9487076091980370E080E096
:1002500090E00E94030708950E94560780E80E94DC
:10026000000681E092E00E94CE060E941B0180EC15
:100270000E94000680E192E00E94CE0606C080E661
:1002800090E00E941C050E941B01809160008F3F3E
:10029000B1F3803311F40E9456070E94A20A0E9413
:1002A000560708958FEF80936300809362008093D8
:1002B00061008093600008950E9452018CE291E0F9
:1002C0000E949B0A0E94830A0E9456078DE192E0D9
:1002D0000E94CE0680EC0E9400068AE292E00E9414
:1002E000CE060E9452010CC080916000803321F440
:1002F0008FEF8093600008C083E690E00E941C05A9
:10030000809163008F3F81F30E94910A8091630086
:100310008233C9F018F4813341F00895833309F42E
:10032000D7C2843309F407C308950E94560788E3AF
:1003300092E00E94E40680EC0E94000685E492E0D0
:100340000E94E40608950E94560784E592E00E9408
:10035000E40680EC0E94000684E692E00E94E40637
:100360008CE291E00E949B0A0E94830A0CC082E604
:1003700090E00E941C0580916000803321F48FEF93
:100380008093600004C0809162008F3F81F30E94DF
:10039000910A80916200833309F4A6C030F481335E
:1003A00069F0823309F454C00895853309F434C1E7
:1003B00008F4E6C0863309F47BC108954AE953E0A6
:1003C00063E083E00E943C090E94560780919A03F3
:1003D0008130F1F481E792E00E94E40680EC0E9413
:1003E00000068FE792E00E94E40604C081E690E0F8
:1003F0000E941C05809161008F3FC1F3813329F475
:1004000041E063E083E00E94B3070E945201089537
:100410008111ACC280E992E00E94E40680EC0E9467
:1004200000068FE992E00E94E40604C081E690E0B5
:100430000E941C05809161008F3FC1F3813329F434
:1004400041E063E083E00E94A6070E945201089504
:100450004AE953E064E083E00E943C090E945607A9
:1004600080919A038130F9F48FEA92E00E94E406C9
:1004700080EC0E9400068FE792E00E94E40604C030
:1004800081E690E00E941C05809161008F3FC1F3DE
:10049000813329F441E064E083E00E94B3078FEFE9
:1004A000809361000895811161C28DEB92E00E94FA
:1004B000E40680EC0E9400068FE992E00E94E406C8
:1004C00004C081E690E00E941C05809161008F3F8E
:1004D000C1F3813329F441E064E083E00E94A60780
:1004E0008FEF8093610008954AE953E062E080E075
:1004F0000E943C090E94560780919A038130F9F4CA
:100500008CEC92E00E94E40680EC0E9400068FE7EB
:1005100092E00E94E40604C081E690E00E941C057F
:10052000809161008F3FC1F3813329F441E062E0A3
:1005300080E00E94B3078FEF8093610008958111DE
:1005400015C28AED92E00E94E40680EC0E9400064B
:100550008FE992E00E94E40604C081E690E00E94E8
:100560001C05809161008F3FC1F3813329F441E084
:1005700062E080E00E94A6078FEF809361000895FB
:100580004AE953E063E080E00E943C090E9456077C
:1005900080919A038130F9F489EE92E00E94E4069A
:1005A00080EC0E9400068FE792E00E94E40604C0FF
:1005B00081E690E00E941C05809161008F3FC1F3AD
:1005C000813329F441E063E080E00E94B3078FEFBC
:1005D0008093610008958111C9C187EF92E00E9464
:1005E000E40680EC0E9400068FE992E00E94E40697
:1005F00004C081E690E00E941C05809161008F3F5D
:10060000C1F3813329F441E063E080E00E94A60752
:100610008FEF8093610008954AE953E062E083E040
:100620000E943C090E94560780919A038130F9F498
:1006300086E093E00E94E40680EC0E9400068FE7CB
:1006400092E00E94E40604C081E690E00E941C054E
:10065000809161008F3FC1F3813329F441E062E072
:1006600083E00E94B3078FEF8093610008958111AA
:100670007DC184E193E00E94E40680EC0E940006C4
:100680008FE992E00E94E40604C081E690E00E94B7
:100690001C05809161008F3FC1F3813329F441E053
:1006A00062E083E00E94A6078FEF809361000895C7
:1006B0000E94560780919903882309F482C083E23F
:1006C00093E00E94E4062FEF33ED80E321503040A9
:1006D0008040E1F700C000000E94560781E393E0EC
:1006E0000E94CE066DE081E00E9487076091990329
:1006F00070E080E090E00E94030780EC0E9400061A
:1007000080E493E00E94E40656C081E690E00E94F7
:100710001C0580916100813359F560919903665FF2
:100720006093990370E080E090E00E94850CAB013B
:10073000BC0188EE93E00E94D9096DE081E00E943F
:1007400087076091990370E080E090E00E940307C2
:1007500080919903853678F184E68093990340E08F
:1007600050E068EC72E488EE93E00E94D90923C05F
:100770008233E1F4609199036A506093990370E0C9
:1007800080E090E00E94850CAB01BC0188EE93E014
:100790000E94D9096DE081E00E948707609199036A
:1007A00070E080E090E00E94030705C0803319F4F8
:1007B0000E9456070895809161008F3F09F4A5CFEC
:1007C000089580919A038111D1C080E593E00E9441
:1007D000E4069FEF23ED30E3915020403040E1F7F5
:1007E00000C000000E94560781E393E00E94CE06FD
:1007F0006DE081E00E9487076091990370E080E0DE
:1008000090E00E94030780EC0E94000680E493E0E1
:100810000E94E40657C081E690E00E941C0580918A
:100820006100813361F560919903665F609399037C
:1008300070E080E090E00E94850CAB01BC0188EE86
:1008400093E00E94D9096DE081E00E9487076091E2
:10085000990370E080E090E00E9403078091990383
:10086000853608F4A8CF84E68093990340E050E0F1
:1008700068EC72E488EE93E00E94D9099CCF823341
:10088000E1F4609199036A506093990370E080E00D
:1008900090E00E94850CAB01BC0188EE93E00E94C1
:1008A000D9096DE081E00E9487076091990370E0AB
:1008B00080E090E00E9403077ECF803319F40E940D
:1008C00056070895809161008F3F09F4A4CF0895E1
:1008D0000E94560768E973E080E00E94210880E8E2
:1008E0000E9400068FE593E00E94CE066BE081E057
:1008F0000E9487076091980370E080E090E00E947A
:10090000030783E60E94980680EC0E9400068DE6AD
:1009100093E00E94E40606C080E690E00E941C0579
:100920000E941B01809160008F3FB1F38033F1F48E
:100930000E94560708950E9456078AE793E00E9496
:10094000CE0660E070E084EB92E40E94C6078AEA7B
:1009500096EE26E931E08150904020403040D9F7B2
:10096000000060E070E0CB010E94C60708950E947D
:10097000610B08950E941F0B08950F931F93CF934F
:10098000DF9361157105F9F08B01D82FC92FC06570
:100990000E942B0B8C2F0E94400B8D2F0E94550B19
:1009A000C0E007C0F801EC0FF11D80810E94550BDB
:1009B000CF5FC830B8F30E94390B8FE19EE40197F6
:1009C000F1F700C00000DF91CF911F910F910895C2
:1009D00041E064E081E00E943C0841E065E081E0A4
:1009E0000E943C0841E066E081E00E943C0840E053
:1009F00063E082E00E943C0840E064E082E00E9404
:100A00003C0840E065E082E00E943C0840E066E08F
:100A100082E00E943C0863E082E00E94770964E083
:100A200082E00E94770965E082E00E94770966E033
:100A300082E00E94770908956F927F928F929F9231
:100A4000AF92BF92CF92DF92EF92FF920F931F93DC
:100A5000CF93DF93CDB7DEB76B970FB6F894DEBFB9
:100A60000FBECDBF009709F47EC05C0181E0888F86
:100A7000898F8A8F34E03D8B25E02E8B96E09F8B0B
:100A800082E0898B8A8B8B8B8C8B83E08D873E8772
:100A90002F87988B8CE0E5E6F0E0DE01119601905F
:100AA0000D928A95E1F78FEFF5018083812C57C075
:100AB000C82CD12CE5E1F0E0EC0FFD1FEC0DFD1D85
:100AC0006080E8E1F0E0EC0FFD1FEC0DFD1D708093
:100AD00040E0662D872D0E94BC0810E038C0E12E52
:100AE000F12CEDE0F0E0EC0FFD1FEE0DFF1D00819D
:100AF000E1E1F0E0EC0FFD1FEE0DFF1D9080AE0177
:100B0000455E5F4F602F892D0E943C098B8D8111BE
:100B10001DC007C0AE01455E5F4F602F892D0E944A
:100B20003C098B8D8823B1F3C701880F991FE80E0C
:100B3000F91E81E090E08C0F9D1FE80EF91EF70171
:100B4000EC0DFD1D8081F50180830DC01F5F143009
:100B500030F241E0662D872D0E94BC088394F2E0BC
:100B6000F81508F0A5CF6B960FB6F894DEBF0FBE50
:100B7000CDBFDF91CF911F910F91FF90EF90DF904C
:100B8000CF90BF90AF909F908F907F906F9008957F
:100B9000CF93C82F80FF06C041E064E080E00E9450
:100BA000BC0805C040E064E080E00E94BC08C1FFD2
:100BB00006C041E065E080E00E94BC0805C040E05E
:100BC00065E080E00E94BC08C2FF06C041E066E02C
:100BD00080E00E94BC0805C040E066E080E00E9422
:100BE000BC08C3FF06C041E067E080E00E94BC088B
:100BF00005C040E067E080E00E94BC08CF91089506
:100C0000CF93C82F40E061E081E00E94BC0840E043
:100C100062E081E00E94BC088C2F82958F700E9458
:100C2000C80541E063E081E00E94BC088FE99FE0D5
:100C30000197F1F700C0000040E063E081E00E940E
:100C4000BC088C2F0E94C80541E063E081E00E944F
:100C5000BC088FE99FE00197F1F700C0000040E079
:100C600063E081E00E94BC08CF91089541E061E01B
:100C700081E00E943C0841E062E081E00E943C0883
:100C800041E063E081E00E943C0841E064E080E0F4
:100C90000E943C0841E065E080E00E943C0841E0A1
:100CA00066E080E00E943C0841E067E080E00E944E
:100CB0003C082FE785EB91E0215080409040E1F720
:100CC00000C0000040E061E081E00E94BC0840E01C
:100CD00062E081E00E94BC0882E00E94C80541E019
:100CE00063E081E00E94BC088FE99FE00197F1F783
:100CF00000C0000040E063E081E00E94BC0888E2A0
:100D00000E94000690EF9A95F1F78CE00E94000691
:100D100020EF2A95F1F781E00E9400068FE39FE122
:100D20000197F1F700C0000086E00E9400060895D8
:100D3000CF93C82F41E061E081E00E94BC0840E011
:100D400062E081E00E94BC088C2F82958F700E9427
:100D5000C80541E063E081E00E94BC088FE99FE0A4
:100D60000197F1F700C0000040E063E081E00E94DD
:100D7000BC088C2F0E94C80541E063E081E00E941E
:100D8000BC088FE99FE00197F1F700C0000040E048
:100D900063E081E00E94BC08CF9108950F931F93F8
:100DA000CF93009729F40CC00E949806CF5F02C031
:100DB0008C01C0E0F801EC0FF11D80818111F4CFAE
:100DC000CF911F910F9108950F931F93CF93009789
:100DD00071F415C00E949806CF5F2FEF80E792E074
:100DE000215080409040E1F700C0000002C08C011B
:100DF000C0E0F801EC0FF11D80818111EBCFCF91A4
:100E00001F910F9108950F931F93CF93DF9300D0FD
:100E100000D01F92CDB7DEB7262F10E008C01F5FAD
:100E2000EDEC6E9F612D11246695669566956111B6
:100E3000F6CF00E01AC0622F2AE030E040E050E038
:100E40000E94A40D732F842F952FA02FB0E0119630
:100E5000E12FF0E0EA1BFB0B41E050E04C0F5D1F7F
:100E6000E40FF51F605D60830F5F011720F3E1E081
:100E7000F0E0EC0FFD1FE10FF11D108210E003C048
:100E80000E9498061F5FE1E0F0E0EC0FFD1FE10F0C
:100E9000F11D80818111F4CF0F900F900F900F9072
:100EA0000F90DF91CF911F910F91089540E061E085
:100EB00081E00E94BC0840E062E081E00E94BC0842
:100EC00080E00E94C80541E063E081E00E94BC0828
:100ED0008FE99FE00197F1F700C0000040E063E078
:100EE00081E00E94BC0881E00E94C80541E063E007
:100EF00081E00E94BC088FE99FE00197F1F700C0F4
:100F0000000040E063E081E00E94BC080895CF93B8
:100F1000DF936832A0F4C62FD82F82E00E9400062B
:100F2000D13019F0D23031F00AC08C2F80680E9485
:100F3000000605C080E48C0F80680E940006DF91E7
:100F4000CF91089541E00E943C080895413019F086
:100F5000423029F0089541E00E94BC08089540E025
:100F60000E94BC080895413019F0423029F00895DC
:100F700040E00E94BC08089541E00E94BC0808952A
:100F800041E00E943C080E94B309089520E030E04F
:100F900040E250E40E94370D20E030EC48E254E497
:100FA0000E94730B20E030E044EB52E40E94E40B1B
:100FB000AB01BC0182E390E00E94250A08950E94E3
:100FC0009A0080916400813019F40E945C01F9CF8D
:100FD0008111F7CF8AE893E00E94CE0680E090E08E
:100FE0000895823059F0833081F08130A1F487B1C7
:100FF000806487B987B18F7787B90DC087B18F7B40
:1010000087B987B18F7787B906C087B1806487B900
:1010100087B1806887B987B18F7D87B986B18F7DA9
:1010200086B986B1877F86B986B1846086B986B174
:10103000826086B986B1816086B986B1806886B9DA
:10104000089561157105B9F097B1907E97B997B180
:10105000892B87B986B1806486B9349BFECF84B171
:1010600095B19695879596958795FB019183808399
:1010700086B1806186B90895843008F07CC06830FC
:1010800008F079C0423008F076C0813019F130F0B4
:101090008230E1F1833009F454C00895442371F0A3
:1010A000413009F068C02AB381E090E002C0880FA7
:1010B000991F6A95E2F7822B8ABB08952AB381E0D3
:1010C00090E002C0880F991F6A95E2F7809582230D
:1010D0008ABB0895442371F0413009F04CC027B316
:1010E00081E090E002C0880F991F6A95E2F7822B99
:1010F00087BB089527B381E090E002C0880F991F55
:101100006A95E2F78095822387BB0895442369F0AE
:10111000413089F524B381E090E002C0880F991F27
:101120006A95E2F7822B84BB089524B381E090E0B6
:1011300002C0880F991F6A95E2F78095822384BBCD
:101140000895442369F04130B1F421B381E090E087
:1011500002C0880F991F6A95E2F7822B81BB089520
:1011600021B381E090E002C0880F991F6A95E2F7F1
:101170008095822381BB0895843008F07CC068305C
:1011800008F079C0423008F076C0813019F130F0B3
:101190008230E1F1833009F454C00895442371F0A2
:1011A000413009F068C02BB381E090E002C0880FA5
:1011B000991F6A95E2F7822B8BBB08952BB381E0D0
:1011C00090E002C0880F991F6A95E2F7809582230C
:1011D0008BBB0895442371F0413009F04CC028B313
:1011E00081E090E002C0880F991F6A95E2F7822B98
:1011F00088BB089528B381E090E002C0880F991F52
:101200006A95E2F78095822388BB0895442369F0AC
:10121000413089F525B381E090E002C0880F991F25
:101220006A95E2F7822B85BB089525B381E090E0B3
:1012300002C0880F991F6A95E2F78095822385BBCB
:101240000895442369F04130B1F422B381E090E085
:1012500002C0880F991F6A95E2F7822B82BB08951E
:1012600022B381E090E002C0880F991F6A95E2F7EF
:101270008095822382BB08958430C0F56830B0F534
:101280004115510599F1813089F028F08230C9F07B
:10129000833011F1089589B390E002C09595879548
:1012A0006A95E2F78170FA018083089586B390E031
:1012B00002C0959587956A95E2F78170FA0180835F
:1012C000089583B390E002C0959587956A95E2F7FB
:1012D0008170FA018083089580B390E002C09595F3
:1012E00087956A95E2F78170FA01808308958430CA
:1012F000A8F5683098F5813089F028F08230C9F07F
:10130000833011F108952BB381E090E002C0880F83
:10131000991F6A95E2F7822B8BBB089528B381E071
:1013200090E002C0880F991F6A95E2F7822B88BB74
:10133000089525B381E090E002C0880F991F6A9557
:10134000E2F7822B85BB089522B381E090E002C0D2
:10135000880F991F6A95E2F7822B82BB08958FB799
:1013600080688FBF08958EB580618EBD8EB5886010
:101370008EBD8FB582608FBD8FB58E7F8FBD8FB5CF
:1013800080688FBD8FB58F7B8FBD08958EB58061CE
:101390008EBD8EB588608EBD8FB582608FBD8FB5D6
:1013A0008E7F8FBD8FB580628FBD8FB58F7E8FBDD5
:1013B0000895CF92DF92EF92FF92CF93DF93EC01EB
:1013C0006A017B0120E030E048EC52E4C701B6013D
:1013D0000E94DF0B181694F19E0140E050E060E996
:1013E00070ED83E090E00E94A40D2150310937BDDB
:1013F00026BD66B577B56F5F7F4F80E090E00E94B5
:10140000850CA70196010E94370D20E030E048ECE2
:1014100052E40E94E40B20E030E040E85FE30E94E9
:10142000720B0E94560C7BBD6ABD8EB581608EBD6D
:101430008EB582608EBD8EB58B7F8EBDDF91CF91D4
:10144000FF90EF90DF90CF900895CF92DF92EF92D0
:10145000FF92CF93DF93EC016A017B0120E030E043
:1014600048EC52E4C701B6010E94DF0B181694F154
:101470009E0140E050E060E970ED83E090E00E9462
:10148000A40D2150310937BD26BD66B577B56F5F14
:101490007F4F80E090E00E94850CA70196010E949A
:1014A000370D20E030E048EC52E40E94E40B20E0ED
:1014B00030E040E85FE30E94720B0E94560C79BD59
:1014C00068BD8EB581608EBD8EB582608EBD8EB5D5
:1014D0008B7F8EBDDF91CF91FF90EF90DF90CF900B
:1014E000089583B78F7B83BF83B7886083BF83B73B
:1014F0008F7E83BF83B78F7D83BF89B7826089BFAB
:1015000089EF8CBF089583B7816083BF83B7826002
:1015100083BF83B78B7F83BF10929C0310929B0382
:10152000089583B78E7F83BF83B78D7F83BF83B7D3
:101530008B7F83BF0895009721F090939E03809343
:101540009D03089588B7826088BF88B7816088BF8F
:1015500008951F920F920FB60F9211242F933F936D
:101560004F935F936F937F938F939F93AF93BF93AB
:10157000EF93FF9380919B0390919C03019690932E
:101580009C0380939B03883E934069F481E782BF6C
:1015900010929C0310929B03E0919F03F091A00393
:1015A000309709F00995FF91EF91BF91AF919F910D
:1015B0008F917F916F915F914F913F912F910F90FC
:1015C0000FBE0F901F9018951F920F920FB60F929B
:1015D00011242F933F934F935F936F937F938F9338
:1015E0009F93AF93BF93EF93FF9380919B03909151
:1015F0009C03019690939C0380939B0388389341AE
:1016000069F410929C0310929B03E0919D03F0916A
:101610009E03309719F009950E94A20AFF91EF915D
:10162000BF91AF919F918F917F916F915F914F91FA
:101630003F912F910F900FBE0F901F9018958CE047
:1016400080B981B18D7F81B981B18E7F81B986B733
:10165000846086BF089586B7806286BF86B780683B
:1016600086BF06B607FEFDCF81B1887F8830E1F7DF
:10167000089586B7806186BF86B7806886BF089563
:10168000882394F0880F83B983B18E7F83B986B79E
:101690008F7D86BF86B7806886BF06B607FEFDCF02
:1016A00081B1887F8831E1F7089583B986B7806872
:1016B00086BF06B607FEFDCF81B1887F8832E1F78D
:1016C00008958BB18D7F8BB987E689B98AB18B7FFD
:1016D0008AB986E880BD8AB180618AB98AB188609A
:1016E0008AB908955058BB27AA270E948A0B0C94E8
:1016F000FD0C0E94EF0C38F00E94F60C20F039F43B
:101700009F3F19F426F40C94EC0C0EF4E095E7FBE3
:101710000C94E60CE92F0E940E0D58F3BA176207DD
:1017200073078407950720F079F4A6F50C94300D23
:101730000EF4E0950B2EBA2FA02D0B01B9019001EC
:101740000C01CA01A0011124FF27591B99F0593F30
:1017500050F4503E68F11A16F040A22F232F342F78
:101760004427585FF3CF469537952795A795F040C6
:101770005395C9F77EF41F16BA0B620B730B840BDB
:10178000BAF09150A1F0FF0FBB1F661F771F881F93
:10179000C2F70EC0BA0F621F731F841F48F48795EB
:1017A00077956795B795F7959E3F08F0B0CF9395DD
:1017B000880F08F09927EE0F9795879508950E9456
:1017C000C20C08F481E008950E94F80B0C94FD0C03
:1017D0000E94F60C58F00E94EF0C40F029F45F3F95
:1017E00029F00C94E60C51110C94310D0C94EC0C76
:1017F0000E940E0D68F39923B1F3552391F3951BC5
:10180000550BBB27AA2762177307840738F09F5F21
:101810005F4F220F331F441FAA1FA9F335D00E2E8E
:101820003AF0E0E832D091505040E695001CCAF7FB
:101830002BD0FE2F29D0660F771F881FBB1F2617BE
:1018400037074807AB07B0E809F0BB0B802DBF0195
:10185000FF2793585F4F3AF09E3F510578F00C9464
:10186000E60C0C94310D5F3FE4F3983ED4F386957B
:1018700077956795B795F7959F5FC9F7880F911D85
:101880009695879597F90895E1E0660F771F881F71
:10189000BB1F621773078407BA0720F0621B730B24
:1018A000840BBA0BEE1F88F7E09508950E94160D81
:1018B00088F09F5798F0B92F9927B751B0F0E1F011
:1018C000660F771F881F991F1AF0BA95C9F714C0C1
:1018D000B13091F00E94300DB1E008950C94300DBC
:1018E000672F782F8827B85F39F0B93FCCF38695FA
:1018F00077956795B395D9F73EF490958095709557
:1019000061957F4F8F4F9F4F0895E89409C097FBD3
:101910003EF490958095709561957F4F8F4F9F4FC6
:101920009923A9F0F92F96E9BB279395F69587950A
:1019300077956795B795F111F8CFFAF4BB0F11F4CD
:1019400060FF1BC06F5F7F4F8F4F9F4F16C0882374
:1019500011F096E911C0772321F09EE8872F762FAA
:1019600005C0662371F096E8862F70E060E02AF0EB
:101970009A95660F771F881FDAF7880F96958795D7
:1019800097F90895990F0008550FAA0BE0E8FEEFAC
:1019900016161706E807F907C0F012161306E40733
:1019A000F50798F0621B730B840B950B39F40A262C
:1019B00061F0232B242B252B21F408950A2609F40A
:1019C000A140A6958FEF811D811D089597F99F670E
:1019D00080E870E060E008959FEF80EC08950024B7
:1019E0000A941616170618060906089500240A9484
:1019F00012161306140605060895092E0394000C0A
:101A000011F4882352F0BB0F40F4BF2B11F460FF98
:101A100004C06F5F7F4F8F4F9F4F089557FD9058C1
:101A2000440F551F59F05F3F71F04795880F97FBA2
:101A3000991F61F09F3F79F087950895121613065C
:101A40001406551FF2CF4695F1DF08C0161617068B
:101A50001806991FF1CF86957105610508940895C0
:101A6000E894BB2766277727CB0197F908950E9452
:101A70004A0D0C94FD0C0E94EF0C38F00E94F60CFD
:101A800020F0952311F00C94E60C0C94EC0C11242E
:101A90000C94310D0E940E0D70F3959FC1F3950FBC
:101AA00050E0551F629FF001729FBB27F00DB11DE2
:101AB000639FAA27F00DB11DAA1F649F6627B00D72
:101AC000A11D661F829F2227B00DA11D621F739F5B
:101AD000B00DA11D621F839FA00D611D221F749F69
:101AE0003327A00D611D231F849F600D211D822FB0
:101AF000762F6A2F11249F5750409AF0F1F08823D7
:101B00004AF0EE0FFF1FBB1F661F771F881F915003
:101B10005040A9F79E3F510580F00C94E60C0C94C0
:101B2000310D5F3FE4F3983ED4F386957795679542
:101B3000B795F795E7959F5FC1F7FE2B880F911D2D
:101B40009695879597F90895A1E21A2EAA1BBB1BBB
:101B5000FD010DC0AA1FBB1FEE1FFF1FA217B30779
:101B6000E407F50720F0A21BB30BE40BF50B661F8F
:101B7000771F881F991F1A9469F760957095809553
:101B800090959B01AC01BD01CF010895F894FFCF62
:101B9000FFFFFFFF013132333435363738392A3011
:101BA00023506C6561736520456E746572205573B2
:101BB0006572004E616D652650617373776F726454
:101BC0000050415353574F52443A00456E7465726A
:101BD00065642055736572204E616D653A005061F1
:101BE0007373776F72643A00456E74657265642032
:101BF000506173733A00414343455353205045525B
:101C00004D49544544004143434553532044454EB8
:101C10004945440057726F6E672055736572204EB8
:101C2000616D6500506C6561736520547279204167
:101C30006761696E0057726F6E67205061737377CA
:101C40006F726400506C6561736520456E746572D7
:101C50002055736572204E616D652026205061739A
:101C600073776F726420000A00506C6561736520A1
:101C7000456E7465722055736572204E616D6520E6
:101C8000262050617373776F726420752077616EC0
:101C90007420746F206368616E676500506C6561C5
:101CA000736520456E74657220546865206E657793
:101CB000205573657220416E642050617373005526
:101CC0007365722044617461204368616E67656466
:101CD000205375636365737366756C6C7900577216
:101CE0006F6E672055736572204E616D65206F724F
:101CF0002070617373776F7264002057656C636F37
:101D00006D6520746F20796F757200202020536DEF
:101D100061727420486F6D65003736353433323167
:101D200000313132323333340031303032303033FD
:101D300000526F6F6D2054656D703A202020630053
:101D4000302D476F20746F20486F6D6500312D4135
:101D50004320322D6C6967687400332D74656D7093
:101D600020342D446F6F72004143204973204F6E21
:101D70002F6F666600526F6F6D2054656D703A204C
:101D80003330630043686F6F7365206C69676874F4
:101D900020746F00636F6E74726F6C28312D36295A
:101DA000004C696768742031206973204F6E0031E0
:101DB0002D546F205475726E204974204F66660052
:101DC0004C696768742031206973204F46460031A2
:101DD0002D546F205475726E204974204F6E004C44
:101DE000696768742032206973204F6E004C696700
:101DF00068742032206973204F4646004C6967683A
:101E0000742033206973204F6E004C69676874201A
:101E100033206973204F4646004C6967687420344C
:101E2000206973204F6E004C696768742034206904
:101E300073204F4646004C696768742035206973EB
:101E4000204F6E004C696768742035206973204FFD
:101E50004646004C696768742036206973204F6ECF
:101E6000004272696768746E6573733A20202500BA
:101E700031292B31302032292D31302030294800B2
:101E80004C696768742036206973204F46460052BB
:101E90006F6F6D2054656D703A20206300302D67A0
:101EA0006F20746F20686F6D6500446F6F722069DA
:101EB00073206F70656E696E67004163636573734D
:081EC0002044656E69656400B1
:00000001FF
