S0120000536D6172745F486F6D652E7372656323
S11300000C942A000C9447000C9447000C9447006D
S11300100C94B2140C9477140C9447000C9447007D
S11300200C9447000C9447000C940E140C94D313B6
S11300300C9447000C9447000C9447000C94470020
S11300400C9447000C9447000C9447000C94470010
S11300500C94470011241FBECFE5D8E0DEBFCDBF0E
S113006014E0A0E6B0E0E6EDF5E302C005900D92E1
S1130070A63CB107D9F724E0A6ECB4E001C01D9278
S1130080AF3FB207E1F70E94F5100C94E91A0C9403
S1130090000066EC74E080E00E944B118091C6047D
S11300A08D3130F040E062E082E00E94E611089574
S11300B0853128F441E062E082E00E94E61108956F
S11300C00E944C0F0E94DD120E94F0120E94900DBB
S11300D064E083E00E94D61060E070E0CB010E94EF
S11300E0DC100E94FE0D83E00E941B1140E060E0E2
S11300F080E00E94661141E062E082E00E946611A5
S113010066E083E00E948C0D0E94800D41E061E076
S113011083E00E94661140E060E083E00E94661183
S11301200E94D9120E949B1363E083E00E94B810DE
S113013060E081E00E94B81062E080E00E94B810A4
S113014063E080E00E94B81062E083E00E94B8108F
S113015065E083E00E94B8100E94491489E490E0AD
S11301600E9469140E945B140895CF92DF92EF926B
S1130170FF920F931F93CF93009709F45EC061150C
S1130180710509F45AC08B017C018CEF90E00E9448
S1130190890D8AE00E94830DC0E00BC06701CC0E7C
S11301A0D11CC6010E94860DF6018081833219F0AC
S11301B0CF5FC83098F3F701EC0FF11D108284EF84
S11301C090E00E94890DC0E007C0F701EC0FF11D1B
S11301D080810E94830DCF5FC830B8F38AE00E940B
S11301E0830D87E091E00E94890D8AE00E94830DCF
S11301F0C0E00BC07801EC0EF11CC7010E94860D13
S1130200F7018081833219F0CF5FC93098F3F80188
S1130210EC0FF11D108281E191E00E94890DC0E094
S113022007C0F801EC0FF11D80810E94830DCF5FA0
S1130230C830B8F38AE00E94830DCF911F910F91CB
S1130240FF90EF90DF90CF900895EF92FF920F937D
S11302501F93CF93DF93CDB7DEB7E0970FB6F89433
S1130260DEBF0FBECDBF8AEE91E00E94890D80E90A
S113027091E00E94890DBE01675F7F4FCE01019618
S11302800E94B50010E051C0153009F44DC0012F93
S11302900295007FE02EF12CAE014F5D5F4F68E0C8
S11302A070E0C7010E94BE0DAE01475D5F4F68E07C
S11302B070E0C70108960E94BE0D40E020E014C023
S11302C0822F90E0E1E0F0E0EC0FFD1FE80FF91F52
S11302D03081E1E2F0E0EC0FFD1FE80FF91F8081AF
S11302E0381301C04F5F2F5F283050F34830E1F4DA
S11302F015C0822F90E0E9E0F0E0EC0FFD1FE80F5D
S1130300F91F3081E9E2F0E0EC0FFD1FE80FF91F5F
S11303108081381301C04F5F2F5F02C020E040E0AE
S1130320283038F3483031F01F5F1B3008F4ACCF6D
S113033080E001C081E0813021F58DE192E00E94EE
S1130340890D8AE00E94830DBE01675E7F4FCE0156
S113035041960E94B50010E0BE016F5E7F4FC80158
S11303600E94930DBE01675E7F4FC80108960E94EC
S1130370930D80E492E00E94890D8AE00E94830D2F
S113038007C08FE592E00E94890D8AE00E94830DE8
S1130390E0960FB6F894DEBF0FBECDBFDF91CF91CC
S11303A01F910F91FF90EF9008958DEB99E00E94BB
S11303B0C5138DE00E94830D8BE792E00E94890DA6
S11303C08DE00E94830D88E892E00E94890D8DE003
S11303D00E94830D86E992E00E94890D8DE00E94BF
S11303E0830D0E94AD1389EC94E00E94860D0E9457
S11303F0BB138091C904833309F456C330F48133A9
S113040059F0823309F43FC00895843309F478C362
S1130410853309F4C7C3089586EB92E00E94890DE1
S11304208DE00E94830D66EC74E080E00E944B1125
S11304308091C6041F928F9383EC92E09F938F93D5
S11304408BEE94E09F938F930E94FF178BEE94E0C2
S11304500E94890D8DE00E94830D83ED92E00E943D
S1130460890D8DE00E94830D0E94AD1389EC94E008
S11304700E94860D0E94BB130F900F900F900F9057
S11304800F900F9008958DE00E94830D80EE92E00E
S11304900E94890D8DE00E94830D80EF92E00E94FE
S11304A0890D8DE00E94830D8DE00E94830D0E94D2
S11304B0AD1389EC94E00E94860D0E94BB138091D9
S11304C0C904833309F4A0C030F4813369F0823362
S11304D009F450C00895853309F42AC108F4DEC034
S11304E0863309F46FC1089548EC54E063E083E077
S11304F00E9466128091C8048130E9F48DEF92E085
S11305000E94890D8DE00E94830D8BE093E00E9490
S1130510890D8DE00E94830D89EC94E00E94860D84
S11305208091C904813309F03FC341E063E083E073
S11305300E94C9100895811137C38CE193E00E9491
S1130540890D8DE00E94830D8BE293E00E94890D5A
S11305508DE00E94830D89EC94E00E94860D8091C9
S1130560C904813309F020C341E063E083E00E94C1
S1130570BC10089548EC54E060E081E00E946612EB
S11305808091C8048130F9F48BE393E00E94890DD3
S11305908DE00E94830D8BE093E00E94890D8DE035
S11305A00E94830D89EC94E00E94860D8091C90419
S11305B0813329F441E060E081E00E94C9108FEFAB
S11305C08093C90408958111EFC289E493E00E94E5
S11305D0890D8DE00E94830D8BE293E00E94890DCA
S11305E08DE00E94830D89EC94E00E94860D809139
S11305F0C904813329F441E060E081E00E94BC1029
S11306008FEF8093C904089548EC54E062E080E0E1
S11306100E9466128091C8048130F9F488E593E061
S11306200E94890D8DE00E94830D8BE093E00E946F
S1130630890D8DE00E94830D89EC94E00E94860D63
S11306408091C904813329F441E062E080E00E9492
S1130650C9108FEF8093C90408958111A5C286E65D
S113066093E00E94890D8DE00E94830D8BE293E05C
S11306700E94890D8DE00E94830D89EC94E00E9414
S1130680860D8091C904813329F441E062E080E061
S11306900E94BC108FEF8093C904089548EC54E085
S11306A063E080E00E9466128091C8048130F9F40E
S11306B085E793E00E94890D8DE00E94830D8BE015
S11306C093E00E94890D8DE00E94830D89EC94E0F3
S11306D00E94860D8091C904813329F441E063E0CE
S11306E080E00E94C9108FEF8093C904089581119E
S11306F05BC283E893E00E94890D8DE00E94830D24
S11307008BE293E00E94890D8DE00E94830D89ECB9
S113071094E00E94860D8091C904813329F441E05C
S113072063E080E00E94BC108FEF8093C9040895B9
S113073048EC54E062E083E00E9466128091C804B1
S11307408130F9F482E993E00E94890D8DE00E94E2
S1130750830D8BE093E00E94890D8DE00E94830D50
S113076089EC94E00E94860D8091C904813329F4B8
S113077041E062E083E00E94C9108FEF8093C904D6
S11307800895811111C280EA93E00E94890D8DE0E1
S11307900E94830D8BE293E00E94890D8DE00E94FC
S11307A0830D89EC94E00E94860D8091C904813305
S11307B029F441E062E083E00E94BC108FEF809353
S11307C0C90408958091C704882309F4B1C08DE059
S11307D00E94830D8FEA93E00E94890D8DE00E94B0
S11307E0830D8091C7041F928F938DEB93E09F93A9
S11307F08F9387ED94E09F938F930E94FF1787ED6B
S113080094E00E94890D8DE00E94830D8DEC93E0AD
S11308100E94890D8DE00E94830D89EC94E00E9472
S1130820860D8091C9040F900F900F900F900F9038
S11308300F90882309F4B8C1813309F043C0609153
S1130840C704665F6093C70470E080E090E00E9494
S1130850BE16AB01BC0188EE93E00E9403138091A5
S1130860C7041F928F938DEB93E09F938F9387ED33
S113087094E09F938F930E94FF1787ED94E00E946A
S1130880890D8DE00E94830D8DEC93E00E94890D0B
S11308908DE00E94830D8091C7040F900F900F90FC
S11308A00F900F900F90853608F47EC184E68093F4
S11308B0C70440E050E068EC72E488EE93E00E94E4
S11308C003130895823309F06FC16091C7046A501D
S11308D06093C70470E080E090E00E94BE16AB0114
S11308E0BC0188EE93E00E9403138091C7041F9219
S11308F08F938DEB93E09F938F9387ED94E09F9379
S11309008F930E94FF1787ED94E00E94890D8DE07C
S11309100E94830D8DEC93E00E94890D8DE00E946E
S1130920830D0F900F900F900F900F900F900895DC
S113093081113AC18DED93E00E94890D2FEF83ED73
S113094090E3215080409040E1F700C000008DE02A
S11309500E94830D8091C7041F928F938DEB93E0C7
S11309609F938F9387ED94E09F938F930E94FF173B
S113097087ED94E00E94890D8DE00E94830D8DEC3B
S113098093E00E94890D8DE00E94830D89EC94E030
S11309900E94860D0F900F900F900F900F900F9064
S11309A07EC0813309F043C06091C704665F6093E1
S11309B0C70470E080E090E00E94BE16AB01BC0169
S11309C088EE93E00E9403138091C7041F928F93D3
S11309D08DEB93E09F938F9387ED94E09F938F9398
S11309E00E94FF1787ED94E00E94890D8DE00E941C
S11309F0830D8DEC93E00E94890D8DE00E94830DA0
S1130A008091C7040F900F900F900F900F900F904C
S1130A10853608F4C9C084E68093C70440E050E0FA
S1130A2068EC72E488EE93E00E9403130895823325
S1130A3099F56091C7046A506093C70470E080E040
S1130A4090E00E94BE16AB01BC0188EE93E00E94C8
S1130A5003138091C7041F928F938DEB93E09F93B0
S1130A608F9387ED94E09F938F930E94FF1787EDF8
S1130A7094E00E94890D8DE00E94830D8DEC93E03B
S1130A800E94890D8DE00E94830D0F900F900F90AE
S1130A900F900F900F900895803309F485C08091D2
S1130AA0C90481117ECF089566EC74E080E00E9451
S1130AB04B118091C6041F928F9383EC92E09F9315
S1130AC08F938BEE94E09F938F930E94FF178BEE8E
S1130AD094E00E94890D8DE00E94830D83ED92E0E5
S1130AE00E94890D8DE00E94830D89EC94E00E94A0
S1130AF0860D0F900F900F900F900F900F90089508
S1130B008091CA04811127C08CEE93E00E94890D64
S1130B108DE00E94830D8BEF93E00E94890D8DE0A0
S1130B200E94830D89EC94E00E94860D8DE00E9462
S1130B30830D8091C9048133B9F58EE094E00E945D
S1130B40890D60E070E084EB92E40E94DC108AE599
S1130B508093CA0408958A3539F58EE194E00E94A1
S1130B60890D8DE00E94830D8BE294E00E94890D33
S1130B708DE00E94830D89EC94E00E94860D8DE047
S1130B800E94830D8091C904813371F48FE394E052
S1130B900E94890D60E070E0CB010E94DC1010928D
S1130BA0CA0408950E94250108958DEB99E00E94DE
S1130BB0C5138DE00E94830D8BE792E00E94890D9E
S1130BC08DE00E94830D88E892E00E94890D8DE0FB
S1130BD00E94830D0E94AD1389EC94E00E94860D5F
S1130BE00E94BB138091C9048233E9F1833309F471
S1130BF04AC3813309F072C386EB92E00E94890DE7
S1130C008DE00E94830D66EC74E080E00E944B113D
S1130C108091C6041F928F9383EC92E09F938F93ED
S1130C208BEE94E09F938F930E94FF178BEE94E0DA
S1130C300E94890D8DE00E94830D83ED92E00E9455
S1130C40890D8DE00E94830D0E94AD1389EC94E020
S1130C500E94860D0E94BB130F900F900F900F906F
S1130C600F900F9008958DE00E94830D80EE92E026
S1130C700E94890D8DE00E94830D80EF92E00E9416
S1130C80890D8DE00E94830D8DE00E94830D0E94EA
S1130C90AD1389EC94E00E94860D0E94BB138091F1
S1130CA0C904833309F4A0C030F4813369F082337A
S1130CB009F450C00895853309F42AC108F4DEC04C
S1130CC0863309F46FC1089548EC54E063E083E08F
S1130CD00E9466128091C8048130E9F48DEF92E09D
S1130CE00E94890D8DE00E94830D8BE093E00E94A9
S1130CF0890D8DE00E94830D89EC94E00E94860D9D
S1130D008091C904813309F0E9C241E063E083E0E2
S1130D100E94C91008958111E1C28CE193E00E9400
S1130D20890D8DE00E94830D8BE293E00E94890D72
S1130D308DE00E94830D89EC94E00E94860D8091E1
S1130D40C904813309F0CAC241E063E083E00E9430
S1130D50BC10089548EC54E060E081E00E94661203
S1130D608091C8048130F9F48BE393E00E94890DEB
S1130D708DE00E94830D8BE093E00E94890D8DE04D
S1130D800E94830D89EC94E00E94860D8091C90431
S1130D90813329F441E060E081E00E94C9108FEFC3
S1130DA08093C9040895811199C289E493E00E9453
S1130DB0890D8DE00E94830D8BE293E00E94890DE2
S1130DC08DE00E94830D89EC94E00E94860D809151
S1130DD0C904813329F441E060E081E00E94BC1041
S1130DE08FEF8093C904089548EC54E062E080E0FA
S1130DF00E9466128091C8048130F9F488E593E07A
S1130E000E94890D8DE00E94830D8BE093E00E9487
S1130E10890D8DE00E94830D89EC94E00E94860D7B
S1130E208091C904813329F441E062E080E00E94AA
S1130E30C9108FEF8093C904089581114FC286E6CB
S1130E4093E00E94890D8DE00E94830D8BE293E074
S1130E500E94890D8DE00E94830D89EC94E00E942C
S1130E60860D8091C904813329F441E062E080E079
S1130E700E94BC108FEF8093C904089548EC54E09D
S1130E8063E080E00E9466128091C8048130F9F426
S1130E9085E793E00E94890D8DE00E94830D8BE02D
S1130EA093E00E94890D8DE00E94830D89EC94E00B
S1130EB00E94860D8091C904813329F441E063E0E6
S1130EC080E00E94C9108FEF8093C90408958111B6
S1130ED005C283E893E00E94890D8DE00E94830D92
S1130EE08BE293E00E94890D8DE00E94830D89ECD2
S1130EF094E00E94860D8091C904813329F441E075
S1130F0063E080E00E94BC108FEF8093C9040895D1
S1130F1048EC54E062E083E00E9466128091C804C9
S1130F208130F9F482E993E00E94890D8DE00E94FA
S1130F30830D8BE093E00E94890D8DE00E94830D68
S1130F4089EC94E00E94860D8091C904813329F4D0
S1130F5041E062E083E00E94C9108FEF8093C904EE
S1130F6008958111BBC180EA93E00E94890D8DE050
S1130F700E94830D8BE293E00E94890D8DE00E9414
S1130F80830D89EC94E00E94860D8091C90481331D
S1130F9029F441E062E083E00E94BC108FEF80936B
S1130FA0C90408958091C704882309F4B1C08DE071
S1130FB00E94830D8FEA93E00E94890D8DE00E94C8
S1130FC0830D8091C7041F928F938DEB93E09F93C1
S1130FD08F9387ED94E09F938F930E94FF1787ED83
S1130FE094E00E94890D8DE00E94830D8DEC93E0C6
S1130FF00E94890D8DE00E94830D89EC94E00E948B
S1131000860D8091C9040F900F900F900F900F9050
S11310100F90882309F462C1813309F043C06091C1
S1131020C704665F6093C70470E080E090E00E94AC
S1131030BE16AB01BC0188EE93E00E9403138091BD
S1131040C7041F928F938DEB93E09F938F9387ED4B
S113105094E09F938F930E94FF1787ED94E00E9482
S1131060890D8DE00E94830D8DEC93E00E94890D23
S11310708DE00E94830D8091C7040F900F900F9014
S11310800F900F900F90853608F428C184E6809362
S1131090C70440E050E068EC72E488EE93E00E94FC
S11310A003130895823309F019C16091C7046A508B
S11310B06093C70470E080E090E00E94BE16AB012C
S11310C0BC0188EE93E00E9403138091C7041F9231
S11310D08F938DEB93E09F938F9387ED94E09F9391
S11310E08F930E94FF1787ED94E00E94890D8DE095
S11310F00E94830D8DEC93E00E94890D8DE00E9487
S1131100830D0F900F900F900F900F900F900895F4
S11311108111E4C08DED93E00E94890D2FEF83EDE2
S113112090E3215080409040E1F700C000008DE042
S11311300E94830D8091C7041F928F938DEB93E0DF
S11311409F938F9387ED94E09F938F930E94FF1753
S113115087ED94E00E94890D8DE00E94830D8DEC53
S113116093E00E94890D8DE00E94830D89EC94E048
S11311700E94860D0F900F900F900F900F900F907C
S11311807DC0813309F043C06091C704665F6093FA
S1131190C70470E080E090E00E94BE16AB01BC0181
S11311A088EE93E00E9403138091C7041F928F93EB
S11311B08DEB93E09F938F9387ED94E09F938F93B0
S11311C00E94FF1787ED94E00E94890D8DE00E9434
S11311D0830D8DEC93E00E94890D8DE00E94830DB8
S11311E08091C7040F900F900F900F900F900F9065
S11311F0853608F473C084E68093C70440E050E069
S113120068EC72E488EE93E00E940313089582333D
S113121099F56091C7046A506093C70470E080E058
S113122090E00E94BE16AB01BC0188EE93E00E94E0
S113123003138091C7041F928F938DEB93E09F93C8
S11312408F9387ED94E09F938F930E94FF1787ED10
S113125094E00E94890D8DE00E94830D8DEC93E053
S11312600E94890D8DE00E94830D0F900F900F90C6
S11312700F900F900F900895803381F18091C904ED
S113128081117FCF089566EC74E080E00E944B11D9
S11312908091C6041F928F9383EC92E09F938F9367
S11312A08BEE94E09F938F930E94FF178BEE94E054
S11312B00E94890D8DE00E94830D83ED92E00E94CF
S11312C0890D8DE00E94830D89EC94E00E94860DC7
S11312D00F900F900F900F900F900F9008958FE440
S11312E094E00E94890D8DE00E94830D83E694E0D2
S11312F00E94890D8DE00E94830D2FEF83ED90E312
S1131300215080409040E1F700C0000008958FE430
S113131094E00E94FA0F80EC0E94160F80E694E09D
S11313200E94FA0F2FEF83ED90E32150804090400C
S1131330E1F700C00000089566EC74E080E00E94CC
S11313404B118091C6041F928F9383EC92E09F937C
S11313508F938BEE94E09F938F930E94FF178BEEF5
S113136094E00E94890D8DE00E94830D0F900F90F0
S11313700F900F900F900F9008958DE00E94830DB1
S11313800E949C098EE694E00E94890D8DE00E94E3
S1131390830D89EC94E00E94860D8091C90480330A
S11313A011F40E94CC13089566EC74E080E00E946E
S11313B04B116BE081E00E949D106091C60470E0C7
S11313C080E090E00E94191008950E946C1080E85B
S11313D00E94160F8BE794E00E94E40F0E94D40948
S11313E080EC0E94160F8EE694E00E94E40F06C083
S11313F081E690E00E94320E0E94D409809161003F
S11314008F3FB1F3803311F40E946C100E94CC130F
S11314100E946C1008958FEF8093640080936300A2
S1131420809362008093610008950E940B0A85EE08
S113143099E00E94C5130E94AD130E946C108BE7C3
S113144092E00E94E40F80EC0E94160F88E892E07C
S11314500E94E40F0E940B0A0CC08091610080334B
S113146021F48FEF8093610008C084E690E00E942D
S1131470320E809164008F3F81F30E94BB138091F0
S11314806400823309F445C0833309F406C381330D
S113149009F035C30E946C108AE894E00E94FA0FA8
S11314A080EC0E94160F66EC74E080E00E944B1101
S11314B08BE994E00E94FA0F6CE082E00E949D1098
S11314C06091C60470E080E090E00E9419101CC096
S11314D080E690E00E94320E66EC74E080E00E94A8
S11314E04B116CE082E00E949D106091C60470E094
S11314F080E090E00E94191080916000803321F414
S11315008FEF809360000895809160008F3F01F316
S113151008950E946C1080EE92E00E94FA0F80EC15
S11315200E94160F80EF92E00E94FA0F85EE99E078
S11315300E94C5130E94AD130CC083E690E00E9484
S1131540320E80916100803321F48FEF809361002B
S113155004C0809163008F3F81F30E94BB1380918C
S11315606300833309F4A6C030F4813369F0823315
S113157009F454C00895853309F434C108F4E6C06D
S1131580863309F47BC1089548EC54E063E083E0BA
S11315900E9466120E946C108091C8048130F1F49C
S11315A08DEF92E00E94FA0F80EC0E94160F8BE000
S11315B093E00E94FA0F04C082E690E00E94320E8B
S11315C0809162008F3FC1F3813329F441E063E0ED
S11315D083E00E94C9100E940B0A089581118FC2F2
S11315E08CE193E00E94FA0F80EC0E94160F8BE2CC
S11315F093E00E94FA0F04C082E690E00E94320E4B
S1131600809162008F3FC1F3813329F441E063E0AC
S113161083E00E94BC100E940B0A089548EC54E039
S113162064E083E00E9466120E946C108091C804FA
S11316308130F9F48BE393E00E94FA0F80EC0E946E
S1131640160F8BE093E00E94FA0F04C082E690E04C
S11316500E94320E809162008F3FC1F3813329F4DE
S113166041E064E083E00E94C9108FEF8093620040
S11316700895811144C289E493E00E94FA0F80EC3A
S11316800E94160F8BE293E00E94FA0F04C082E6D8
S113169090E00E94320E809162008F3FC1F381334B
S11316A029F441E064E083E00E94BC108FEF809352
S11316B06200089548EC54E062E080E00E94661203
S11316C00E946C108091C8048130F9F488E593E09D
S11316D00E94FA0F80EC0E94160F8BE093E00E94A8
S11316E0FA0F04C082E690E00E94320E80916200FC
S11316F08F3FC1F3813329F441E062E080E00E942E
S1131700C9108FEF8093620008958111F8C186E6B5
S113171093E00E94FA0F80EC0E94160F8BE293E094
S11317200E94FA0F04C082E690E00E94320E80917B
S113173062008F3FC1F3813329F441E062E080E02D
S11317400E94BC108FEF80936200089548EC54E02F
S113175063E080E00E9466120E946C108091C804CD
S11317608130F9F485E793E00E94FA0F80EC0E943F
S1131770160F8BE093E00E94FA0F04C082E690E01B
S11317800E94320E809162008F3FC1F3813329F4AD
S113179041E063E080E00E94C9108FEF8093620013
S11317A008958111ACC183E893E00E94FA0F80ECA4
S11317B00E94160F8BE293E00E94FA0F04C082E6A7
S11317C090E00E94320E809162008F3FC1F381331A
S11317D029F441E063E080E00E94BC108FEF809325
S11317E06200089548EC54E062E083E00E946612CF
S11317F00E946C108091C8048130F9F482E993E06E
S11318000E94FA0F80EC0E94160F8BE093E00E9476
S1131810FA0F04C082E690E00E94320E80916200CA
S11318208F3FC1F3813329F441E062E083E00E94F9
S1131830C9108FEF809362000895811160C180EA1E
S113184093E00E94FA0F80EC0E94160F8BE293E063
S11318500E94FA0F04C082E690E00E94320E80914A
S113186062008F3FC1F3813329F441E062E083E0F9
S11318700E94BC108FEF8093620008950E946C1048
S11318808091C704882309F482C08FEA93E00E9400
S1131890FA0F2FEF83ED90E3215080409040E1F761
S11318A000C000000E946C1089EA94E00E94E40FDA
S11318B06DE081E00E949D106091C70470E080E0BB
S11318C090E00E94191080EC0E94160F8DEC93E0BA
S11318D00E94FA0F56C082E690E00E94320E809178
S11318E06200813359F56091C704665F6093C70451
S11318F070E080E090E00E94BE16AB01BC0188EE6F
S113190093E00E9403136DE081E00E949D106091BA
S1131910C70470E080E090E00E9419108091C70431
S1131920853678F184E68093C70440E050E068ECA3
S113193072E488EE93E00E94031323C08233E1F43F
S11319406091C7046A506093C70470E080E090E03F
S11319500E94BE16AB01BC0188EE93E00E94031303
S11319606DE081E00E949D106091C70470E080E00A
S113197090E00E94191005C0803319F40E946C1085
S11319800895809162008F3F09F4A5CF0895809156
S1131990C8048111B4C08DED93E00E94FA0F2FEFBB
S11319A083ED90E3215080409040E1F700C00000B7
S11319B00E946C1089EA94E00E94E40F6DE081E0DB
S11319C00E949D106091C70470E080E090E00E9446
S11319D0191080EC0E94160F8DEC93E00E94FA0F10
S11319E056C082E690E00E94320E809162008133FC
S11319F059F56091C704665F6093C70470E080E0A6
S1131A0090E00E94BE16AB01BC0188EE93E00E94F8
S1131A1003136DE081E00E949D106091C70470E0A3
S1131A2080E090E00E9419108091C704853678F117
S1131A3084E68093C70440E050E068EC72E488EEEA
S1131A4093E00E94031323C08233E1F46091C7043E
S1131A506A506093C70470E080E090E00E94BE1674
S1131A60AB01BC0188EE93E00E9403136DE081E0BA
S1131A700E949D106091C70470E080E090E00E9495
S1131A80191005C0803319F40E946C1008958091D8
S1131A9062008F3F09F4A5CF08950E946C1066EC94
S1131AA074E080E00E944B1180E80E94160F8BE9DD
S1131AB094E00E94E40F6BE081E00E949D1060912D
S1131AC0C60470E080E090E00E94191083E60E9452
S1131AD0AE0F80EC0E94160F83ED92E00E94FA0F85
S1131AE006C081E690E00E94320E0E94D4098091E3
S1131AF061008F3FB1F3803311F40E946C1008959C
S1131B000E94781508950E94891508950E948D15E4
S1131B1008950E949515089541E00E946611089564
S1131B200E94ED1408950F931F93CF93DF936115D3
S1131B307105F9F08B01D82FC92FC0650E94F914E3
S1131B408C2F0E941C158D2F0E944615C0E007C0E3
S1131B50F801EC0FF11D80810E944615CF5FC8305B
S1131B60B8F30E9415158FE19EE40197F1F700C0C8
S1131B700000DF91CF911F910F910895EF92FF9292
S1131B800F931F93CF93DF934115510581F1611595
S1131B9022E0720760F58A017B01D82FC92FC06546
S1131BA00E94F9148C2F0E941C158D2F0E9446153B
S1131BB00E9407158C2F0E943115C0E0D0E006C0AA
S1131BC0C8018C0F9D1F0E9452152196C7010197D1
S1131BD0C817D907A8F3800F911F0E9468150E94A7
S1131BE015158FE19EE40197F1F700C00000DF9125
S1131BF0CF911F910F91FF90EF90089541E064E021
S1131C0081E00E94661141E065E081E00E94661176
S1131C1041E066E081E00E94661140E063E082E01A
S1131C200E94661140E064E082E00E94661140E098
S1131C3065E082E00E94661140E066E082E00E9476
S1131C40661163E082E00E94A11264E082E00E94D7
S1131C50A11265E082E00E94A11266E082E00E9487
S1131C60A11208956F927F928F929F92AF92BF922A
S1131C70CF92DF92EF92FF920F931F93CF93DF9354
S1131C80CDB7DEB76B970FB6F894DEBF0FBECDBFEE
S1131C90009709F47EC05C0181E0888F898F8A8F68
S1131CA034E03D8B25E02E8B96E09F8B82E0898B80
S1131CB08A8B8B8B8C8B83E08D873E872F87988BC9
S1131CC08CE0E6E6F0E0DE01119601900D928A9533
S1131CD0E1F78FEFF5018083812C57C0C82CD12CFC
S1131CE0E5E1F0E0EC0FFD1FEC0DFD1D6080E8E187
S1131CF0F0E0EC0FFD1FEC0DFD1D708040E0662D43
S1131D00872D0E94E61110E038C0E12EF12CEDE0A1
S1131D10F0E0EC0FFD1FEE0DFF1D0081E1E1F0E0AE
S1131D20EC0FFD1FEE0DFF1D9080AE01455E5F4F71
S1131D30602F892D0E9466128B8D81111DC007C0F2
S1131D40AE01455E5F4F602F892D0E9466128B8D18
S1131D508823B1F3C701880F991FE80EF91E81E0AB
S1131D6090E08C0F9D1FE80EF91EF701EC0DFD1D90
S1131D708081F50180830DC01F5F143030F241E093
S1131D80662D872D0E94E6118394F2E0F81508F081
S1131D90A5CF6B960FB6F894DEBF0FBECDBFDF9113
S1131DA0CF911F910F91FF90EF90DF90CF90BF9054
S1131DB0AF909F908F907F906F900895CF93C82F8E
S1131DC080FF06C041E064E080E00E94E61105C0A7
S1131DD040E064E080E00E94E611C1FF06C041E0FB
S1131DE065E080E00E94E61105C040E065E080E027
S1131DF00E94E611C2FF06C041E066E080E00E9456
S1131E00E61105C040E066E080E00E94E611C3FFF1
S1131E1006C041E067E080E00E94E61105C040E0B2
S1131E2067E080E00E94E611CF910895CF93C82F18
S1131E3040E061E081E00E94E61140E062E081E080
S1131E400E94E6118C2F82958F700E94DE0E41E075
S1131E5063E081E00E94E6118FE99FE00197F1F7CA
S1131E6000C0000040E063E081E00E94E6118C2F96
S1131E700E94DE0E41E063E081E00E94E6118FE9FA
S1131E809FE00197F1F700C0000040E063E081E0CB
S1131E900E94E611CF91089541E061E081E00E9443
S1131EA0661141E062E081E00E94661141E063E076
S1131EB081E00E94661141E064E080E00E946611C6
S1131EC041E065E080E00E94661141E066E080E068
S1131ED00E94661141E067E080E00E9466112FE7EE
S1131EE085EB91E0215080409040E1F700C0000074
S1131EF040E061E081E00E94E61140E062E081E0C0
S1131F000E94E61182E00E94DE0E41E063E081E07F
S1131F100E94E6118FE99FE00197F1F700C00000ED
S1131F2040E063E081E00E94E61188E20E94160F1F
S1131F3090EF9A95F1F78CE00E94160F20EF2A9506
S1131F40F1F781E00E94160F8FE39FE10197F1F70B
S1131F5000C0000086E00E94160F0895CF93C82F9A
S1131F6041E061E081E00E94E61140E062E081E04E
S1131F700E94E6118C2F82958F700E94DE0E41E044
S1131F8063E081E00E94E6118FE99FE00197F1F799
S1131F9000C0000040E063E081E00E94E6118C2F65
S1131FA00E94DE0E41E063E081E00E94E6118FE9C9
S1131FB09FE00197F1F700C0000040E063E081E09A
S1131FC00E94E611CF9108950F931F93CF9300972A
S1131FD029F40CC00E94AE0FCF5F02C08C01C0E098
S1131FE0F801EC0FF11D80818111F4CFCF911F9185
S1131FF00F9108950F931F93CF93009771F415C019
S11320000E94AE0FCF5F2FEF80E792E02150804017
S11320109040E1F700C0000002C08C01C0E0F8016C
S1132020EC0FF11D80818111EBCFCF911F910F91A6
S113203008950F931F93CF93DF9300D000D01F9286
S1132040CDB7DEB7262F10E008C01F5FEDEC6E9F02
S1132050612D11246695669566956111F6CF00E0B1
S11320601AC0622F2AE030E040E050E00E94DD1701
S1132070732F842F952FA02FB0E01196E12FF0E05D
S1132080EA1BFB0B41E050E04C0F5D1FE40FF51F12
S1132090605D60830F5F011720F3E1E0F0E0EC0F77
S11320A0FD1FE10FF11D108210E003C00E94AE0F6E
S11320B01F5FE1E0F0E0EC0FFD1FE10FF11D8081F7
S11320C08111F4CF0F900F900F900F900F90DF912C
S11320D0CF911F910F91089540E061E081E00E944B
S11320E0E61140E062E081E00E94E61180E00E9497
S11320F0DE0E41E063E081E00E94E6118FE99FE09B
S11321000197F1F700C0000040E063E081E00E9425
S1132110E61181E00E94DE0E41E063E081E00E946E
S1132120E6118FE99FE00197F1F700C0000040E05D
S113213063E081E00E94E6110895CF93DF93683253
S1132140A0F4C62FD82F82E00E94160FD13019F0C8
S1132150D23031F00AC08C2F80680E94160F05C05F
S113216080E48C0F80680E94160FDF91CF91089550
S113217041E00E9466110895413019F0423029F07F
S1132180089541E00E94E611089540E00E94E6119E
S11321900895413019F0423029F0089540E00E943A
S11321A0E611089541E00E94E611089541E00E947D
S11321B066110E94DD12089520E030E040E250E410
S11321C00E94701720E030EC48E254E40E94AC1501
S11321D020E030E044EB52E40E941D16AB01BC0148
S11321E082E390E00E944F1308950E9460000E94D1
S11321F087090E946F0965E670E082E090E00E9422
S1132200B50080916500833019F40E94D501EFCFA9
S1132210843019F40E94D505EACF823019F40E9463
S1132220150AE5CF853019F788EB94E00E94E40F96
S113223080E090E00895823059F0833081F081305D
S1132240A1F487B1806487B987B18F7787B90DC04E
S113225087B18F7B87B987B18F7787B906C087B17C
S1132260806487B987B1806887B987B18F7D87B962
S113227086B18F7D86B986B1877F86B986B1846041
S113228086B986B1826086B986B1816086B986B125
S1132290806886B9089561157105B9F097B1907E8B
S11322A097B997B1892B87B986B1806486B9349B75
S11322B0FECF84B195B19695879596958795FB0148
S11322C09183808386B1806186B90895843008F053
S11322D07CC0683008F079C0423008F076C08130A4
S11322E019F130F08230E1F1833009F454C00895DB
S11322F0442371F0413009F068C02AB381E090E0D2
S113230002C0880F991F6A95E2F7822B8ABB089551
S11323102AB381E090E002C0880F991F6A95E2F722
S1132320809582238ABB0895442371F0413009F0DB
S11323304CC027B381E090E002C0880F991F6A95D2
S1132340E2F7822B87BB089527B381E090E002C0B7
S1132350880F991F6A95E2F78095822387BB0895B9
S1132360442369F0413089F524B381E090E002C050
S1132370880F991F6A95E2F7822B84BB089524B3D2
S113238081E090E002C0880F991F6A95E2F780957A
S1132390822384BB0895442369F04130B1F421B30E
S11323A081E090E002C0880F991F6A95E2F7822BC2
S11323B081BB089521B381E090E002C0880F991F8A
S11323C06A95E2F78095822381BB0895843008F0F2
S11323D07CC0683008F079C0423008F076C08130A3
S11323E019F130F08230E1F1833009F454C00895DA
S11323F0442371F0413009F068C02BB381E090E0D0
S113240002C0880F991F6A95E2F7822B8BBB08954F
S11324102BB381E090E002C0880F991F6A95E2F720
S1132420809582238BBB0895442371F0413009F0D9
S11324304CC028B381E090E002C0880F991F6A95D0
S1132440E2F7822B88BB089528B381E090E002C0B4
S1132450880F991F6A95E2F78095822388BB0895B7
S1132460442369F0413089F525B381E090E002C04E
S1132470880F991F6A95E2F7822B85BB089525B3CF
S113248081E090E002C0880F991F6A95E2F7809579
S1132490822385BB0895442369F04130B1F422B30B
S11324A081E090E002C0880F991F6A95E2F7822BC1
S11324B082BB089522B381E090E002C0880F991F87
S11324C06A95E2F78095822382BB08958430C0F533
S11324D06830B0F54115510599F1813089F028F043
S11324E08230C9F0833011F1089589B390E002C0BD
S11324F0959587956A95E2F78170FA01808308952E
S113250086B390E002C0959587956A95E2F781704D
S1132510FA018083089583B390E002C0959587956E
S11325206A95E2F78170FA018083089580B390E0A0
S113253002C0959587956A95E2F78170FA018083C8
S113254008958430A8F5683098F5813089F028F032
S11325508230C9F0833011F108952BB381E090E00B
S113256002C0880F991F6A95E2F7822B8BBB0895EE
S113257028B381E090E002C0880F991F6A95E2F7C2
S1132580822B88BB089525B381E090E002C0880FB8
S1132590991F6A95E2F7822B85BB089522B381E0E7
S11325A090E002C0880F991F6A95E2F7822B82BBE4
S11325B008958FB780688FBF08958EB580618EBDF2
S11325C08EB588608EBD8FB582608FBD8FB58E7FCE
S11325D08FBD8FB580688FBD8FB58F7B8FBD0895FC
S11325E08EB580618EBD8EB588608EBD8FB58260DC
S11325F08FBD8FB58E7F8FBD8FB580628FBD8FB538
S11326008F7E8FBD0895CF92DF92EF92FF92CF938A
S1132610DF93EC016A017B0120E030E048EC52E4F6
S1132620C701B6010E941816181694F19E0140E0E5
S113263050E060E970ED83E090E00E94DD172150E6
S1132640310937BD26BD66B577B56F5F7F4F80E032
S113265090E00E94BE16A70196010E94701720E028
S113266030E048EC52E40E941D1620E030E040E8DF
S11326705FE30E94AB150E948F167BBD6ABD8EB5C9
S113268081608EBD8EB582608EBD8EB58B7F8EBD12
S1132690DF91CF91FF90EF90DF90CF900895CF928C
S11326A0DF92EF92FF92CF93DF93EC016A017B01FB
S11326B020E030E048EC52E4C701B6010E9418164D
S11326C0181694F19E0140E050E060E970ED83E05B
S11326D090E00E94DD172150310937BD26BD66B553
S11326E077B56F5F7F4F80E090E00E94BE16A70130
S11326F096010E94701720E030E048EC52E40E94FA
S11327001D1620E030E040E85FE30E94AB150E9414
S11327108F1679BD68BD8EB581608EBD8EB5826021
S11327208EBD8EB58B7F8EBDDF91CF91FF90EF90E4
S1132730DF90CF90089583B78F7B83BF83B7886082
S113274083BF83B78F7E83BF83B78F7D83BF89B7F2
S1132750826089BF89EF8CBF089583B7816083BF8E
S113276083B7826083BF83B78B7F83BF1092CC040F
S11327701092CB04089583B78E7F83BF83B78D7F78
S113278083BF83B78B7F83BF0895009721F0909315
S1132790CE048093CD04089588B7826088BF88B73B
S11327A0816088BF08951F920F920FB60F92112473
S11327B02F933F934F935F936F937F938F939F9345
S11327C0AF93BF93EF93FF938091CB049091CC048C
S11327D001969093CC048093CB04883E934069F493
S11327E081E782BF1092CC041092CB04E091CF0415
S11327F0F091D004309709F00995FF91EF91BF91C2
S1132800AF919F918F917F916F915F914F913F9184
S11328102F910F900FBE0F901F9018951F920F923B
S11328200FB60F9211242F933F934F935F936F939F
S11328307F938F939F93AF93BF93EF93FF93809175
S1132840CB049091CC0401969093CC048093CB0458
S11328508838934169F41092CC041092CB04E0912F
S1132860CD04F091CE04309719F009950E94CC1351
S1132870FF91EF91BF91AF919F918F917F916F9154
S11328805F914F913F912F910F900FBE0F901F902A
S1132890189585B58F7B85BD85B5886085BD85B563
S11328A08F7E85BD85B58F7D85BD89B7806889BFDD
S11328B089EF83BD089585B5816085BD85B5826046
S11328C085BD85B58B7F85BD1092D2041092D1044D
S11328D00895009721F09093D4048093D30408952D
S11328E088B7806888BF88B7806488BF08951F92BE
S11328F00F920FB60F9211242F933F934F935F9330
S11329006F937F938F939F93AF93BF93EF93FF93B3
S11329108091D1049091D20401969093D204809333
S1132920D104883E934069F481E784BD1092D204B7
S11329301092D104E091D504F091D604309709F0B7
S11329400995FF91EF91BF91AF919F918F917F91E5
S11329506F915F914F913F912F910F900FBE0F9008
S11329601F9018951F920F920FB60F9211242F9358
S11329703F934F935F936F937F938F939F93AF9303
S1132980BF93EF93FF938091D1049091D204019669
S11329909093D2048093D1048838934169F41092BF
S11329A0D2041092D104E091D304F091D40430976E
S11329B019F009950E947014FF91EF91BF91AF91A6
S11329C09F918F917F916F915F914F913F912F9143
S11329D00F900FBE0F901F9018958CE080B981B1B5
S11329E08D7F81B981B18E7F81B986B7846086BFBE
S11329F0089586B7806286BF86B7806886BF06B6AC
S1132A0007FEFDCF81B1887F8830E1F7089586B74E
S1132A10806286BF86B7806886BF06B607FEFDCF94
S1132A2081B1887F8031E1F7089586B7806186BFE0
S1132A3086B7806886BF0895882394F0880F83B989
S1132A4083B18E7F83B986B78F7D86BF86B7806852
S1132A5086BF06B607FEFDCF81B1887F8831E1F7D6
S1132A600895882394F0880F83B983B1816083B972
S1132A7086B78F7D86BF86B7806886BF06B607FE99
S1132A80FDCF81B1887F8034E1F7089583B986B79B
S1132A90806886BF06B607FEFDCF81B1887F883285
S1132AA0E1F70895FC01892B91F096B7906496BFE5
S1132AB096B7906896BF06B607FEFDCF91B1987F92
S1132AC09035E1F783B1808386B78F7B86BF089505
S1132AD0FC01892B61F096B7906896BF06B607FE95
S1132AE0FDCF91B1987F9835E1F783B18083089544
S1132AF08BB18D7F8BB987E689B98AB18B7F8AB90F
S1132B0086E880BD8AB180618AB98AB188608AB951
S1132B1008958CB95D9BFECF0895009729F05F9BC3
S1132B20FECF2CB1FC01208308950F931F93CF9304
S1132B30009729F40CC00E948915CF5F02C08C0154
S1132B40C0E0F801EC0FF11D80818111F4CFCF9129
S1132B501F910F9108955058BB27AA270E94C315AF
S1132B600C9436170E94281738F00E942F1720F073
S1132B7039F49F3F19F426F40C9425170EF4E095CC
S1132B80E7FB0C941F17E92F0E94471758F3BA1755
S1132B90620773078407950720F079F4A6F50C946F
S1132BA069170EF4E0950B2EBA2FA02D0B01B90175
S1132BB090010C01CA01A0011124FF27591B99F0AF
S1132BC0593F50F4503E68F11A16F040A22F232FBB
S1132BD0342F4427585FF3CF469537952795A7950B
S1132BE0F0405395C9F77EF41F16BA0B620B730BB2
S1132BF0840BBAF09150A1F0FF0FBB1F661F771F23
S1132C00881FC2F70EC0BA0F621F731F841F48F4D7
S1132C10879577956795B795F7959E3F08F0B0CF60
S1132C209395880F08F09927EE0F97958795089547
S1132C300E94FB1608F481E008950E9431160C945A
S1132C4036170E942F1758F00E94281740F029F4D5
S1132C505F3F29F00C941F1751110C946A170C94C0
S1132C6025170E94471768F39923B1F3552391F36D
S1132C70951B550BBB27AA2762177307840738F0E7
S1132C809F5F5F4F220F331F441FAA1FA9F335D044
S1132C900E2E3AF0E0E832D091505040E695001CF8
S1132CA0CAF72BD0FE2F29D0660F771F881FBB1FB2
S1132CB0261737074807AB07B0E809F0BB0B802D90
S1132CC0BF01FF2793585F4F3AF09E3F510578F0BC
S1132CD00C941F170C946A175F3FE4F3983ED4F3E7
S1132CE0869577956795B795F7959F5FC9F7880F90
S1132CF0911D9695879597F90895E1E0660F771FE2
S1132D00881FBB1F621773078407BA0720F0621B72
S1132D10730B840BBA0BEE1F88F7E09508950E949D
S1132D204F1788F09F5798F0B92F9927B751B0F0F3
S1132D30E1F0660F771F881F991F1AF0BA95C9F73B
S1132D4014C0B13091F00E946917B1E008950C9459
S1132D506917672F782F8827B85F39F0B93FCCF30C
S1132D60869577956795B395D9F73EF490958095B8
S1132D70709561957F4F8F4F9F4F0895E89409C0D8
S1132D8097FB3EF490958095709561957F4F8F4F9A
S1132D909F4F9923A9F0F92F96E9BB279395F695B0
S1132DA0879577956795B795F111F8CFFAF4BB0F2E
S1132DB011F460FF1BC06F5F7F4F8F4F9F4F16C092
S1132DC0882311F096E911C0772321F09EE8872F1C
S1132DD0762F05C0662371F096E8862F70E060E0D8
S1132DE02AF09A95660F771F881FDAF7880F969551
S1132DF0879597F90895990F0008550FAA0BE0E8F5
S1132E00FEEF16161706E807F907C0F012161306A8
S1132E10E407F50798F0621B730B840B950B39F4E8
S1132E200A2661F0232B242B252B21F408950A264E
S1132E3009F4A140A6958FEF811D811D089597F98E
S1132E409F6780E870E060E008959FEF80EC08954C
S1132E5000240A9416161706180609060895002475
S1132E600A9412161306140605060895092E0394EF
S1132E70000C11F4882352F0BB0F40F4BF2B11F463
S1132E8060FF04C06F5F7F4F8F4F9F4F089557FDC2
S1132E909058440F551F59F05F3F71F04795880FC4
S1132EA097FB991F61F09F3F79F08795089512165B
S1132EB013061406551FF2CF4695F1DF08C0161607
S1132EC017061806991FF1CF8695710561050894B8
S1132ED00895E894BB2766277727CB0197F90895CF
S1132EE00E9483170C9436170E94281738F00E940A
S1132EF02F1720F0952311F00C941F170C9425170D
S1132F0011240C946A170E94471770F3959FC1F31C
S1132F10950F50E0551F629FF001729FBB27F00D83
S1132F20B11D639FAA27F00DB11DAA1F649F6627D8
S1132F30B00DA11D661F829F2227B00DA11D621F27
S1132F40739FB00DA11D621F839FA00D611D221FE1
S1132F50749F3327A00D611D231F849F600D211DC5
S1132F60822F762F6A2F11249F5750409AF0F1F048
S1132F7088234AF0EE0FFF1FBB1F661F771F881FB1
S1132F8091505040A9F79E3F510580F00C941F17B3
S1132F900C946A175F3FE4F3983ED4F386957795D3
S1132FA06795B795F795E7959F5FC1F7FE2B880F57
S1132FB0911D9695879597F90895A1E21A2EAA1B5B
S1132FC0BB1BFD010DC0AA1FBB1FEE1FFF1FA217D5
S1132FD0B307E407F50720F0A21BB30BE40BF50BD2
S1132FE0661F771F881F991F1A9469F7609570955B
S1132FF0809590959B01AC01BD01CF010895AEE091
S1133000B0E0E5E0F8E10C94C01A0D891E8986E071
S11330108C831A8309838FEF9FE79E838D83AE0190
S1133020475E5F4F6F89788DCE0101960E9421180B
S1133030EF81F885E00FF11F10822E96E4E00C94E6
S1133040DC1AABE0B0E0E7E2F8E10C94B21A6C01F0
S11330507B018A01FC0117821682838181FFCCC126
S1133060CE0101963C01F6019381F70193FD859110
S113307093FF81917F01882309F4BAC1853239F421
S113308093FD859193FF81917F01853229F4B601E7
S113309090E00E94181AE7CF912C212C312CFFE1EB
S11330A0F315D8F08B3279F038F4803279F083322A
S11330B0A1F4232D20611DC08D3261F0803369F4A9
S11330C0232D216016C0832D8260382EE32DE46009
S11330D03E2E2AC0F32DF8601DC037FC2DC020ED14
S11330E0280F2A3040F08E32B9F436FC81C1232DEA
S11330F02064322E19C036FE06C08AE0989E200D48
S11331001124922E11C0EAE02E9E200D1124222EAD
S1133110F32DF0623F2E08C08C3621F4832D806895
S1133120382E02C0883641F4F70193FD859193FF50
S113313081917F018111B3CF982F9F7D9554933056
S113314028F40C5F1F4F9FE399830DC0833631F041
S1133150833771F0833509F059C021C0F8018081AB
S113316089830E5F1F4F88248394912C530113C0CD
S11331702801F2E04F0E511CF801A080B18036FE08
S113318003C0692D70E002C06FEF7FEFC5010E949C
S11331900D1A4C018201F32DFF773F2E16C0280132
S11331A022E0420E511CF801A080B18036FE03C01B
S11331B0692D70E002C06FEF7FEFC5010E94021A13
S11331C04C01F32DF0683F2E820133FC1BC0822D8D
S11331D090E088169906B0F4B60180E290E00E946F
S11331E0181A2A94F4CFF50137FC859137FE8191A2
S11331F05F01B60190E00E94181A21102A9421E080
S1133200821A91088114910471F7E8C0843611F090
S1133210893641F5F80137FE07C0608171818281EA
S113322093810C5F1F4F08C060817181072E000CD1
S1133230880B990B0E5F1F4FF32DFF763F2E97FFE0
S113324009C090958095709561957F4F8F4F9F4FE2
S1133250F0683F2E2AE030E0A3010E94541A882E21
S1133260861845C0853731F4232D2F7EB22E2AE0EF
S113327030E025C0932D997FB92E8F36C1F018F414
S1133280883579F0B5C0803719F0883721F0B0C09F
S1133290E92FE061BE2EB4FE0DC0FB2DF460BF2EFD
S11332A009C034FE0AC0292F2660B22E06C028E0C9
S11332B030E005C020E130E002C020E132E0F80156
S11332C0B7FE07C060817181828193810C5F1F4FBB
S11332D006C06081718180E090E00E5F1F4FA30102
S11332E00E94541A882E8618FB2DFF773F2E36FE37
S11332F00DC0232D2E7FA22E891458F434FE0BC04A
S113330032FC09C0832D8E7EA82E05C0B82CA32CB8
S113331003C0B82C01C0B92CA4FE0FC0FE01E80DF7
S1133320F11D8081803321F49A2D997EA92E09C044
S1133330A2FE06C0B394B39404C08A2D867809F023
S1133340B394A3FC11C0A0FE06C0B21488F4280CE8
S1133350922C9B180EC0B21460F4B60180E290E087
S11333600E94181AB394F7CFB21418F42B1802C0A1
S1133370982C212CA4FE10C0B60180E390E00E949A
S1133380181AA2FE17C0A1FC03C088E790E002C08F
S113339088E590E0B6010CC08A2D867859F0A1FE2C
S11333A002C08BE201C080E2A7FC8DE2B60190E08E
S11333B00E94181A891438F4B60180E390E00E9440
S11333C0181A9A94F7CF8A94F301E80DF11D8081BD
S11333D0B60190E00E94181A8110F5CF222009F45A
S11333E042CEB60180E290E00E94181A2A94F6CFE9
S11333F0F6018681978102C08FEF9FEF2B96E2E161
S11334000C94CE1AFC010590615070400110D8F75D
S1133410809590958E0F9F1F0895FC016150704018
S113342001900110D8F7809590958E0F9F1F0895F5
S11334300F931F93CF93DF93FB01238121FD03C0DF
S11334408FEF9FEF2CC022FF16C046815781248145
S113345035814217530744F4A081B1819D012F5F48
S11334603F4F318320838C93268137812F5F3F4FD9
S11334703783268314C08B01EC01FB010084F185A2
S1133480E02D0995892BE1F6D80116968D919C9132
S11334901797019617969C938E931697CE01DF91FA
S11334A0CF911F910F910895FA01AA27283051F165
S11334B0203181F1E8946F936E7F6E5F7F4F8F4F61
S11334C09F4FAF4FB1E03ED0B4E03CD0670F781FC0
S11334D0891F9A1FA11D680F791F8A1F911DA11DA5
S11334E06A0F711D811D911DA11D20D009F46894DE
S11334F03F912AE0269F11243019305D3193DEF686
S1133500CF010895462F4770405D4193B3E00FD03B
S1133510C9F7F6CF462F4F70405D4A3318F0495D26
S113352031FD4052419302D0A9F7EACFB4E0A69509
S11335309795879577956795BA95C9F7009761052B
S1133540710508959B01AC010A2E06945795479581
S113355037952795BA95C9F7620F731F841F951F76
S1133560A01D08952F923F924F925F926F927F9287
S11335708F929F92AF92BF92CF92DF92EF92FF927F
S11335800F931F93CF93DF93CDB7DEB7CA1BDB0B2B
S11335900FB6F894DEBF0FBECDBF09942A883988D0
S11335A048885F846E847D848C849B84AA84B984D7
S11335B0C884DF80EE80FD800C811B81AA81B981E3
S11335C0CE0FD11D0FB6F894DEBF0FBECDBFED01F7
S10935D00895F894FFCFFA
S11335D6FFFFFFFFFF063132333435363738392AD9
S11335E630233131313232323300323232333333F3
S11335F634003333333434343500343434353535E8
S113360636003535353636363700343433333232D0
S113361631003130303130313100323030323031F6
S113362632003330303330313300343030343031DB
S113363634003530303530313500506C6561736592
S113364620456E7465722055736572004E616D6512
S11336562650617373776F72640050415353574F0A
S113366652443A00456E74657265642055736572FA
S1133676204E616D653A0050617373776F72643AD8
S113368600456E746572656420506173733A004137
S11336964343455353205045524D495445440041F4
S11336A643434553532044454E4945440057726F9E
S11336B66E672055736572204E616D6500506C65AA
S11336C66173652054727920416761696E0057728F
S11336D66F6E672050617373776F726400506C6508
S11336E661736520456E7465722055736572204E4C
S11336F6616D6520262050617373776F72642000B4
S11337060A005072657373202320746F206C6F67F0
S1133716696E0073797374656D20697320626569D7
S11337266E672075736564206279206C6F63616CC3
S113373620757365720073797374656D20697320DF
S11337466265696E672075736564006279207265C7
S11337566D6F7465207573657200506C6561736571
S113376620456E7465722055736572204E616D65D1
S113377620262050617373776F72642075207761F9
S11337866E7420746F206368616E676500506C65A3
S113379661736520456E74657220546865206E6594
S11337A677205573657220416E64205061737300EF
S11337B6557365722044617461204368616E676560
S11337C664205375636365737366756C6C7900570F
S11337D6726F6E672055736572204E616D65206F3A
S11337E6722070617373776F726400312D414320C8
S11337F6322D6C6967687400332D74656D702034DE
S11338062D446F6F7200352D206368616E676520E5
S1133816757365726E616D6520616E642070617387
S113382673776F7264004143204973204F6E2F6F84
S1133836666600526F6F6D2054656D703A2025647C
S1133846206300302D676F20746F20686F6D6500EC
S113385643686F6F7365206C6967687420746F00C2
S1133866636F6E74726F6C28312D3629004C69674C
S113387668742031206973204F6E00312D546F20F7
S11338865475726E204974204F6666004C696768E9
S1133896742031206973204F464600312D546F2021
S11338A65475726E204974204F6E004C69676874B3
S11338B62032206973204F6E004C69676874203289
S11338C6206973204F4646004C696768742033208C
S11338D66973204F6E004C696768742033206973DE
S11338E6204F4646004C696768742034206973206B
S11338F64F6E004C696768742034206973204F4604
S113390646004C696768742035206973204F6E0041
S11339164C696768742035206973204F4646004C0D
S1133926696768742036206973204F6E0042726995
S11339366768746E6573733A202564250031292BF4
S113394631302032292D313020302948004C696726
S113395668742036206973204F464600446F6F72A0
S113396620697320636C6F73656400312D4F706535
S11339766E20446F6F7220302D486F6D6500446F62
S11339866F72206973206F70656E696E6700446F8D
S11339966F72206973206F70656E00312D436C6FF2
S11339A6736520446F6F7220302D486F6D65004437
S11339B66F6F7220697320636C6F73696E67002082
S11339C657656C636F6D6520746F20796F7572002F
S11339D6202020536D61727420486F6D6500302D70
S11339E6476F20746F20486F6D6500526F6F6D20AE
S11339F654656D703A2020206300414320497320AA
S1133A064F6E2F6F666620302D4800526F6F6D2003
S1133A1654656D703A202063004272696768746E5B
S1133A266573733A202025004163636573732044EC
S1093A36656E6965640081
S9030000FC
