S0120000536D6172745F486F6D652E7372656323
S11300000C942A000C9447000C9447000C9447006D
S11300100C9447000C9447000C9447000C94470040
S11300200C9447000C9447000C94150A0C94DA09BC
S11300300C9447000C9447000C9447000C94470020
S11300400C9447000C9447000C9447000C94470010
S11300500C94470011241FBECFE5D8E0DEBFCDBF0E
S113006012E0A0E6B0E0E0E2F6E102C005900D92F5
S1130070AC36B107D9F722E0ACE6B2E001C01D927C
S1130080A437B207E1F70E9410080C940E0B0C94ED
S113009000000E94A60787E691E00E94340780ECE6
S11300A00E9450068BE890E00E94340704C080E66A
S11300B090E00E946C05809160008F3FC1F3803313
S11300C011F40E94A6070E94D3090E94A60708956E
S11300D00E94CA040E9486060E9438050E94C70432
S11300E041E061E083E00E942B0840E060E083E0AF
S11300F00E942B080E949E090E94A20960E080E0F1
S11301000E94F20761E080E00E94F20762E080E072
S11301100E94F20763E080E00E94F20762E083E05D
S11301200E94F2070895CF92DF92EF92FF921F93FD
S1130130CF93DF93009709F45FC06115710509F44B
S11301405BC07B016C010E94A60760E081E00E9415
S1130150D70788E990E00E941E0760E082E00E94D1
S1130160D7078AEA90E00E941E072FEF83ED90E301
S1130170215080409040E1F700C000000E94A60793
S113018060E081E00E94D70788EB90E00E941E07A0
S113019010E011C0E601C10FD11DCE010E946C0513
S11301A098819F3FB9F3612F82E00E94D70788812D
S11301B00E94E8061F5F183068F30E94A60760E0FB
S11301C081E00E94D70783EC90E00E941E0710E0B4
S11301D011C0E701C10FD11DCE010E946C058881B9
S11301E08F3FB9F3612F82E00E94D70788810E9474
S11301F0E8061F5F183068F3DF91CF911F91FF90DD
S1130200EF90DF90CF9008958F929F92AF92BF921C
S1130210CF92DF92EF92FF920F931F93CF93DF93CE
S1130220CDB7DEB7A0970FB6F894DEBF0FBECDBF33
S11302306115710509F4EEC0813009F0EBC0DAC034
S11302409394BE016F5E7F4FCE0149960E94930046
S1130250B12CC12CD12C5FC00D2D0295007F10E074
S1130260AE01475F5F4F68E070E0C8010E94F80488
S1130270AE014F5F5F4F68E070E0C80108960E94CE
S1130280F80440E020E014C0822F90E0E9E1F0E0BF
S1130290EC0FFD1FE80FF91F3081E9E0F0E0EC0FEF
S11302A0FD1FE80FF91F8081381301C04F5F2F5FD6
S11302B0283050F3483069F515C0822F90E0E1E111
S11302C0F0E0EC0FFD1FE80FF91F3081E1E0F0E0F2
S11302D0EC0FFD1FE80FF91F8081381301C04F5F39
S11302E02F5F02C040E020E0283038F3483079F432
S11302F02FE0D21206C081E0F70180838824839422
S11303000EC082E0F70180838824839408C0B394EC
S113031001C0C394D394FFE0FD1508F09DCF21E004
S1130320821214C00E94A60760E081E00E94D707F1
S11303308DEC90E00E941E078FEF99E6E8E1815072
S11303409040E040E1F700C000005CC0F0E1CF1253
S113035027C00E94A60760E081E00E94D7078DEDC8
S113036090E00E941E0760E082E00E94D7078BEEB7
S113037090E00E941E0722E0A216D1F18FEF93EDC8
S1130380E0E381509040E040E1F700C0000060E00D
S113039082E00E94D7078BEF90E00E941E0728C0DE
S11303A0BB2031F10E94A60760E081E00E94D707DC
S11303B08DED90E00E941E0760E082E00E94D70766
S11303C08CE091E00E941E07F2E0AF1689F02FEF57
S11303D083ED90E3215080409040E1F700C000009D
S11303E060E082E00E94D7078BEF90E00E941E0736
S11303F0A39404C07B01812C912CA12CE2E0EA158A
S113040008F01ECFF3E09F1205C0811003C083E003
S1130410F7018083A0960FB6F894DEBF0FBECDBF60
S1130420DF91CF911F910F91FF90EF90DF90CF90CC
S1130430BF90AF909F908F9008958BE191E00E94C0
S1130440340780EC0E9450068CE291E00E9434074D
S11304502FEF83ED90E3215080409040E1F700C0FE
S113046000000895CF93DF93CDB7DEB7A1970FB601
S1130470F894DEBF0FBECDBF0E9468000E941D022B
S11304800E94A60788E0E4E6F0E0DE011196019000
S11304900D928A95E1F788E0EDE6F0E0DE01199629
S11304A001900D928A95E1F788E0E6E7F0E0DE013D
S11304B0519601900D928A95E1F788E0E6E7F0E025
S11304C0DE01599601900D928A95E1F7BE016F5FA6
S11304D07F4F80E190E00E94CD04BE01675F7F4FB3
S11304E088E190E00E94CD04BE016F5E7F4F80EFF3
S11304F090E00E94CD04BE01675E7F4F88EF90E0DC
S11305000E94CD04BE016F5D7F4F81E00E94040113
S11305100E94A60760E081E00E94D70769A170E00D
S113052080E090E00E9453072FEF83ED90E3215089
S113053080409040E1F700C00000A1960FB6F89407
S1130540DEBF0FBECDBFDF91CF9108958FEF8093B3
S11305506300809362008093610008950E94A60264
S113056089E490E00E94CC090E94B4090E94A60785
S11305708AE391E00E941E0780EC0E94500687E403
S113058091E00E941E070E94A6020CC080916000A8
S1130590803321F48FEF8093600008C083E690E0FD
S11305A00E946C05809163008F3F81F30E94C20911
S11305B080916300813319F0823379F008950E94A9
S11305C0A60785E591E00E94340780EC0E9450065E
S11305D082E691E00E94340708950E94A60781E70D
S11305E091E00E94340780EC0E94500681E891E07B
S11305F00E94340789E490E00E94CC090E94B40967
S11306000CC082E690E00E946C058091600080330B
S113061021F48FEF8093600004C0809162008F3FCB
S113062081F30E94C20980916200833309F4A6C059
S113063030F4813369F0823309F454C0A2C18533A4
S113064009F434C108F4E6C0863309F47BC199C1C6
S11306504DE652E060E080E00E942B090E94A6076C
S113066080916D028130F1F48EE891E00E943407AC
S113067080EC0E9450068CE991E00E94340704C08B
S113068081E690E00E946C05809161008F3FC1F388
S1130690813329F441E060E080E00E9403080E9475
S11306A0A6026FC181116DC18DEA91E00E943407E9
S11306B080EC0E9450068CEB91E00E94340704C049
S11306C081E690E00E946C05809161008F3FC1F348
S11306D0813329F441E060E080E00E94F6070E9443
S11306E0A6024FC14DE652E061E080E00E942B0972
S11306F00E94A60780916D028130F9F48CEC91E0A0
S11307000E94340780EC0E9450068CE991E00E941C
S1130710340704C081E690E00E946C05809161007A
S11307208F3FC1F3813329F441E061E080E00E940E
S113073003088FEF8093610024C1811122C18AEDE7
S113074091E00E94340780EC0E9450068CEB91E00B
S11307500E94340704C081E690E00E946C058091F9
S113076061008F3FC1F3813329F441E061E080E00F
S11307700E94F6078FEF8093610003C14DE652E0BB
S113078062E080E00E942B090E94A60780916D021E
S11307908130F9F489EE91E00E94340780EC0E94E4
S11307A050068CE991E00E94340704C081E690E091
S11307B00E946C05809161008F3FC1F3813329F45D
S11307C041E062E080E00E9403088FEF80936100C3
S11307D0D8C08111D6C087EF91E00E94340780EC25
S11307E00E9450068CEB91E00E94340704C081E61D
S11307F090E00E946C05809161008F3FC1F38133CA
S113080029F441E062E080E00E94F6078FEF8093D4
S11308106100B7C04DE652E063E080E00E942B091E
S11308200E94A60780916D028130F9F486E092E07F
S11308300E94340780EC0E9450068CE991E00E94EB
S1130840340704C081E690E00E946C058091610049
S11308508F3FC1F3813329F441E063E080E00E94DB
S113086003088FEF809361008CC081118AC084E1FA
S113087092E00E94340780EC0E9450068CEB91E0D9
S11308800E94340704C081E690E00E946C058091C8
S113089061008F3FC1F3813329F441E063E080E0DC
S11308A00E94F6078FEF809361006BC04DE652E023
S11308B062E083E00E942B090E94A60780916D02EA
S11308C08130F9F483E292E00E94340780EC0E94C4
S11308D050068CE991E00E94340704C081E690E060
S11308E00E946C05809161008F3FC1F3813329F42C
S11308F041E062E083E00E9403088FEF809361008F
S113090040C081113EC081E392E00E94340780EC34
S11309100E9450068CEB91E00E94340704C081E6EB
S113092090E00E946C05809161008F3FC1F3813398
S113093029F441E062E083E00E94F6078FEF8093A0
S113094061001FC00E94A60780916D02813061F48E
S113095080E492E00E94340780EC0E9450068CE907
S113096091E00E9434070DC081110BC08EE492E027
S11309700E94340780EC0E9450068CEB91E00E94A8
S113098034078FEF809362008093630008950E9480
S1130990DB0A08950E94500A08950F931F93CF9382
S11309A0DF9361157105F9F08B01D82FC92FC0654C
S11309B00E945C0A8C2F0E947F0A8D2F0E94A90A34
S11309C0C0E007C0F801EC0FF11D80810E94A90A64
S11309D0CF5FC830B8F30E94780A8FE19EE4019794
S11309E0F1F700C00000DF91CF911F910F9108959E
S11309F0EF92FF920F931F93CF93DF93411551050D
S1130A0081F1611522E0720760F58A017B01D82F1C
S1130A10C92FC0650E945C0A8C2F0E947F0A8D2F0B
S1130A200E94A90A0E946A0A8C2F0E94940AC0E0BC
S1130A30D0E006C0C8018C0F9D1F0E94B50A219604
S1130A40C7010197C817D907A8F3800F911F0E9407
S1130A50CB0A0E94780A8FE19EE40197F1F700C067
S1130A600000DF91CF911F910F91FF90EF900895B7
S1130A7041E064E081E00E942B0841E065E081E010
S1130A800E942B0841E066E081E00E942B0840E0D0
S1130A9063E082E00E942B0840E064E082E00E9470
S1130AA02B0840E065E082E00E942B0840E066E00D
S1130AB082E00E942B0863E082E00E94660964E001
S1130AC082E00E94660965E082E00E94660966E0B1
S1130AD082E00E94660908956F927F928F929F929E
S1130AE0AF92BF92CF92DF92EF92FF920F931F9338
S1130AF0CF93DF93CDB7DEB76B970FB6F894DEBF15
S1130B000FBECDBF009709F47EC05C0181E0888FE1
S1130B10898F8A8F34E03D8B25E02E8B96E09F8B66
S1130B2082E0898B8A8B8B8B8C8B83E08D873E87CD
S1130B302F87988B8CE0EFE7F0E0DE0111960190AF
S1130B400D928A95E1F78FEFF5018083812C57C0D0
S1130B50C82CD12CE5E1F0E0EC0FFD1FEC0DFD1DE0
S1130B606080E8E1F0E0EC0FFD1FEC0DFD1D7080EE
S1130B7040E0662D872D0E94AB0810E038C0E12EBE
S1130B80F12CEDE0F0E0EC0FFD1FEE0DFF1D0081F8
S1130B90E1E1F0E0EC0FFD1FEE0DFF1D9080AE01D2
S1130BA0455E5F4F602F892D0E942B098B8D81112B
S1130BB01DC007C0AE01455E5F4F602F892D0E94A6
S1130BC02B098B8D8823B1F3C701880F991FE80E79
S1130BD0F91E81E090E08C0F9D1FE80EF91EF701CD
S1130BE0EC0DFD1D8081F50180830DC01F5F143065
S1130BF030F241E0662D872D0E94AB088394F2E029
S1130C00F81508F0A5CF6B960FB6F894DEBF0FBEAB
S1130C10CDBFDF91CF911F910F91FF90EF90DF90A7
S1130C20CF90BF90AF909F908F907F906F900895DA
S1130C30CF93C82F80FF06C041E064E080E00E94AB
S1130C40AB0805C040E064E080E00E94AB08C1FF4F
S1130C5006C041E065E080E00E94AB0805C040E0CA
S1130C6065E080E00E94AB08C2FF06C041E066E098
S1130C7080E00E94AB0805C040E066E080E00E948E
S1130C80AB08C3FF06C041E067E080E00E94AB0808
S1130C9005C040E067E080E00E94AB08CF91089572
S1130CA0CF93C82F40E061E081E00E94AB0840E0B0
S1130CB062E081E00E94AB088C2F82958F700E94C5
S1130CC0180641E063E081E00E94AB088FE99FE0F1
S1130CD00197F1F700C0000040E063E081E00E946A
S1130CE0AB088C2F0E94180641E063E081E00E946B
S1130CF0AB088FE99FE00197F1F700C0000040E0E6
S1130D0063E081E00E94AB08CF91089541E061E087
S1130D1081E00E942B0841E062E081E00E942B0800
S1130D2041E063E081E00E942B0841E064E080E060
S1130D300E942B0841E065E080E00E942B0841E01E
S1130D4066E080E00E942B0841E067E080E00E94BA
S1130D502B082FE785EB91E0215080409040E1F78C
S1130D6000C0000040E061E081E00E94AB0840E088
S1130D7062E081E00E94AB0882E00E94180641E034
S1130D8063E081E00E94AB088FE99FE00197F1F7EF
S1130D9000C0000040E063E081E00E94AB0888E20C
S1130DA00E94500690EF9A95F1F78FE00E9450064A
S1130DB020EF2A95F1F781E00E9450068FE39FE12E
S1130DC00197F1F700C0000086E00E9450060895E4
S1130DD0CF93C82F41E061E081E00E94AB0840E07E
S1130DE062E081E00E94AB088C2F82958F700E9494
S1130DF0180641E063E081E00E94AB088FE99FE0C0
S1130E000197F1F700C0000040E063E081E00E9438
S1130E10AB088C2F0E94180641E063E081E00E9439
S1130E20AB088FE99FE00197F1F700C0000040E0B4
S1130E3063E081E00E94AB08CF9108950F931F9364
S1130E40CF93009729F40CC00E94E806CF5F02C03C
S1130E508C01C0E0F801EC0FF11D80818111F4CF09
S1130E60CF911F910F9108950F931F93CF930097E4
S1130E7071F415C00E94E806CF5F2FEF80E792E07F
S1130E80215080409040E1F700C0000002C08C0176
S1130E90C0E0F801EC0FF11D80818111EBCFCF91FF
S1130EA01F910F9108950F931F93CF93DF9300D059
S1130EB000D01F92CDB7DEB7262F10E008C01F5F09
S1130EC0EDEC6E9F612D1124669566956695611112
S1130ED0F6CF00E01AC0622F2AE030E040E050E094
S1130EE00E94EC0A732F842F952FA02FB0E0119647
S1130EF0E12FF0E0EA1BFB0B41E050E04C0F5D1FDB
S1130F00E40FF51F605D60830F5F011720F3E1E0DC
S1130F10F0E0EC0FFD1FE10FF11D108210E003C0A3
S1130F200E94E8061F5FE1E0F0E0EC0FFD1FE10F17
S1130F30F11D80818111F4CF0F900F900F900F90CD
S1130F400F90DF91CF911F910F91089540E061E0E0
S1130F5081E00E94AB0840E062E081E00E94AB08BF
S1130F6080E00E94180641E063E081E00E94AB0843
S1130F708FE99FE00197F1F700C0000040E063E0D3
S1130F8081E00E94AB0881E00E94180641E063E022
S1130F9081E00E94AB088FE99FE00197F1F700C060
S1130FA0000040E063E081E00E94AB080895CF9325
S1130FB0DF936832A0F4C62FD82F82E00E94500637
S1130FC0D13019F0D23031F00AC08C2F80680E94E1
S1130FD0500605C080E48C0F80680E945006DF91A3
S1130FE0CF91089541E00E942B080895413019F0F3
S1130FF0423029F0089541E00E94AB08089540E092
S11310000E94AB080895413019F0423029F0089548
S113101040E00E94AB08089541E00E94AB080895A7
S11310200E9432022FEF83ED90E3215080409040E4
S1131030E1F700C0000080916C02813019F40E9435
S1131040AE02F9CF8111F7CF8DE592E00E941E0721
S113105080E090E00895843008F07CC0683008F0A7
S113106079C0423008F076C0813019F130F0823016
S1131070E1F1833009F454C00895442371F0413000
S113108009F068C02AB381E090E002C0880F991F7C
S11310906A95E2F7822B8ABB08952AB381E090E037
S11310A002C0880F991F6A95E2F7809582238ABB54
S11310B00895442371F0413009F04CC027B381E016
S11310C090E002C0880F991F6A95E2F7822B87BBD4
S11310D0089527B381E090E002C0880F991F6A95B4
S11310E0E2F78095822387BB0895442369F0413059
S11310F089F524B381E090E002C0880F991F6A95B6
S1131100E2F7822B84BB089524B381E090E002C00F
S1131110880F991F6A95E2F78095822384BB08950E
S1131120442369F04130B1F421B381E090E002C07E
S1131130880F991F6A95E2F7822B81BB089521B32A
S113114081E090E002C0880F991F6A95E2F78095CC
S1131150822381BB0895843008F07CC0683008F095
S113116079C0423008F076C0813019F130F0823015
S1131170E1F1833009F454C00895442371F04130FF
S113118009F068C02BB381E090E002C0880F991F7A
S11311906A95E2F7822B8BBB08952BB381E090E034
S11311A002C0880F991F6A95E2F7809582238BBB52
S11311B00895442371F0413009F04CC028B381E014
S11311C090E002C0880F991F6A95E2F7822B88BBD2
S11311D0089528B381E090E002C0880F991F6A95B2
S11311E0E2F78095822388BB0895442369F0413057
S11311F089F525B381E090E002C0880F991F6A95B4
S1131200E2F7822B85BB089525B381E090E002C00C
S1131210880F991F6A95E2F78095822385BB08950C
S1131220442369F04130B1F422B381E090E002C07C
S1131230880F991F6A95E2F7822B82BB089522B327
S113124081E090E002C0880F991F6A95E2F78095CB
S1131250822382BB08958430C0F56830B0F541150F
S1131260510599F1813089F028F08230C9F083303A
S113127011F1089589B390E002C0959587956A9518
S1131280E2F78170FA018083089586B390E002C08A
S1131290959587956A95E2F78170FA0180830895A0
S11312A083B390E002C0959587956A95E2F78170C3
S11312B0FA018083089580B390E002C095958795E4
S11312C06A95E2F78170FA01808308958430A8F565
S11312D0683098F5813089F028F08230C9F0833085
S11312E011F108952BB381E090E002C0880F991F9B
S11312F06A95E2F7822B8BBB089528B381E090E0D6
S113130002C0880F991F6A95E2F7822B88BB089563
S113131025B381E090E002C0880F991F6A95E2F737
S1131320822B85BB089522B381E090E002C0880F30
S1131330991F6A95E2F7822B82BB08958FB7806864
S11313408FBF089583B78F7B83BF83B7886083BFC4
S113135083B78F7E83BF83B78F7D83BF89B7826056
S113136089BF89EF8CBF089583B7816083BF83B73A
S1131370826083BF83B78B7F83BF10926F0210920A
S11313806E02089583B78E7F83BF83B78D7F83BF3B
S113139083B78B7F83BF0895009721F090937102E8
S11313A080937002089588B7826088BF88B781608F
S11313B088BF08951F920F920FB60F9211242F9396
S11313C03F934F935F936F937F938F939F93AF93C9
S11313D0BF93EF93FF9380916E0290916F020196F9
S11313E090936F0280936E02883E934069F481E784
S11313F082BF10926F0210926E02E0917202F0911D
S11314007302309709F00995FF91EF91BF91AF9165
S11314109F918F917F916F915F914F913F912F9108
S11314200F900FBE0F901F9018951F920F920FB63A
S11314300F9211242F933F934F935F936F937F9356
S11314408F939F93AF93BF93EF93FF9380916E021B
S113145090916F02019690936F0280936E02883888
S1131460934169F410926F0210926E02E09170023F
S1131470F0917102309719F009950E94D309FF91F8
S1131480EF91BF91AF919F918F917F916F915F91F8
S11314904F913F912F910F900FBE0F901F90189571
S11314A08CE080B981B18D7F81B981B18E7F81B9A2
S11314B086B7846086BF089586B7806286BF86B784
S11314C0806886BF06B607FEFDCF81B1887F88306D
S11314D0E1F7089586B7806286BF86B7806886BFC5
S11314E006B607FEFDCF81B1887F8031E1F708950C
S11314F086B7806186BF86B7806886BF08958823D3
S113150094F0880F83B983B18E7F83B986B78F7DBA
S113151086BF86B7806886BF06B607FEFDCF81B159
S1131520887F8831E1F70895882394F0880F83B980
S113153083B1816083B986B78F7D86BF86B78068A3
S113154086BF06B607FEFDCF81B1887F8034E1F700
S1131550089583B986B7806886BF06B607FEFDCFB7
S113156081B1887F8832E1F70895FC01892B91F0DD
S113157096B7906496BF96B7906896BF06B607FE76
S1131580FDCF91B1987F9035E1F783B1808386B721
S11315908F7B86BF0895FC01892B61F096B7906814
S11315A096BF06B607FEFDCF91B1987F9835E1F757
S11315B083B1808308958BB18D7F8BB987E689B918
S11315C08AB18B7F8AB986E880BD8AB180618AB985
S11315D08AB188608AB90895A1E21A2EAA1BBB1B9E
S11315E0FD010DC0AA1FBB1FEE1FFF1FA217B307EB
S11315F0E407F50720F0A21BB30BE40BF50B661F01
S1131600771F881F991F1A9469F7609570958095C4
S113161090959B01AC01BD01CF010895F894FFCFD3
S1131620FFFFFFFF3131313131313131003232329C
S113163032323232320039393939393939390031B3
S113164032333435363738392A3023302D676F201A
S1131650746F20686F6D6500506C6561736520451B
S11316606E7465722055736572004E616D65265007
S1131670617373776F72640055736572204E616D88
S1131680653A0050415353574F52443A0041434343
S1131690455353205045524D49544544004143431A
S11316A04553532044454E4945440057726F6E6775
S11316B02055736572204E616D6500506C656173D1
S11316C0652054727920416761696E0057726F6EAC
S11316D0672050617373776F7264002057656C6381
S11316E06F6D6520746F20796F7572002020205310
S11316F06D61727420486F6D6500312D4143203255
S11317002D6C6967687400332D74656D7065726142
S113171074757265004143204973204F6E2F6F66C4
S11317206600526F6F6D2054656D703A20333063DC
S11317300043686F6F7365206C6967687420746F09
S113174000636F6E74726F6C28312D3629004C69FA
S11317506768742031206973204F6E00312D546FF7
S1131760205475726E204974204F6666004C696778
S113177068742031206973204F464600312D546F20
S1131780205475726E204974204F6E004C6967684E
S1131790742032206973204F6E004C69676874208E
S11317A032206973204F4646004C696768742033C1
S11317B0206973204F6E004C696768742033206978
S11317C073204F4646004C6967687420342069735F
S11317D0204F6E004C696768742034206973204F71
S11317E04646004C696768742035206973204F6E43
S11317F0004C696768742035206973204F464600A1
S11318004C696768742036206973204F6E004C69F8
S11318106768742036206973204F4646004163632D
S10F18206573732044656E696564000004
S9030000FC
