:100000000C942A000C943F000C943F000C943F0089
:100010000C943F000C943F000C943F000C943F0064
:100020000C943F000C943F000C943F000C943F0054
:100030000C943F000C943F000C943F000C943F0044
:100040000C943F000C943F000C943F000C943F0034
:100050000C943F0011241FBECFE5D8E0DEBFCDBF1A
:1000600011E0A0E6B0E0E0EFF9E002C005900D92EB
:10007000AC37B107D9F70E9494020C94F6040C94A3
:10008000000041E064E081E00E94830341E065E01C
:1000900081E00E94830341E066E081E00E948303E7
:1000A00040E063E082E00E94830340E064E082E09D
:1000B0000E94830340E065E082E00E94830340E009
:1000C00066E082E00E94830363E082E00E94BE0457
:1000D00064E082E00E94BE0465E082E00E94BE040B
:1000E00066E082E00E94BE0408956F927F928F9234
:1000F0009F92AF92BF92CF92DF92EF92FF920F93B7
:100100001F93CF93DF93CDB7DEB7A1970FB6F894C7
:10011000DEBF0FBECDBF009709F485C05C011D8E08
:100120001E8E1F8E18A281E08D8F8E8F8F8F198E5D
:100130001A8E1B8E1C8E34E0398F25E02A8F96E0B4
:100140009B8F82E08D8B8E8B8F8B888F83E0898B4A
:100150003A8B2B8B9C8B80E1E0E6F0E0DE01119680
:1001600001900D928A95E1F78FEFF5018083812C44
:1001700056C0C82CD12CE9E1F0E0EC0FFD1FEC0DCE
:10018000FD1D6080EDE1F0E0EC0FFD1FEC0DFD1DAD
:10019000708040E0662D872D0E94030410E037C078
:1001A000E12EF12CE1E1F0E0EC0FFD1FEE0DFF1D63
:1001B0000081E5E1F0E0EC0FFD1FEE0DFF1D9080EA
:1001C000AE014F5D5F4F602F892D0E94830489A18E
:1001D00081111CC007C0AE014F5D5F4F602F892D9C
:1001E0000E94830489A18823B1F3EE0CFF1CEE0C5E
:1001F000FF1C81E090E08C0F9D1FE80EF91EF701B7
:10020000EC0DFD1D8081F50180830DC01F5F143052
:1002100038F241E0662D872D0E9403048394F3E0B9
:10022000F81508F0A6CFA1960FB6F894DEBF0FBE62
:10023000CDBFDF91CF911F910F91FF90EF90DF9095
:10024000CF90BF90AF909F908F907F906F900895C8
:10025000CF93C82F80FF06C041E064E080E00E9499
:10026000030405C040E064E080E00E940304C1FF95
:1002700006C041E065E080E00E94030405C040E064
:1002800065E080E00E940304C2FF06C041E066E032
:1002900080E00E94030405C040E066E080E00E9428
:1002A0000304C3FF06C041E067E080E00E9403044E
:1002B00005C040E067E080E00E940304CF9108950C
:1002C000CF93C82F40E061E081E00E94030440E04A
:1002D00062E081E00E9403048C2F82958F700E945F
:1002E000280141E063E081E00E9403048FE99FE080
:1002F0000197F1F700C0000040E063E081E00E9458
:1003000003048C2F0E94280141E063E081E00E94F9
:1003100003048FE99FE00197F1F700C0000040E07F
:1003200063E081E00E940304CF91089541E061E021
:1003300081E00E94830341E062E081E00E94830348
:1003400041E063E081E00E94830341E064E080E0FB
:100350000E94830341E065E080E00E94830341E066
:1003600066E080E00E94830341E067E080E00E9455
:1003700083032FE785EB91E0215080409040E1F727
:1003800000C0000040E061E081E00E94030440E022
:1003900062E081E00E94030482E00E94280141E0C3
:1003A00063E081E00E9403048FE99FE00197F1F789
:1003B00000C0000040E063E081E00E94030488E2A6
:1003C0000E94600190EF9A95F1F78FE00E94600122
:1003D00020EF2A95F1F781E00E9460018FE39FE111
:1003E0000197F1F700C0000086E00E9460010895C7
:1003F000CF93C82F41E061E081E00E94030440E018
:1004000062E081E00E9403048C2F82958F700E942D
:10041000280141E063E081E00E9403048FE99FE04E
:100420000197F1F700C0000040E063E081E00E9426
:1004300003048C2F0E94280141E063E081E00E94C8
:1004400003048FE99FE00197F1F700C0000040E04E
:1004500063E081E00E940304CF9108950F931F93FE
:10046000CF93009729F40CC00E94F801CF5F02C01F
:100470008C01C0E0F801EC0FF11D80818111F4CFF7
:10048000CF911F910F9108950F931F93CF930097D2
:1004900071F415C00E94F801CF5F2FEF80E792E062
:1004A000215080409040E1F700C0000002C08C0164
:1004B000C0E0F801EC0FF11D80818111EBCFCF91ED
:1004C0001F910F91089540E061E081E00E940304D4
:1004D00040E062E081E00E94030480E00E94280185
:1004E00041E063E081E00E9403048FE99FE001970F
:1004F000F1F700C0000040E063E081E00E940304E7
:1005000081E00E94280141E063E081E00E94030451
:100510008FE99FE00197F1F700C0000040E063E041
:1005200081E00E9403040895CF93DF9300D0CDB7FC
:10053000DEB70E9496010E94410080E790E00E9491
:10054000440280EC0E94600181E890E00E94440235
:100550002FEF83ED90E3215080409040E1F700C001
:1005600000000E9463028FE890E00E942E0280EC5F
:100570000E9460018CE990E00E942E028FEF8A8336
:10058000CE0101960E94750089818F3FC9F38133A6
:1005900019F0823379F0F4CF0E9463028AEA90E086
:1005A0000E94440280EC0E94600187EB90E00E9470
:1005B0004402E6CF0E94630286EC90E00E9444026F
:1005C00080EC0E94600186ED90E00E9444022FEFD3
:1005D00086E791E0215080409040E1F700C00000A4
:1005E00004C0CE0102960E9475008A818F3FC9F334
:1005F000813371F40E94630283EE90E00E94440212
:1006000080EC0E94600182EF90E00E94440278C07A
:10061000823371F40E94630282E091E00E944402FE
:1006200080EC0E94600182EF90E00E94440268C06A
:10063000833371F40E94630281E191E00E944402DD
:1006400080EC0E94600182EF90E00E94440258C05A
:10065000843371F40E94630280E291E00E944402BC
:1006600080EC0E94600182EF90E00E94440248C04A
:10067000853371F40E9463028FE291E00E9444028C
:1006800080EC0E94600182EF90E00E94440238C03A
:10069000863371F40E9463028EE391E00E9444026B
:1006A00080EC0E94600182EF90E00E94440228C02A
:1006B0000E9463028DE491E00E9444022FEF83EDDB
:1006C00090E3215080409040E1F700C000000E947C
:1006D00063028DE591E00E94440280EC0E9460017B
:1006E0008EE691E00E9444022FEF83ED90E32150CB
:1006F00080409040E1F700C000008FEF8A8375CF03
:100700008FEF8A833DCF843008F07CC0683008F0DA
:1007100079C0423008F076C0813019F130F0823073
:10072000E1F1833009F454C00895442371F041305D
:1007300009F068C02AB381E090E002C0880F991FD9
:100740006A95E2F7822B8ABB08952AB381E090E094
:1007500002C0880F991F6A95E2F7809582238ABBB1
:100760000895442371F0413009F04CC027B381E073
:1007700090E002C0880F991F6A95E2F7822B87BB31
:10078000089527B381E090E002C0880F991F6A9511
:10079000E2F78095822387BB0895442369F04130B6
:1007A00089F524B381E090E002C0880F991F6A9513
:1007B000E2F7822B84BB089524B381E090E002C06D
:1007C000880F991F6A95E2F78095822384BB08956C
:1007D000442369F04130B1F421B381E090E002C0DC
:1007E000880F991F6A95E2F7822B81BB089521B388
:1007F00081E090E002C0880F991F6A95E2F780952A
:10080000822381BB0895843008F07CC0683008F0F2
:1008100079C0423008F076C0813019F130F0823072
:10082000E1F1833009F454C00895442371F041305C
:1008300009F068C02BB381E090E002C0880F991FD7
:100840006A95E2F7822B8BBB08952BB381E090E091
:1008500002C0880F991F6A95E2F7809582238BBBAF
:100860000895442371F0413009F04CC028B381E071
:1008700090E002C0880F991F6A95E2F7822B88BB2F
:10088000089528B381E090E002C0880F991F6A950F
:10089000E2F78095822388BB0895442369F04130B4
:1008A00089F525B381E090E002C0880F991F6A9511
:1008B000E2F7822B85BB089525B381E090E002C06A
:1008C000880F991F6A95E2F78095822385BB08956A
:1008D000442369F04130B1F422B381E090E002C0DA
:1008E000880F991F6A95E2F7822B82BB089522B385
:1008F00081E090E002C0880F991F6A95E2F7809529
:10090000822382BB08958430C0F56830B0F541156C
:10091000510599F1813089F028F08230C9F0833097
:1009200011F1089589B390E002C0959587956A9575
:10093000E2F78170FA018083089586B390E002C0E7
:10094000959587956A95E2F78170FA0180830895FD
:1009500083B390E002C0959587956A95E2F7817020
:10096000FA018083089580B390E002C09595879541
:100970006A95E2F78170FA01808308958430A8F5C2
:10098000683098F5813089F028F08230C9F08330E2
:1009900011F108952BB381E090E002C0880F991FF8
:1009A0006A95E2F7822B8BBB089528B381E090E033
:1009B00002C0880F991F6A95E2F7822B88BB0895C1
:1009C00025B381E090E002C0880F991F6A95E2F795
:1009D000822B85BB089522B381E090E002C0880F8E
:1009E000991F6A95E2F7822B82BB0895F894FFCF96
:1009F0003132334134353642373839432A30234493
:100A00002057656C636F6D6520746F20796F757208
:100A100000202020536D61727420486F6D65003195
:100A20002D414320322D6C6967687400332D746545
:100A30006D70657261747572650041432049732061
:100A40004F6E2F6F666600526F6F6D2054656D702C
:100A50003A203330630043686F6F7365206C6967B9
:100A6000687420746F00636F6E74726F6C28312D20
:100A70003629004C696768742031206973204F461D
:100A80004600312D546F205475726E204974204FEA
:100A90006E004C696768742032206973204F4646A7
:100AA000004C696768742033206973204F46460004
:100AB0004C696768742034206973204F4646004CA7
:100AC000696768742035206973204F4646004C6979
:100AD0006768742036206973204F464600202049FD
:100AE0006E76616C696420496E70757400202070A8
:100AF0006C656173652063686F6F736520002020EB
:0C0B000066726F6D203120746F2036008B
:00000001FF
