S0120000536D6172745F486F6D652E7372656323
S11300000C942A000C9447000C9447000C9447006D
S11300100C9447000C9447000C9447000C94470040
S11300200C9447000C9447000C94B4080C94790881
S11300300C9447000C9447000C9447000C94470020
S11300400C9447000C9447000C9447000C94470010
S11300500C94470011241FBECFE5D8E0DEBFCDBF0E
S113006012E0A0E6B0E0ECECF2E102C005900D92E3
S1130070AE3CB107D9F722E0AEECB2E001C01D926C
S1130080A63DB207E1F70E9468060C9464090C943B
S113009000000E94FE0580E80E94A8048CE890E01D
S11300A00E94760504C081E690E00E94C40380911A
S11300B061008F3FC1F3803311F40E94FE050E945A
S11300C072080E94FE0508950E9462030E94DE04E5
S11300D00E9490030E945F0341E061E083E00E947C
S11300E0CA0640E060E083E00E94CA060E943D0820
S11300F00E94410863E083E00E944A0661E080E0D8
S11301000E944A0662E080E00E944A0663E080E0C2
S11301100E944A0662E083E00E944A06089583E64C
S113012091E00E948C0580EC0E94A80484E791E091
S11301300E948C052FEF83ED90E321508040904086
S1130140E1F700C000000895CF93DF93CDB7DEB789
S1130150A0970FB6F894DEBF0FBECDBF0E94640017
S113016083E00E947F060E948F000E94FE0588E0C3
S1130170E5E6F0E0DE01119601900D928A95E1F733
S113018088E0EEE6F0E0DE01199601900D928A9582
S1130190E1F788E0E7E7F0E0DE01519601900D9287
S11301A08A95E1F788E0E7E7F0E0DE0159960190EF
S11301B00D928A95E1F7BE016F5F7F4F80E391E076
S11301C00E946503BE01675F7F4F88E391E00E9450
S11301D06503BE016F5E7F4F80EF90E00E94650370
S11301E0BE01675E7F4F88EF90E00E946503A09692
S11301F00FB6F894DEBF0FBECDBFDF91CF91089547
S11302008FEF80936400809363008093620008956D
S11302100E94000189E490E00E946B080E94530848
S11302200E94FE0582E891E00E94760580EC0E941F
S1130230A8048FE891E00E9476050E9400010CC09A
S113024080916100803321F48FEF8093610008C0B6
S113025084E690E00E94C403809164008F3F81F3A0
S11302600E946108809164008233A1F0833309F411
S1130270E5C1813309F022C20E94FE058DE991E0B7
S11302800E948C0580EC0E94A8048AEA91E00E94F6
S11302908C0508950E94FE0589EB91E00E948C056F
S11302A080EC0E94A80489EC91E00E948C0589E40A
S11302B090E00E946B080E9453080CC083E690E013
S11302C00E94C40380916100803321F48FEF8093F6
S11302D0610004C0809163008F3F81F30E94610834
S11302E080916300833309F4A6C030F4813369F04C
S11302F0823309F454C0A2C1853309F434C108F42B
S1130300E6C0863309F47BC199C14FEC52E063E047
S113031083E00E94CA070E94FE058091CF028130CB
S1130320F1F486ED91E00E948C0580EC0E94A80413
S113033084EE91E00E948C0504C082E690E00E9465
S1130340C403809162008F3FC1F3813329F441E0FB
S113035063E083E00E945B060E9400016FC181118B
S11303606DC185EF91E00E948C0580EC0E94A80489
S113037084E092E00E948C0504C082E690E00E9432
S1130380C403809162008F3FC1F3813329F441E0BB
S113039063E083E00E944E060E9400014FC14FECCF
S11303A052E061E080E00E94CA070E94FE0580914D
S11303B0CF028130F9F484E192E00E948C0580EC54
S11303C00E94A80484EE91E00E948C0504C082E699
S11303D090E00E94C403809162008F3FC1F3813397
S11303E029F441E061E080E00E945B068FEF809396
S11303F0620024C1811122C182E292E00E948C0534
S113040080EC0E94A80484E092E00E948C0504C061
S113041082E690E00E94C403809162008F3FC1F3A2
S1130420813329F441E061E080E00E944E068FEFC1
S11304308093620003C14FEC52E062E080E00E94CE
S1130440CA070E94FE058091CF028130F9F481E34E
S113045092E00E948C0580EC0E94A80484EE91E056
S11304600E948C0504C082E690E00E94C40380913F
S113047062008F3FC1F3813329F441E062E080E000
S11304800E945B068FEF80936200D8C08111D6C0B2
S11304908FE392E00E948C0580EC0E94A80484E023
S11304A092E00E948C0504C082E690E00E94C4039E
S11304B0809162008F3FC1F3813329F441E062E00F
S11304C080E00E944E068FEF80936200B7C04FEC2D
S11304D052E063E080E00E94CA070E94FE0580911A
S11304E0CF028130F9F48EE492E00E948C0580EC16
S11304F00E94A80484EE91E00E948C0504C082E668
S113050090E00E94C403809162008F3FC1F3813365
S113051029F441E063E080E00E945B068FEF809362
S113052062008CC081118AC08CE592E00E948C0527
S113053080EC0E94A80484E092E00E948C0504C030
S113054082E690E00E94C403809162008F3FC1F371
S1130550813329F441E063E080E00E944E068FEF8E
S1130560809362006BC04FEC52E062E083E00E9433
S1130570CA070E94FE058091CF028130F9F48BE610
S113058092E00E948C0580EC0E94A80484EE91E025
S11305900E948C0504C082E690E00E94C40380910E
S11305A062008F3FC1F3813329F441E062E083E0CC
S11305B00E945B068FEF8093620040C081113EC0B1
S11305C089E792E00E948C0580EC0E94A80484E0F4
S11305D092E00E948C0504C082E690E00E94C4036D
S11305E0809162008F3FC1F3813329F441E062E0DE
S11305F083E00E944E068FEF809362001FC00E942A
S1130600FE058091CF02813061F488E892E00E9477
S11306108C0580EC0E94A80484EE91E00E948C0575
S11306200DC081110BC086E992E00E948C0580EC1C
S11306300E94A80484E092E00E948C050E94FE05BA
S11306406EEC72E080E00E94AF0680E80E94A8048D
S113065085EA92E00E9476056BE081E00E942F0615
S11306606091CE0270E080E090E00E94AB0583E6EA
S11306700E94400580EC0E94A80482EB92E00E9454
S11306808C0514C081E690E00E94C4036EEC72E015
S113069080E00E94AF066BE081E00E942F0660912B
S11306A0CE0270E080E090E00E94AB058091610092
S11306B08F3F41F3803311F40E94FE0508950E9498
S11306C0310908950E94EF0808950F931F93CF9363
S11306D0DF9361157105F9F08B01D82FC92FC0651F
S11306E00E94FB088C2F0E9410098D2F0E9425095F
S11306F0C0E007C0F801EC0FF11D80810E942509BC
S1130700CF5FC830B8F30E9409098FE19EE40197D6
S1130710F1F700C00000DF91CF911F910F91089570
S113072041E064E081E00E94CA0641E065E081E0C6
S11307300E94CA0641E066E081E00E94CA0640E0E9
S113074063E082E00E94CA0640E064E082E00E9426
S1130750CA0640E065E082E00E94CA0640E066E026
S113076082E00E94CA0663E082E00E94050864E019
S113077082E00E94050865E082E00E94050866E0C8
S113078082E00E94050808956F927F928F929F9253
S1130790AF92BF92CF92DF92EF92FF920F931F938B
S11307A0CF93DF93CDB7DEB76B970FB6F894DEBF68
S11307B00FBECDBF009709F47EC05C0181E0888F35
S11307C0898F8A8F34E03D8B25E02E8B96E09F8BBA
S11307D082E0898B8A8B8B8B8C8B83E08D873E8721
S11307E02F87988B8CE0E0E8F0E0DE011196019011
S11307F00D928A95E1F78FEFF5018083812C57C024
S1130800C82CD12CE5E1F0E0EC0FFD1FEC0DFD1D33
S11308106080E8E1F0E0EC0FFD1FEC0DFD1D708041
S113082040E0662D872D0E944A0710E038C0E12E73
S1130830F12CEDE0F0E0EC0FFD1FEE0DFF1D00814B
S1130840E1E1F0E0EC0FFD1FEE0DFF1D9080AE0125
S1130850455E5F4F602F892D0E94CA078B8D8111E1
S11308601DC007C0AE01455E5F4F602F892D0E94F9
S1130870CA078B8D8823B1F3C701880F991FE80E2F
S1130880F91E81E090E08C0F9D1FE80EF91EF70120
S1130890EC0DFD1D8081F50180830DC01F5F1430B8
S11308A030F241E0662D872D0E944A078394F2E0DE
S11308B0F81508F0A5CF6B960FB6F894DEBF0FBEFF
S11308C0CDBFDF91CF911F910F91FF90EF90DF90FB
S11308D0CF90BF90AF909F908F907F906F9008952E
S11308E0CF93C82F80FF06C041E064E080E00E94FF
S11308F04A0705C040E064E080E00E944A07C1FF67
S113090006C041E065E080E00E944A0705C040E07F
S113091065E080E00E944A07C2FF06C041E066E04D
S113092080E00E944A0705C040E066E080E00E9443
S11309304A07C3FF06C041E067E080E00E944A071F
S113094005C040E067E080E00E944A07CF91089527
S1130950CF93C82F40E061E081E00E944A0740E065
S113096062E081E00E944A078C2F82958F700E947A
S1130970700441E063E081E00E944A078FE99FE050
S11309800197F1F700C0000040E063E081E00E94BD
S11309904A078C2F0E94700441E063E081E00E94CA
S11309A04A078FE99FE00197F1F700C0000040E09B
S11309B063E081E00E944A07CF91089541E061E03D
S11309C081E00E94CA0641E062E081E00E94CA061A
S11309D041E063E081E00E94CA0641E064E080E017
S11309E00E94CA0641E065E080E00E94CA0641E038
S11309F066E080E00E94CA0641E067E080E00E9471
S1130A00CA062FE785EB91E0215080409040E1F742
S1130A1000C0000040E061E081E00E944A0740E03D
S1130A2062E081E00E944A0782E00E94700441E093
S1130A3063E081E00E944A078FE99FE00197F1F7A4
S1130A4000C0000040E063E081E00E944A0788E2C1
S1130A500E94A80490EF9A95F1F78CE00E94A804F4
S1130A6020EF2A95F1F781E00E94A8048FE39FE12B
S1130A700197F1F700C0000086E00E94A8040895E1
S1130A80CF93C82F41E061E081E00E944A0740E033
S1130A9062E081E00E944A078C2F82958F700E9449
S1130AA0700441E063E081E00E944A078FE99FE01F
S1130AB00197F1F700C0000040E063E081E00E948C
S1130AC04A078C2F0E94700441E063E081E00E9499
S1130AD04A078FE99FE00197F1F700C0000040E06A
S1130AE063E081E00E944A07CF9108950F931F931A
S1130AF0CF93009729F40CC00E944005CF5F02C039
S1130B008C01C0E0F801EC0FF11D80818111F4CF5C
S1130B10CF911F910F9108950F931F93CF93009737
S1130B2071F415C00E944005CF5F2FEF80E792E07B
S1130B30215080409040E1F700C0000002C08C01C9
S1130B40C0E0F801EC0FF11D80818111EBCFCF9152
S1130B501F910F9108950F931F93CF93DF9300D0AC
S1130B6000D01F92CDB7DEB7262F10E008C01F5F5C
S1130B70EDEC6E9F612D1124669566956695611165
S1130B80F6CF00E01AC0622F2AE030E040E050E0E7
S1130B900E944209732F842F952FA02FB0E0119645
S1130BA0E12FF0E0EA1BFB0B41E050E04C0F5D1F2E
S1130BB0E40FF51F605D60830F5F011720F3E1E030
S1130BC0F0E0EC0FFD1FE10FF11D108210E003C0F7
S1130BD00E9440051F5FE1E0F0E0EC0FFD1FE10F14
S1130BE0F11D80818111F4CF0F900F900F900F9021
S1130BF00F90DF91CF911F910F91089540E061E034
S1130C0081E00E944A0740E062E081E00E944A07D6
S1130C1080E00E94700441E063E081E00E944A07A2
S1130C208FE99FE00197F1F700C0000040E063E026
S1130C3081E00E944A0781E00E94700441E063E081
S1130C4081E00E944A078FE99FE00197F1F700C015
S1130C50000040E063E081E00E944A070895CF93DA
S1130C60DF936832A0F4C62FD82F82E00E94A80434
S1130C70D13019F0D23031F00AC08C2F80680E9434
S1130C80A80405C080E48C0F80680E94A804DF914A
S1130C90CF91089541E00E94CA060895413019F0A9
S1130CA0423029F0089541E00E944A07089540E047
S1130CB00E944A070895413019F0423029F00895FE
S1130CC040E00E944A07089541E00E944A070895BF
S1130CD040E060E080E00E94CA060E94A400809187
S1130CE06000813019F40E940801F9CF8111F7CF17
S1130CF08FEB92E00E94760580E090E008958230C8
S1130D0059F0833081F08130A1F487B1806487B9D0
S1130D1087B18F7787B90DC087B18F7B87B987B1CA
S1130D208F7787B906C087B1806487B987B1806837
S1130D3087B987B18F7D87B986B18F7D86B986B132
S1130D40877F86B986B1846086B986B1826086B9A8
S1130D5086B1816086B986B1806886B908956115C7
S1130D607105B9F097B1907E97B997B1892B87B97E
S1130D7086B1806486B9349BFECF84B195B19695D3
S1130D80879596958795FB019183808386B18061D1
S1130D9086B90895843008F07CC0683008F079C0C2
S1130DA0423008F076C0813019F130F08230E1F140
S1130DB0833009F454C00895442371F0413009F09C
S1130DC068C02AB381E090E002C0880F991F6A9539
S1130DD0E2F7822B8ABB08952AB381E090E002C037
S1130DE0880F991F6A95E2F7809582238ABB08953C
S1130DF0442371F0413009F04CC027B381E090E006
S1130E0002C0880F991F6A95E2F7822B87BB089569
S1130E1027B381E090E002C0880F991F6A95E2F73A
S1130E208095822387BB0895442369F0413089F576
S1130E3024B381E090E002C0880F991F6A95E2F71D
S1130E40822B84BB089524B381E090E002C0880F14
S1130E50991F6A95E2F78095822384BB0895442301
S1130E6069F04130B1F421B381E090E002C0880F11
S1130E70991F6A95E2F7822B81BB089521B381E023
S1130E8090E002C0880F991F6A95E2F7809582234B
S1130E9081BB0895843008F07CC0683008F079C0C4
S1130EA0423008F076C0813019F130F08230E1F13F
S1130EB0833009F454C00895442371F0413009F09B
S1130EC068C02BB381E090E002C0880F991F6A9537
S1130ED0E2F7822B8BBB08952BB381E090E002C034
S1130EE0880F991F6A95E2F7809582238BBB08953A
S1130EF0442371F0413009F04CC028B381E090E004
S1130F0002C0880F991F6A95E2F7822B88BB089567
S1130F1028B381E090E002C0880F991F6A95E2F738
S1130F208095822388BB0895442369F0413089F574
S1130F3025B381E090E002C0880F991F6A95E2F71B
S1130F40822B85BB089525B381E090E002C0880F11
S1130F50991F6A95E2F78095822385BB08954423FF
S1130F6069F04130B1F422B381E090E002C0880F0F
S1130F70991F6A95E2F7822B82BB089522B381E020
S1130F8090E002C0880F991F6A95E2F7809582234A
S1130F9082BB08958430C0F56830B0F54115510521
S1130FA099F1813089F028F08230C9F0833011F151
S1130FB0089589B390E002C0959587956A95E2F704
S1130FC08170FA018083089586B390E002C09595FC
S1130FD087956A95E2F78170FA018083089583B357
S1130FE090E002C0959587956A95E2F78170FA01C1
S1130FF08083089580B390E002C0959587956A95A3
S1131000E2F78170FA01808308958430A8F568308E
S113101098F5813089F028F08230C9F0833011F1DD
S113102008952BB381E090E002C0880F991F6A9560
S1131030E2F7822B8BBB089528B381E090E002C0D5
S1131040880F991F6A95E2F7822B88BB089525B310
S113105081E090E002C0880F991F6A95E2F7822B25
S113106085BB089522B381E090E002C0880F991FE8
S11310706A95E2F7822B82BB08958FB780688FBF91
S1131080089583B78F7B83BF83B7886083BF83B79B
S11310908F7E83BF83B78F7D83BF89B7826089BF0B
S11310A089EF8CBF089583B7816083BF83B7826063
S11310B083BF83B78B7F83BF1092D1021092D0027B
S11310C0089583B78E7F83BF83B78D7F83BF83B734
S11310D08B7F83BF0895009721F09093D302809370
S11310E0D202089588B7826088BF88B7816088BFBC
S11310F008951F920F920FB60F9211242F933F93CE
S11311004F935F936F937F938F939F93AF93BF930B
S1131110EF93FF938091D0029091D1020196909326
S1131120D1028093D002883E934069F481E782BF64
S11311301092D1021092D002E091D402F091D50223
S1131140309709F00995FF91EF91BF91AF919F916D
S11311508F917F916F915F914F913F912F910F905C
S11311600FBE0F901F9018951F920F920FB60F92FB
S113117011242F933F934F935F936F937F938F9398
S11311809F93AF93BF93EF93FF938091D00290917D
S1131190D10201969093D1028093D0028838934172
S11311A069F41092D1021092D002E091D202F0912F
S11311B0D302309719F009950E947208FF91EF91BC
S11311C0BF91AF919F918F917F916F915F914F915B
S11311D03F912F910F900FBE0F901F9018958CE0A8
S11311E080B981B18D7F81B981B18E7F81B986B794
S11311F0846086BF089586B7806286BF86B780689C
S113120086BF06B607FEFDCF81B1887F8830E1F73F
S1131210089586B7806186BF86B7806886BF0895C3
S1131220882394F0880F83B983B18E7F83B986B7FE
S11312308F7D86BF86B7806886BF06B607FEFDCF62
S113124081B1887F8831E1F7089583B986B78068D2
S113125086BF06B607FEFDCF81B1887F8832E1F7ED
S113126008958BB18D7F8BB987E689B98AB18B7F5D
S11312708AB986E880BD8AB180618AB98AB18860FA
S11312808AB90895A1E21A2EAA1BBB1BFD010DC049
S1131290AA1FBB1FEE1FFF1FA217B307E407F50722
S11312A020F0A21BB30BE40BF50B661F771F881FFE
S11312B0991F1A9469F760957095809590959B0194
S10F12C0AC01BD01CF010895F894FFCFEC
S11312CC01FFFFFFFF313131313131313100323225
S11312DC323232323232003132333435363738002E
S11312EC3132333435363738392A3023526F6F6DF7
S11312FC2054656D703A2020206300506C65617336
S113130C6520456E7465722055736572004E616D6F
S113131C652650617373776F726400504153535751
S113132C4F52443A00506C6561736520456E746588
S113133C722055736572204E616D652026205061B4
S113134C7373776F726420000A00456E746572655E
S113135C642055736572204E616D653A005061735B
S113136C73776F72643A00456E74657265642050CD
S113137C6173733A00414343455353205045524DD6
S113138C49544544004143434553532044454E4935
S113139C45440057726F6E672055736572204E6119
S11313AC6D6500506C6561736520547279204167DA
S11313BC61696E0057726F6E672050617373776F3B
S11313CC7264002057656C636F6D6520746F2079AF
S11313DC6F757200202020536D61727420486F6DFC
S11313EC6500312D414320322D6C696768740033DC
S11313FC2D74656D7065726174757265004143205E
S113140C4973204F6E2F6F666600526F6F6D2054B8
S113141C656D703A203330630043686F6F736520D9
S113142C6C6967687420746F00636F6E74726F6C90
S113143C28312D3629004C69676874203120697372
S113144C204F6E00312D546F205475726E204974E8
S113145C204F6666004C69676874203120697320DC
S113146C4F464600312D546F205475726E204974CA
S113147C204F6E004C696768742032206973204FCA
S113148C6E004C696768742032206973204F46469D
S113149C004C696768742033206973204F6E004CCC
S11314AC696768742033206973204F4646004C6981
S11314BC6768742034206973204F6E004C69676828
S11314CC742034206973204F4646004C6967687455
S11314DC2035206973204F6E004C69676874203581
S11314EC206973204F4646004C6967687420362087
S11314FC6973204F6E004C696768742036206973D9
S113150C204F464600526F6F6D2054656D703A2023
S113151C2000302D676F20746F20686F6D6500415B
S111152C63636573732044656E696564000033
S9030000FC
