:100000000C942A000C943F000C943F000C943F0089
:100010000C943F000C943F000C943F000C943F0064
:100020000C943F000C943F000C943F000C943F0054
:100030000C943F000C943F000C943F000C943F0044
:100040000C943F000C943F000C943F000C943F0034
:100050000C943F0011241FBECFE5D8E0DEBFCDBF1A
:1000600011E0A0E6B0E0E4E2F9E002C005900D92F4
:10007000A231B107D9F70E9494020C9490040C9419
:10008000000041E060E082E00E941D0341E061E089
:1000900082E00E941D0341E062E082E00E941D03B5
:1000A00041E063E082E00E941D0340E064E082E002
:1000B0000E941D0340E065E082E00E941D0340E0D5
:1000C00066E082E00E941D0340E067E082E00E945B
:1000D0001D0364E082E00E94580465E082E00E9413
:1000E000580466E082E00E94580467E082E00E94C3
:1000F000580408956F927F928F929F92AF92BF9211
:10010000CF92DF92EF92FF920F931F93CF93DF93E3
:10011000CDB7DEB7A1970FB6F894DEBF0FBECDBF47
:10012000009709F480C05C0182E08D8F8E8F8F8FE5
:1001300088A3198E91E09A8F8B8F93E09C8F8D8B83
:100140008E8B8F8B888F84E0898B85E08A8B86E00D
:100150008B8B87E08C8B80E1E0E6F0E0DE0111968E
:1001600001900D928A95E1F78FEFF5018083812C44
:1001700056C0C82CD12CE9E1F0E0EC0FFD1FEC0DCE
:10018000FD1D6080EDE1F0E0EC0FFD1FEC0DFD1DAD
:10019000708040E0662D872D0E949D0310E037C0DF
:1001A000E12EF12CE1E1F0E0EC0FFD1FEE0DFF1D63
:1001B0000081E5E1F0E0EC0FFD1FEE0DFF1D9080EA
:1001C000AE014F5D5F4F602F892D0E941D0489A1F4
:1001D00081111CC007C0AE014F5D5F4F602F892D9C
:1001E0000E941D0489A18823B1F3EE0CFF1CEE0CC4
:1001F000FF1C81E090E08C0F9D1FE80EF91EF701B7
:10020000EC0DFD1D8081F50180830DC01F5F143052
:1002100038F241E0662D872D0E949D038394F3E020
:10022000F81508F0A6CFA1960FB6F894DEBF0FBE62
:10023000CDBFDF91CF911F910F91FF90EF90DF9095
:10024000CF90BF90AF909F908F907F906F900895C8
:10025000CF93C82F80FF06C041E064E080E00E9499
:100260009D0305C040E064E080E00E949D03C1FF63
:1002700006C041E065E080E00E949D0305C040E0CB
:1002800065E080E00E949D03C2FF06C041E066E099
:1002900080E00E949D0305C040E066E080E00E948F
:1002A0009D03C3FF06C041E067E080E00E949D031C
:1002B00005C040E067E080E00E949D03CF91089573
:1002C000CF93C82F40E061E081E00E949D0340E0B1
:1002D00062E081E00E949D038C2F82958F700E94C6
:1002E000280141E063E081E00E949D038FE99FE0E7
:1002F0000197F1F700C0000040E063E081E00E9458
:100300009D038C2F0E94280141E063E081E00E9460
:100310009D038FE99FE00197F1F700C0000040E0E6
:1003200063E081E00E949D03CF91089541E061E088
:1003300081E00E941D0341E062E081E00E941D0314
:1003400041E063E081E00E941D0341E064E080E061
:100350000E941D0341E065E080E00E941D0341E032
:1003600066E080E00E941D0341E067E080E00E94BB
:100370001D032FE785EB91E0215080409040E1F78D
:1003800000C0000040E061E081E00E949D0340E089
:1003900062E081E00E949D0382E00E94280141E02A
:1003A00063E081E00E949D038FE99FE00197F1F7F0
:1003B00000C0000040E063E081E00E949D0388E20D
:1003C0000E94600190EF9A95F1F78FE00E94600122
:1003D00020EF2A95F1F781E00E9460018FE39FE111
:1003E0000197F1F700C0000086E00E9460010895C7
:1003F000CF93C82F41E061E081E00E949D0340E07F
:1004000062E081E00E949D038C2F82958F700E9494
:10041000280141E063E081E00E949D038FE99FE0B5
:100420000197F1F700C0000040E063E081E00E9426
:100430009D038C2F0E94280141E063E081E00E942F
:100440009D038FE99FE00197F1F700C0000040E0B5
:1004500063E081E00E949D03CF9108950F931F9365
:10046000CF93009729F40CC00E94F801CF5F02C01F
:100470008C01C0E0F801EC0FF11D80818111F4CFF7
:10048000CF911F910F9108950F931F93CF930097D2
:1004900071F415C00E94F801CF5F2FEF80E792E062
:1004A000215080409040E1F700C0000002C08C0164
:1004B000C0E0F801EC0FF11D80818111EBCFCF91ED
:1004C0001F910F91089540E061E081E00E949D033B
:1004D00040E062E081E00E949D0380E00E942801EC
:1004E00041E063E081E00E949D038FE99FE0019776
:1004F000F1F700C0000040E063E081E00E949D034E
:1005000081E00E94280141E063E081E00E949D03B8
:100510008FE99FE00197F1F700C0000040E063E041
:1005200081E00E949D030895CF93DF9300D0CDB763
:10053000DEB70E9496010E94410080E790E00E9491
:10054000440280EC0E94600181E890E00E94440235
:100550002FEF83ED90E3215080409040E1F700C001
:1005600000000E9463028FE890E00E942E0280EC5F
:100570000E9460018CE990E00E942E028FEF8A8336
:10058000CE0101960E947A0089818F3FC9F38133A1
:1005900019F0823379F0F4CF0E9463028AEA90E086
:1005A0000E94440280EC0E94600187EB90E00E9470
:1005B0004402E6CF0E94630286EC90E00E9444026F
:1005C00080EC0E94600186ED90E00E9444022FEFD3
:1005D00086E791E0215080409040E1F700C00000A4
:1005E00004C0CE0102960E947A008A818F3FC9F32F
:1005F000813379F40E94630283EE90E00E9444020A
:1006000080EC0E94600182EF90E00E9444028FEF34
:100610008A838A81823309F0B3CF0E94630282E029
:1006200091E00E94440280EC0E94600182EF90E021
:100630000E9444028FEF8A83A3CF843008F07CC0ED
:10064000683008F079C0423008F076C0813019F186
:1006500030F08230E1F1833009F454C0089544232E
:1006600071F0413009F068C02AB381E090E002C027
:10067000880F991F6A95E2F7822B8ABB08952AB3E7
:1006800081E090E002C0880F991F6A95E2F780959B
:1006900082238ABB0895442371F0413009F04CC095
:1006A00027B381E090E002C0880F991F6A95E2F7B6
:1006B000822B87BB089527B381E090E002C0880FAA
:1006C000991F6A95E2F78095822387BB089544239A
:1006D00069F0413089F524B381E090E002C0880FD1
:1006E000991F6A95E2F7822B84BB089524B381E0B9
:1006F00090E002C0880F991F6A95E2F780958223E7
:1007000084BB0895442369F04130B1F421B381E002
:1007100090E002C0880F991F6A95E2F7822B81BB97
:10072000089521B381E090E002C0880F991F6A9577
:10073000E2F78095822381BB0895843008F07CC065
:10074000683008F079C0423008F076C0813019F185
:1007500030F08230E1F1833009F454C0089544232D
:1007600071F0413009F068C02BB381E090E002C025
:10077000880F991F6A95E2F7822B8BBB08952BB3E4
:1007800081E090E002C0880F991F6A95E2F780959A
:1007900082238BBB0895442371F0413009F04CC093
:1007A00028B381E090E002C0880F991F6A95E2F7B4
:1007B000822B88BB089528B381E090E002C0880FA7
:1007C000991F6A95E2F78095822388BB0895442398
:1007D00069F0413089F525B381E090E002C0880FCF
:1007E000991F6A95E2F7822B85BB089525B381E0B6
:1007F00090E002C0880F991F6A95E2F780958223E6
:1008000085BB0895442369F04130B1F422B381E0FF
:1008100090E002C0880F991F6A95E2F7822B82BB95
:10082000089522B381E090E002C0880F991F6A9575
:10083000E2F78095822382BB08958430C0F568304A
:10084000B0F54115510599F1813089F028F08230D9
:10085000C9F0833011F1089589B390E002C09595F5
:1008600087956A95E2F78170FA018083089586B3CF
:1008700090E002C0959587956A95E2F78170FA013C
:100880008083089583B390E002C0959587956A951B
:10089000E2F78170FA018083089580B390E002C08E
:1008A000959587956A95E2F78170FA01808308959E
:1008B0008430A8F5683098F5813089F028F08230CE
:1008C000C9F0833011F108952BB381E090E002C0AC
:1008D000880F991F6A95E2F7822B8BBB089528B386
:1008E00081E090E002C0880F991F6A95E2F7822BA1
:1008F00088BB089525B381E090E002C0880F991F5E
:100900006A95E2F7822B85BB089522B381E090E0DF
:1009100002C0880F991F6A95E2F7822B82BB089567
:04092000F894FFCF79
:100924003132334134353642373839432A3023445F
:100934002057656C636F6D6520746F20796F7572D5
:1009440000202020536D61727420486F6D65003162
:100954002D414320322D6C6967687400332D746512
:100964006D7065726174757265004143204973202E
:100974004F6E2F6F666600526F6F6D2054656D70F9
:100984003A203330630043686F6F7365206C696786
:10099400687420746F00636F6E74726F6C28312DED
:1009A4003629004C696768742031206973204F46EA
:1009B4004600312D546F205475726E204974204FB7
:1009C4006E004C696768742032206973204F464674
:0209D400000021
:00000001FF
