S0120000536D6172745F486F6D652E7372656323
S11300000C942A000C9447000C9447000C9447006D
S11300100C94B3160C9478160C9447000C94470077
S11300200C9447000C9447000C940F160C94D415B0
S11300300C9447000C9447000C9447000C94470020
S11300400C9447000C9447000C9447000C94470010
S11300500C94470011241FBECFE5D8E0DEBFCDBF0E
S113006014E0A0E6B0E0E8EDF9E302C005900D92DB
S1130070A237B107D9F724E0A2E7B4E001C01D928A
S1130080AB3AB207E1F70E94F4120C94EA1C0C9408
S1130090000062E774E080E00E944C1380917204D7
S11300A08D3130F040E062E082E00E94E713089571
S11300B0853128F441E062E082E00E94E71308956C
S11300C0CF93DF93CDB7DEB7C05BD1090FB6F894F9
S11300D0DEBF0FBECDBF88E0E3E7F0E0DE0111969E
S11300E001900D928A95E1F788E0E3E7F0E0DE0104
S11300F0199601900D928A95E1F788E0EBE7F0E01C
S1130100DE01519601900D928A95E1F788E0EBE7C4
S1130110F0E0DE01599601900D928A95E1F788E0AE
S1130120E3E8F0E0DE01919601900D928A95E1F703
S113013088E0E3E8F0E0DE01999601900D928A955B
S1130140E1F788E0EBE8F0E0DE01D19601900D9252
S11301508A95E1F788E0EBE8F0E0DE01D9960190BA
S11301600D928A95E1F788E0E3E9F0E0DE01AF5B08
S1130170BF4F01900D928A95E1F788E0E3E9F0E042
S1130180DE01A75BBF4F01900D928A95E1F788E0ED
S1130190EBE9F0E0DE01AF5ABF4F01900D928A9572
S11301A0E1F788E0EBE9F0E0DE01A75ABF4F0190E8
S11301B00D928A95E1F788E0E3EAF0E0DE01AF59B9
S11301C0BF4F01900D928A95E1F788E0E3EAF0E0F1
S11301D0DE01A759BF4F01900D928A95E1F788E09F
S11301E0EBEAF0E0DE01AF58BF4F01900D928A9523
S11301F0E1F788E0EBEAF0E0DE01A758BF4F019099
S11302000D928A95E1F788E0E3EBF0E0DE01AF5769
S1130210BF4F01900D928A95E1F788E0E3EBF0E09F
S1130220DE01A757BF4F01900D928A95E1F788E050
S1130230EBEBF0E0DE01AF56BF4F01900D928A95D3
S1130240E1F788E0EBEBF0E0DE01A756BF4F019049
S11302500D928A95E1F788E0E3ECF0E0DE01AF551A
S1130260BF4F01900D928A95E1F788E0E3ECF0E04E
S1130270DE01A755BF4F01900D928A95E1F7BE01AB
S11302806F5F7F4F80E090E00E946A0FBE01675F5E
S11302907F4F88E090E00E946A0FBE016F5E7F4F3F
S11302A080E190E00E946A0FBE01675E7F4F88E1A3
S11302B090E00E946A0FBE016F5D7F4F80E290E084
S11302C00E946A0FBE01675D7F4F88E290E00E9442
S11302D06A0FBE016F5C7F4F80E390E00E946A0F5B
S11302E0BE01675C7F4F88E390E00E946A0FBE0105
S11302F06F5B7F4F80E490E00E946A0FBE01675BF2
S11303007F4F88E490E00E946A0FBE016F5A7F4FCE
S113031080E590E00E946A0FBE01675A7F4F88E52E
S113032090E00E946A0FBE016F597F4F80E690E013
S11303300E946A0FBE0167597F4F88E690E00E94D1
S11303406A0FBE016F587F4F80E790E00E946A0FEA
S1130350BE0167587F4F88E790E00E946A0FBE0194
S11303606F577F4F80E890E00E946A0FBE01675785
S11303707F4F88E890E00E946A0FBE016F567F4F5E
S113038080E990E00E946A0FBE0167567F4F88E9BA
S113039090E00E946A0FBE016F557F4F80EA90E0A3
S11303A00E946A0FBE0167557F4F88EA90E00E9461
S11303B06A0FC055DF4F0FB6F894DEBF0FBECDBF36
S11303C0DF91CF9108950E944B110E94DE140E9488
S11303D0F1140E94490F64E083E00E94D51260E0AA
S11303E070E0CB010E94DB120E94FD0F83E00E94AB
S11303F01C1340E060E080E00E94671341E062E08B
S113040082E00E94671366E083E00E943D0F0E9431
S1130410310F41E061E083E00E94671340E060E057
S113042083E00E9467130E94DA140E949C1563E023
S113043083E00E94B71260E081E00E94B71262E09C
S113044080E00E94B71263E080E00E94B71262E08D
S113045083E00E94B71265E083E00E94B7120E9415
S11304604A1689E490E00E946A160E945C16089578
S1130470CF92DF92EF92FF920F931F93CF93009747
S113048009F464C06115710509F460C08B017C0135
S11304908DEF90E00E943A0F8DE00E94340FC0E08F
S11304A00BC06701CC0ED11CC6010E94370FF601A8
S11304B08081833219F0CF5FC83098F3F701EC0FD5
S11304C0F11D108285EF90E00E943A0F8DE00E94AA
S11304D0340FC0E007C0F701EC0FF11D80810E94CA
S11304E0340FCF5FC830B8F38DE00E94340F88E03A
S11304F091E00E943A0F8DE00E94340FC0E00BC0DF
S11305007801EC0EF11CC7010E94370FF7018081BE
S1130510833219F0CF5FC93098F3F801EC0FF11D65
S1130520108282E191E00E943A0F8DE00E94340F24
S1130530C0E007C0F801EC0FF11D80810E94340F68
S1130540CF5FC830B8F38DE00E94340FCF911F9174
S11305500F91FF90EF90DF90CF900895EF92FF926C
S11305600F931F93CF93DF93CDB7DEB7E0970FB60A
S1130570F894DEBF0FBECDBF83E991E00E943A0F2D
S113058086EC91E00E943A0FBE01675F7F4FCE0177
S113059001960E94380210E051C0153009F44DC094
S11305A0012F0295007FE02EF12CAE014F5D5F4FCD
S11305B068E070E0C7010E94BD0FAE01475D5F4F68
S11305C068E070E0C70108960E94BD0F40E020E09B
S11305D014C0822F90E0E1E0F0E0EC0FFD1FE80F83
S11305E0F91F3081E1E2F0E0EC0FFD1FE80FF91F85
S11305F08081381301C04F5F2F5F283050F348309B
S1130600E1F415C0822F90E0E9E0F0E0EC0FFD1F6B
S1130610E80FF91F3081E9E2F0E0EC0FFD1FE80F6D
S1130620F91F8081381301C04F5F2F5F02C020E0A3
S113063040E0283038F3483031F01F5F1B3008F4B5
S1130640ACCF80E001C081E0813021F588EC91E0FD
S11306500E943A0F8DE00E94340FBE01675E7F4F07
S1130660CE0141960E94380210E0BE016F5E7F4FBA
S1130670C8010E946A0FBE01675E7F4FC8010896D9
S11306800E946A0F8BEE91E00E943A0F8DE00E9467
S1130690340F07C08AE092E00E943A0F8DE00E9476
S11306A0340FE0960FB6F894DEBF0FBECDBFDF91D6
S11306B0CF911F910F91FF90EF900895CF93DF9307
S11306C000D0CDB7DEB7853029F46FEF84EB90E02E
S11306D00E944C0FBE016F5F7F4F84EB90E00E943D
S11306E0950F89818F3F29F580E391E00E943A0FAD
S11306F08DE00E94340F66E083E00E94410F0E9467
S11307006B1260E081E00E949C1280E391E00E9401
S1130710E311CE0102960E94370F8A81833221F7BA
S113072066E083E00E94450F60E084EB90E00E9465
S11307304C0F0F900F90DF91CF9108958EE69BE0C0
S11307400E94C6158DE00E94340F86E292E00E945A
S11307503A0F8DE00E94340F83E392E00E943A0F37
S11307608DE00E94340F81E492E00E943A0F8DE004
S11307700E94340F0E94AE1582E894E00E94370F65
S11307800E94BC1580918204833309F456C330F46B
S1130790813359F0823309F43FC00895843309F456
S11307A078C3853309F4C7C3089581E692E00E94B3
S11307B03A0F8DE00E94340F62E774E080E00E94FB
S11307C04C13809172041F928F938EE692E09F9354
S11307D08F9387E994E09F938F930E94001A87E98F
S11307E094E00E943A0F8DE00E94340F8EE792E06D
S11307F00E943A0F8DE00E94340F0E94AE1582E8E9
S113080094E00E94370F0E94BC150F900F900F9038
S11308100F900F900F9008958DE00E94340F8BE895
S113082092E00E943A0F8DE00E94340F8BE992E02F
S11308300E943A0F8DE00E94340F8DE00E94340F25
S11308400E94AE1582E894E00E94370F0E94BC1506
S113085080918204833309F4A0C030F4813369F0B9
S1130860823309F450C00895853309F42AC108F489
S1130870DEC0863309F46FC1089544E754E063E0B1
S113088083E00E946714809174048130E9F488EA5B
S113089092E00E943A0F8DE00E94340F86EB92E0C2
S11308A00E943A0F8DE00E94340F82E894E00E9487
S11308B0370F80918204813309F03FC341E063E044
S11308C083E00E94C8120895811137C387EC92E037
S11308D00E943A0F8DE00E94340F86ED92E00E9450
S11308E03A0F8DE00E94340F82E894E00E94370FA3
S11308F080918204813309F020C341E063E083E006
S11309000E94BB12089544E754E060E081E00E9435
S11309106714809174048130F9F486EE92E00E94A9
S11309203A0F8DE00E94340F86EB92E00E943A0F5A
S11309308DE00E94340F82E894E00E94370F80918A
S11309408204813329F441E060E081E00E94C8120E
S11309508FEF8093820408958111EFC284EF92E0B7
S11309600E943A0F8DE00E94340F86ED92E00E94BF
S11309703A0F8DE00E94340F82E894E00E94370F12
S113098080918204813329F441E060E081E00E9497
S1130990BB128FEF80938204089544E754E062E031
S11309A080E00E946714809174048130F9F483E03C
S11309B093E00E943A0F8DE00E94340F86EB92E0A0
S11309C00E943A0F8DE00E94340F82E894E00E9466
S11309D0370F80918204813329F441E062E080E0A2
S11309E00E94C8128FEF8093820408958111A5C2DA
S11309F081E193E00E943A0F8DE00E94340F86ED6E
S1130A0092E00E943A0F8DE00E94340F82E894E055
S1130A100E94370F80918204813329F441E062E01F
S1130A2080E00E94BB128FEF80938204089544E714
S1130A3054E063E080E00E94671480917404813084
S1130A40F9F480E293E00E943A0F8DE00E94340FA3
S1130A5086EB92E00E943A0F8DE00E94340F82E808
S1130A6094E00E94370F80918204813329F441E09D
S1130A7063E080E00E94C8128FEF8093820408959F
S1130A8081115BC28EE293E00E943A0F8DE00E94D6
S1130A90340F86ED92E00E943A0F8DE00E94340FED
S1130AA082E894E00E94370F80918204813329F414
S1130AB041E063E080E00E94BB128FEF80938204E8
S1130AC0089544E754E062E083E00E946714809153
S1130AD074048130F9F48DE393E00E943A0F8DE0C1
S1130AE00E94340F86EB92E00E943A0F8DE00E9440
S1130AF0340F82E894E00E94370F8091820481339E
S1130B0029F441E062E083E00E94C8128FEF8093F1
S1130B1082040895811111C28BE493E00E943A0F7C
S1130B208DE00E94340F86ED92E00E943A0F8DE032
S1130B300E94340F82E894E00E94370F809182046F
S1130B40813329F441E062E083E00E94BB128FEF1D
S1130B5080938204089580917304882309F4B1C0BA
S1130B608DE00E94340F8AE593E00E943A0F8DE0F5
S1130B700E94340F809173041F928F9388E693E050
S1130B809F938F9383E894E09F938F930E94001A1E
S1130B9083E894E00E943A0F8DE00E94340F88E7C6
S1130BA093E00E943A0F8DE00E94340F82E894E0B3
S1130BB00E94370F809182040F900F900F900F9036
S1130BC00F900F90882309F4B8C1813309F043C012
S1130BD060917304665F6093730470E080E090E05A
S1130BE00E94BF18AB01BC0188EE93E00E9404157B
S1130BF0809173041F928F9388E693E09F938F9361
S1130C0083E894E09F938F930E94001A83E894E012
S1130C100E943A0F8DE00E94340F88E793E00E940F
S1130C203A0F8DE00E94340F809173040F900F905F
S1130C300F900F900F900F90853608F47EC184E6D4
S1130C408093730440E050E068EC72E488EE93E033
S1130C500E9404150895823309F06FC160917304F2
S1130C606A506093730470E080E090E00E94BF18C3
S1130C70AB01BC0188EE93E00E94041580917304DB
S1130C801F928F9388E693E09F938F9383E894E079
S1130C909F938F930E94001A83E894E00E943A0F76
S1130CA08DE00E94340F88E793E00E943A0F8DE0B4
S1130CB00E94340F0F900F900F900F900F900F9091
S1130CC0089581113AC188E893E00E943A0F2FEF0A
S1130CD083ED90E3215080409040E1F700C0000094
S1130CE08DE00E94340F809173041F928F9388E6E5
S1130CF093E09F938F9383E894E09F938F930E9454
S1130D00001A83E894E00E943A0F8DE00E94340FA9
S1130D1088E793E00E943A0F8DE00E94340F82E846
S1130D2094E00E94370F0F900F900F900F900F9048
S1130D300F907EC0813309F043C060917304665FF5
S1130D406093730470E080E090E00E94BF18AB01F0
S1130D50BC0188EE93E00E940415809173041F92F5
S1130D608F9388E693E09F938F9383E894E09F9317
S1130D708F930E94001A83E894E00E943A0F8DE05A
S1130D800E94340F88E793E00E943A0F8DE00E949E
S1130D90340F809173040F900F900F900F900F9069
S1130DA00F90853608F4C9C084E68093730440E04C
S1130DB050E068EC72E488EE93E00E940415089514
S1130DC0823399F5609173046A506093730470E000
S1130DD080E090E00E94BF18AB01BC0188EE93E074
S1130DE00E940415809173041F928F9388E693E008
S1130DF09F938F9383E894E09F938F930E94001AAC
S1130E0083E894E00E943A0F8DE00E94340F88E753
S1130E1093E00E943A0F8DE00E94340F0F900F90E0
S1130E200F900F900F900F900895803309F485C0B0
S1130E308091820481117ECF089562E774E080E09E
S1130E400E944C13809172041F928F938EE692E05D
S1130E509F938F9387E994E09F938F930E94001A46
S1130E6087E994E00E943A0F8DE00E94340F8EE7E8
S1130E7092E00E943A0F8DE00E94340F82E894E0E1
S1130E800E94370F0F900F900F900F900F900F90BC
S1130E90089580917504811127C087E993E00E9429
S1130EA03A0F8DE00E94340F86EA93E00E943A0FD5
S1130EB08DE00E94340F82E894E00E94370F8DE0A9
S1130EC00E94340F809182048133B9F589EB93E059
S1130ED00E943A0F60E070E084EB92E40E94DB121F
S1130EE08AE58093750408958A3539F589EC93E091
S1130EF00E943A0F8DE00E94340F86ED93E00E9429
S1130F003A0F8DE00E94340F82E894E00E94370F7C
S1130F108DE00E94340F80918204813371F48AEE53
S1130F2093E00E943A0F60E070E0CB010E94DB1274
S1130F301092750408950E94AE0208958EE69BE017
S1130F400E94C6158DE00E94340F86E292E00E9452
S1130F503A0F8DE00E94340F83E392E00E943A0F2F
S1130F608DE00E94340F0E94AE1582E894E00E9446
S1130F70370F0E94BC15809182048233E9F18333D8
S1130F8009F44AC3813309F072C381E692E00E94F6
S1130F903A0F8DE00E94340F62E774E080E00E9413
S1130FA04C13809172041F928F938EE692E09F936C
S1130FB08F9387E994E09F938F930E94001A87E9A7
S1130FC094E00E943A0F8DE00E94340F8EE792E085
S1130FD00E943A0F8DE00E94340F0E94AE1582E801
S1130FE094E00E94370F0E94BC150F900F900F9051
S1130FF00F900F900F9008958DE00E94340F8BE8AE
S113100092E00E943A0F8DE00E94340F8BE992E047
S11310100E943A0F8DE00E94340F8DE00E94340F3D
S11310200E94AE1582E894E00E94370F0E94BC151E
S113103080918204833309F4A0C030F4813369F0D1
S1131040823309F450C00895853309F42AC108F4A1
S1131050DEC0863309F46FC1089544E754E063E0C9
S113106083E00E946714809174048130E9F488EA73
S113107092E00E943A0F8DE00E94340F86EB92E0DA
S11310800E943A0F8DE00E94340F82E894E00E949F
S1131090370F80918204813309F0E9C241E063E0B3
S11310A083E00E94C81208958111E1C287EC92E0A6
S11310B00E943A0F8DE00E94340F86ED92E00E9468
S11310C03A0F8DE00E94340F82E894E00E94370FBB
S11310D080918204813309F0CAC241E063E083E075
S11310E00E94BB12089544E754E060E081E00E944E
S11310F06714809174048130F9F486EE92E00E94C2
S11311003A0F8DE00E94340F86EB92E00E943A0F72
S11311108DE00E94340F82E894E00E94370F8091A2
S11311208204813329F441E060E081E00E94C81226
S11311308FEF809382040895811199C284EF92E025
S11311400E943A0F8DE00E94340F86ED92E00E94D7
S11311503A0F8DE00E94340F82E894E00E94370F2A
S113116080918204813329F441E060E081E00E94AF
S1131170BB128FEF80938204089544E754E062E049
S113118080E00E946714809174048130F9F483E054
S113119093E00E943A0F8DE00E94340F86EB92E0B8
S11311A00E943A0F8DE00E94340F82E894E00E947E
S11311B0370F80918204813329F441E062E080E0BA
S11311C00E94C8128FEF80938204089581114FC248
S11311D081E193E00E943A0F8DE00E94340F86ED86
S11311E092E00E943A0F8DE00E94340F82E894E06E
S11311F00E94370F80918204813329F441E062E038
S113120080E00E94BB128FEF80938204089544E72C
S113121054E063E080E00E9467148091740481309C
S1131220F9F480E293E00E943A0F8DE00E94340FBB
S113123086EB92E00E943A0F8DE00E94340F82E820
S113124094E00E94370F80918204813329F441E0B5
S113125063E080E00E94C8128FEF809382040895B7
S1131260811105C28EE293E00E943A0F8DE00E9444
S1131270340F86ED92E00E943A0F8DE00E94340F05
S113128082E894E00E94370F80918204813329F42C
S113129041E063E080E00E94BB128FEF8093820400
S11312A0089544E754E062E083E00E94671480916B
S11312B074048130F9F48DE393E00E943A0F8DE0D9
S11312C00E94340F86EB92E00E943A0F8DE00E9458
S11312D0340F82E894E00E94370F809182048133B6
S11312E029F441E062E083E00E94C8128FEF80930A
S11312F0820408958111BBC18BE493E00E943A0FEC
S11313008DE00E94340F86ED92E00E943A0F8DE04A
S11313100E94340F82E894E00E94370F8091820487
S1131320813329F441E062E083E00E94BB128FEF35
S113133080938204089580917304882309F4B1C0D2
S11313408DE00E94340F8AE593E00E943A0F8DE00D
S11313500E94340F809173041F928F9388E693E068
S11313609F938F9383E894E09F938F930E94001A36
S113137083E894E00E943A0F8DE00E94340F88E7DE
S113138093E00E943A0F8DE00E94340F82E894E0CB
S11313900E94370F809182040F900F900F900F904E
S11313A00F900F90882309F462C1813309F043C080
S11313B060917304665F6093730470E080E090E072
S11313C00E94BF18AB01BC0188EE93E00E94041593
S11313D0809173041F928F9388E693E09F938F9379
S11313E083E894E09F938F930E94001A83E894E02B
S11313F00E943A0F8DE00E94340F88E793E00E9428
S11314003A0F8DE00E94340F809173040F900F9077
S11314100F900F900F900F90853608F428C184E642
S11314208093730440E050E068EC72E488EE93E04B
S11314300E9404150895823309F019C16091730460
S11314406A506093730470E080E090E00E94BF18DB
S1131450AB01BC0188EE93E00E94041580917304F3
S11314601F928F9388E693E09F938F9383E894E091
S11314709F938F930E94001A83E894E00E943A0F8E
S11314808DE00E94340F88E793E00E943A0F8DE0CC
S11314900E94340F0F900F900F900F900F900F90A9
S11314A008958111E4C088E893E00E943A0F2FEF79
S11314B083ED90E3215080409040E1F700C00000AC
S11314C08DE00E94340F809173041F928F9388E6FD
S11314D093E09F938F9383E894E09F938F930E946C
S11314E0001A83E894E00E943A0F8DE00E94340FC2
S11314F088E793E00E943A0F8DE00E94340F82E85F
S113150094E00E94370F0F900F900F900F900F9060
S11315100F907DC0813309F043C060917304665F0E
S11315206093730470E080E090E00E94BF18AB0108
S1131530BC0188EE93E00E940415809173041F920D
S11315408F9388E693E09F938F9383E894E09F932F
S11315508F930E94001A83E894E00E943A0F8DE072
S11315600E94340F88E793E00E943A0F8DE00E94B6
S1131570340F809173040F900F900F900F900F9081
S11315800F90853608F473C084E68093730440E0BA
S113159050E068EC72E488EE93E00E94041508952C
S11315A0823399F5609173046A506093730470E018
S11315B080E090E00E94BF18AB01BC0188EE93E08C
S11315C00E940415809173041F928F9388E693E020
S11315D09F938F9383E894E09F938F930E94001AC4
S11315E083E894E00E943A0F8DE00E94340F88E76C
S11315F093E00E943A0F8DE00E94340F0F900F90F9
S11316000F900F900F900F900895803381F1809187
S1131610820481117FCF089562E774E080E00E9424
S11316204C13809172041F928F938EE692E09F93E5
S11316308F9387E994E09F938F930E94001A87E920
S113164094E00E943A0F8DE00E94340F8EE792E0FE
S11316500E943A0F8DE00E94340F82E894E00E94C9
S1131660370F0F900F900F900F900F900F900895D9
S11316708AEF93E00E94F91180EC0E9415118BE02F
S113168094E00E94F9112FEF83ED90E32150804004
S11316909040E1F700C00000089562E774E080E044
S11316A00E944C13809172041F928F938EE692E0F5
S11316B09F938F9387E994E09F938F930E94001ADE
S11316C087E994E00E943A0F8DE00E94340F0F9056
S11316D00F900F900F900F900F9008958DE00E943F
S11316E0340F0E944D0B89E194E00E943A0F8DE083
S11316F00E94340F82E894E00E94370F80918204A4
S1131700803311F40E94CD15089562E774E080E0FF
S11317100E944C136BE081E00E949C126091720461
S113172070E080E090E00E94181208950E946B120D
S113173080E80E94151186E294E00E94E3110E9461
S1131740850B80EC0E94151189E194E00E94E3115D
S113175006C081E690E00E9431100E94850B8091C2
S113176061008F3FB1F3803311F40E946B120E9429
S1131770CD150E946B1208958FEF809364008093BF
S11317806300809362008093610008950E94BC0B03
S113179086E99BE00E94C6150E94AE150E946B125A
S11317A086E292E00E94E31180EC0E94151183E32B
S11317B092E00E94E3110E94BC0B0CC08091610076
S11317C0803321F48FEF8093610008C084E690E0B9
S11317D00E943110809164008F3F81F30E94BC15F8
S11317E080916400823309F445C0833309F406C34D
S11317F0813309F035C30E946B1285E394E00E94A3
S1131800F91180EC0E94151162E774E080E00E94F7
S11318104C1386E494E00E94F9116CE082E00E948B
S11318209C126091720470E080E090E00E941812B3
S11318301CC080E690E00E94311062E774E080E012
S11318400E944C136CE082E00E949C12609172042E
S113185070E080E090E00E94181280916000803374
S113186021F48FEF809360000895809160008F3F92
S113187001F308950E946B128BE892E00E94F91123
S113188080EC0E9415118BE992E00E94F91186E91F
S11318909BE00E94C6150E94AE150CC083E690E042
S11318A00E94311080916100803321F48FEF809386
S11318B0610004C0809163008F3F81F30E94BC15D6
S11318C080916300833309F4A6C030F4813369F056
S11318D0823309F454C00895853309F434C108F4FB
S11318E0E6C0863309F47BC1089544E754E063E01D
S11318F083E00E9467140E946B128091740481300B
S1131900F1F488EA92E00E94F91180EC0E9415112A
S113191086EB92E00E94F91104C082E690E00E94F6
S11319203110809162008F3FC1F3813329F441E08B
S113193063E083E00E94C8120E94BC0B08958111E9
S11319408FC287EC92E00E94F91180EC0E9415117D
S113195086ED92E00E94F91104C082E690E00E94B4
S11319603110809162008F3FC1F3813329F441E04B
S113197063E083E00E94BB120E94BC0B089544E71D
S113198054E064E083E00E9467140E946B1280912B
S113199074048130F9F486EE92E00E94F91180EC2F
S11319A00E94151186EB92E00E94F91104C082E6B0
S11319B090E00E943110809162008F3FC1F3813327
S11319C029F441E064E083E00E94C8128FEF809321
S11319D062000895811144C284EF92E00E94F911DB
S11319E080EC0E94151186ED92E00E94F91104C06A
S11319F082E690E00E943110809162008F3FC1F333
S1131A00813329F441E064E083E00E94BB128FEF4C
S1131A1080936200089544E754E062E080E00E940D
S1131A2067140E946B12809174048130F9F483E08E
S1131A3093E00E94F91180EC0E94151186EB92E06C
S1131A400E94F91104C082E690E00E943110809156
S1131A5062008F3FC1F3813329F441E062E080E00A
S1131A600E94C8128FEF8093620008958111F8C11B
S1131A7081E193E00E94F91180EC0E94151186ED3A
S1131A8092E00E94F91104C082E690E00E943110B5
S1131A90809162008F3FC1F3813329F441E062E019
S1131AA080E00E94BB128FEF80936200089544E7A8
S1131AB054E063E080E00E9467140E946B128091FE
S1131AC074048130F9F480E293E00E94F91180EC0F
S1131AD00E94151186EB92E00E94F91104C082E67F
S1131AE090E00E943110809162008F3FC1F38133F6
S1131AF029F441E063E080E00E94C8128FEF8093F4
S1131B00620008958111ACC18EE293E00E94F91144
S1131B1080EC0E94151186ED92E00E94F91104C038
S1131B2082E690E00E943110809162008F3FC1F301
S1131B30813329F441E063E080E00E94BB128FEF1F
S1131B4080936200089544E754E062E083E00E94D9
S1131B5067140E946B12809174048130F9F48DE350
S1131B6093E00E94F91180EC0E94151186EB92E03B
S1131B700E94F91104C082E690E00E943110809125
S1131B8062008F3FC1F3813329F441E062E083E0D6
S1131B900E94C8128FEF809362000895811160C182
S1131BA08BE493E00E94F91180EC0E94151186EDFC
S1131BB092E00E94F91104C082E690E00E94311084
S1131BC0809162008F3FC1F3813329F441E062E0E8
S1131BD083E00E94BB128FEF8093620008950E94FD
S1131BE06B1280917304882309F482C08AE593E020
S1131BF00E94F9112FEF83ED90E321508040904033
S1131C00E1F700C000000E946B1284E594E00E949A
S1131C10E3116DE081E00E949C126091730470E016
S1131C2080E090E00E94181280EC0E94151188E771
S1131C3093E00E94F91156C082E690E00E943110B0
S1131C4080916200813359F560917304665F6093FB
S1131C50730470E080E090E00E94BF18AB01BC0107
S1131C6088EE93E00E9404156DE081E00E949C12CE
S1131C706091730470E080E090E00E9418128091FB
S1131C807304853678F184E68093730440E050E071
S1131C9068EC72E488EE93E00E94041523C082335A
S1131CA0E1F4609173046A506093730470E080E01F
S1131CB090E00E94BF18AB01BC0188EE93E00E9443
S1131CC004156DE081E00E949C126091730470E041
S1131CD080E090E00E94181205C0803319F40E943D
S1131CE06B120895809162008F3F09F4A5CF089587
S1131CF0809174048111B4C088E893E00E94F911C2
S1131D002FEF83ED90E3215080409040E1F700C035
S1131D1000000E946B1284E594E00E94E3116DE0E0
S1131D2081E00E949C126091730470E080E090E076
S1131D300E94181280EC0E94151188E793E00E941B
S1131D40F91156C082E690E00E9431108091620041
S1131D50813359F560917304665F6093730470E096
S1131D6080E090E00E94BF18AB01BC0188EE93E0D4
S1131D700E9404156DE081E00E949C12609173043E
S1131D8070E080E090E00E94181280917304853620
S1131D9078F184E68093730440E050E068EC72E4E8
S1131DA088EE93E00E94041523C08233E1F460912D
S1131DB073046A506093730470E080E090E00E94C2
S1131DC0BF18AB01BC0188EE93E00E9404156DE0DE
S1131DD081E00E949C126091730470E080E090E0C6
S1131DE00E94181205C0803319F40E946B120895E2
S1131DF0809162008F3F09F4A5CF08950E946B1271
S1131E0062E774E080E00E944C1380E80E941511A0
S1131E1086E494E00E94E3116BE081E00E949C124E
S1131E206091720470E080E090E00E94181283E6F2
S1131E300E94AD1180EC0E9415118EE792E00E9481
S1131E40F91106C081E690E00E9431100E94850BD2
S1131E50809161008F3FB1F3803311F40E946B12C3
S1131E6008950E94791708950E948A1708950E9480
S1131E708E1708950E949617089541E00E946713F3
S1131E80089541E00E94E713089540E00E94E7139B
S1131E9008950E94EE1608951F93CF93DF93D82FD1
S1131EA0C62F192F10650E94FA16812F0E941D1744
S1131EB08D2F0E9447178C2F0E9447170E941617D8
S1131EC08FE19EE40197F1F700C00000DF91CF910C
S1131ED01F9108950F931F93CF93DF93611571059D
S1131EE0F9F08B01D82FC92FC0650E94FA168C2FE8
S1131EF00E941D178D2F0E944717C0E007C0F801EC
S1131F00EC0FF11D80810E944717CF5FC830B8F3F2
S1131F100E9416178FE19EE40197F1F700C00000BC
S1131F20DF91CF911F910F9108950F931F93CF933A
S1131F30DF9361157105E1F08B01D82FC92FC065BE
S1131F400E94FA168C2F0E941D178D2F0E9447178E
S1131F500E9408178C2F0E943217C8010E9469172B
S1131F600E9416178FE19EE40197F1F700C000006C
S1131F70DF91CF911F910F910895EF92FF920F93EC
S1131F801F93CF93DF934115510581F1611522E031
S1131F90720760F58A017B01D82FC92FC0650E94A2
S1131FA0FA168C2F0E941D178D2F0E9447170E942E
S1131FB008178C2F0E943217C0E0D0E006C0C80179
S1131FC08C0F9D1F0E9453172196C7010197C817B4
S1131FD0D907A8F3800F911F0E9469170E94161752
S1131FE08FE19EE40197F1F700C00000DF91CF91EB
S1131FF01F910F91FF90EF90089541E064E081E01C
S11320000E94671341E065E081E00E94671341E0AC
S113201066E081E00E94671340E063E082E00E9492
S1132020671340E064E082E00E94671340E065E0EB
S113203082E00E94671340E066E082E00E9467133A
S113204063E082E00E94A21464E082E00E94A21491
S113205065E082E00E94A21466E082E00E94A2147D
S113206008956F927F928F929F92AF92BF92CF9278
S1132070DF92EF92FF920F931F93CF93DF93CDB72D
S1132080DEB76B970FB6F894DEBF0FBECDBF0097D7
S113209009F47EC05C0181E0888F898F8A8F34E0E7
S11320A03D8B25E02E8B96E09F8B82E0898B8A8B7B
S11320B08B8B8C8B83E08D873E872F87988B8CE06E
S11320C0E7E6F0E0DE01119601900D928A95E1F7C2
S11320D08FEFF5018083812C57C0C82CD12CE5E10A
S11320E0F0E0EC0FFD1FEC0DFD1D6080E8E1F0E079
S11320F0EC0FFD1FEC0DFD1D708040E0662D872D5B
S11321000E94E71310E038C0E12EF12CEDE0F0E07E
S1132110EC0FFD1FEE0DFF1D0081E1E1F0E0EC0F7F
S1132120FD1FEE0DFF1D9080AE01455E5F4F602FD9
S1132130892D0E9467148B8D81111DC007C0AE01CB
S1132140455E5F4F602F892D0E9467148B8D882315
S1132150B1F3C701880F991FE80EF91E81E090E0E2
S11321608C0F9D1FE80EF91EF701EC0DFD1D8081FB
S1132170F50180830DC01F5F143030F241E0662DFD
S1132180872D0E94E7138394F2E0F81508F0A5CF99
S11321906B960FB6F894DEBF0FBECDBFDF91CF9123
S11321A01F910F91FF90EF90DF90CF90BF90AF9071
S11321B09F908F907F906F900895CF93C82F80FF4A
S11321C006C041E064E080E00E94E71305C040E0FF
S11321D064E080E00E94E713C1FF06C041E065E0CF
S11321E080E00E94E71305C040E065E080E00E94C3
S11321F0E713C2FF06C041E066E080E00E94E713F7
S113220005C040E066E080E00E94E713C3FF06C01B
S113221041E067E080E00E94E71305C040E067E02A
S113222080E00E94E713CF910895CF93C82F40E038
S113223061E081E00E94E71340E062E081E00E94F7
S1132240E7138C2F82958F700E94DD1041E063E0CC
S113225081E00E94E7138FE99FE00197F1F700C046
S1132260000040E063E081E00E94E7138C2F0E94AD
S1132270DD1041E063E081E00E94E7138FE99FE015
S11322800197F1F700C0000040E063E081E00E94A4
S1132290E713CF91089541E061E081E00E94671364
S11322A041E062E081E00E94671341E063E081E085
S11322B00E94671341E064E080E00E94671341E0FC
S11322C065E080E00E94671341E066E080E00E94E0
S11322D0671341E067E080E00E9467132FE785EB16
S11322E091E0215080409040E1F700C0000040E0C0
S11322F061E081E00E94E71340E062E081E00E9437
S1132300E71382E00E94DD1041E063E081E00E9477
S1132310E7138FE99FE00197F1F700C0000040E068
S113232063E081E00E94E71388E20E94151190EFB8
S11323309A95F1F78CE00E94151120EF2A95F1F798
S113234081E00E9415118FE39FE10197F1F700C02E
S1132350000086E00E9415110895CF93C82F41E034
S113236061E081E00E94E71340E062E081E00E94C6
S1132370E7138C2F82958F700E94DD1041E063E09B
S113238081E00E94E7138FE99FE00197F1F700C015
S1132390000040E063E081E00E94E7138C2F0E947C
S11323A0DD1041E063E081E00E94E7138FE99FE0E4
S11323B00197F1F700C0000040E063E081E00E9473
S11323C0E713CF9108950F931F93CF93009729F4A8
S11323D00CC00E94AD11CF5F02C08C01C0E0F801B7
S11323E0EC0FF11D80818111F4CFCF911F910F91DA
S11323F008950F931F93CF93009771F415C00E9413
S1132400AD11CF5F2FEF80E792E0215080409040E4
S1132410E1F700C0000002C08C01C0E0F801EC0F3D
S1132420F11D80818111EBCFCF911F910F91089500
S11324300F931F93CF93DF9300D000D01F92CDB79B
S1132440DEB7262F10E008C01F5FEDEC6E9F612DF4
S113245011246695669566956111F6CF00E01AC061
S1132460622F2AE030E040E050E00E94DE19732F32
S1132470842F952FA02FB0E01196E12FF0E0EA1BF6
S1132480FB0B41E050E04C0F5D1FE40FF51F605D56
S113249060830F5F011720F3E1E0F0E0EC0FFD1F14
S11324A0E10FF11D108210E003C00E94AD111F5F07
S11324B0E1E0F0E0EC0FFD1FE10FF11D80818111DF
S11324C0F4CF0F900F900F900F900F90DF91CF915A
S11324D01F910F91089540E061E081E00E94E713AD
S11324E040E062E081E00E94E71380E00E94DD109A
S11324F041E063E081E00E94E7138FE99FE00197E8
S1132500F1F700C0000040E063E081E00E94E713BF
S113251081E00E94DD1041E063E081E00E94E71366
S11325208FE99FE00197F1F700C0000040E063E00D
S113253081E00E94E7130895CF93DF936832A0F4FB
S1132540C62FD82F82E00E941511D13019F0D23055
S113255031F00AC08C2F80680E94151105C080E4F8
S11325608C0F80680E941511DF91CF91089541E08E
S11325700E9467130895413019F0423029F00895FC
S113258041E00E94E713089540E00E94E713089594
S1132590413019F0423029F0089540E00E94E713D9
S11325A0089541E00E94E713089541E00E946713F3
S11325B00E94DE14089520E030E040E250E40E94DE
S11325C0711920E030EC48E254E40E94AD1720E099
S11325D030E044EB52E40E941E18AB01BC0182E3DC
S11325E090E00E94501508950E946000809165005B
S11325F00E945E030E94E3010E94380B80916600F2
S1132600813089F480916500833019F40E949E031F
S1132610F3CF843019F40E949E07EECF823061F725
S11326200E94C60BE9CF8111E7CF83E694E00E94B4
S1132630E31180E090E00895823059F0833081F016
S11326408130A1F487B1806487B987B18F7787B966
S11326500DC087B18F7B87B987B18F7787B906C0E3
S113266087B1806487B987B1806887B987B18F7D66
S113267087B986B18F7D86B986B1877F86B986B1E1
S1132680846086B986B1826086B986B1816086B974
S113269086B1806886B9089561157105B9F097B15E
S11326A0907E97B997B1892B87B986B1806486B932
S11326B0349BFECF84B195B1969587959695879571
S11326C0FB019183808386B1806186B9089584304B
S11326D008F07CC0683008F079C0423008F076C059
S11326E0813019F130F08230E1F1833009F454C0C3
S11326F00895442371F0413009F068C02AB381E0A1
S113270090E002C0880F991F6A95E2F7822B8ABB7A
S113271008952AB381E090E002C0880F991F6A955A
S1132720E2F7809582238ABB0895442371F04130F7
S113273009F04CC027B381E090E002C0880F991FD4
S11327406A95E2F7822B87BB089527B381E090E076
S113275002C0880F991F6A95E2F78095822387BB90
S11327600895442369F0413089F524B381E090E071
S113277002C0880F991F6A95E2F7822B84BB0895E3
S113278024B381E090E002C0880F991F6A95E2F7B4
S11327908095822384BB0895442369F04130B1F4C9
S11327A021B381E090E002C0880F991F6A95E2F797
S11327B0822B81BB089521B381E090E002C0880F91
S11327C0991F6A95E2F78095822381BB089584302E
S11327D008F07CC0683008F079C0423008F076C058
S11327E0813019F130F08230E1F1833009F454C0C2
S11327F00895442371F0413009F068C02BB381E09F
S113280090E002C0880F991F6A95E2F7822B8BBB78
S113281008952BB381E090E002C0880F991F6A9558
S1132820E2F7809582238BBB0895442371F04130F5
S113283009F04CC028B381E090E002C0880F991FD2
S11328406A95E2F7822B88BB089528B381E090E073
S113285002C0880F991F6A95E2F78095822388BB8E
S11328600895442369F0413089F525B381E090E06F
S113287002C0880F991F6A95E2F7822B85BB0895E1
S113288025B381E090E002C0880F991F6A95E2F7B2
S11328908095822385BB0895442369F04130B1F4C7
S11328A022B381E090E002C0880F991F6A95E2F795
S11328B0822B82BB089522B381E090E002C0880F8E
S11328C0991F6A95E2F78095822382BB089584302C
S11328D0C0F56830B0F54115510599F1813089F0A2
S11328E028F08230C9F0833011F1089589B390E063
S11328F002C0959587956A95E2F78170FA01808305
S1132900089586B390E002C0959587956A95E2F79D
S11329108170FA018083089583B390E002C0959595
S113292087956A95E2F78170FA018083089580B3F0
S113293090E002C0959587956A95E2F78170FA0157
S1132940808308958430A8F5683098F5813089F043
S113295028F08230C9F0833011F108952BB381E05F
S113296090E002C0880F991F6A95E2F7822B8BBB17
S1132970089528B381E090E002C0880F991F6A95FA
S1132980E2F7822B88BB089525B381E090E002C072
S1132990880F991F6A95E2F7822B85BB089522B3AD
S11329A081E090E002C0880F991F6A95E2F7822BBC
S11329B082BB08958FB780688FBF08958EB58061FC
S11329C08EBD8EB588608EBD8FB582608FBD8FB58C
S11329D08E7F8FBD8FB580688FBD8FB58F7B8FBD88
S11329E008958EB580618EBD8EB588608EBD8FB51D
S11329F082608FBD8FB58E7F8FBD8FB580628FBD96
S1132A008FB58F7E8FBD0895CF92DF92EF92FF92A4
S1132A10CF93DF93EC016A017B0120E030E048ECC6
S1132A2052E4C701B6010E941918181694F19E01C8
S1132A3040E050E060E970ED83E090E00E94DE1930
S1132A402150310937BD26BD66B577B56F5F7F4F1D
S1132A5080E090E00E94BF18A70196010E947119BE
S1132A6020E030E048EC52E40E941E1820E030E000
S1132A7040E85FE30E94AC170E9490187BBD6ABDDA
S1132A808EB581608EBD8EB582608EBD8EB58B7F16
S1132A908EBDDF91CF91FF90EF90DF90CF9008959E
S1132AA0CF92DF92EF92FF92CF93DF93EC016A0112
S1132AB07B0120E030E048EC52E4C701B6010E94FB
S1132AC01918181694F19E0140E050E060E970ED89
S1132AD083E090E00E94DE192150310937BD26BD04
S1132AE066B577B56F5F7F4F80E090E00E94BF18B6
S1132AF0A70196010E94711920E030E048EC52E4ED
S1132B000E941E1820E030E040E85FE30E94AC170A
S1132B100E94901879BD68BD8EB581608EBD8EB55A
S1132B2082608EBD8EB58B7F8EBDDF91CF91FF907D
S1132B30EF90DF90CF90089583B78F7B83BF83B7E7
S1132B40886083BF83B78F7E83BF83B78F7D83BF46
S1132B5089B7826089BF89EF8CBF089583B781608C
S1132B6083BF83B7826083BF83B78B7F83BF109299
S1132B70770410927604089583B78E7F83BF83B75A
S1132B808D7F83BF83B78B7F83BF0895009721F028
S1132B909093790480937804089588B7826088BFFD
S1132BA088B7816088BF08951F920F920FB60F9265
S1132BB011242F933F934F935F936F937F938F933E
S1132BC09F93AF93BF93EF93FF938091760490917B
S1132BD0770401969093770480937604883E93401B
S1132BE069F481E782BF1092770410927604E09131
S1132BF07A04F0917B04309709F00995FF91EF91E5
S1132C00BF91AF919F918F917F916F915F914F9100
S1132C103F912F910F900FBE0F901F9018951F9208
S1132C200F920FB60F9211242F933F934F935F93FC
S1132C306F937F938F939F93AF93BF93EF93FF9380
S1132C408091760490917704019690937704809311
S1132C5076048838934169F41092770410927604CC
S1132C60E0917804F0917904309719F009950E9465
S1132C70CD15FF91EF91BF91AF919F918F917F916E
S1132C806F915F914F913F912F910F900FBE0F90D5
S1132C901F90189585B58F7B85BD85B5886085BDEA
S1132CA085B58F7E85BD85B58F7D85BD89B78068E7
S1132CB089BF89EF83BD089585B5816085BD85B5DC
S1132CC0826085BD85B58B7F85BD10927D04109291
S1132CD07C040895009721F090937F0480937E04F0
S1132CE0089588B7806888BF88B7806488BF0895CE
S1132CF01F920F920FB60F9211242F933F934F936D
S1132D005F936F937F938F939F93AF93BF93EF934F
S1132D10FF9380917C0490917D04019690937D04AF
S1132D2080937C04883E934069F481E784BD1092CB
S1132D307D0410927C04E0918004F091810430972A
S1132D4009F00995FF91EF91BF91AF919F918F91F8
S1132D507F916F915F914F913F912F910F900FBE93
S1132D600F901F9018951F920F920FB60F92112477
S1132D702F933F934F935F936F937F938F939F937F
S1132D80AF93BF93EF93FF9380917C0490917D0464
S1132D90019690937D0480937C048838934169F470
S1132DA010927D0410927C04E0917E04F0917F04E3
S1132DB0309719F009950E947116FF91EF91BF9118
S1132DC0AF919F918F917F916F915F914F913F91BF
S1132DD02F910F900FBE0F901F9018958CE080B923
S1132DE081B18D7F81B981B18E7F81B986B78460CD
S1132DF086BF089586B7806286BF86B7806886BF1F
S1132E0006B607FEFDCF81B1887F8830E1F70895CB
S1132E1086B7806286BF86B7806886BF06B607FE1F
S1132E20FDCF81B1887F8031E1F7089586B7806155
S1132E3086BF86B7806886BF0895882394F0880F7C
S1132E4083B983B18E7F83B986B78F7D86BF86B7FA
S1132E50806886BF06B607FEFDCF81B1887F8831C2
S1132E60E1F70895882394F0880F83B983B18160D2
S1132E7083B986B78F7D86BF86B7806886BF06B65E
S1132E8007FEFDCF81B1887F8034E1F7089583B9CF
S1132E9086B7806886BF06B607FEFDCF81B1887FFE
S1132EA08832E1F70895FC01892B91F096B790647C
S1132EB096BF96B7906896BF06B607FEFDCF91B150
S1132EC0987F9035E1F783B1808386B78F7B86BF87
S1132ED00895FC01892B61F096B7906896BF06B6F9
S1132EE007FEFDCF91B1987F9835E1F783B18083D8
S1132EF008958BB18D7F8BB987E689B98AB18B7FB1
S1132F008AB986E880BD8AB180618AB98AB188604D
S1132F108AB908958CB95D9BFECF0895009729F076
S1132F205F9BFECF2CB1FC01208308950F931F9368
S1132F30CF93009729F40CC00E948A17CF5F02C078
S1132F408C01C0E0F801EC0FF11D80818111F4CFF8
S1132F50CF911F910F9108955058BB27AA270E9423
S1132F60C4170C9437190E94291938F00E9430199B
S1132F7020F039F49F3F19F426F40C9426190EF42A
S1132F80E095E7FB0C942019E92F0E94481958F3A7
S1132F90BA17620773078407950720F079F4A6F53A
S1132FA00C946A190EF4E0950B2EBA2FA02D0B0188
S1132FB0B90190010C01CA01A0011124FF27591B7A
S1132FC099F0593F50F4503E68F11A16F040A22F80
S1132FD0232F342F4427585FF3CF469537952795F1
S1132FE0A795F0405395C9F77EF41F16BA0B620BF0
S1132FF0730B840BBAF09150A1F0FF0FBB1F661F37
S1133000771F881FC2F70EC0BA0F621F731F841F79
S113301048F4879577956795B795F7959E3F08F09F
S1133020B0CF9395880F08F09927EE0F9795879561
S113303008950E94FC1808F481E008950E94321853
S11330400C9437190E94301958F00E94291940F045
S113305029F45F3F29F00C94201951110C946B1939
S11330600C9426190E94481968F39923B1F3552347
S113307091F3951B550BBB27AA2762177307840787
S113308038F09F5F5F4F220F331F441FAA1FA9F31D
S113309035D00E2E3AF0E0E832D091505040E6950B
S11330A0001CCAF72BD0FE2F29D0660F771F881F6C
S11330B0BB1F261737074807AB07B0E809F0BB0B5F
S11330C0802DBF01FF2793585F4F3AF09E3F510573
S11330D078F00C9420190C946B195F3FE4F3983E3C
S11330E0D4F3869577956795B795F7959F5FC9F75C
S11330F0880F911D9695879597F90895E1E0660FDD
S1133100771F881FBB1F621773078407BA0720F055
S1133110621B730B840BBA0BEE1F88F7E0950895BE
S11331200E94501988F09F5798F0B92F9927B751EA
S1133130B0F0E1F0660F771F881F991F1AF0BA9557
S1133140C9F714C0B13091F00E946A19B1E0089532
S11331500C946A19672F782F8827B85F39F0B93F24
S1133160CCF3869577956795B395D9F73EF490950A
S11331708095709561957F4F8F4F9F4F0895E89488
S113318009C097FB3EF490958095709561957F4FAB
S11331908F4F9F4F9923A9F0F92F96E9BB27939559
S11331A0F695879577956795B795F111F8CFFAF469
S11331B0BB0F11F460FF1BC06F5F7F4F8F4F9F4F9A
S11331C016C0882311F096E911C0772321F09EE8F8
S11331D0872F762F05C0662371F096E8862F70E05E
S11331E060E02AF09A95660F771F881FDAF7880F38
S11331F09695879597F90895990F0008550FAA0B8E
S1133200E0E8FEEF16161706E807F907C0F01216F5
S11332101306E407F50798F0621B730B840B950BF8
S113322039F40A2661F0232B242B252B21F408954D
S11332300A2609F4A140A6958FEF811D811D0895EA
S113324097F99F6780E870E060E008959FEF80EC55
S1133250089500240A9416161706180609060895F8
S113326000240A9412161306140605060895092E5E
S11332700394000C11F4882352F0BB0F40F4BF2BCD
S113328011F460FF04C06F5F7F4F8F4F9F4F08950D
S113329057FD9058440F551F59F05F3F71F0479503
S11332A0880F97FB991F61F09F3F79F087950895E8
S11332B0121613061406551FF2CF4695F1DF08C007
S11332C0161617061806991FF1CF86957105610524
S11332D008940895E894BB2766277727CB0197F9CC
S11332E008950E9484190C9437190E94291938F002
S11332F00E94301920F0952311F00C9420190C949D
S1133300261911240C946B190E94481970F3959F87
S1133310C1F3950F50E0551F629FF001729FBB27C8
S1133320F00DB11D639FAA27F00DB11DAA1F649F64
S11333306627B00DA11D661F829F2227B00DA11D17
S1133340621F739FB00DA11D621F839FA00D611D9D
S1133350221F749F3327A00D611D231F849F600DBE
S1133360211D822F762F6A2F11249F5750409AF0E7
S1133370F1F088234AF0EE0FFF1FBB1F661F771F73
S1133380881F91505040A9F79E3F510580F00C943E
S113339020190C946B195F3FE4F3983ED4F386959F
S11333A077956795B795F795E7959F5FC1F7FE2BDE
S11333B0880F911D9695879597F90895A1E21A2E85
S11333C0AA1BBB1BFD010DC0AA1FBB1FEE1FFF1FC5
S11333D0A217B307E407F50720F0A21BB30BE40B15
S11333E0F50B661F771F881F991F1A9469F760955C
S11333F07095809590959B01AC01BD01CF01089516
S1133400AEE0B0E0E6E0FAE10C94C11C0D891E893F
S113341086E08C831A8309838FEF9FE79E838D83D5
S1133420AE01475E5F4F6F89788DCE0101960E9491
S1133430221AEF81F885E00FF11F10822E96E4E046
S11334400C94DD1CABE0B0E0E8E2FAE10C94B31CB0
S11334506C017B018A01FC0117821682838181FF42
S1133460CCC1CE0101963C01F6019381F70193FD95
S1133470859193FF81917F01882309F4BAC1853234
S113348039F493FD859193FF81917F01853229F46D
S1133490B60190E00E94191CE7CF912C212C312C0D
S11334A0FFE1F315D8F08B3279F038F4803279F0FB
S11334B08332A1F4232D20611DC08D3261F080334D
S11334C069F4232D216016C0832D8260382EE32DEC
S11334D0E4603E2E2AC0F32DF8601DC037FC2DC0D9
S11334E020ED280F2A3040F08E32B9F436FC81C129
S11334F0232D2064322E19C036FE06C08AE0989E21
S1133500200D1124922E11C0EAE02E9E200D1124CC
S1133510222EF32DF0623F2E08C08C3621F4832D29
S11335208068382E02C0883641F4F70193FD8591F6
S113353093FF81917F018111B3CF982F9F7D955483
S1133540933028F40C5F1F4F9FE399830DC083369B
S113355031F0833771F0833509F059C021C0F80187
S1133560808189830E5F1F4F88248394912C53019B
S113357013C02801F2E04F0E511CF801A080B18065
S113358036FE03C0692D70E002C06FEF7FEFC50106
S11335900E940E1C4C018201F32DFF773F2E16C0B2
S11335A0280122E0420E511CF801A080B18036FEB1
S11335B003C0692D70E002C06FEF7FEFC5010E9468
S11335C0031C4C01F32DF0683F2E820133FC1BC019
S11335D0822D90E088169906B0F4B60180E290E05E
S11335E00E94191C2A94F4CFF50137FC859137FE0B
S11335F081915F01B60190E00E94191C21102A9468
S113360021E0821A91088114910471F7E8C084368C
S113361011F0893641F5F80137FE07C060817181E8
S1133620828193810C5F1F4F08C060817181072ED6
S1133630000C880B990B0E5F1F4FF32DFF763F2E66
S113364097FF09C090958095709561957F4F8F4F36
S11336509F4FF0683F2E2AE030E0A3010E94551CE2
S1133660882E861845C0853731F4232D2F7EB22E3F
S11336702AE030E025C0932D997FB92E8F36C1F012
S113368018F4883579F0B5C0803719F0883721F0FF
S1133690B0C0E92FE061BE2EB4FE0DC0FB2DF46076
S11336A0BF2E09C034FE0AC0292F2660B22E06C0E0
S11336B028E030E005C020E130E002C020E132E043
S11336C0F801B7FE07C060817181828193810C5F2C
S11336D01F4F06C06081718180E090E00E5F1F4F34
S11336E0A3010E94551C882E8618FB2DFF773F2EC0
S11336F036FE0DC0232D2E7FA22E891458F434FEDD
S11337000BC032FC09C0832D8E7EA82E05C0B82CB8
S1133710A32C03C0B82C01C0B92CA4FE0FC0FE0119
S1133720E80DF11D8081803321F49A2D997EA92E14
S113373009C0A2FE06C0B394B39404C08A2D86784F
S113374009F0B394A3FC11C0A0FE06C0B21488F41F
S1133750280C922C9B180EC0B21460F4B60180E2BF
S113376090E00E94191CB394F7CFB21418F42B18EC
S113377002C0982C212CA4FE10C0B60180E390E076
S11337800E94191CA2FE17C0A1FC03C088E790E0A8
S113379002C088E590E0B6010CC08A2D867859F005
S11337A0A1FE02C08BE201C080E2A7FC8DE2B6015B
S11337B090E00E94191C891438F4B60180E390E06B
S11337C00E94191C9A94F7CF8A94F301E80DF11D15
S11337D08081B60190E00E94191C8110F5CF22204F
S11337E009F442CEB60180E290E00E94191C2A94AA
S11337F0F6CFF6018681978102C08FEF9FEF2B965B
S1133800E2E10C94CF1CFC01059061507040011062
S1133810D8F7809590958E0F9F1F0895FC016150F5
S1133820704001900110D8F7809590958E0F9F1FDE
S113383008950F931F93CF93DF93FB01238121FD01
S113384003C08FEF9FEF2CC022FF16C04681578123
S1133850248135814217530744F4A081B1819D012D
S11338602F5F3F4F318320838C93268137812F5FD5
S11338703F4F3783268314C08B01EC01FB01008486
S1133880F185E02D0995892BE1F6D80116968D91E5
S11338909C911797019617969C938E931697CE0139
S11338A0DF91CF911F910F910895FA01AA27283033
S11338B051F1203181F1E8946F936E7F6E5F7F4FF9
S11338C08F4F9F4FAF4FB1E03ED0B4E03CD0670F75
S11338D0781F891F9A1FA11D680F791F8A1F911DC8
S11338E0A11D6A0F711D811D911DA11D20D009F418
S11338F068943F912AE0269F11243019305D31935A
S1133900DEF6CF010895462F4770405D4193B3E042
S11339100FD0C9F7F6CF462F4F70405D4A3318F0E9
S1133920495D31FD4052419302D0A9F7EACFB4E09A
S1133930A6959795879577956795BA95C9F7009752
S11339406105710508959B01AC010A2E06945795F3
S1133950479537952795BA95C9F7620F731F841F4A
S1133960951FA01D08952F923F924F925F926F92E0
S11339707F928F929F92AF92BF92CF92DF92EF92FB
S1133980FF920F931F93CF93DF93CDB7DEB7CA1B7C
S1133990DB0B0FB6F894DEBF0FBECDBF09942A88A7
S11339A0398848885F846E847D848C849B84AA844F
S11339B0B984C884DF80EE80FD800C811B81AA81DC
S11339C0B981CE0FD11D0FB6F894DEBF0FBECDBFA7
S10B39D0ED010895F894FFCF06
S11339D8FFFFFFFFFF0601313233343536373839FC
S11339E82A302331313132323233003232323333F6
S11339F833340033333334343435003434343535E4
S1133A0835360035353536363637003434333332C7
S1133A1832310031303031303131003230303230EF
S1133A2831320033303033303133003430303430D5
S1133A383134003530303530313500506C656173C0
S1133A486520456E7465722055736572004E616D0C
S1133A58652650617373776F7264005041535357EE
S1133A684F52443A00456E74657265642055736517
S1133A7872204E616D653A0050617373776F72649A
S1133A883A00456E746572656420506173733A0038
S1133A98414343455353205045524D4954454400EE
S1133AA84143434553532044454E494544005772C6
S1133AB86F6E672055736572204E616D6500506C9A
S1133AC8656173652054727920416761696E005796
S1133AD8726F6E672050617373776F726400506CF5
S1133AE86561736520456E7465722055736572202F
S1133AF84E616D6520262050617373776F72642060
S1133B08000A00506C6561736520456E7465722007
S1133B1855736572204E616D65202620506173735C
S1133B28776F726420752077616E7420746F2063D8
S1133B3868616E6765000D00506C656173652045AA
S1133B486E74657220546865206E657720557365B8
S1133B587220416E6420506173730055736572203E
S1133B6844617461204368616E67656420537563BA
S1133B786365737366756C6C790057726F6E672032
S1133B8855736572204E616D65206F722070617384
S1133B9873776F726400312D414320322D6C69674D
S1133BA8687400332D74656D7020342D446F6F7202
S1133BB800352D206368616E676520757365726EC4
S1133BC8616D6520616E642070617373776F7264D0
S1133BD8004143204973204F6E2F6F666600526F71
S1133BE86F6D2054656D703A202564206300302D74
S1133BF8676F20746F20686F6D650043686F6F731B
S1133C0865206C6967687420746F00636F6E7472E2
S1133C186F6C28312D3629004C696768742031206F
S1133C286973204F6E00312D546F205475726E20C5
S1133C384974204F6666004C6967687420312069AE
S1133C4873204F464600312D546F205475726E20F0
S1133C584974204F6E004C69676874203220697378
S1133C68204F6E004C696768742032206973204FB6
S1133C784646004C696768742033206973204F6E88
S1133C88004C696768742033206973204F464600E6
S1133C984C696768742034206973204F6E004C693E
S1133CA86768742034206973204F4646004C69675E
S1133CB868742035206973204F6E004C69676874F6
S1133CC82035206973204F4646004C696768742084
S1133CD836206973204F6E004272696768746E6596
S1133CE873733A202564250031292B313020322979
S1133CF82D313020302948004C69676874203620FB
S1133D086973204F464600446F6F722069732063BD
S1133D186C6F73656400312D4F70656E20446F6F4E
S1133D287220302D486F6D6500446F6F722069737F
S1133D38206F70656E696E6700446F6F72206973D7
S1133D48206F70656E00312D436C6F736520446F6E
S1133D586F7220302D486F6D6500446F6F72206953
S1133D687320636C6F73696E67002057656C636FAB
S1133D786D6520746F20796F757200202020536D53
S1133D8861727420486F6D6500302D476F20746F21
S1133D9820486F6D6500526F6F6D2054656D703AE1
S1133DA820202063004143204973204F6E2F6F6603
S1133DB86620302D4800526F6F6D2054656D703A3F
S1133DC8202063004272696768746E6573733A20D1
S1133DD82025004163636573732044656E696564D7
S1053DE80000D5
S9030000FC
