:100000000C942A000C9447000C9447000C94470071
:100010000C9447000C9447000C9447000C94470044
:100020000C9447000C9447000C949E0B0C94630BAB
:100030000C9447000C9447000C9447000C94470024
:100040000C9447000C9447000C9447000C94470014
:100050000C94470011241FBECFE5D8E0DEBFCDBF12
:1000600012E0A0E6B0E0E6E7F9E102C005900D92EB
:10007000A43AB107D9F722E0A4EAB2E001C01D9288
:10008000AB3AB207E1F70E9452090C94B90C0C94F8
:100090000000CF93DF931F92CDB7DEB719820E9485
:1000A000E80824C081E690E00E94AE06BE016F5FC2
:1000B0007F4F80E00E949D092FEF81EE94E0215058
:1000C00080409040E1F700C00000698170E080E06E
:1000D00090E00E9495082FEF83ED90E3215080403F
:1000E0009040E1F700C000000E94E80880916100A4
:1000F0008F3FC1F2803311F40E94E8080E945C0B2C
:100100000E94E8080F90DF91CF9108950E940C069D
:100110000E94C8070E947A060E94000641E061E042
:1001200083E00E94B40940E060E083E00E94B409EB
:100130000E94270B0E942B0B63E083E00E9434098E
:1001400061E080E00E94340962E080E00E943409AE
:1001500063E080E00E94340962E083E00E94340999
:100160000895CF92DF92EF92FF921F93CF93DF9388
:10017000009709F45FC06115710509F45BC07B014C
:100180006C010E94E80860E081E00E9419098CE897
:1001900090E00E94600860E082E00E9419098EE908
:1001A00090E00E9460082FEF83ED90E321508040A3
:1001B0009040E1F700C000000E94E80860E081E0A4
:1001C0000E94190983EE90E00E94600810E011C0BF
:1001D000E601C10FD11DCE010E94AE0698819F3F5E
:1001E000B9F3612F82E00E94190988810E942A08D0
:1001F0001F5F183068F30E94E80860E081E00E9409
:1002000019098CEA90E00E94600810E011C0E70133
:10021000C10FD11DCE010E94AE0688818F3FB9F378
:10022000612F82E00E94190988810E942A081F5FBD
:10023000183068F3DF91CF911F91FF90EF90DF901E
:10024000CF900895EF92FF920F931F93CF93009753
:1002500009F454C06115710509F450C07B018C018B
:1002600086EB90E00E94090689ED90E00E94090665
:1002700083EE90E00E9409068AE00E940306C0E037
:1002800006C0C8018C0F911D0E940606CF5FC830C2
:10029000C0F38BED90E00E940906C0E007C0F801B2
:1002A000EC0FF11D80810E940306CF5FC830B8F3C8
:1002B0008AE00E9403068EEE90E00E9409068AE022
:1002C0000E940306C0E006C0C7018C0F911D0E946A
:1002D0000606CF5FC830C0F388EF90E00E940906A1
:1002E000C0E007C0F701EC0FF11D80810E940306FA
:1002F000CF5FC830B8F38AE00E940306CF911F9108
:100300000F91FF90EF9008956F927F928F929F923E
:10031000AF92BF92CF92DF92EF92FF920F931F9313
:10032000CF93DF93CDB7DEB7A0970FB6F894DEBFBB
:100330000FBECDBF6115710509F4B0C13B0181301D
:1003400009F0E8C0D8C0A394BE016F5E7F4FCE0114
:1003500049960E94B100B12CC12C00E060C0E02E93
:10036000EE0CEE0CEE0CEE0CF12CAE01475F5F4F85
:1003700068E070E0C7010E943A06AE014F5F5F4F30
:1003800068E070E0C70108960E943A0640E020E06D
:1003900014C0822F90E0E9E1F0E0EC0FFD1FE80FC0
:1003A000F91F3081E9E0F0E0EC0FFD1FE80FF91FC5
:1003B0008081381301C04F5F2F5F283050F34830E1
:1003C00061F515C0822F90E0E1E1F0E0EC0FFD1F38
:1003D000E80FF91F3081E1E0F0E0EC0FFD1FE80FBE
:1003E000F91F8081381301C04F5F2F5F02C040E0CA
:1003F00020E0283038F3483071F40F3031F481E0D8
:10040000F3018083DD24D3940DC082E0F301808367
:10041000DD24D39407C0B39401C0C3940F5F0031AF
:1004200008F49DCFF1E0DF1214C00E94E80860E0FC
:1004300081E00E94190986E091E00E9460082FEF98
:1004400039E688E1215030408040E1F700C00000EB
:1004500058C090E1C91226C00E94E80860E081E01F
:100460000E94190986E191E00E94600860E082E044
:100470000E94190984E291E00E9460081230C9F1DB
:10048000EFEFF3ED20E3E150F0402040E1F700C052
:10049000000060E082E00E94190984E391E00E947C
:1004A000600827C0BB2029F10E94E80860E081E0D5
:1004B0000E94190986E191E00E94600860E082E0F4
:1004C0000E94190985E491E00E946008123089F0C9
:1004D0003FEF83ED90E3315080409040E1F700C062
:1004E000000060E082E00E94190984E391E00E942C
:1004F00060081F5F03C0D12CA12C10E0133008F45A
:1005000022CFE3E0AE12CAC0D110C8C085E0F3012B
:100510008083C4C0823009F0C1C0BBC0F4E52DECBB
:100520003DE283E0F150204030408040D9F700C0E8
:1005300000C00000BE016F5E7F4FCE0149960E9451
:100540002201D12CE12C0FE060C0802E880C880C99
:10055000880C880C912CAE01475F5F4F68E070E01B
:10056000C4010E943A06AE014F5F5F4F68E070E041
:10057000C40108960E943A0640E020E014C0822F91
:1005800090E0E9E1F0E0EC0FFD1FE80FF91F30818A
:10059000E9E0F0E0EC0FFD1FE80FF91F8081381350
:1005A00001C04F5F2F5F283050F3483061F515C010
:1005B000822F90E0E1E1F0E0EC0FFD1FE80FF91F62
:1005C0003081E1E0F0E0EC0FFD1FE80FF91F8081C2
:1005D000381301C04F5F2F5F02C040E020E0283099
:1005E00038F3483071F40F3031F483E0F301808345
:1005F000FF24F3940DC084E0F3018083FF24F3947F
:1006000007C0D39401C0E3940F5F0F3108F49DCF6E
:10061000F1E0FF1208C086E091E00E9409068AE03E
:100620000E9403063BC020E1E21218C086E191E07F
:100630000E9409068AE00E94030684E291E00E947B
:1006400009068AE00E940306123009F184E391E072
:100650000E9409068AE00E94030619C0DD20B9F055
:1006600086E191E00E9409068AE00E94030685E483
:1006700091E00E9409068AE00E940306123039F0D8
:1006800084E391E00E9409068AE00E9403061F5F4E
:1006900002C0F12C10E0133008F440CFA0960FB642
:1006A000F894DEBF0FBECDBFDF91CF911F910F91A8
:1006B000FF90EF90DF90CF90BF90AF909F908F9082
:1006C0007F906F90089584E591E00E94760880EC19
:1006D0000E94920785E691E00E9476082FEF83ED55
:1006E00090E3215080409040E1F700C00000089561
:1006F000CF93DF93CDB7DEB7A1970FB6F894DEBFE7
:100700000FBECDBF0E94860081E00E946D0940E0CF
:1007100060E080E00E94B4090E9463030E94E80840
:1007200088E0E5E6F0E0DE01119601900D928A95F1
:10073000E1F788E0EEE6F0E0DE01199601900D9217
:100740008A95E1F788E0E7E7F0E0DE015196019055
:100750000D928A95E1F788E0E7E7F0E0DE0159962F
:1007600001900D928A95E1F7BE016F5F7F4F80E3A4
:1007700091E00E940F06BE01675F7F4F88E391E022
:100780000E940F06BE016F5E7F4F80EF90E00E94D7
:100790000F06BE01675E7F4F88EF90E00E940F0654
:1007A000BE016F5D7F4F82E00E948401A1960FB66B
:1007B000F894DEBF0FBECDBFDF91CF9108958FEFCC
:1007C00080936400809363008093620008950E9488
:1007D000DF0389E490E00E94550B0E943D0B0E94CC
:1007E000E80883E791E00E94600880EC0E9492078D
:1007F00080E891E00E9460080E94DF030CC08091B5
:100800006100803321F48FEF8093610008C084E69B
:1008100090E00E94AE06809164008F3F81F30E94B9
:100820004B0B80916400813319F0823379F0089585
:100830000E94E8088EE891E00E94760880EC0E9411
:1008400092078BE991E00E94760808950E94E808DB
:100850008AEA91E00E94760880EC0E9492078AEB77
:1008600091E00E94760889E490E00E94550B0E9476
:100870003D0B0CC083E690E00E94AE0680916100C3
:10088000803321F48FEF8093610004C08091630076
:100890008F3F81F30E944B0B80916300833309F4F7
:1008A000A6C030F4813369F0823309F454C0A2C188
:1008B000853309F434C108F4E6C0863309F47BC1FA
:1008C00099C144EA52E060E080E00E94B40A0E94CC
:1008D000E8088091A4028130F1F487EC91E00E9455
:1008E000760880EC0E94920785ED91E00E947608E0
:1008F00004C082E690E00E94AE06809162008F3FC5
:10090000C1F3813329F441E060E080E00E944509B1
:100910000E94DF036FC181116DC186EE91E00E94DC
:10092000760880EC0E94920785EF91E00E9476089D
:1009300004C082E690E00E94AE06809162008F3F84
:10094000C1F3813329F441E060E080E00E9438097E
:100950000E94DF034FC144EA52E061E080E00E9460
:10096000B40A0E94E8088091A4028130F9F485E07D
:1009700092E00E94760880EC0E94920785ED91E05B
:100980000E94760804C082E690E00E94AE06809144
:1009900062008F3FC1F3813329F441E061E080E0E0
:1009A0000E9445098FEF8093620024C1811122C10A
:1009B00083E192E00E94760880EC0E94920785EF26
:1009C00091E00E94760804C082E690E00E94AE06A4
:1009D000809162008F3FC1F3813329F441E061E0EF
:1009E00080E00E9438098FEF8093620003C144EADF
:1009F00052E062E080E00E94B40A0E94E808809120
:100A0000A4028130F9F482E292E00E94760880EC40
:100A10000E94920785ED91E00E94760804C082E66C
:100A200090E00E94AE06809162008F3FC1F3813357
:100A300029F441E062E080E00E9445098FEF809355
:100A40006200D8C08111D6C080E392E00E9476088F
:100A500080EC0E94920785EF91E00E94760804C026
:100A600082E690E00E94AE06809162008F3FC1F363
:100A7000813329F441E062E080E00E9438098FEF81
:100A800080936200B7C044EA52E063E080E00E94D5
:100A9000B40A0E94E8088091A4028130F9F48FE33F
:100AA00092E00E94760880EC0E94920785ED91E02A
:100AB0000E94760804C082E690E00E94AE06809113
:100AC00062008F3FC1F3813329F441E063E080E0AD
:100AD0000E9445098FEF809362008CC081118AC00B
:100AE0008DE492E00E94760880EC0E94920785EFE8
:100AF00091E00E94760804C082E690E00E94AE0673
:100B0000809162008F3FC1F3813329F441E063E0BB
:100B100080E00E9438098FEF809362006BC044EA46
:100B200052E062E083E00E94B40A0E94E8088091EB
:100B3000A4028130F9F48CE592E00E94760880EC02
:100B40000E94920785ED91E00E94760804C082E63B
:100B500090E00E94AE06809162008F3FC1F3813326
:100B600029F441E062E083E00E9445098FEF809321
:100B7000620040C081113EC08AE692E00E94760881
:100B800080EC0E94920785EF91E00E94760804C0F5
:100B900082E690E00E94AE06809162008F3FC1F332
:100BA000813329F441E062E083E00E9438098FEF4D
:100BB000809362001FC00E94E8088091A4028130E7
:100BC00061F489E792E00E94760880EC0E94920727
:100BD00085ED91E00E9476080DC081110BC087E879
:100BE00092E00E94760880EC0E94920785EF91E0E7
:100BF0000E9476088FEF80936300809364000895CD
:100C00000E94640C08950E94750C08950E94790C4E
:100C100008950E94810C08950E94D90B08950F93A6
:100C20001F93CF93DF9361157105F9F08B01D82FD6
:100C3000C92FC0650E94E50B8C2F0E94080C8D2FD8
:100C40000E94320CC0E007C0F801EC0FF11D80815A
:100C50000E94320CCF5FC830B8F30E94010C8FE1C4
:100C60009EE40197F1F700C00000DF91CF911F9142
:100C70000F910895EF92FF920F931F93CF93DF93FD
:100C80004115510581F1611522E0720760F58A0175
:100C90007B01D82FC92FC0650E94E50B8C2F0E94C5
:100CA000080C8D2F0E94320C0E94F30B8C2F0E9497
:100CB0001D0CC0E0D0E006C0C8018C0F9D1F0E9433
:100CC0003E0C2196C7010197C817D907A8F3800FDA
:100CD000911F0E94540C0E94010C8FE19EE4019729
:100CE000F1F700C00000DF91CF911F910F91FF90AD
:100CF000EF90089541E064E081E00E94B40941E092
:100D000065E081E00E94B40941E066E081E00E9474
:100D1000B40940E063E082E00E94B40940E064E08E
:100D200082E00E94B40940E065E082E00E94B409DC
:100D300040E066E082E00E94B40963E082E00E9445
:100D4000EF0A64E082E00E94EF0A65E082E00E9420
:100D5000EF0A66E082E00E94EF0A08956F927F92A8
:100D60008F929F92AF92BF92CF92DF92EF92FF92BB
:100D70000F931F93CF93DF93CDB7DEB76B970FB66B
:100D8000F894DEBF0FBECDBF009709F47EC05C01B2
:100D900081E0888F898F8A8F34E03D8B25E02E8B10
:100DA00096E09F8B82E0898B8A8B8B8B8C8B83E088
:100DB0008D873E872F87988B8CE0E0E8F0E0DE019E
:100DC000119601900D928A95E1F78FEFF5018083DE
:100DD000812C57C0C82CD12CE5E1F0E0EC0FFD1FB1
:100DE000EC0DFD1D6080E8E1F0E0EC0FFD1FEC0D67
:100DF000FD1D708040E0662D872D0E94340A10E0B2
:100E000038C0E12EF12CEDE0F0E0EC0FFD1FEE0D0F
:100E1000FF1D0081E1E1F0E0EC0FFD1FEE0DFF1D75
:100E20009080AE01455E5F4F602F892D0E94B40A0D
:100E30008B8D81111DC007C0AE01455E5F4F602FD5
:100E4000892D0E94B40A8B8D8823B1F3C701880FC6
:100E5000991FE80EF91E81E090E08C0F9D1FE80EAF
:100E6000F91EF701EC0DFD1D8081F50180830DC099
:100E70001F5F143030F241E0662D872D0E94340A46
:100E80008394F2E0F81508F0A5CF6B960FB6F894AE
:100E9000DEBF0FBECDBFDF91CF911F910F91FF90AD
:100EA000EF90DF90CF90BF90AF909F908F907F900A
:100EB0006F900895CF93C82F80FF06C041E064E093
:100EC00080E00E94340A05C040E064E080E00E94B7
:100ED000340AC1FF06C041E065E080E00E94340AA8
:100EE00005C040E065E080E00E94340AC2FF06C011
:100EF00041E066E080E00E94340A05C040E066E020
:100F000080E00E94340AC3FF06C041E067E080E051
:100F10000E94340A05C040E067E080E00E94340A85
:100F2000CF910895CF93C82F40E061E081E00E9407
:100F3000340A40E062E081E00E94340A8C2F8295FE
:100F40008F700E945A0741E063E081E00E94340AFA
:100F50008FE99FE00197F1F700C0000040E063E0F7
:100F600081E00E94340A8C2F0E945A0741E063E01E
:100F700081E00E94340A8FE99FE00197F1F700C0F9
:100F8000000040E063E081E00E94340ACF910895C0
:100F900041E061E081E00E94B40941E062E081E06B
:100FA0000E94B40941E063E081E00E94B40941E09D
:100FB00064E080E00E94B40941E065E080E00E94C6
:100FC000B40941E066E080E00E94B40941E067E0D6
:100FD00080E00E94B4092FE785EB91E0215080402A
:100FE0009040E1F700C0000040E061E081E00E9435
:100FF000340A40E062E081E00E94340A82E00E940C
:101000005A0741E063E081E00E94340A8FE99FE0E3
:101010000197F1F700C0000040E063E081E00E942A
:10102000340A88E20E94920790EF9A95F1F78FE0D8
:101030000E94920720EF2A95F1F781E00E94920723
:101040008FE39FE10197F1F700C0000086E00E9466
:1010500092070895CF93C82F41E061E081E00E949C
:10106000340A40E062E081E00E94340A8C2F8295CD
:101070008F700E945A0741E063E081E00E94340AC9
:101080008FE99FE00197F1F700C0000040E063E0C6
:1010900081E00E94340A8C2F0E945A0741E063E0ED
:1010A00081E00E94340A8FE99FE00197F1F700C0C8
:1010B000000040E063E081E00E94340ACF9108958F
:1010C0000F931F93CF93009729F40CC00E942A0816
:1010D000CF5F02C08C01C0E0F801EC0FF11D8081F0
:1010E0008111F4CFCF911F910F9108950F931F930A
:1010F000CF93009771F415C00E942A08CF5F2FEF9D
:1011000080E792E0215080409040E1F700C000006D
:1011100002C08C01C0E0F801EC0FF11D808181114B
:10112000EBCFCF911F910F9108950F931F93CF9302
:10113000DF9300D000D01F92CDB7DEB7262F10E08E
:1011400008C01F5FEDEC6E9F612D112466956695BA
:1011500066956111F6CF00E01AC0622F2AE030E0F8
:1011600040E050E00E94970C732F842F952FA02F02
:10117000B0E01196E12FF0E0EA1BFB0B41E050E0FC
:101180004C0F5D1FE40FF51F605D60830F5F01175B
:1011900020F3E1E0F0E0EC0FFD1FE10FF11D108204
:1011A00010E003C00E942A081F5FE1E0F0E0EC0FAE
:1011B000FD1FE10FF11D80818111F4CF0F900F9081
:1011C0000F900F900F90DF91CF911F910F91089585
:1011D00040E061E081E00E94340A40E062E081E0AA
:1011E0000E94340A80E00E945A0741E063E081E0F7
:1011F0000E94340A8FE99FE00197F1F700C00000D8
:1012000040E063E081E00E94340A81E00E945A07D6
:1012100041E063E081E00E94340A8FE99FE001979A
:10122000F1F700C0000040E063E081E00E94340A72
:101230000895CF93DF936832A0F4C62FD82F82E0B1
:101240000E949207D13019F0D23031F00AC08C2FB1
:1012500080680E94920705C080E48C0F80680E941D
:101260009207DF91CF91089541E00E94B40908955B
:10127000413019F0423029F0089541E00E94340ACB
:10128000089540E00E94340A0895413019F0423038
:1012900029F0089540E00E94340A089541E00E9438
:1012A000340A08950E9478032FEF83ED90E32150D4
:1012B00080409040E1F700C00000809160008130E4
:1012C00019F40E94E703F9CF8111F7CF86E992E084
:1012D0000E94600880E090E00895823059F08330E9
:1012E00081F08130A1F487B1806487B987B18F77AD
:1012F00087B90DC087B18F7B87B987B18F7787B9E1
:1013000006C087B1806487B987B1806887B987B123
:101310008F7D87B986B18F7D86B986B1877F86B983
:1013200086B1846086B986B1826086B986B18160F3
:1013300086B986B1806886B908956115710599F0FE
:1013400097B1907E97B997B1892B87B986B18064A0
:1013500086B9349BFECF86B1806186B984B195B1E0
:10136000FB01918380830895843008F07CC068304D
:1013700008F079C0423008F076C0813019F130F0C1
:101380008230E1F1833009F454C00895442371F0B0
:10139000413009F068C02AB381E090E002C0880FB4
:1013A000991F6A95E2F7822B8ABB08952AB381E0E0
:1013B00090E002C0880F991F6A95E2F7809582231A
:1013C0008ABB0895442371F0413009F04CC027B323
:1013D00081E090E002C0880F991F6A95E2F7822BA6
:1013E00087BB089527B381E090E002C0880F991F62
:1013F0006A95E2F78095822387BB0895442369F0BC
:10140000413089F524B381E090E002C0880F991F34
:101410006A95E2F7822B84BB089524B381E090E0C3
:1014200002C0880F991F6A95E2F78095822384BBDA
:101430000895442369F04130B1F421B381E090E094
:1014400002C0880F991F6A95E2F7822B81BB08952D
:1014500021B381E090E002C0880F991F6A95E2F7FE
:101460008095822381BB0895843008F07CC0683069
:1014700008F079C0423008F076C0813019F130F0C0
:101480008230E1F1833009F454C00895442371F0AF
:10149000413009F068C02BB381E090E002C0880FB2
:1014A000991F6A95E2F7822B8BBB08952BB381E0DD
:1014B00090E002C0880F991F6A95E2F78095822319
:1014C0008BBB0895442371F0413009F04CC028B320
:1014D00081E090E002C0880F991F6A95E2F7822BA5
:1014E00088BB089528B381E090E002C0880F991F5F
:1014F0006A95E2F78095822388BB0895442369F0BA
:10150000413089F525B381E090E002C0880F991F32
:101510006A95E2F7822B85BB089525B381E090E0C0
:1015200002C0880F991F6A95E2F78095822385BBD8
:101530000895442369F04130B1F422B381E090E092
:1015400002C0880F991F6A95E2F7822B82BB08952B
:1015500022B381E090E002C0880F991F6A95E2F7FC
:101560008095822382BB08958430C0F56830B0F541
:101570004115510599F1813089F028F08230C9F088
:10158000833011F1089589B390E002C09595879555
:101590006A95E2F78170FA018083089586B390E03E
:1015A00002C0959587956A95E2F78170FA0180836C
:1015B000089583B390E002C0959587956A95E2F708
:1015C0008170FA018083089580B390E002C0959500
:1015D00087956A95E2F78170FA01808308958430D7
:1015E000A8F5683098F5813089F028F08230C9F08C
:1015F000833011F108952BB381E090E002C0880F91
:10160000991F6A95E2F7822B8BBB089528B381E07E
:1016100090E002C0880F991F6A95E2F7822B88BB81
:10162000089525B381E090E002C0880F991F6A9564
:10163000E2F7822B85BB089522B381E090E002C0DF
:10164000880F991F6A95E2F7822B82BB08958FB7A6
:1016500080688FBF089583B78F7B83BF83B788600F
:1016600083BF83B78F7E83BF83B78F7D83BF89B7E7
:10167000826089BF89EF8CBF089583B7816083BF83
:1016800083B7826083BF83B78B7F83BF1092A6022C
:101690001092A502089583B78E7F83BF83B78D7F95
:1016A00083BF83B78B7F83BF0895009721F090930A
:1016B000A8028093A702089588B7826088BF88B780
:1016C000816088BF08951F920F920FB60F92112468
:1016D0002F933F934F935F936F937F938F939F933A
:1016E000AF93BF93EF93FF938091A5029091A602D1
:1016F00001969093A6028093A502883E934069F4D8
:1017000081E782BF1092A6021092A502E091A90281
:10171000F091AA02309709F00995FF91EF91BF91DE
:10172000AF919F918F917F916F915F914F913F9179
:101730002F910F900FBE0F901F9018951F920F9230
:101740000FB60F9211242F933F934F935F936F9394
:101750007F938F939F93AF93BF93EF93FF9380916A
:10176000A5029091A60201969093A6028093A502ED
:101770008838934169F41092A6021092A502E09174
:10178000A702F091A802309719F009950E945C0B0E
:10179000FF91EF91BF91AF919F918F917F916F9149
:1017A0005F914F913F912F910F900FBE0F901F901F
:1017B00018958CE080B981B18D7F81B981B18E7F20
:1017C00081B986B7846086BF089586B7806286BF78
:1017D00086B7806886BF06B607FEFDCF81B1887FD9
:1017E0008830E1F7089586B7806286BF86B7806843
:1017F00086BF06B607FEFDCF81B1887F8031E1F755
:10180000089586B7806186BF86B7806886BF0895D1
:10181000882394F0880F83B983B18E7F83B986B70C
:101820008F7D86BF86B7806886BF06B607FEFDCF70
:1018300081B1887F8831E1F70895882394F0880F7B
:1018400083B983B1816083B986B78F7D86BF86B740
:10185000806886BF06B607FEFDCF81B1887F8034E1
:10186000E1F7089583B986B7806886BF06B607FE9C
:10187000FDCF81B1887F8832E1F70895FC01892B83
:1018800091F096B7906496BF96B7906896BF06B6EB
:1018900007FEFDCF91B1987F9035E1F783B180834A
:1018A00086B78F7B86BF0895FC01892B61F096B7C0
:1018B000906896BF06B607FEFDCF91B1987F983528
:1018C000E1F783B1808308958BB18D7F8BB987E673
:1018D00089B98AB18B7F8AB986E880BD8AB1806177
:1018E0008AB98AB188608AB908958CB95D9BFECFA8
:1018F0000895009729F05F9BFECF2CB1FC01208357
:1019000008950F931F93CF93009729F40CC00E9462
:10191000750CCF5F02C08C01C0E0F801EC0FF11D27
:1019200080818111F4CFCF911F910F910895A1E291
:101930001A2EAA1BBB1BFD010DC0AA1FBB1FEE1F49
:10194000FF1FA217B307E407F50720F0A21BB30B94
:10195000E40BF50B661F771F881F991F1A9469F710
:1019600060957095809590959B01AC01BD01CF016C
:061970000895F894FFCF7A
:1019760001FFFFFFFF313131313131313100323278
:101986003232323232320031323334353637380081
:101996003132333435363738392A3023506C656165
:1019A600736520456E7465722055736572004E61CD
:1019B6006D652650617373776F726400504153539F
:1019C600574F52443A00506C6561736520456E74FA
:1019D60065722055736572204E616D652026205014
:1019E600617373776F726420000A00456E746572C6
:1019F60065642055736572204E616D653A005061CD
:101A06007373776F72643A00456E7465726564200D
:101A1600506173733A004143434553532050455236
:101A26004D49544544004143434553532044454E94
:101A36004945440057726F6E672055736572204E94
:101A4600616D6500506C6561736520547279204143
:101A56006761696E0057726F6E67205061737377A6
:101A66006F7264002057656C636F6D6520746F201C
:101A7600796F757200202020536D61727420486F53
:101A86006D6500312D414320322D6C696768740005
:101A9600332D74656D7065726174757265004143AE
:101AA600204973204F6E2F6F666600526F6F6D2050
:101AB60054656D703A203330630043686F6F736509
:101AC600206C6967687420746F00636F6E74726F40
:101AD6006C28312D3629004C6967687420312069DD
:101AE60073204F6E00312D546F205475726E20494D
:101AF60074204F6666004C696768742031206973EC
:101B0600204F464600312D546F205475726E204981
:101B160074204F6E004C6967687420322069732008
:101B26004F6E004C696768742032206973204F46F7
:101B360046004C696768742033206973204F6E0035
:101B46004C696768742033206973204F4646004C01
:101B5600696768742034206973204F6E004C69678A
:101B660068742034206973204F4646004C696768C4
:101B7600742035206973204F6E004C6967687420A5
:101B860035206973204F4646004C696768742036D5
:101B9600206973204F6E004C69676874203620698F
:101BA60073204F4646004163636573732044656E38
:041BB60069656400F9
:00000001FF
