S0120000536D6172745F486F6D652E7372656323
S11300000C942A000C9447000C9447000C9447006D
S11300100C9468180C942D180C9447000C94470009
S11300200C9447000C9447000C94C4170C94891743
S11300300C9447000C9447000C9447000C94470020
S11300400C9447000C9447000C9447000C94470010
S11300500C94470011241FBECFE5D8E0DEBFCDBF0E
S113006014E0A0E6B0E0E0E7FDE302C005900D92E5
S1130070AA38B107D9F724E0AAE8B4E001C01D9278
S1130080A53CB207E1F70E94AF140C94B61E0C9481
S113009000006AE874E080E00E94011580918A04FF
S11300A08D3130F040E062E082E00E949C150895BA
S11300B0853128F441E062E082E00E949C150895B5
S11300C00E9406130E9493160E94A6160E94041111
S11300D064E083E00E94901460E070E0CB010E9431
S11300E096140E94B81183E00E94D11440E060E0AD
S11300F080E00E941C1541E062E082E00E941C1531
S113010066E083E00E94F8100E94E91041E061E09B
S113011083E00E941C1540E060E083E00E941C150F
S11301200E948F160E94511763E083E00E947214AC
S113013060E081E00E94721462E080E00E94721428
S113014063E080E00E94721462E083E00E94721413
S113015065E083E00E9472140E94FF1789E490E036
S11301600E941F180E9411180895CF92DF92EF92F7
S1130170FF921F93CF93DF93009709F467C0611533
S1130180710509F463C07B016C010E94261460E0D0
S113019081E00E94571481E790E00E949E1360E082
S11301A082E00E94571483E890E00E949E132FEF90
S11301B083ED90E3215080409040E1F700C00000BF
S11301C00E94261460E081E00E94571483EA90E0C4
S11301D00E949E1310E011C0E601C10FD11DCE0193
S11301E00E94EC1198819F3FB9F3612F82E00E9435
S11301F0571488810E9468131F5F173068F3F60153
S1130200E10FF11D10820E94261460E081E00E943B
S1130210571481E990E00E949E1310E011C0E70199
S1130220C10FD11DCE010E94EC1188818F3FB9F31B
S1130230612F82E00E94571488810E9468131F5F17
S1130240173068F3F701E10FF11D1082DF91CF91B0
S11302501F91FF90EF90DF90CF900895CF92DF929F
S1130260EF92FF920F931F93CF93009709F464C00A
S11302706115710509F460C08B017C0183EA90E08B
S11302800E94F5108DE00E94EC10C0E00BC06701E5
S1130290CC0ED11CC6010E94EF10F601808183327E
S11302A019F0CF5FC83098F3F701EC0FF11D1082FD
S11302B08BE990E00E94F5108DE00E94EC10C0E004
S11302C007C0F701EC0FF11D80810E94EC10CF5F95
S11302D0C830B8F38DE00E94EC108EEA90E00E94E2
S11302E0F5108DE00E94EC10C0E00BC07801EC0E1C
S11302F0F11CC7010E94EF10F7018081833219F0CD
S1130300CF5FC93098F3F801EC0FF11D108288EB30
S113031090E00E94F5108DE00E94EC10C0E007C050
S1130320F801EC0FF11D80810E94EC10CF5FC83002
S1130330B8F38DE00E94EC10CF911F910F91FF90C4
S1130340EF90DF90CF9008958F929F92AF92BF92DB
S1130350CF92DF92EF92FF920F931F93CF93DF938D
S1130360CDB7DEB7A0970FB6F894DEBF0FBECDBFF2
S11303706115710509F4C0C14B01813009F0EDC06C
S1130380DBC0A394BE016F5E7F4FCE0149960E94ED
S1130390B500B12CC12C00E060C0E02EEE0CEE0CD8
S11303A0EE0CEE0CF12CAE01475F5F4F68E070E09D
S11303B0C7010E947811AE014F5F5F4F68E070E0A3
S11303C0C70108960E94781140E020E014C0822FF3
S11303D090E0E9E1F0E0EC0FFD1FE80FF91F308138
S11303E0E9E0F0E0EC0FFD1FE80FF91F80813813FE
S11303F001C04F5F2F5F283050F3483061F515C0BE
S1130400822F90E0E1E1F0E0EC0FFD1FE80FF91F0F
S11304103081E1E0F0E0EC0FFD1FE80FF91F80816F
S1130420381301C04F5F2F5F02C040E020E0283046
S113043038F3483071F4053031F481E0F4018083FD
S1130440DD24D3940DC082E0F4018083DD24D394B1
S113045007C0B39401C0C3940F5F063008F49DCF66
S1130460F1E0DF1217C00E94261460E081E00E94D0
S1130470571486EC90E00E949E1381E08093C4049C
S11304802FEF89E698E1215080409040E1F700C0C9
S1130490000058C0E6E0CE1226C00E94261460E098
S11304A081E00E94571486ED90E00E949E1360E064
S11304B082E00E94571484EE90E00E949E13123052
S11304C0C9F1FFEF23ED80E3F15020408040E1F7D4
S11304D000C0000060E082E00E94571484EF90E0C6
S11304E00E949E1327C0BB2029F10E94261460E0BD
S11304F081E00E94571486ED90E00E949E1360E014
S113050082E00E94571485E091E00E949E1312300D
S113051089F09FEFE3EDF0E39150E040F040E1F724
S113052000C0000060E082E00E94571484EF90E075
S11305300E949E131F5F03C0D12CA12C10E0133026
S113054008F41FCF23E0A212D7C0D110D5C0109257
S1130550C40485E0F4018083CFC0823009F0CCC0AC
S1130560BBC0A39484E191E00E94F51087E391E07D
S11305700E94F510BE016F5E7F4FCE0149960E9426
S11305802E01B12CC12C05E060C0E02EEE0CEE0C67
S1130590EE0CEE0CF12CAE01475F5F4F68E070E0AB
S11305A0C7010E947811AE014F5F5F4F68E070E0B1
S11305B0C70108960E94781140E020E014C0822F01
S11305C090E0E9E1F0E0EC0FFD1FE80FF91F308146
S11305D0E9E0F0E0EC0FFD1FE80FF91F808138130C
S11305E001C04F5F2F5F283050F3483061F515C0CC
S11305F0822F90E0E1E1F0E0EC0FFD1FE80FF91F1E
S11306003081E1E0F0E0EC0FFD1FE80FF91F80817D
S1130610381301C04F5F2F5F02C040E020E0283054
S113062038F3483071F4053031F483E0F401808309
S1130630DD24D3940DC084E0F4018083DD24D394BD
S113064007C0B39401C0C3940F5F0B3008F49DCF6F
S1130650F1E0DF120BC086EC90E00E94F5108DE013
S11306600E94EC1081E08093C4043CC026E0C212D6
S113067018C086ED90E00E94F5108DE00E94EC1009
S113068084EE90E00E94F5108DE00E94EC10123090
S113069009F184EF90E00E94F5108DE00E94EC10C7
S11306A019C0BB20B9F086ED90E00E94F5108DE0F2
S11306B00E94EC1085E091E00E94F5108DE00E940C
S11306C0EC10123039F084EF90E00E94F5108DE0C8
S11306D00E94EC101F5F03C0D12CA12C10E013303A
S11306E008F43FCF83E0A81207C0D11005C01092D0
S11306F0C40485E0F4018083A0960FB6F894DEBFAD
S11307000FBECDBFDF91CF911F910F91FF90EF905E
S1130710DF90CF90BF90AF909F908F900895EF920D
S1130720FF920F931F93CF93DF93CDB7DEB7E0977C
S11307300FB6F894DEBF0FBECDBF89E391E00E94EF
S1130740F5108CE691E00E94F510BE01675F7F4FC3
S1130750CE0101960E942E0110E051C0153009F41B
S11307604DC0012F0295007FE02EF12CAE014F5DAC
S11307705F4F68E070E0C7010E947811AE01475DE9
S11307805F4F68E070E0C70108960E94781140E06E
S113079020E014C0822F90E0E1E0F0E0EC0FFD1FB8
S11307A0E80FF91F3081E1E2F0E0EC0FFD1FE80FE4
S11307B0F91F8081381301C04F5F2F5F283050F339
S11307C04830E1F415C0822F90E0E9E0F0E0EC0F4E
S11307D0FD1FE80FF91F3081E9E2F0E0EC0FFD1F87
S11307E0E80FF91F8081381301C04F5F2F5F02C0EB
S11307F020E040E0283038F3483031F01F5F1B30F0
S113080008F4ACCF80E001C081E0813021F58EE6B0
S113081091E00E94F5108DE00E94EC10BE01675E2D
S11308207F4FCE0141960E942E0110E0BE016F5E03
S11308307F4FC8010E942511BE01675E7F4FC8012A
S113084008960E94251181E991E00E94F5108DE03F
S11308500E94EC1007C080EB91E00E94F5108DE03F
S11308600E94EC10E0960FB6F894DEBF0FBECDBF29
S1130870DF91CF911F910F91FF90EF900895CF9347
S1130880DF9300D0CDB7DEB7853029F46FEF84EB6A
S113089090E00E940711BE016F5F7F4F84EB90E0F0
S11308A00E94501189818F3F29F586ED90E00E94C6
S11308B0F5108DE00E94EC1066E083E00E94FC10CD
S11308C00E94261460E081E00E94571486ED90E0B7
S11308D00E949E13CE0102960E94EF108A818332F9
S11308E021F766E083E00E94001160E084EB90E071
S11308F00E9407110F900F90DF91CF9108958CEC17
S113090091E00E94B4138CEC91E00E94F51008C0B1
S11309108DE894E00E94F21084E690E00E94EC11CD
S1130920809164008F3F21F490918D04933281F77C
S113093090E08D5D914071F48FED91E00E94F5108F
S11309406BE974E081E00E94A40180919B040E9401
S11309503F04089580918D048332A1F46BE974E01F
S113096082E00E94A40182E092E00E949E1380EC47
S11309700E94D01287E192E00E949E1380919B0412
S11309800E943F04089586E29DE00E947B178DE05B
S11309900E94EC1086E292E00E94F5108DE00E9425
S11309A0EC1083E392E00E94F5108DE00E94EC10BD
S11309B081E492E00E94F5108DE00E94EC100E9408
S11309C063178DE894E00E94EF100E9471178091E4
S11309D08D04833309F456C330F4813359F08233E0
S11309E009F43FC00895843309F478C3853309F4C6
S11309F0C7C3089581E692E00E94F5108DE00E943D
S1130A00EC106AE874E080E00E94011580918A0489
S1130A101F928F938EE692E09F938F9380EB94E0E6
S1130A209F938F930E94CC1B80EB94E00E94F5105F
S1130A308DE00E94EC108EE792E00E94F5108DE0AC
S1130A400E94EC100E9463178DE894E00E94EF105E
S1130A500E9471170F900F900F900F900F900F90AE
S1130A6008958DE00E94EC108BE892E00E94F5104E
S1130A708DE00E94EC108BE992E00E94F5108DE06D
S1130A800E94EC108DE00E94EC100E9463178DE828
S1130A9094E00E94EF100E94711780918D048333BB
S1130AA009F4A0C030F4813369F0823309F450C0F2
S1130AB00895853309F42AC108F4DEC0863309F4A5
S1130AC06FC108954CE854E063E083E00E941C1673
S1130AD080918C048130E9F488EA92E00E94F51058
S1130AE08DE00E94EC1086EB92E00E94F5108DE000
S1130AF00E94EC108DE894E00E94EF1080918D0428
S1130B00813309F03FC341E063E083E00E94831432
S1130B100895811137C387EC92E00E94F5108DE0AF
S1130B200E94EC1086ED92E00E94F5108DE00E9488
S1130B30EC108DE894E00E94EF1080918D048133D5
S1130B4009F020C341E063E083E00E947614089535
S1130B504CE854E060E081E00E941C1680918C0413
S1130B608130F9F486EE92E00E94F5108DE00E9447
S1130B70EC1086EB92E00E94F5108DE00E94EC10E0
S1130B808DE894E00E94EF1080918D04813329F464
S1130B9041E060E081E00E9483148FEF80938D0434
S1130BA008958111EFC284EF92E00E94F5108DE068
S1130BB00E94EC1086ED92E00E94F5108DE00E94F8
S1130BC0EC108DE894E00E94EF1080918D04813345
S1130BD029F441E060E081E00E9476148FEF809375
S1130BE08D0408954CE854E062E080E00E941C16F5
S1130BF080918C048130F9F483E093E00E94F51035
S1130C008DE00E94EC1086EB92E00E94F5108DE0DE
S1130C100E94EC108DE894E00E94EF1080918D0406
S1130C20813329F441E062E080E00E9483148FEF75
S1130C3080938D0408958111A5C281E193E00E94FF
S1130C40F5108DE00E94EC1086ED92E00E94F51004
S1130C508DE00E94EC108DE894E00E94EF108091EA
S1130C608D04813329F441E062E080E00E9476142F
S1130C708FEF80938D0408954CE854E063E080E0A6
S1130C800E941C1680918C048130F9F480E293E078
S1130C900E94F5108DE00E94EC1086EB92E00E9419
S1130CA0F5108DE00E94EC108DE894E00E94EF10A6
S1130CB080918D04813329F441E063E080E00E9457
S1130CC083148FEF80938D04089581115BC28EE2AB
S1130CD093E00E94F5108DE00E94EC1086ED92E006
S1130CE00E94F5108DE00E94EC108DE894E00E94C3
S1130CF0EF1080918D04813329F441E063E080E0BA
S1130D000E9476148FEF80938D0408954CE854E08C
S1130D1062E083E00E941C1680918C048130F9F417
S1130D208DE393E00E94F5108DE00E94EC1086EBB9
S1130D3092E00E94F5108DE00E94EC108DE894E0A2
S1130D400E94EF1080918D04813329F441E062E028
S1130D5083E00E9483148FEF80938D0408958111A2
S1130D6011C28BE493E00E94F5108DE00E94EC1018
S1130D7086ED92E00E94F5108DE00E94EC108DE863
S1130D8094E00E94EF1080918D04813329F441E0B6
S1130D9062E083E00E9476148FEF80938D040895BF
S1130DA080918B04882309F4B1C08DE00E94EC107B
S1130DB08AE593E00E94F5108DE00E94EC1080918A
S1130DC08B041F928F9388E693E09F938F938CE913
S1130DD094E09F938F930E94CC1B8CE994E00E9433
S1130DE0F5108DE00E94EC1088E793E00E94F51066
S1130DF08DE00E94EC108DE894E00E94EF10809149
S1130E008D040F900F900F900F900F900F908823E8
S1130E1009F4B8C1813309F043C060918B04665F63
S1130E2060938B0470E080E090E00E948B1AAB0129
S1130E30BC0188EE93E00E94B91680918B041F9246
S1130E408F9388E693E09F938F938CE994E09F932C
S1130E508F930E94CC1B8CE994E00E94F5108DE0E6
S1130E600E94EC1088E793E00E94F5108DE00E9448
S1130E70EC1080918B040F900F900F900F900F90B7
S1130E800F90853608F47EC184E680938B0440E09D
S1130E9050E068EC72E488EE93E00E94B91608957D
S1130EA0823309F06FC160918B046A5060938B04A4
S1130EB070E080E090E00E948B1AAB01BC0188EEE8
S1130EC093E00E94B91680918B041F928F9388E659
S1130ED093E09F938F938CE994E09F938F930E9468
S1130EE0CC1B8CE994E00E94F5108DE00E94EC107C
S1130EF088E793E00E94F5108DE00E94EC100F90BB
S1130F000F900F900F900F900F90089581113AC198
S1130F1088E893E00E94F5102FEF83ED90E32150D1
S1130F2080409040E1F700C000008DE00E94EC108A
S1130F3080918B041F928F9388E693E09F938F9305
S1130F408CE994E09F938F930E94CC1B8CE994E0EE
S1130F500E94F5108DE00E94EC1088E793E00E9457
S1130F60F5108DE00E94EC108DE894E00E94EF10E3
S1130F700F900F900F900F900F900F907EC08133C1
S1130F8009F043C060918B04665F60938B0470E04A
S1130F9080E090E00E948B1AAB01BC0188EE93E0E4
S1130FA00E94B91680918B041F928F9388E693E078
S1130FB09F938F938CE994E09F938F930E94CC1B13
S1130FC08CE994E00E94F5108DE00E94EC1088E713
S1130FD093E00E94F5108DE00E94EC1080918B0448
S1130FE00F900F900F900F900F900F90853608F48C
S1130FF0C9C084E680938B0440E050E068EC72E45E
S113100088EE93E00E94B9160895823399F56091B1
S11310108B046A5060938B0470E080E090E00E943F
S11310208B1AAB01BC0188EE93E00E94B916809143
S11310308B041F928F9388E693E09F938F938CE9A0
S113104094E09F938F930E94CC1B8CE994E00E94C0
S1131050F5108DE00E94EC1088E793E00E94F510F3
S11310608DE00E94EC100F900F900F900F900F9056
S11310700F900895803309F485C080918D04811107
S11310807ECF08956AE874E080E00E9401158091A3
S11310908A041F928F938EE692E09F938F9380EB46
S11310A094E09F938F930E94CC1B80EB94E00E946A
S11310B0F5108DE00E94EC108EE792E00E94F5108E
S11310C08DE00E94EC108DE894E00E94EF100F90E8
S11310D00F900F900F900F900F90089580918E04B1
S11310E0811127C087E993E00E94F5108DE00E94EA
S11310F0EC1086EA93E00E94F5108DE00E94EC105B
S11311008DE894E00E94EF108DE00E94EC10809135
S11311108D048133B9F589EB93E00E94F51060E00A
S113112070E084EB92E40E9496148AE580938E0426
S113113008958A3539F589EC93E00E94F5108DE025
S11311400E94EC1086ED93E00E94F5108DE00E9461
S1131150EC108DE894E00E94EF108DE00E94EC10FA
S113116080918D04813371F48AEE93E00E94F5102E
S113117060E070E0CB010E94961410928E040895F2
S11311800E948F03089586E29DE00E947B178DE004
S11311900E94EC1086E292E00E94F5108DE00E941D
S11311A0EC1083E392E00E94F5108DE00E94EC10B5
S11311B00E9463178DE894E00E94EF100E9471175B
S11311C080918D048233E9F1833309F44AC3813376
S11311D009F072C381E692E00E94F5108DE00E944E
S11311E0EC106AE874E080E00E94011580918A04A2
S11311F01F928F938EE692E09F938F9380EB94E0FF
S11312009F938F930E94CC1B80EB94E00E94F51077
S11312108DE00E94EC108EE792E00E94F5108DE0C4
S11312200E94EC100E9463178DE894E00E94EF1076
S11312300E9471170F900F900F900F900F900F90C6
S113124008958DE00E94EC108BE892E00E94F51066
S11312508DE00E94EC108BE992E00E94F5108DE085
S11312600E94EC108DE00E94EC100E9463178DE840
S113127094E00E94EF100E94711780918D048333D3
S113128009F4A0C030F4813369F0823309F450C00A
S11312900895853309F42AC108F4DEC0863309F4BD
S11312A06FC108954CE854E063E083E00E941C168B
S11312B080918C048130E9F488EA92E00E94F51070
S11312C08DE00E94EC1086EB92E00E94F5108DE018
S11312D00E94EC108DE894E00E94EF1080918D0440
S11312E0813309F0E9C241E063E083E00E948314A2
S11312F008958111E1C287EC92E00E94F5108DE01F
S11313000E94EC1086ED92E00E94F5108DE00E94A0
S1131310EC108DE894E00E94EF1080918D048133ED
S113132009F0CAC241E063E083E00E9476140895A4
S11313304CE854E060E081E00E941C1680918C042B
S11313408130F9F486EE92E00E94F5108DE00E945F
S1131350EC1086EB92E00E94F5108DE00E94EC10F8
S11313608DE894E00E94EF1080918D04813329F47C
S113137041E060E081E00E9483148FEF80938D044C
S11313800895811199C284EF92E00E94F5108DE0D6
S11313900E94EC1086ED92E00E94F5108DE00E9410
S11313A0EC108DE894E00E94EF1080918D0481335D
S11313B029F441E060E081E00E9476148FEF80938D
S11313C08D0408954CE854E062E080E00E941C160D
S11313D080918C048130F9F483E093E00E94F5104D
S11313E08DE00E94EC1086EB92E00E94F5108DE0F7
S11313F00E94EC108DE894E00E94EF1080918D041F
S1131400813329F441E062E080E00E9483148FEF8D
S113141080938D04089581114FC281E193E00E946D
S1131420F5108DE00E94EC1086ED92E00E94F5101C
S11314308DE00E94EC108DE894E00E94EF10809102
S11314408D04813329F441E062E080E00E94761447
S11314508FEF80938D0408954CE854E063E080E0BE
S11314600E941C1680918C048130F9F480E293E090
S11314700E94F5108DE00E94EC1086EB92E00E9431
S1131480F5108DE00E94EC108DE894E00E94EF10BE
S113149080918D04813329F441E063E080E00E946F
S11314A083148FEF80938D040895811105C28EE219
S11314B093E00E94F5108DE00E94EC1086ED92E01E
S11314C00E94F5108DE00E94EC108DE894E00E94DB
S11314D0EF1080918D04813329F441E063E080E0D2
S11314E00E9476148FEF80938D0408954CE854E0A5
S11314F062E083E00E941C1680918C048130F9F430
S11315008DE393E00E94F5108DE00E94EC1086EBD1
S113151092E00E94F5108DE00E94EC108DE894E0BA
S11315200E94EF1080918D04813329F441E062E040
S113153083E00E9483148FEF80938D0408958111BA
S1131540BBC18BE493E00E94F5108DE00E94EC1087
S113155086ED92E00E94F5108DE00E94EC108DE87B
S113156094E00E94EF1080918D04813329F441E0CE
S113157062E083E00E9476148FEF80938D040895D7
S113158080918B04882309F4B1C08DE00E94EC1093
S11315908AE593E00E94F5108DE00E94EC108091A2
S11315A08B041F928F9388E693E09F938F938CE92B
S11315B094E09F938F930E94CC1B8CE994E00E944B
S11315C0F5108DE00E94EC1088E793E00E94F5107E
S11315D08DE00E94EC108DE894E00E94EF10809161
S11315E08D040F900F900F900F900F900F90882301
S11315F009F462C1813309F043C060918B04665FD2
S113160060938B0470E080E090E00E948B1AAB0141
S1131610BC0188EE93E00E94B91680918B041F925E
S11316208F9388E693E09F938F938CE994E09F9344
S11316308F930E94CC1B8CE994E00E94F5108DE0FE
S11316400E94EC1088E793E00E94F5108DE00E9460
S1131650EC1080918B040F900F900F900F900F90CF
S11316600F90853608F428C184E680938B0440E00B
S113167050E068EC72E488EE93E00E94B916089595
S1131680823309F019C160918B046A5060938B0412
S113169070E080E090E00E948B1AAB01BC0188EE00
S11316A093E00E94B91680918B041F928F9388E671
S11316B093E09F938F938CE994E09F938F930E9480
S11316C0CC1B8CE994E00E94F5108DE00E94EC1094
S11316D088E793E00E94F5108DE00E94EC100F90D3
S11316E00F900F900F900F900F9008958111E4C008
S11316F088E893E00E94F5102FEF83ED90E32150EA
S113170080409040E1F700C000008DE00E94EC10A2
S113171080918B041F928F9388E693E09F938F931D
S11317208CE994E09F938F930E94CC1B8CE994E006
S11317300E94F5108DE00E94EC1088E793E00E946F
S1131740F5108DE00E94EC108DE894E00E94EF10FB
S11317500F900F900F900F900F900F907DC08133DA
S113176009F043C060918B04665F60938B0470E062
S113177080E090E00E948B1AAB01BC0188EE93E0FC
S11317800E94B91680918B041F928F9388E693E090
S11317909F938F938CE994E09F938F930E94CC1B2B
S11317A08CE994E00E94F5108DE00E94EC1088E72B
S11317B093E00E94F5108DE00E94EC1080918B0460
S11317C00F900F900F900F900F900F90853608F4A4
S11317D073C084E680938B0440E050E068EC72E4CC
S11317E088EE93E00E94B9160895823399F56091CA
S11317F08B046A5060938B0470E080E090E00E9458
S11318008B1AAB01BC0188EE93E00E94B91680915B
S11318108B041F928F9388E693E09F938F938CE9B8
S113182094E09F938F930E94CC1B8CE994E00E94D8
S1131830F5108DE00E94EC1088E793E00E94F5100B
S11318408DE00E94EC100F900F900F900F900F906E
S11318500F900895803381F180918D0481117FCFA1
S113186008956AE874E080E00E94011580918A047A
S11318701F928F938EE692E09F938F9380EB94E078
S11318809F938F930E94CC1B80EB94E00E94F510F1
S11318908DE00E94EC108EE792E00E94F5108DE03E
S11318A00E94EC108DE894E00E94EF100F900F90CE
S11318B00F900F900F900F9008958AEF93E00E947D
S11318C0F5108DE00E94EC108EE094E00E94F5107B
S11318D08DE00E94EC102FEF83ED90E321508040C7
S11318E09040E1F700C0000008958AEF93E00E9461
S11318F0B41380EC0E94D0128BE094E00E94B413E5
S11319002FEF83ED90E3215080409040E1F700C039
S113191000000895CF93DF93CDB7DEB7E0970FB6FD
S1131920F894DEBF0FBECDBF0E9460000E94750C0C
S11319300E945D0C0E94261488E0E9E1F4E0DE01D7
S1131940119601900D928A95E1F788E0E9E1F4E0BF
S1131950DE01199601900D928A95E1F788E0E1E2A3
S1131960F4E0DE01519601900D928A95E1F788E04A
S1131970E1E2F4E0DE01599601900D928A95E1F7D7
S113198088E0E9E2F4E0DE01919601900D928A95F7
S1131990E1F788E0E9E2F4E0DE01999601900D9226
S11319A08A95E1F7BE016F5F7F4F80E190E00E946E
S11319B02511BE01675F7F4F88E190E00E942511E9
S11319C0BE016F5E7F4F80E590E00E942511BE014D
S11319D0675E7F4F88E590E00E942511BE016F5D30
S11319E07F4F80E690E00E942511BE01675D7F4F26
S11319F088E690E00E942511E0960FB6F894DEBFC9
S1131A000FBECDBFDF91CF9108956AE874E080E006
S1131A100E94011580918A041F928F938EE692E0B2
S1131A209F938F9380EB94E09F938F930E94CC1BA2
S1131A3080EB94E00E94F5108DE00E94EC100F9072
S1131A400F900F900F900F900F9008958DE00E94CB
S1131A50EC100E94050D81E394E00E94F5108DE0E6
S1131A600E94EC108DE894E00E94EF1080918D04A8
S1131A70803311F40E94821708956AE874E080E0CC
S1131A800E9401156BE081E00E94571460918A0462
S1131A9070E080E090E00E94D31308950E94261421
S1131AA080E80E94D0128EE394E00E949E130E946C
S1131AB03D0D80EC0E94D01281E394E00E949E13BD
S1131AC006C081E690E00E94EC110E943D0D8091D9
S1131AD061008F3FB1F3803311F40E9426140E94F9
S1131AE082170E94261408958FEF809364008093D8
S1131AF06300809362008093610008950E94740DD6
S1131B008EE49DE00E947B170E9463170E942614B6
S1131B1086E292E00E949E1380EC0E94D01283E33E
S1131B2092E00E949E130E94740D0CC0809161008B
S1131B30803321F48FEF8093610008C084E690E045
S1131B400E94EC11809164008F3F81F30E94711711
S1131B5080916400823309F445C0833309F406C3D9
S1131B60813309F035C30E9426148DE494E00E9469
S1131B70B41380EC0E94D0126AE874E080E00E9402
S1131B8001158EE594E00E94B4136CE082E00E949B
S1131B90571460918A0470E080E090E00E94D313AF
S1131BA01CC080E690E00E94EC116AE874E080E0DA
S1131BB00E9401156CE082E00E94571460918A042F
S1131BC070E080E090E00E94D31380916000803345
S1131BD021F48FEF809360000895809160008F3F1F
S1131BE001F308950E9426148BE892E00E94B41336
S1131BF080EC0E94D0128BE992E00E94B4138EE430
S1131C009DE00E947B170E9463170CC083E690E05E
S1131C100E94EC1180916100803321F48FEF809356
S1131C20610004C0809163008F3F81F30E947117AB
S1131C3080916300833309F4A6C030F4813369F0E2
S1131C40823309F454C00895853309F434C108F487
S1131C50E6C0863309F47BC108954CE854E063E0A0
S1131C6083E00E941C160E94261480918C0481300B
S1131C70F1F488EA92E00E94B41380EC0E94D0123E
S1131C8086EB92E00E94B41304C082E690E00E94C6
S1131C90EC11809162008F3FC1F3813329F441E05C
S1131CA063E083E00E9483140E94740D08958111FF
S1131CB08FC287EC92E00E94B41380EC0E94D01291
S1131CC086ED92E00E94B41304C082E690E00E9484
S1131CD0EC11809162008F3FC1F3813329F441E01C
S1131CE063E083E00E9476140E94740D08954CE82A
S1131CF054E064E083E00E941C160E942614809144
S1131D008C048130F9F486EE92E00E94B41380ECE6
S1131D100E94D01286EB92E00E94B41304C082E6C3
S1131D2090E00E94EC11809162008F3FC1F38133F7
S1131D3029F441E064E083E00E9483148FEF8093F0
S1131D4062000895811144C284EF92E00E94B413AA
S1131D5080EC0E94D01286ED92E00E94B41304C07D
S1131D6082E690E00E94EC11809162008F3FC1F303
S1131D70813329F441E064E083E00E9476148FEF1C
S1131D808093620008954CE854E062E080E00E9491
S1131D901C160E94261480918C048130F9F483E08F
S1131DA093E00E94B41380EC0E94D01286EB92E080
S1131DB00E94B41304C082E690E00E94EC1180916A
S1131DC062008F3FC1F3813329F441E062E080E097
S1131DD00E9483148FEF8093620008958111F8C1EB
S1131DE081E193E00E94B41380EC0E94D01286ED4E
S1131DF092E00E94B41304C082E690E00E94EC11C9
S1131E00809162008F3FC1F3813329F441E062E0A5
S1131E1080E00E9476148FEF8093620008954CE86E
S1131E2054E063E080E00E941C160E942614809116
S1131E308C048130F9F480E293E00E94B41380ECC6
S1131E400E94D01286EB92E00E94B41304C082E692
S1131E5090E00E94EC11809162008F3FC1F38133C6
S1131E6029F441E063E080E00E9483148FEF8093C3
S1131E70620008958111ACC18EE293E00E94B41314
S1131E8080EC0E94D01286ED92E00E94B41304C04C
S1131E9082E690E00E94EC11809162008F3FC1F3D2
S1131EA0813329F441E063E080E00E9476148FEFEF
S1131EB08093620008954CE854E062E083E00E945D
S1131EC01C160E94261480918C048130F9F48DE351
S1131ED093E00E94B41380EC0E94D01286EB92E04F
S1131EE00E94B41304C082E690E00E94EC11809139
S1131EF062008F3FC1F3813329F441E062E083E063
S1131F000E9483148FEF809362000895811160C151
S1131F108BE493E00E94B41380EC0E94D01286ED0F
S1131F2092E00E94B41304C082E690E00E94EC1197
S1131F30809162008F3FC1F3813329F441E062E074
S1131F4083E00E9476148FEF8093620008950E94CC
S1131F50261480918B04882309F482C08AE593E0D7
S1131F600E94B4132FEF83ED90E321508040904002
S1131F70E1F700C000000E9426148CE694E00E9461
S1131F809E136DE081E00E94571460918B0470E011
S1131F9080E090E00E94D31380EC0E94D01288E786
S1131FA093E00E94B41356C082E690E00E94EC11C4
S1131FB080916200813359F560918B04665F609370
S1131FC08B0470E080E090E00E948B1AAB01BC01AE
S1131FD088EE93E00E94B9166DE081E00E945714E8
S1131FE060918B0470E080E090E00E94D3138091B4
S1131FF08B04853678F184E680938B0440E050E0CE
S113200068EC72E488EE93E00E94B91623C0823330
S1132010E1F460918B046A5060938B0470E080E07B
S113202090E00E948B1AAB01BC0188EE93E00E9401
S1132030B9166DE081E00E94571460918B0470E042
S113204080E090E00E94D31305C0803319F40E940D
S113205026140895809162008F3F09F4A5CF089556
S113206080918C048111B4C088E893E00E94B41379
S11320702FEF83ED90E3215080409040E1F700C0C2
S113208000000E9426148CE694E00E949E136DE0EA
S113209081E00E94571460918B0470E080E090E02E
S11320A00E94D31380EC0E94D01288E793E00E9430
S11320B0B41356C082E690E00E94EC118091620055
S11320C0813359F560918B04665F60938B0470E0F3
S11320D080E090E00E948B1AAB01BC0188EE93E093
S11320E00E94B9166DE081E00E94571460918B0440
S11320F070E080E090E00E94D31380918B048536D9
S113210078F184E680938B0440E050E068EC72E45C
S113211088EE93E00E94B91623C08233E1F4609103
S11321208B046A5060938B0470E080E090E00E941E
S11321308B1AAB01BC0188EE93E00E94B9166DE0E6
S113214081E00E94571460918B0470E080E090E07D
S11321500E94D31305C0803319F40E9426140895F5
S1132160809162008F3F09F4A5CF08950E94261440
S11321706AE874E080E00E94011580E80E94D012B1
S11321808EE594E00E949E136BE081E00E94571458
S113219060918A0470E080E090E00E94D31383E6AB
S11321A00E94681380EC0E94D0128EE792E00E9495
S11321B0B41306C081E690E00E94EC110E943D0D2C
S11321C0809161008F3FB1F3803311F40E94261493
S11321D008950E942E1908950E943F1908950E949F
S11321E0431908950E944B1908950E946219089595
S11321F041E00E941C15089541E00E949C15089539
S113220040E00E949C1508950E94A31808951F930E
S1132210CF93DF93D82FC62F192F10650E94AF18C4
S1132220812F0E94D2188D2F0E94FC188C2F0E949F
S1132230FC180E94CB188FE19EE40197F1F700C0CF
S11322400000DF91CF911F9108950F931F93CF93B7
S1132250DF9361157105F9F08B01D82FC92FC06583
S11322600E94AF188C2F0E94D2188D2F0E94FC1848
S1132270C0E007C0F801EC0FF11D80810E94FC183A
S1132280CF5FC830B8F30E94CB188FE19EE401976A
S1132290F1F700C00000DF91CF911F910F910895D5
S11322A00F931F93CF93DF9361157105E1F08B01B9
S11322B0D82FC92FC0650E94AF188C2F0E94D21846
S11322C08D2F0E94FC180E94BD188C2F0E94E718C5
S11322D0C8010E941E190E94CB188FE19EE4019749
S11322E0F1F700C00000DF91CF911F910F91089585
S11322F0EF92FF920F931F93CF93DF9341155105F4
S113230081F1611522E0720760F58A017B01D82F03
S1132310C92FC0650E94AF188C2F0E94D2188D2F30
S11323200E94FC180E94BD188C2F0E94E718C0E080
S1132330D0E006C0C8018C0F9D1F0E940819219689
S1132340C7010197C817D907A8F3800F911F0E94EE
S11323501E190E94CB188FE19EE40197F1F700C08B
S11323600000DF91CF911F910F91FF90EF9008959E
S113237041E064E081E00E941C1541E065E081E0F9
S11323800E941C1541E066E081E00E941C1540E0BB
S113239063E082E00E941C1540E064E082E00E9459
S11323A01C1540E065E082E00E941C1540E066E0F8
S11323B082E00E941C1563E082E00E94571664E0EC
S11323C082E00E94571665E082E00E94571666E09C
S11323D082E00E94571608956F927F928F929F9287
S11323E0AF92BF92CF92DF92EF92FF920F931F931F
S11323F0CF93DF93CDB7DEB76B970FB6F894DEBFFC
S11324000FBECDBF009709F47EC05C0181E0888FC8
S1132410898F8A8F34E03D8B25E02E8B96E09F8B4D
S113242082E0898B8A8B8B8B8C8B83E08D873E87B4
S11324302F87988B8CE0E5E6F0E0DE0111960190A1
S11324400D928A95E1F78FEFF5018083812C57C0B7
S1132450C82CD12CE5E1F0E0EC0FFD1FEC0DFD1DC7
S11324606080E8E1F0E0EC0FFD1FEC0DFD1D7080D5
S113247040E0662D872D0E949C1510E038C0E12EA7
S1132480F12CEDE0F0E0EC0FFD1FEE0DFF1D0081DF
S1132490E1E1F0E0EC0FFD1FEE0DFF1D9080AE01B9
S11324A0455E5F4F602F892D0E941C168B8D811114
S11324B01DC007C0AE01455E5F4F602F892D0E948D
S11324C01C168B8D8823B1F3C701880F991FE80E62
S11324D0F91E81E090E08C0F9D1FE80EF91EF701B4
S11324E0EC0DFD1D8081F50180830DC01F5F14304C
S11324F030F241E0662D872D0E949C158394F2E012
S1132500F81508F0A5CF6B960FB6F894DEBF0FBE92
S1132510CDBFDF91CF911F910F91FF90EF90DF908E
S1132520CF90BF90AF909F908F907F906F900895C1
S1132530CF93C82F80FF06C041E064E080E00E9492
S11325409C1505C040E064E080E00E949C15C1FF3A
S113255006C041E065E080E00E949C1505C040E0B3
S113256065E080E00E949C15C2FF06C041E066E081
S113257080E00E949C1505C040E066E080E00E9477
S11325809C15C3FF06C041E067E080E00E949C15F3
S113259005C040E067E080E00E949C15CF9108955B
S11325A0CF93C82F40E061E081E00E949C1540E099
S11325B062E081E00E949C158C2F82958F700E94AE
S11325C0981241E063E081E00E949C158FE99FE04E
S11325D00197F1F700C0000040E063E081E00E9451
S11325E09C158C2F0E94981241E063E081E00E94C8
S11325F09C158FE99FE00197F1F700C0000040E0CF
S113260063E081E00E949C15CF91089541E061E070
S113261081E00E941C1541E062E081E00E941C15EB
S113262041E063E081E00E941C1541E064E080E049
S11326300E941C1541E065E080E00E941C1541E009
S113264066E080E00E941C1541E067E080E00E94A3
S11326501C152FE785EB91E0215080409040E1F775
S113266000C0000040E061E081E00E949C1540E071
S113267062E081E00E949C1582E00E94981241E091
S113268063E081E00E949C158FE99FE00197F1F7D8
S113269000C0000040E063E081E00E949C1588E2F5
S11326A00E94D01290EF9A95F1F78CE00E94D0121C
S11326B020EF2A95F1F781E00E94D0128FE39FE189
S11326C00197F1F700C0000086E00E94D01208953F
S11326D0CF93C82F41E061E081E00E949C1540E067
S11326E062E081E00E949C158C2F82958F700E947D
S11326F0981241E063E081E00E949C158FE99FE01D
S11327000197F1F700C0000040E063E081E00E941F
S11327109C158C2F0E94981241E063E081E00E9496
S11327209C158FE99FE00197F1F700C0000040E09D
S113273063E081E00E949C15CF9108950F931F934D
S1132740CF93009729F40CC00E946813CF5F02C096
S11327508C01C0E0F801EC0FF11D80818111F4CFF0
S1132760CF911F910F9108950F931F93CF930097CB
S113277071F415C00E946813CF5F2FEF80E792E0D9
S1132780215080409040E1F700C0000002C08C015D
S1132790C0E0F801EC0FF11D80818111EBCFCF91E6
S11327A01F910F9108950F931F93CF93DF9300D040
S11327B000D01F92CDB7DEB7262F10E008C01F5FF0
S11327C0EDEC6E9F612D11246695669566956111F9
S11327D0F6CF00E01AC0622F2AE030E040E050E07B
S11327E00E94AA1B732F842F952FA02FB0E011965F
S11327F0E12FF0E0EA1BFB0B41E050E04C0F5D1FC2
S1132800E40FF51F605D60830F5F011720F3E1E0C3
S1132810F0E0EC0FFD1FE10FF11D108210E003C08A
S11328200E9468131F5FE1E0F0E0EC0FFD1FE10F71
S1132830F11D80818111F4CF0F900F900F900F90B4
S11328400F90DF91CF911F910F91089540E061E0C7
S113285081E00E949C1540E062E081E00E949C15AA
S113286080E00E94981241E063E081E00E949C15A0
S11328708FE99FE00197F1F700C0000040E063E0BA
S113288081E00E949C1581E00E94981241E063E07F
S113289081E00E949C158FE99FE00197F1F700C049
S11328A0000040E063E081E00E949C150895CF930E
S11328B0DF936832A0F4C62FD82F82E00E94D01292
S11328C0D13019F0D23031F00AC08C2F80680E94C8
S11328D0D01205C080E48C0F80680E94D012DF9172
S11328E0CF91089541E00E941C150895413019F0DC
S11328F0423029F0089541E00E949C15089540E07B
S11329000E949C150895413019F0423029F0089531
S113291040E00E949C15089541E00E949C15089592
S113292041E00E941C150E949316089520E030E0B7
S113293040E250E40E943D1B20E030EC48E254E4C5
S11329400E94791920E030E044EB52E40E94EA1935
S1132950AB01BC0182E390E00E94051708950E9438
S11329608A0C0E947F048091C404813089F4809190
S11329709B04833019F40E94C304F3CF843019F408
S11329800E94C308EECF823061F70E947E0DE9CF2A
S11329908111E7CF8BE794E00E949E1380E090E0E2
S11329A00895823059F0833081F08130A1F487B1E9
S11329B0806487B987B18F7787B90DC087B18F7B62
S11329C087B987B18F7787B906C087B1806487B923
S11329D087B1806887B987B18F7D87B986B18F7DCC
S11329E086B986B1877F86B986B1846086B986B197
S11329F0826086B986B1816086B986B1806886B9FD
S1132A00089561157105B9F097B1907E97B997B1A2
S1132A10892B87B986B1806486B9349BFECF84B193
S1132A2095B19695879596958795FB0191838083BB
S1132A3086B1806186B90895843008F07CC068301E
S1132A4008F079C0423008F076C0813019F130F0D6
S1132A508230E1F1833009F454C00895442371F0C5
S1132A60413009F068C02AB381E090E002C0880FC9
S1132A70991F6A95E2F7822B8ABB08952AB381E0F5
S1132A8090E002C0880F991F6A95E2F7809582232F
S1132A908ABB0895442371F0413009F04CC027B338
S1132AA081E090E002C0880F991F6A95E2F7822BBB
S1132AB087BB089527B381E090E002C0880F991F77
S1132AC06A95E2F78095822387BB0895442369F0D1
S1132AD0413089F524B381E090E002C0880F991F4A
S1132AE06A95E2F7822B84BB089524B381E090E0D9
S1132AF002C0880F991F6A95E2F78095822384BBF0
S1132B000895442369F04130B1F421B381E090E0A9
S1132B1002C0880F991F6A95E2F7822B81BB089542
S1132B2021B381E090E002C0880F991F6A95E2F713
S1132B308095822381BB0895843008F07CC068307E
S1132B4008F079C0423008F076C0813019F130F0D5
S1132B508230E1F1833009F454C00895442371F0C4
S1132B60413009F068C02BB381E090E002C0880FC7
S1132B70991F6A95E2F7822B8BBB08952BB381E0F2
S1132B8090E002C0880F991F6A95E2F7809582232E
S1132B908BBB0895442371F0413009F04CC028B335
S1132BA081E090E002C0880F991F6A95E2F7822BBA
S1132BB088BB089528B381E090E002C0880F991F74
S1132BC06A95E2F78095822388BB0895442369F0CF
S1132BD0413089F525B381E090E002C0880F991F48
S1132BE06A95E2F7822B85BB089525B381E090E0D6
S1132BF002C0880F991F6A95E2F78095822385BBEE
S1132C000895442369F04130B1F422B381E090E0A7
S1132C1002C0880F991F6A95E2F7822B82BB089540
S1132C2022B381E090E002C0880F991F6A95E2F711
S1132C308095822382BB08958430C0F56830B0F556
S1132C404115510599F1813089F028F08230C9F09D
S1132C50833011F1089589B390E002C0959587956A
S1132C606A95E2F78170FA018083089586B390E053
S1132C7002C0959587956A95E2F78170FA01808381
S1132C80089583B390E002C0959587956A95E2F71D
S1132C908170FA018083089580B390E002C0959515
S1132CA087956A95E2F78170FA01808308958430EC
S1132CB0A8F5683098F5813089F028F08230C9F0A1
S1132CC0833011F108952BB381E090E002C0880FA6
S1132CD0991F6A95E2F7822B8BBB089528B381E094
S1132CE090E002C0880F991F6A95E2F7822B88BB97
S1132CF0089525B381E090E002C0880F991F6A957A
S1132D00E2F7822B85BB089522B381E090E002C0F4
S1132D10880F991F6A95E2F7822B82BB08958FB7BB
S1132D2080688FBF08958EB580618EBD8EB5886032
S1132D308EBD8FB582608FBD8FB58E7F8FBD8FB5F1
S1132D4080688FBD8FB58F7B8FBD08958EB58061F0
S1132D508EBD8EB588608EBD8FB582608FBD8FB5F8
S1132D608E7F8FBD8FB580628FBD8FB58F7E8FBDF7
S1132D700895CF92DF92EF92FF92CF93DF93EC010D
S1132D806A017B0120E030E048EC52E4C701B6015F
S1132D900E94E519181694F19E0140E050E060E9A4
S1132DA070ED83E090E00E94AA1B2150310937BDE9
S1132DB026BD66B577B56F5F7F4F80E090E00E94D7
S1132DC08B1AA70196010E943D1B20E030E048ECDD
S1132DD052E40E94EA1920E030E040E85FE30E94F8
S1132DE078190E945C1A7BBD6ABD8EB581608EBD68
S1132DF08EB582608EBD8EB58B7F8EBDDF91CF91F7
S1132E00FF90EF90DF90CF900895CF92DF92EF92F2
S1132E10FF92CF93DF93EC016A017B0120E030E065
S1132E2048EC52E4C701B6010E94E519181694F162
S1132E309E0140E050E060E970ED83E090E00E9484
S1132E40AA1B2150310937BD26BD66B577B56F5F22
S1132E507F4F80E090E00E948B1AA70196010E94A8
S1132E603D1B20E030E048EC52E40E94EA1920E0E7
S1132E7030E040E85FE30E9478190E945C1A79BD53
S1132E8068BD8EB581608EBD8EB582608EBD8EB5F7
S1132E908B7F8EBDDF91CF91FF90EF90DF90CF902D
S1132EA0089583B78F7B83BF83B7886083BF83B75D
S1132EB08F7E83BF83B78F7D83BF89B7826089BFCD
S1132EC089EF8CBF089583B7816083BF83B7826025
S1132ED083BF83B78B7F83BF1092900410928F04BB
S1132EE0089583B78E7F83BF83B78D7F83BF83B7F6
S1132EF08B7F83BF0895009721F090939204809371
S1132F009104089588B7826088BF88B7816088BFBC
S1132F1008951F920F920FB60F9211242F933F938F
S1132F204F935F936F937F938F939F93AF93BF93CD
S1132F30EF93FF9380918F04909190040196909366
S1132F40900480938F04883E934069F481E782BFA4
S1132F501092900410928F04E0919304F0919404E1
S1132F60309709F00995FF91EF91BF91AF919F912F
S1132F708F917F916F915F914F913F912F910F901E
S1132F800FBE0F901F9018951F920F920FB60F92BD
S1132F9011242F933F934F935F936F937F938F935A
S1132FA09F93AF93BF93EF93FF9380918F0490917E
S1132FB0900401969093900480938F0488389341F1
S1132FC069F41092900410928F04E0919104F091AE
S1132FD09204309719F009950E948217FF91EF919E
S1132FE0BF91AF919F918F917F916F915F914F911D
S1132FF03F912F910F900FBE0F901F90189585B59C
S11330008F7B85BD85B5886085BD85B58F7E85BD83
S113301085B58F7D85BD89B7806889BF89EF83BDFC
S1133020089585B5816085BD85B5826085BD85B50A
S11330308B7F85BD10929604109295040895009795
S113304021F09093980480939704089588B780683A
S113305088BF88B7806488BF08951F920F920FB607
S11330600F9211242F933F934F935F936F937F930A
S11330708F939F93AF93BF93EF93FF9380919504A6
S11330809091960401969093960480939504883EBB
S1133090934069F481E784BD1092960410929504DC
S11330A0E0919904F0919A04309709F00995FF9101
S11330B0EF91BF91AF919F918F917F916F915F91AC
S11330C04F913F912F910F900FBE0F901F90189525
S11330D01F920F920FB60F9211242F933F934F9389
S11330E05F936F937F938F939F93AF93BF93EF936C
S11330F0FF93809195049091960401969093960481
S1133100809395048838934169F410929604109240
S11331109504E0919704F0919804309719F009957B
S11331200E942618FF91EF91BF91AF919F918F91CB
S11331307F916F915F914F913F912F910F900FBEAF
S11331400F901F9018958CE080B981B18D7F81B963
S113315081B18E7F81B986B7846086BF089586B7B2
S1133160806286BF86B7806886BF06B607FEFDCF3D
S113317081B1887F8830E1F7089586B7806286BF81
S113318086B7806886BF06B607FEFDCF81B1887F0B
S11331908031E1F7089586B7806186BF86B780687D
S11331A086BF0895882394F0880F83B983B18E7FF6
S11331B083B986B78F7D86BF86B7806886BF06B61B
S11331C007FEFDCF81B1887F8831E1F70895882318
S11331D094F0880F83B983B1816083B986B78F7DFA
S11331E086BF86B7806886BF06B607FEFDCF81B16D
S11331F0887F8034E1F7089583B986B7806886BFF5
S113320006B607FEFDCF81B1887F8832E1F70895C5
S1133210FC01892B91F096B7906496BF96B790689D
S113322096BF06B607FEFDCF91B1987F9035E1F7C2
S113323083B1808386B78F7B86BF0895FC01892B79
S113324061F096B7906896BF06B607FEFDCF91B1C0
S1133250987F9835E1F783B1808308958BB18D7F92
S11332608BB987E689B98AB18B7F8AB986E880BD34
S11332708AB180618AB98AB188608AB908958CB9A3
S11332805D9BFECF0895009729F05F9BFECF2CB184
S1133290FC0120830895009769F4089524363105CC
S11332A080F4EFE9FFE03197F1F700C000002F5FF1
S11332B03F4F02C020E030E05F9BF0CF2CB1FC0117
S11332C0208308950F931F93CF93009729F40CC084
S11332D00E943F19CF5F02C08C01C0E0F801EC0FDF
S11332E0F11D80818111F4CFCF911F910F91089529
S11332F05058BB27AA270E9490190C94031B0E94C4
S1133300F51A38F00E94FC1A20F039F49F3F19F4A2
S113331026F40C94F21A0EF4E095E7FB0C94EC1AE4
S1133320E92F0E94141B58F3BA1762077307840726
S1133330950720F079F4A6F50C94361B0EF4E0956D
S11333400B2EBA2FA02D0B01B90190010C01CA015B
S1133350A0011124FF27591B99F0593F50F4503E06
S113336068F11A16F040A22F232F342F4427585FF8
S1133370F3CF469537952795A795F0405395C9F710
S11333807EF41F16BA0B620B730B840BBAF09150C8
S1133390A1F0FF0FBB1F661F771F881FC2F70EC067
S11333A0BA0F621F731F841F48F48795779567953A
S11333B0B795F7959E3F08F0B0CF9395880F08F026
S11333C09927EE0F9795879508950E94C81A08F4D7
S11333D081E008950E94FE190C94031B0E94FC1ABC
S11333E058F00E94F51A40F029F45F3F29F00C943C
S11333F0EC1A51110C94371B0C94F21A0E94141BF2
S113340068F39923B1F3552391F3951B550BBB270F
S1133410AA2762177307840738F09F5F5F4F220F54
S1133420331F441FAA1FA9F335D00E2E3AF0E0E84B
S113343032D091505040E695001CCAF72BD0FE2F95
S113344029D0660F771F881FBB1F26173707480729
S1133450AB07B0E809F0BB0B802DBF01FF279358E1
S11334605F4F3AF09E3F510578F00C94EC1A0C949F
S1133470371B5F3FE4F3983ED4F3869577956795C1
S1133480B795F7959F5FC9F7880F911D9695879516
S113349097F90895E1E0660F771F881FBB1F621735
S11334A073078407BA0720F0621B730B840BBA0BF3
S11334B0EE1F88F7E09508950E941C1B88F09F5723
S11334C098F0B92F9927B751B0F0E1F0660F771F44
S11334D0881F991F1AF0BA95C9F714C0B13091F03A
S11334E00E94361BB1E008950C94361B672F782F89
S11334F08827B85F39F0B93FCCF3869577956795FF
S1133500B395D9F73EF490958095709561957F4F6A
S11335108F4F9F4F0895E89409C097FB3EF4909510
S11335208095709561957F4F8F4F9F4F9923A9F098
S1133530F92F96E9BB279395F69587957795679527
S1133540B795F111F8CFFAF4BB0F11F460FF1BC06B
S11335506F5F7F4F8F4F9F4F16C0882311F096E9FE
S113356011C0772321F09EE8872F762F05C06623AC
S113357071F096E8862F70E060E02AF09A95660F65
S1133580771F881FDAF7880F9695879597F908951E
S1133590990F0008550FAA0BE0E8FEEF1616170660
S11335A0E807F907C0F012161306E407F50798F0C8
S11335B0621B730B840B950B39F40A2661F0232BE1
S11335C0242B252B21F408950A2609F4A140A6955D
S11335D08FEF811D811D089597F99F6780E870E042
S11335E060E008959FEF80EC089500240A94161675
S11335F0170618060906089500240A9412161306DD
S1133600140605060895092E0394000C11F488236A
S113361052F0BB0F40F4BF2B11F460FF04C06F5F86
S11336207F4F8F4F9F4F089557FD9058440F551F5C
S113363059F05F3F71F04795880F97FB991F61F030
S11336409F3F79F087950895121613061406551FA7
S1133650F2CF4695F1DF08C0161617061806991F13
S1133660F1CF86957105610508940895E894BB2708
S113367066277727CB0197F908950E94501B0C9475
S1133680031B0E94F51A38F00E94FC1A20F09523BF
S113369011F00C94EC1A0C94F21A11240C94371BAC
S11336A00E94141B70F3959FC1F3950F50E0551FB2
S11336B0629FF001729FBB27F00DB11D639FAA2783
S11336C0F00DB11DAA1F649F6627B00DA11D661FD2
S11336D0829F2227B00DA11D621F739FB00DA11DF3
S11336E0621F839FA00D611D221F749F3327A00DAD
S11336F0611D231F849F600D211D822F762F6A2F49
S113370011249F5750409AF0F1F088234AF0EE0FAD
S1133710FF1FBB1F661F771F881F91505040A9F7DA
S11337209E3F510580F00C94EC1A0C94371B5F3FBC
S1133730E4F3983ED4F3869577956795B795F79516
S1133740E7959F5FC1F7FE2B880F911D969587958E
S113375097F90895A1E21A2EAA1BBB1BFD010DC007
S1133760AA1FBB1FEE1FFF1FA217B307E407F5072D
S113377020F0A21BB30BE40BF50B661F771F881F09
S1133780991F1A9469F760957095809590959B019F
S1133790AC01BD01CF010895AEE0B0E0E2EDFBE184
S11337A00C948D1E0D891E8986E08C831A830983EF
S11337B08FEF9FE79E838D83AE01475E5F4F6F89D6
S11337C0788DCE0101960E94EE1BEF81F885E00F03
S11337D0F11F10822E96E4E00C94A91EABE0B0E039
S11337E0E4EFFBE10C947F1E6C017B018A01FC0178
S11337F017821682838181FFCCC1CE0101963C01E0
S1133800F6019381F70193FD859193FF81917F01E7
S1133810882309F4BAC1853239F493FD859193FF65
S113382081917F01853229F4B60190E00E94E51D63
S1133830E7CF912C212C312CFFE1F315D8F08B32FA
S113384079F038F4803279F08332A1F4232D2061A9
S11338501DC08D3261F0803369F4232D216016C0C0
S1133860832D8260382EE32DE4603E2E2AC0F32D92
S1133870F8601DC037FC2DC020ED280F2A3040F021
S11338808E32B9F436FC81C1232D2064322E19C046
S113389036FE06C08AE0989E200D1124922E11C097
S11338A0EAE02E9E200D1124222EF32DF0623F2EED
S11338B008C08C3621F4832D8068382E02C08836E7
S11338C041F4F70193FD859193FF81917F0181116B
S11338D0B3CF982F9F7D9554933028F40C5F1F4FDE
S11338E09FE399830DC0833631F0833771F08335BC
S11338F009F059C021C0F801808189830E5F1F4FF0
S113390088248394912C530113C02801F2E04F0EB4
S1133910511CF801A080B18036FE03C0692D70E00F
S113392002C06FEF7FEFC5010E94DA1D4C018201D6
S1133930F32DFF773F2E16C0280122E0420E511CC2
S1133940F801A080B18036FE03C0692D70E002C08A
S11339506FEF7FEFC5010E94CF1D4C01F32DF0687E
S11339603F2E820133FC1BC0822D90E088169906FD
S1133970B0F4B60180E290E00E94E51D2A94F4CFF1
S1133980F50137FC859137FE81915F01B60190E026
S11339900E94E51D21102A9421E0821A91088114C5
S11339A0910471F7E8C0843611F0893641F5F801C5
S11339B037FE07C060817181828193810C5F1F4F44
S11339C008C060817181072E000C880B990B0E5F73
S11339D01F4FF32DFF763F2E97FF09C090958095DA
S11339E0709561957F4F8F4F9F4FF0683F2E2AE06F
S11339F030E0A3010E94211E882E861845C0853719
S1133A0031F4232D2F7EB22E2AE030E025C0932DF1
S1133A10997FB92E8F36C1F018F4883579F0B5C086
S1133A20803719F0883721F0B0C0E92FE061BE2E4D
S1133A30B4FE0DC0FB2DF460BF2E09C034FE0AC0D5
S1133A40292F2660B22E06C028E030E005C020E110
S1133A5030E002C020E132E0F801B7FE07C0608127
S1133A607181828193810C5F1F4F06C060817181D7
S1133A7080E090E00E5F1F4FA3010E94211E882E5C
S1133A808618FB2DFF773F2E36FE0DC0232D2E7F8B
S1133A90A22E891458F434FE0BC032FC09C0832DC5
S1133AA08E7EA82E05C0B82CA32C03C0B82C01C050
S1133AB0B92CA4FE0FC0FE01E80DF11D80818033F6
S1133AC021F49A2D997EA92E09C0A2FE06C0B394B2
S1133AD0B39404C08A2D867809F0B394A3FC11C072
S1133AE0A0FE06C0B21488F4280C922C9B180EC0B9
S1133AF0B21460F4B60180E290E00E94E51DB39434
S1133B00F7CFB21418F42B1802C0982C212CA4FE61
S1133B1010C0B60180E390E00E94E51DA2FE17C02C
S1133B20A1FC03C088E790E002C088E590E0B601FC
S1133B300CC08A2D867859F0A1FE02C08BE201C028
S1133B4080E2A7FC8DE2B60190E00E94E51D891495
S1133B5038F4B60180E390E00E94E51D9A94F7CF13
S1133B608A94F301E80DF11D8081B60190E00E9472
S1133B70E51D8110F5CF222009F442CEB60180E282
S1133B8090E00E94E51D2A94F6CFF6018681978184
S1133B9002C08FEF9FEF2B96E2E10C949B1EFC0179
S1133BA00590615070400110D8F7809590958E0F64
S1133BB09F1F0895FC016150704001900110D8F7D7
S1133BC0809590958E0F9F1F08950F931F93CF9309
S1133BD0DF93FB01238121FD03C08FEF9FEF2CC0F6
S1133BE022FF16C04681578124813581421753072D
S1133BF044F4A081B1819D012F5F3F4F3183208325
S1133C008C93268137812F5F3F4F3783268314C0DF
S1133C108B01EC01FB010084F185E02D0995892BD2
S1133C20E1F6D80116968D919C91179701961796F7
S1133C309C938E931697CE01DF91CF911F910F9194
S1133C400895FA01AA27283051F1203181F1E8942E
S1133C506F936E7F6E5F7F4F8F4F9F4FAF4FB1E07B
S1133C603ED0B4E03CD0670F781F891F9A1FA11D76
S1133C70680F791F8A1F911DA11D6A0F711D811D77
S1133C80911DA11D20D009F468943F912AE0269F3C
S1133C9011243019305D3193DEF6CF010895462F9B
S1133CA04770405D4193B3E00FD0C9F7F6CF462F7C
S1133CB04F70405D4A3318F0495D31FD40524193E5
S1133CC002D0A9F7EACFB4E0A695979587957795A2
S1133CD06795BA95C9F700976105710508959B0129
S1133CE0AC010A2E06945795479537952795BA95B2
S1133CF0C9F7620F731F841F951FA01D08952F928B
S1133D003F924F925F926F927F928F929F92AF9267
S1133D10BF92CF92DF92EF92FF920F931F93CF93B4
S1133D20DF93CDB7DEB7CA1BDB0B0FB6F894DEBF4B
S1133D300FBECDBF09942A88398848885F846E8471
S1133D407D848C849B84AA84B984C884DF80EE80BB
S1133D50FD800C811B81AA81B981CE0FD11D0FB6C4
S1133D60F894DEBF0FBECDBFED010895F894FFCFE8
S1133D70FFFFFFFFFF3132333435363738392A300D
S1133D8023506C6561736520456E746572205573AC
S1133D906572004E616D652650617373776F72644E
S1133DA00050415353574F52443A00456E74657264
S1133DB065642055736572204E616D653A005061EB
S1133DC07373776F72643A00456E7465726564202C
S1133DD0506173733A004143434553532050455255
S1133DE04D49544544004143434553532044454EB3
S1133DF04945440057726F6E672055736572204EB3
S1133E00616D6500506C6561736520547279204161
S1133E106761696E0057726F6E67205061737377C4
S1133E206F726400506C6561736520456E746572D1
S1133E302055736572204E616D6520262050617394
S1133E4073776F726420000A00506C65617365209B
S1133E50456E7465722055736572204E616D6520E0
S1133E60262050617373776F726420752077616EBA
S1133E707420746F206368616E6765000D00506C78
S1133E806561736520456E74657220546865206EA3
S1133E906577205573657220416E64205061737399
S1133EA000557365722044617461204368616E67D4
S1133EB06564205375636365737366756C6C790010
S1133EC057726F6E672055736572204E616D652061
S1133ED06F722070617373776F72640050726573D0
S1133EE073202320746F206C6F67696E0023007346
S1133EF0797374656D206973206265696E672075D6
S1133F00736564206279206C6F61636C20757365DE
S1133F10720073797374656D206973206265696ECC
S1133F206720757365640062792072656D6F7465CE
S1133F30207573657200312D414320322D6C696701
S1133F40687400332D74656D7020342D446F6F7266
S1133F5000352D206368616E676520757365726E28
S1133F60616D6520616E642070617373776F726434
S1133F70004143204973204F6E2F6F666600526FD5
S1133F806F6D2054656D703A202564206300302DD8
S1133F90676F20746F20686F6D650043686F6F737F
S1133FA065206C6967687420746F00636F6E747247
S1133FB06F6C28312D3629004C69676874203120D4
S1133FC06973204F6E00312D546F205475726E202A
S1133FD04974204F6666004C696768742031206913
S1133FE073204F464600312D546F205475726E2055
S1133FF04974204F6E004C696768742032206973DD
S1134000204F6E004C696768742032206973204F1A
S11340104646004C696768742033206973204F6EEC
S1134020004C696768742033206973204F4646004A
S11340304C696768742034206973204F6E004C69A2
S11340406768742034206973204F4646004C6967C2
S113405068742035206973204F6E004C696768745A
S11340602035206973204F4646004C6967687420E8
S113407036206973204F6E004272696768746E65FA
S113408073733A202564250031292B3130203229DD
S11340902D313020302948004C696768742036205F
S11340A06973204F464600446F6F72206973206322
S11340B06C6F73656400312D4F70656E20446F6FB3
S11340C07220302D486F6D6500446F6F72206973E4
S11340D0206F70656E696E6700446F6F722069733C
S11340E0206F70656E00312D436C6F736520446FD3
S11340F06F7220302D486F6D6500446F6F722069B8
S11341007320636C6F73696E67002057656C636F0F
S11341106D6520746F20796F757200202020536DB7
S113412061727420486F6D6500373635343332312F
S113413000313132323333340031303032303033C5
S113414000302D476F20746F20486F6D6500526FEB
S11341506F6D2054656D703A202020630041432028
S11341604973204F6E2F6F666620302D4800526FC2
S11341706F6D2054656D703A202063004272696748
S113418068746E6573733A20202500416363657318
S10D4190732044656E696564000045
S9030000FC
